{
  "_format": "hh-sol-artifact-1",
  "contractName": "Consistently",
  "sourceName": "contracts/Consistenly.sol",
  "abi": [
    {
      "inputs": [],
      "stateMutability": "nonpayable",
      "type": "constructor"
    },
    {
      "anonymous": false,
      "inputs": [
        {
          "indexed": false,
          "internalType": "address",
          "name": "userAddress",
          "type": "address"
        },
        {
          "indexed": false,
          "internalType": "uint256",
          "name": "lastCheckInTime",
          "type": "uint256"
        }
      ],
      "name": "CheckedIn",
      "type": "event"
    },
    {
      "anonymous": false,
      "inputs": [
        {
          "indexed": false,
          "internalType": "address",
          "name": "userAddress",
          "type": "address"
        },
        {
          "indexed": false,
          "internalType": "uint256",
          "name": "weiDeposited",
          "type": "uint256"
        },
        {
          "indexed": false,
          "internalType": "string",
          "name": "habit",
          "type": "string"
        },
        {
          "indexed": false,
          "internalType": "uint256",
          "name": "timeRegistered",
          "type": "uint256"
        },
        {
          "indexed": false,
          "internalType": "bool",
          "name": "active",
          "type": "bool"
        }
      ],
      "name": "IntentionRegistered",
      "type": "event"
    },
    {
      "inputs": [],
      "name": "aavePool",
      "outputs": [
        {
          "internalType": "contract IPool",
          "name": "",
          "type": "address"
        }
      ],
      "stateMutability": "view",
      "type": "function"
    },
    {
      "inputs": [
        {
          "internalType": "address",
          "name": "",
          "type": "address"
        }
      ],
      "name": "checkInCount",
      "outputs": [
        {
          "internalType": "uint8",
          "name": "",
          "type": "uint8"
        }
      ],
      "stateMutability": "view",
      "type": "function"
    },
    {
      "inputs": [],
      "name": "checkin",
      "outputs": [],
      "stateMutability": "nonpayable",
      "type": "function"
    },
    {
      "inputs": [],
      "name": "depositIntoAave",
      "outputs": [],
      "stateMutability": "nonpayable",
      "type": "function"
    },
    {
      "inputs": [],
      "name": "getUserIntention",
      "outputs": [
        {
          "components": [
            {
              "internalType": "uint8",
              "name": "noOfDays",
              "type": "uint8"
            },
            {
              "internalType": "uint8",
              "name": "defaulted",
              "type": "uint8"
            },
            {
              "internalType": "uint256",
              "name": "timeRegistered",
              "type": "uint256"
            },
            {
              "internalType": "uint256",
              "name": "weiDeposited",
              "type": "uint256"
            },
            {
              "internalType": "uint256",
              "name": "weiBalance",
              "type": "uint256"
            },
            {
              "internalType": "string",
              "name": "habit",
              "type": "string"
            },
            {
              "internalType": "address",
              "name": "userAddress",
              "type": "address"
            },
            {
              "internalType": "bool",
              "name": "active",
              "type": "bool"
            }
          ],
          "internalType": "struct Consistently.Intention",
          "name": "",
          "type": "tuple"
        }
      ],
      "stateMutability": "view",
      "type": "function"
    },
    {
      "inputs": [],
      "name": "habit",
      "outputs": [
        {
          "internalType": "contract Habit",
          "name": "",
          "type": "address"
        }
      ],
      "stateMutability": "view",
      "type": "function"
    },
    {
      "inputs": [],
      "name": "habitNFT",
      "outputs": [
        {
          "internalType": "contract HabitNFT",
          "name": "",
          "type": "address"
        }
      ],
      "stateMutability": "view",
      "type": "function"
    },
    {
      "inputs": [
        {
          "internalType": "uint256",
          "name": "",
          "type": "uint256"
        }
      ],
      "name": "intentions",
      "outputs": [
        {
          "internalType": "uint8",
          "name": "noOfDays",
          "type": "uint8"
        },
        {
          "internalType": "uint8",
          "name": "defaulted",
          "type": "uint8"
        },
        {
          "internalType": "uint256",
          "name": "timeRegistered",
          "type": "uint256"
        },
        {
          "internalType": "uint256",
          "name": "weiDeposited",
          "type": "uint256"
        },
        {
          "internalType": "uint256",
          "name": "weiBalance",
          "type": "uint256"
        },
        {
          "internalType": "string",
          "name": "habit",
          "type": "string"
        },
        {
          "internalType": "address",
          "name": "userAddress",
          "type": "address"
        },
        {
          "internalType": "bool",
          "name": "active",
          "type": "bool"
        }
      ],
      "stateMutability": "view",
      "type": "function"
    },
    {
      "inputs": [
        {
          "internalType": "address",
          "name": "",
          "type": "address"
        }
      ],
      "name": "lastCheckIn",
      "outputs": [
        {
          "internalType": "uint256",
          "name": "",
          "type": "uint256"
        }
      ],
      "stateMutability": "view",
      "type": "function"
    },
    {
      "inputs": [
        {
          "internalType": "address",
          "name": "",
          "type": "address"
        }
      ],
      "name": "nextCheckIn",
      "outputs": [
        {
          "internalType": "uint256",
          "name": "",
          "type": "uint256"
        }
      ],
      "stateMutability": "view",
      "type": "function"
    },
    {
      "inputs": [],
      "name": "owner",
      "outputs": [
        {
          "internalType": "address",
          "name": "",
          "type": "address"
        }
      ],
      "stateMutability": "view",
      "type": "function"
    },
    {
      "inputs": [],
      "name": "redeem",
      "outputs": [],
      "stateMutability": "nonpayable",
      "type": "function"
    },
    {
      "inputs": [
        {
          "internalType": "string",
          "name": "_habit",
          "type": "string"
        },
        {
          "internalType": "uint8",
          "name": "_days",
          "type": "uint8"
        }
      ],
      "name": "register",
      "outputs": [],
      "stateMutability": "payable",
      "type": "function"
    },
    {
      "inputs": [
        {
          "internalType": "address",
          "name": "",
          "type": "address"
        }
      ],
      "name": "userAddresses",
      "outputs": [
        {
          "internalType": "bool",
          "name": "",
          "type": "bool"
        }
      ],
      "stateMutability": "view",
      "type": "function"
    },
    {
      "inputs": [
        {
          "internalType": "address",
          "name": "",
          "type": "address"
        }
      ],
      "name": "userIntentions",
      "outputs": [
        {
          "internalType": "uint256",
          "name": "",
          "type": "uint256"
        }
      ],
      "stateMutability": "view",
      "type": "function"
    },
    {
      "inputs": [],
      "name": "withdraw",
      "outputs": [],
      "stateMutability": "payable",
      "type": "function"
    }
  ],
  "bytecode": "0x60806040526040516200001290620001f5565b604051809103906000f0801580156200002f573d6000803e3d6000fd5b50600160006101000a81548173ffffffffffffffffffffffffffffffffffffffff021916908373ffffffffffffffffffffffffffffffffffffffff1602179055506040516200007e9062000203565b604051809103906000f0801580156200009b573d6000803e3d6000fd5b50600260006101000a81548173ffffffffffffffffffffffffffffffffffffffff021916908373ffffffffffffffffffffffffffffffffffffffff1602179055506040518060800160405280604b8152602001620085aa604b9139600590805190602001906200010d92919062000211565b506001600660006101000a81548160ff021916908360ff16021790555060ff600660016101000a81548160ff021916908360ff16021790555061a8c06007553480156200015957600080fd5b5033600460006101000a81548173ffffffffffffffffffffffffffffffffffffffff021916908373ffffffffffffffffffffffffffffffffffffffff16021790555073e91e690407977f0b9fdc655504b895fe4af0c3716000806101000a81548173ffffffffffffffffffffffffffffffffffffffff021916908373ffffffffffffffffffffffffffffffffffffffff16021790555062000326565b61207e80620032f483390190565b613238806200537283390190565b8280546200021f90620002c1565b90600052602060002090601f0160209004810192826200024357600085556200028f565b82601f106200025e57805160ff19168380011785556200028f565b828001600101855582156200028f579182015b828111156200028e57825182559160200191906001019062000271565b5b5090506200029e9190620002a2565b5090565b5b80821115620002bd576000816000905550600101620002a3565b5090565b60006002820490506001821680620002da57607f821691505b60208210811415620002f157620002f0620002f7565b5b50919050565b7f4e487b7100000000000000000000000000000000000000000000000000000000600052602260045260246000fd5b612fbe80620003366000396000f3fe6080604052600436106100f35760003560e01c80639ec11dff1161008a578063c7f62a9711610059578063c7f62a97146102f3578063dedaf7fc1461031e578063ef6fdb1c14610335578063fc86dea714610372576100f3565b80639ec11dff1461025d578063a03e4bc31461029a578063baeb0718146102c5578063be040fb0146102dc576100f3565b8063767b79ed116100c6578063767b79ed146101ae5780638da5cb5b146101ca57806395cfb25a146101f557806398e8ee1414610220576100f3565b806312a6ebba146100f85780633bd9e0861461013c5780633ccfd60b146101675780636b69fd5a14610171575b600080fd5b34801561010457600080fd5b5061011f600480360381019061011a91906120d8565b6103af565b604051610133989796959493929190612870565b60405180910390f35b34801561014857600080fd5b506101516104d6565b60405161015e9190612818565b60405180910390f35b61016f6107c1565b005b34801561017d57600080fd5b506101986004803603810190610193919061205b565b6108bc565b6040516101a5919061283a565b60405180910390f35b6101c860048036038101906101c39190612084565b6108d4565b005b3480156101d657600080fd5b506101df610da0565b6040516101ec9190612510565b60405180910390f35b34801561020157600080fd5b5061020a610dc6565b6040516102179190612682565b60405180910390f35b34801561022c57600080fd5b506102476004803603810190610242919061205b565b610dec565b604051610254919061283a565b60405180910390f35b34801561026957600080fd5b50610284600480360381019061027f919061205b565b610e04565b6040516102919190612855565b60405180910390f35b3480156102a657600080fd5b506102af610e24565b6040516102bc919061269d565b60405180910390f35b3480156102d157600080fd5b506102da610e48565b005b3480156102e857600080fd5b506102f161121c565b005b3480156102ff57600080fd5b50610308611683565b6040516103159190612667565b60405180910390f35b34801561032a57600080fd5b506103336116a9565b005b34801561034157600080fd5b5061035c6004803603810190610357919061205b565b611762565b604051610369919061283a565b60405180910390f35b34801561037e57600080fd5b506103996004803603810190610394919061205b565b61177a565b6040516103a6919061264c565b60405180910390f35b600881815481106103bf57600080fd5b90600052602060002090600602016000915090508060000160009054906101000a900460ff16908060000160019054906101000a900460ff169080600101549080600201549080600301549080600401805461041a90612bb4565b80601f016020809104026020016040519081016040528092919081815260200182805461044690612bb4565b80156104935780601f1061046857610100808354040283529160200191610493565b820191906000526020600020905b81548152906001019060200180831161047657829003601f168201915b5050505050908060050160009054906101000a900473ffffffffffffffffffffffffffffffffffffffff16908060050160149054906101000a900460ff16905088565b6104de611e99565b33600360008273ffffffffffffffffffffffffffffffffffffffff1673ffffffffffffffffffffffffffffffffffffffff16815260200190815260200160002060009054906101000a900460ff1661056b576040517f08c379a0000000000000000000000000000000000000000000000000000000008152600401610562906126b8565b60405180910390fd5b336105758161179a565b6105b4576040517f08c379a00000000000000000000000000000000000000000000000000000000081526004016105ab90612798565b60405180910390fd5b60006001600960003373ffffffffffffffffffffffffffffffffffffffff1673ffffffffffffffffffffffffffffffffffffffff168152602001908152602001600020546106029190612a4b565b9050600060088281548110610640577f4e487b7100000000000000000000000000000000000000000000000000000000600052603260045260246000fd5b9060005260206000209060060201604051806101000160405290816000820160009054906101000a900460ff1660ff1660ff1681526020016000820160019054906101000a900460ff1660ff1660ff1681526020016001820154815260200160028201548152602001600382015481526020016004820180546106c290612bb4565b80601f01602080910402602001604051908101604052809291908181526020018280546106ee90612bb4565b801561073b5780601f106107105761010080835404028352916020019161073b565b820191906000526020600020905b81548152906001019060200180831161071e57829003601f168201915b505050505081526020016005820160009054906101000a900473ffffffffffffffffffffffffffffffffffffffff1673ffffffffffffffffffffffffffffffffffffffff1673ffffffffffffffffffffffffffffffffffffffff1681526020016005820160149054906101000a900460ff16151515158152505090508094505050505090565b600460009054906101000a900473ffffffffffffffffffffffffffffffffffffffff1673ffffffffffffffffffffffffffffffffffffffff163373ffffffffffffffffffffffffffffffffffffffff1614610851576040517f08c379a000000000000000000000000000000000000000000000000000000000815260040161084890612738565b60405180910390fd5b600460009054906101000a900473ffffffffffffffffffffffffffffffffffffffff1673ffffffffffffffffffffffffffffffffffffffff166108fc479081150290604051600060405180830381858888f193505050501580156108b9573d6000803e3d6000fd5b50565b600b6020528060005260406000206000915090505481565b662386f26fc1000034101561091e576040517f08c379a0000000000000000000000000000000000000000000000000000000008152600401610915906127b8565b60405180910390fd5b600660009054906101000a900460ff1660ff168160ff161015610976576040517f08c379a000000000000000000000000000000000000000000000000000000000815260040161096d90612718565b60405180910390fd5b600660019054906101000a900460ff1660ff168160ff1611156109ce576040517f08c379a00000000000000000000000000000000000000000000000000000000081526004016109c5906126d8565b60405180910390fd5b6000600960003373ffffffffffffffffffffffffffffffffffffffff1673ffffffffffffffffffffffffffffffffffffffff1681526020019081526020016000205414610a50576040517f08c379a0000000000000000000000000000000000000000000000000000000008152600401610a47906127f8565b60405180910390fd5b600042905060006040518061010001604052808460ff168152602001600060ff1681526020018381526020013481526020013481526020018581526020013373ffffffffffffffffffffffffffffffffffffffff168152602001600115158152509050600881908060018154018082558091505060019003906000526020600020906006020160009091909190915060008201518160000160006101000a81548160ff021916908360ff16021790555060208201518160000160016101000a81548160ff021916908360ff16021790555060408201518160010155606082015181600201556080820151816003015560a0820151816004019080519060200190610b5b929190611efc565b5060c08201518160050160006101000a81548173ffffffffffffffffffffffffffffffffffffffff021916908373ffffffffffffffffffffffffffffffffffffffff16021790555060e08201518160050160146101000a81548160ff02191690831515021790555050506001600360003373ffffffffffffffffffffffffffffffffffffffff1673ffffffffffffffffffffffffffffffffffffffff16815260200190815260200160002060006101000a81548160ff0219169083151502179055506000600880549050905080600960003373ffffffffffffffffffffffffffffffffffffffff1673ffffffffffffffffffffffffffffffffffffffff168152602001908152602001600020819055506000600c60003373ffffffffffffffffffffffffffffffffffffffff1673ffffffffffffffffffffffffffffffffffffffff16815260200190815260200160002060006101000a81548160ff021916908360ff16021790555082600a60003373ffffffffffffffffffffffffffffffffffffffff1673ffffffffffffffffffffffffffffffffffffffff1681526020019081526020016000208190555060075483610d16919061298d565b600b60003373ffffffffffffffffffffffffffffffffffffffff1673ffffffffffffffffffffffffffffffffffffffff168152602001908152602001600020819055507f337f4807ad781093d5ad55ae237b66e90ee0c4c83f987349e0198892f6328f2e333487866001604051610d919594939291906125f2565b60405180910390a15050505050565b600460009054906101000a900473ffffffffffffffffffffffffffffffffffffffff1681565b600160009054906101000a900473ffffffffffffffffffffffffffffffffffffffff1681565b60096020528060005260406000206000915090505481565b600c6020528060005260406000206000915054906101000a900460ff1681565b60008054906101000a900473ffffffffffffffffffffffffffffffffffffffff1681565b33600360008273ffffffffffffffffffffffffffffffffffffffff1673ffffffffffffffffffffffffffffffffffffffff16815260200190815260200160002060009054906101000a900460ff16610ed5576040517f08c379a0000000000000000000000000000000000000000000000000000000008152600401610ecc906126b8565b60405180910390fd5b33610edf8161179a565b610f1e576040517f08c379a0000000000000000000000000000000000000000000000000000000008152600401610f1590612798565b60405180910390fd5b6000429050600b60003373ffffffffffffffffffffffffffffffffffffffff1673ffffffffffffffffffffffffffffffffffffffff168152602001908152602001600020548111610fa4576040517f08c379a0000000000000000000000000000000000000000000000000000000008152600401610f9b90612778565b60405180910390fd5b600754600b60003373ffffffffffffffffffffffffffffffffffffffff1673ffffffffffffffffffffffffffffffffffffffff16815260200190815260200160002054610ff1919061298d565b8111156110025761100133611a2e565b5b600160009054906101000a900473ffffffffffffffffffffffffffffffffffffffff1673ffffffffffffffffffffffffffffffffffffffff166340c10f1933670de0b6b3a76400006040518363ffffffff1660e01b815260040161106792919061252b565b600060405180830381600087803b15801561108157600080fd5b505af1158015611095573d6000803e3d6000fd5b505050506001600c60003373ffffffffffffffffffffffffffffffffffffffff1673ffffffffffffffffffffffffffffffffffffffff16815260200190815260200160002060009054906101000a900460ff166110f291906129e3565b600c60003373ffffffffffffffffffffffffffffffffffffffff1673ffffffffffffffffffffffffffffffffffffffff16815260200190815260200160002060006101000a81548160ff021916908360ff16021790555080600a60003373ffffffffffffffffffffffffffffffffffffffff1673ffffffffffffffffffffffffffffffffffffffff168152602001908152602001600020819055506007548161119b919061298d565b600b60003373ffffffffffffffffffffffffffffffffffffffff1673ffffffffffffffffffffffffffffffffffffffff168152602001908152602001600020819055507fdddb6e14f7f2101397a6526aab95e964de7f1f44ed06aa47a1c9a0e6b9924456338260405161120f929190612584565b60405180910390a1505050565b33600360008273ffffffffffffffffffffffffffffffffffffffff1673ffffffffffffffffffffffffffffffffffffffff16815260200190815260200160002060009054906101000a900460ff166112a9576040517f08c379a00000000000000000000000000000000000000000000000000000000081526004016112a0906126b8565b60405180910390fd5b336112b38161179a565b6112f2576040517f08c379a00000000000000000000000000000000000000000000000000000000081526004016112e990612798565b60405180910390fd5b336112fc81611c33565b61133b576040517f08c379a000000000000000000000000000000000000000000000000000000000815260040161133290612758565b60405180910390fd5b60006001600960003373ffffffffffffffffffffffffffffffffffffffff1673ffffffffffffffffffffffffffffffffffffffff168152602001908152602001600020546113899190612a4b565b90506000600882815481106113c7577f4e487b7100000000000000000000000000000000000000000000000000000000600052603260045260246000fd5b906000526020600020906006020190506000600960003373ffffffffffffffffffffffffffffffffffffffff1673ffffffffffffffffffffffffffffffffffffffff1681526020019081526020016000208190555060008160050160146101000a81548160ff0219169083151502179055506000600c60003373ffffffffffffffffffffffffffffffffffffffff1673ffffffffffffffffffffffffffffffffffffffff16815260200190815260200160002060006101000a81548160ff021916908360ff160217905550600160009054906101000a900473ffffffffffffffffffffffffffffffffffffffff1673ffffffffffffffffffffffffffffffffffffffff16639dc29fac33600160009054906101000a900473ffffffffffffffffffffffffffffffffffffffff1673ffffffffffffffffffffffffffffffffffffffff166370a08231336040518263ffffffff1660e01b815260040161152c9190612510565b60206040518083038186803b15801561154457600080fd5b505afa158015611558573d6000803e3d6000fd5b505050506040513d601f19601f8201168201806040525081019061157c9190612101565b6040518363ffffffff1660e01b8152600401611599929190612584565b600060405180830381600087803b1580156115b357600080fd5b505af11580156115c7573d6000803e3d6000fd5b50505050600260009054906101000a900473ffffffffffffffffffffffffffffffffffffffff1673ffffffffffffffffffffffffffffffffffffffff1663cf3783433360056040518363ffffffff1660e01b8152600401611629929190612554565b602060405180830381600087803b15801561164357600080fd5b505af1158015611657573d6000803e3d6000fd5b505050506040513d601f19601f8201168201806040525081019061167b9190612101565b505050505050565b600260009054906101000a900473ffffffffffffffffffffffffffffffffffffffff1681565b671bc16d674ec800004711156117605760008054906101000a900473ffffffffffffffffffffffffffffffffffffffff1673ffffffffffffffffffffffffffffffffffffffff1663e8eda9df73eeeeeeeeeeeeeeeeeeeeeeeeeeeeeeeeeeeeeeee473060006040518563ffffffff1660e01b815260040161172d94939291906125ad565b600060405180830381600087803b15801561174757600080fd5b505af115801561175b573d6000803e3d6000fd5b505050505b565b600a6020528060005260406000206000915090505481565b60036020528060005260406000206000915054906101000a900460ff1681565b600080600960008473ffffffffffffffffffffffffffffffffffffffff1673ffffffffffffffffffffffffffffffffffffffff168152602001908152602001600020541161181d576040517f08c379a0000000000000000000000000000000000000000000000000000000008152600401611814906126f8565b60405180910390fd5b60006001600960008573ffffffffffffffffffffffffffffffffffffffff1673ffffffffffffffffffffffffffffffffffffffff1681526020019081526020016000205461186b9190612a4b565b90506000600882815481106118a9577f4e487b7100000000000000000000000000000000000000000000000000000000600052603260045260246000fd5b9060005260206000209060060201604051806101000160405290816000820160009054906101000a900460ff1660ff1660ff1681526020016000820160019054906101000a900460ff1660ff1660ff16815260200160018201548152602001600282015481526020016003820154815260200160048201805461192b90612bb4565b80601f016020809104026020016040519081016040528092919081815260200182805461195790612bb4565b80156119a45780601f10611979576101008083540402835291602001916119a4565b820191906000526020600020905b81548152906001019060200180831161198757829003601f168201915b505050505081526020016005820160009054906101000a900473ffffffffffffffffffffffffffffffffffffffff1673ffffffffffffffffffffffffffffffffffffffff1673ffffffffffffffffffffffffffffffffffffffff1681526020016005820160149054906101000a900460ff16151515158152505090508060e0015192505050919050565b6000600960008373ffffffffffffffffffffffffffffffffffffffff1673ffffffffffffffffffffffffffffffffffffffff1681526020019081526020016000205411611ab0576040517f08c379a0000000000000000000000000000000000000000000000000000000008152600401611aa7906127d8565b60405180910390fd5b60006001600960008473ffffffffffffffffffffffffffffffffffffffff1673ffffffffffffffffffffffffffffffffffffffff16815260200190815260200160002054611afe9190612a4b565b9050600060088281548110611b3c577f4e487b7100000000000000000000000000000000000000000000000000000000600052603260045260246000fd5b9060005260206000209060060201905060048160020154611b5d9190612a1a565b8160030154611b6c9190612a4b565b816003018190555080600001600181819054906101000a900460ff1680929190611b9590612c17565b91906101000a81548160ff021916908360ff1602179055505060048160000160019054906101000a900460ff1660ff161415611c2e5760008160050160146101000a81548160ff0219169083151502179055506000600960008573ffffffffffffffffffffffffffffffffffffffff1673ffffffffffffffffffffffffffffffffffffffff168152602001908152602001600020819055505b505050565b6000806001600960008573ffffffffffffffffffffffffffffffffffffffff1673ffffffffffffffffffffffffffffffffffffffff16815260200190815260200160002054611c829190612a4b565b9050600060088281548110611cc0577f4e487b7100000000000000000000000000000000000000000000000000000000600052603260045260246000fd5b9060005260206000209060060201604051806101000160405290816000820160009054906101000a900460ff1660ff1660ff1681526020016000820160019054906101000a900460ff1660ff1660ff168152602001600182015481526020016002820154815260200160038201548152602001600482018054611d4290612bb4565b80601f0160208091040260200160405190810160405280929190818152602001828054611d6e90612bb4565b8015611dbb5780601f10611d9057610100808354040283529160200191611dbb565b820191906000526020600020905b815481529060010190602001808311611d9e57829003601f168201915b505050505081526020016005820160009054906101000a900473ffffffffffffffffffffffffffffffffffffffff1673ffffffffffffffffffffffffffffffffffffffff1673ffffffffffffffffffffffffffffffffffffffff1681526020016005820160149054906101000a900460ff1615151515815250509050806000015160ff16600c60008673ffffffffffffffffffffffffffffffffffffffff1673ffffffffffffffffffffffffffffffffffffffff16815260200190815260200160002060009054906101000a900460ff1660ff161492505050919050565b604051806101000160405280600060ff168152602001600060ff16815260200160008152602001600081526020016000815260200160608152602001600073ffffffffffffffffffffffffffffffffffffffff1681526020016000151581525090565b828054611f0890612bb4565b90600052602060002090601f016020900481019282611f2a5760008555611f71565b82601f10611f4357805160ff1916838001178555611f71565b82800160010185558215611f71579182015b82811115611f70578251825591602001919060010190611f55565b5b509050611f7e9190611f82565b5090565b5b80821115611f9b576000816000905550600101611f83565b5090565b6000611fb2611fad8461291a565b6128f5565b905082815260208101848484011115611fca57600080fd5b611fd5848285612b72565b509392505050565b600081359050611fec81612f43565b92915050565b600082601f83011261200357600080fd5b8135612013848260208601611f9f565b91505092915050565b60008135905061202b81612f5a565b92915050565b60008151905061204081612f5a565b92915050565b60008135905061205581612f71565b92915050565b60006020828403121561206d57600080fd5b600061207b84828501611fdd565b91505092915050565b6000806040838503121561209757600080fd5b600083013567ffffffffffffffff8111156120b157600080fd5b6120bd85828601611ff2565b92505060206120ce85828601612046565b9150509250929050565b6000602082840312156120ea57600080fd5b60006120f88482850161201c565b91505092915050565b60006020828403121561211357600080fd5b600061212184828501612031565b91505092915050565b61213381612a7f565b82525050565b61214281612a7f565b82525050565b61215181612a91565b82525050565b61216081612a91565b82525050565b61216f81612ae2565b82525050565b61217e81612b06565b82525050565b61218d81612b2a565b82525050565b61219c81612b4e565b82525050565b6121ab81612b60565b82525050565b60006121bc82612960565b6121c6818561296b565b93506121d6818560208601612b81565b6121df81612cfd565b840191505092915050565b60006121f582612960565b6121ff818561297c565b935061220f818560208601612b81565b61221881612cfd565b840191505092915050565b6000815461223081612bb4565b61223a818661297c565b9450600182166000811461225557600181146122675761229a565b60ff198316865260208601935061229a565b6122708561294b565b60005b8381101561229257815481890152600182019150602081019050612273565b808801955050505b50505092915050565b60006122b0601b8361297c565b91506122bb82612d0e565b602082019050919050565b60006122d3601e8361297c565b91506122de82612d37565b602082019050919050565b60006122f6601c8361297c565b915061230182612d60565b602082019050919050565b6000612319601d8361297c565b915061232482612d89565b602082019050919050565b600061233c601d8361297c565b915061234782612db2565b602082019050919050565b600061235f60188361297c565b915061236a82612ddb565b602082019050919050565b600061238260228361297c565b915061238d82612e04565b604082019050919050565b60006123a560198361297c565b91506123b082612e53565b602082019050919050565b60006123c860218361297c565b91506123d382612e7c565b604082019050919050565b60006123eb60208361297c565b91506123f682612ecb565b602082019050919050565b600061240e602d8361297c565b915061241982612ef4565b604082019050919050565b60006101008301600083015161243d60008601826124f2565b50602083015161245060208601826124f2565b50604083015161246360408601826124d4565b50606083015161247660608601826124d4565b50608083015161248960808601826124d4565b5060a083015184820360a08601526124a182826121b1565b91505060c08301516124b660c086018261212a565b5060e08301516124c960e0860182612148565b508091505092915050565b6124dd81612acb565b82525050565b6124ec81612acb565b82525050565b6124fb81612ad5565b82525050565b61250a81612ad5565b82525050565b60006020820190506125256000830184612139565b92915050565b60006040820190506125406000830185612139565b61254d60208301846121a2565b9392505050565b60006040820190506125696000830185612139565b818103602083015261257b8184612223565b90509392505050565b60006040820190506125996000830185612139565b6125a660208301846124e3565b9392505050565b60006080820190506125c26000830187612139565b6125cf60208301866124e3565b6125dc6040830185612139565b6125e96060830184612193565b95945050505050565b600060a0820190506126076000830188612139565b61261460208301876124e3565b818103604083015261262681866121ea565b905061263560608301856124e3565b6126426080830184612157565b9695505050505050565b60006020820190506126616000830184612157565b92915050565b600060208201905061267c6000830184612166565b92915050565b60006020820190506126976000830184612175565b92915050565b60006020820190506126b26000830184612184565b92915050565b600060208201905081810360008301526126d1816122a3565b9050919050565b600060208201905081810360008301526126f1816122c6565b9050919050565b60006020820190508181036000830152612711816122e9565b9050919050565b600060208201905081810360008301526127318161230c565b9050919050565b600060208201905081810360008301526127518161232f565b9050919050565b6000602082019050818103600083015261277181612352565b9050919050565b6000602082019050818103600083015261279181612375565b9050919050565b600060208201905081810360008301526127b181612398565b9050919050565b600060208201905081810360008301526127d1816123bb565b9050919050565b600060208201905081810360008301526127f1816123de565b9050919050565b6000602082019050818103600083015261281181612401565b9050919050565b600060208201905081810360008301526128328184612424565b905092915050565b600060208201905061284f60008301846124e3565b92915050565b600060208201905061286a6000830184612501565b92915050565b600061010082019050612886600083018b612501565b612893602083018a612501565b6128a060408301896124e3565b6128ad60608301886124e3565b6128ba60808301876124e3565b81810360a08301526128cc81866121ea565b90506128db60c0830185612139565b6128e860e0830184612157565b9998505050505050505050565b60006128ff612910565b905061290b8282612be6565b919050565b6000604051905090565b600067ffffffffffffffff82111561293557612934612cce565b5b61293e82612cfd565b9050602081019050919050565b60008190508160005260206000209050919050565b600081519050919050565b600082825260208201905092915050565b600082825260208201905092915050565b600061299882612acb565b91506129a383612acb565b9250827fffffffffffffffffffffffffffffffffffffffffffffffffffffffffffffffff038211156129d8576129d7612c41565b5b828201905092915050565b60006129ee82612ad5565b91506129f983612ad5565b92508260ff03821115612a0f57612a0e612c41565b5b828201905092915050565b6000612a2582612acb565b9150612a3083612acb565b925082612a4057612a3f612c70565b5b828204905092915050565b6000612a5682612acb565b9150612a6183612acb565b925082821015612a7457612a73612c41565b5b828203905092915050565b6000612a8a82612aab565b9050919050565b60008115159050919050565b600061ffff82169050919050565b600073ffffffffffffffffffffffffffffffffffffffff82169050919050565b6000819050919050565b600060ff82169050919050565b6000612aed82612af4565b9050919050565b6000612aff82612aab565b9050919050565b6000612b1182612b18565b9050919050565b6000612b2382612aab565b9050919050565b6000612b3582612b3c565b9050919050565b6000612b4782612aab565b9050919050565b6000612b5982612a9d565b9050919050565b6000612b6b82612acb565b9050919050565b82818337600083830152505050565b60005b83811015612b9f578082015181840152602081019050612b84565b83811115612bae576000848401525b50505050565b60006002820490506001821680612bcc57607f821691505b60208210811415612be057612bdf612c9f565b5b50919050565b612bef82612cfd565b810181811067ffffffffffffffff82111715612c0e57612c0d612cce565b5b80604052505050565b6000612c2282612ad5565b915060ff821415612c3657612c35612c41565b5b600182019050919050565b7f4e487b7100000000000000000000000000000000000000000000000000000000600052601160045260246000fd5b7f4e487b7100000000000000000000000000000000000000000000000000000000600052601260045260246000fd5b7f4e487b7100000000000000000000000000000000000000000000000000000000600052602260045260246000fd5b7f4e487b7100000000000000000000000000000000000000000000000000000000600052604160045260246000fd5b6000601f19601f8301169050919050565b7f4f6e6c7920526567697374656420557365727320416c6c6f7765640000000000600082015250565b7f4d6178696d756d206f662032353520646179732041636365707461626c650000600082015250565b7f5573657220496e74656e74696f6e206973206e6f742061637469766500000000600082015250565b7f4d696e696d756d206f6620323120646179732041636365707461626c65000000600082015250565b7f6f6e6c79206f776e65722063616e2077697468647261772066756e6473000000600082015250565b7f517565737420686173206265656e20636f6d706c657465640000000000000000600082015250565b7f596f752063616e6e6f7420636865636b696e2077697468696e20323420486f7560008201527f7273000000000000000000000000000000000000000000000000000000000000602082015250565b7f4f6e6c792061637469766520757365727320416c6c6f77656400000000000000600082015250565b7f4d696e696d756d20416d6f756e74206f66202e3120457468205265717569726560008201527f6400000000000000000000000000000000000000000000000000000000000000602082015250565b7f5573657220686173206e6f205265676973746572656420496e74656e74696f6e600082015250565b7f596f752063616e206f6e6c792068617665206f6e65206861626974207472616360008201527f6b656420617420612074696d6500000000000000000000000000000000000000602082015250565b612f4c81612a7f565b8114612f5757600080fd5b50565b612f6381612acb565b8114612f6e57600080fd5b50565b612f7a81612ad5565b8114612f8557600080fd5b5056fea2646970667358221220b53f39e9c3bca0db396384386339bf77aafa6ad724e90f8ab0064153d18fbdd964736f6c6343000801003360806040523480156200001157600080fd5b506040518060400160405280600781526020017f48616269747632000000000000000000000000000000000000000000000000008152506040518060400160405280600381526020017f4842540000000000000000000000000000000000000000000000000000000000815250816003908051906020019062000096929190620001a6565b508060049080519060200190620000af929190620001a6565b505050620000d2620000c6620000d860201b60201c565b620000e060201b60201c565b620002bb565b600033905090565b6000600560009054906101000a900473ffffffffffffffffffffffffffffffffffffffff16905081600560006101000a81548173ffffffffffffffffffffffffffffffffffffffff021916908373ffffffffffffffffffffffffffffffffffffffff1602179055508173ffffffffffffffffffffffffffffffffffffffff168173ffffffffffffffffffffffffffffffffffffffff167f8be0079c531659141344cd1fd0a4f28419497f9722a3daafe3b4186f6b6457e060405160405180910390a35050565b828054620001b49062000256565b90600052602060002090601f016020900481019282620001d8576000855562000224565b82601f10620001f357805160ff191683800117855562000224565b8280016001018555821562000224579182015b828111156200022357825182559160200191906001019062000206565b5b50905062000233919062000237565b5090565b5b808211156200025257600081600090555060010162000238565b5090565b600060028204905060018216806200026f57607f821691505b602082108114156200028657620002856200028c565b5b50919050565b7f4e487b7100000000000000000000000000000000000000000000000000000000600052602260045260246000fd5b611db380620002cb6000396000f3fe608060405234801561001057600080fd5b50600436106101005760003560e01c8063715018a611610097578063a457c2d711610066578063a457c2d71461029d578063a9059cbb146102cd578063dd62ed3e146102fd578063f2fde38b1461032d57610100565b8063715018a61461023b5780638da5cb5b1461024557806395d89b41146102635780639dc29fac1461028157610100565b8063313ce567116100d3578063313ce567146101a157806339509351146101bf57806340c10f19146101ef57806370a082311461020b57610100565b806306fdde0314610105578063095ea7b31461012357806318160ddd1461015357806323b872dd14610171575b600080fd5b61010d610349565b60405161011a9190611666565b60405180910390f35b61013d600480360381019061013891906113db565b6103db565b60405161014a919061164b565b60405180910390f35b61015b6103fe565b6040516101689190611808565b60405180910390f35b61018b6004803603810190610186919061138c565b610408565b604051610198919061164b565b60405180910390f35b6101a9610437565b6040516101b69190611823565b60405180910390f35b6101d960048036038101906101d491906113db565b610440565b6040516101e6919061164b565b60405180910390f35b610209600480360381019061020491906113db565b6104ea565b005b61022560048036038101906102209190611327565b610574565b6040516102329190611808565b60405180910390f35b6102436105bc565b005b61024d610644565b60405161025a9190611630565b60405180910390f35b61026b61066e565b6040516102789190611666565b60405180910390f35b61029b600480360381019061029691906113db565b610700565b005b6102b760048036038101906102b291906113db565b61078a565b6040516102c4919061164b565b60405180910390f35b6102e760048036038101906102e291906113db565b610874565b6040516102f4919061164b565b60405180910390f35b61031760048036038101906103129190611350565b610897565b6040516103249190611808565b60405180910390f35b61034760048036038101906103429190611327565b61091e565b005b6060600380546103589061196c565b80601f01602080910402602001604051908101604052809291908181526020018280546103849061196c565b80156103d15780601f106103a6576101008083540402835291602001916103d1565b820191906000526020600020905b8154815290600101906020018083116103b457829003601f168201915b5050505050905090565b6000806103e6610a16565b90506103f3818585610a1e565b600191505092915050565b6000600254905090565b600080610413610a16565b9050610420858285610be9565b61042b858585610c75565b60019150509392505050565b60006012905090565b60008061044b610a16565b90506104df818585600160008673ffffffffffffffffffffffffffffffffffffffff1673ffffffffffffffffffffffffffffffffffffffff16815260200190815260200160002060008973ffffffffffffffffffffffffffffffffffffffff1673ffffffffffffffffffffffffffffffffffffffff168152602001908152602001600020546104da919061185a565b610a1e565b600191505092915050565b6104f2610a16565b73ffffffffffffffffffffffffffffffffffffffff16610510610644565b73ffffffffffffffffffffffffffffffffffffffff1614610566576040517f08c379a000000000000000000000000000000000000000000000000000000000815260040161055d90611748565b60405180910390fd5b6105708282610ef6565b5050565b60008060008373ffffffffffffffffffffffffffffffffffffffff1673ffffffffffffffffffffffffffffffffffffffff168152602001908152602001600020549050919050565b6105c4610a16565b73ffffffffffffffffffffffffffffffffffffffff166105e2610644565b73ffffffffffffffffffffffffffffffffffffffff1614610638576040517f08c379a000000000000000000000000000000000000000000000000000000000815260040161062f90611748565b60405180910390fd5b6106426000611056565b565b6000600560009054906101000a900473ffffffffffffffffffffffffffffffffffffffff16905090565b60606004805461067d9061196c565b80601f01602080910402602001604051908101604052809291908181526020018280546106a99061196c565b80156106f65780601f106106cb576101008083540402835291602001916106f6565b820191906000526020600020905b8154815290600101906020018083116106d957829003601f168201915b5050505050905090565b610708610a16565b73ffffffffffffffffffffffffffffffffffffffff16610726610644565b73ffffffffffffffffffffffffffffffffffffffff161461077c576040517f08c379a000000000000000000000000000000000000000000000000000000000815260040161077390611748565b60405180910390fd5b610786828261111c565b5050565b600080610795610a16565b90506000600160008373ffffffffffffffffffffffffffffffffffffffff1673ffffffffffffffffffffffffffffffffffffffff16815260200190815260200160002060008673ffffffffffffffffffffffffffffffffffffffff1673ffffffffffffffffffffffffffffffffffffffff1681526020019081526020016000205490508381101561085b576040517f08c379a0000000000000000000000000000000000000000000000000000000008152600401610852906117c8565b60405180910390fd5b6108688286868403610a1e565b60019250505092915050565b60008061087f610a16565b905061088c818585610c75565b600191505092915050565b6000600160008473ffffffffffffffffffffffffffffffffffffffff1673ffffffffffffffffffffffffffffffffffffffff16815260200190815260200160002060008373ffffffffffffffffffffffffffffffffffffffff1673ffffffffffffffffffffffffffffffffffffffff16815260200190815260200160002054905092915050565b610926610a16565b73ffffffffffffffffffffffffffffffffffffffff16610944610644565b73ffffffffffffffffffffffffffffffffffffffff161461099a576040517f08c379a000000000000000000000000000000000000000000000000000000000815260040161099190611748565b60405180910390fd5b600073ffffffffffffffffffffffffffffffffffffffff168173ffffffffffffffffffffffffffffffffffffffff161415610a0a576040517f08c379a0000000000000000000000000000000000000000000000000000000008152600401610a01906116c8565b60405180910390fd5b610a1381611056565b50565b600033905090565b600073ffffffffffffffffffffffffffffffffffffffff168373ffffffffffffffffffffffffffffffffffffffff161415610a8e576040517f08c379a0000000000000000000000000000000000000000000000000000000008152600401610a85906117a8565b60405180910390fd5b600073ffffffffffffffffffffffffffffffffffffffff168273ffffffffffffffffffffffffffffffffffffffff161415610afe576040517f08c379a0000000000000000000000000000000000000000000000000000000008152600401610af5906116e8565b60405180910390fd5b80600160008573ffffffffffffffffffffffffffffffffffffffff1673ffffffffffffffffffffffffffffffffffffffff16815260200190815260200160002060008473ffffffffffffffffffffffffffffffffffffffff1673ffffffffffffffffffffffffffffffffffffffff168152602001908152602001600020819055508173ffffffffffffffffffffffffffffffffffffffff168373ffffffffffffffffffffffffffffffffffffffff167f8c5be1e5ebec7d5bd14f71427d1e84f3dd0314c0f7b2291e5b200ac8c7c3b92583604051610bdc9190611808565b60405180910390a3505050565b6000610bf58484610897565b90507fffffffffffffffffffffffffffffffffffffffffffffffffffffffffffffffff8114610c6f5781811015610c61576040517f08c379a0000000000000000000000000000000000000000000000000000000008152600401610c5890611708565b60405180910390fd5b610c6e8484848403610a1e565b5b50505050565b600073ffffffffffffffffffffffffffffffffffffffff168373ffffffffffffffffffffffffffffffffffffffff161415610ce5576040517f08c379a0000000000000000000000000000000000000000000000000000000008152600401610cdc90611788565b60405180910390fd5b600073ffffffffffffffffffffffffffffffffffffffff168273ffffffffffffffffffffffffffffffffffffffff161415610d55576040517f08c379a0000000000000000000000000000000000000000000000000000000008152600401610d4c90611688565b60405180910390fd5b610d608383836112f3565b60008060008573ffffffffffffffffffffffffffffffffffffffff1673ffffffffffffffffffffffffffffffffffffffff16815260200190815260200160002054905081811015610de6576040517f08c379a0000000000000000000000000000000000000000000000000000000008152600401610ddd90611728565b60405180910390fd5b8181036000808673ffffffffffffffffffffffffffffffffffffffff1673ffffffffffffffffffffffffffffffffffffffff16815260200190815260200160002081905550816000808573ffffffffffffffffffffffffffffffffffffffff1673ffffffffffffffffffffffffffffffffffffffff1681526020019081526020016000206000828254610e79919061185a565b925050819055508273ffffffffffffffffffffffffffffffffffffffff168473ffffffffffffffffffffffffffffffffffffffff167fddf252ad1be2c89b69c2b068fc378daa952ba7f163c4a11628f55a4df523b3ef84604051610edd9190611808565b60405180910390a3610ef08484846112f8565b50505050565b600073ffffffffffffffffffffffffffffffffffffffff168273ffffffffffffffffffffffffffffffffffffffff161415610f66576040517f08c379a0000000000000000000000000000000000000000000000000000000008152600401610f5d906117e8565b60405180910390fd5b610f72600083836112f3565b8060026000828254610f84919061185a565b92505081905550806000808473ffffffffffffffffffffffffffffffffffffffff1673ffffffffffffffffffffffffffffffffffffffff1681526020019081526020016000206000828254610fd9919061185a565b925050819055508173ffffffffffffffffffffffffffffffffffffffff16600073ffffffffffffffffffffffffffffffffffffffff167fddf252ad1be2c89b69c2b068fc378daa952ba7f163c4a11628f55a4df523b3ef8360405161103e9190611808565b60405180910390a3611052600083836112f8565b5050565b6000600560009054906101000a900473ffffffffffffffffffffffffffffffffffffffff16905081600560006101000a81548173ffffffffffffffffffffffffffffffffffffffff021916908373ffffffffffffffffffffffffffffffffffffffff1602179055508173ffffffffffffffffffffffffffffffffffffffff168173ffffffffffffffffffffffffffffffffffffffff167f8be0079c531659141344cd1fd0a4f28419497f9722a3daafe3b4186f6b6457e060405160405180910390a35050565b600073ffffffffffffffffffffffffffffffffffffffff168273ffffffffffffffffffffffffffffffffffffffff16141561118c576040517f08c379a000000000000000000000000000000000000000000000000000000000815260040161118390611768565b60405180910390fd5b611198826000836112f3565b60008060008473ffffffffffffffffffffffffffffffffffffffff1673ffffffffffffffffffffffffffffffffffffffff1681526020019081526020016000205490508181101561121e576040517f08c379a0000000000000000000000000000000000000000000000000000000008152600401611215906116a8565b60405180910390fd5b8181036000808573ffffffffffffffffffffffffffffffffffffffff1673ffffffffffffffffffffffffffffffffffffffff16815260200190815260200160002081905550816002600082825461127591906118b0565b92505081905550600073ffffffffffffffffffffffffffffffffffffffff168373ffffffffffffffffffffffffffffffffffffffff167fddf252ad1be2c89b69c2b068fc378daa952ba7f163c4a11628f55a4df523b3ef846040516112da9190611808565b60405180910390a36112ee836000846112f8565b505050565b505050565b505050565b60008135905061130c81611d4f565b92915050565b60008135905061132181611d66565b92915050565b60006020828403121561133957600080fd5b6000611347848285016112fd565b91505092915050565b6000806040838503121561136357600080fd5b6000611371858286016112fd565b9250506020611382858286016112fd565b9150509250929050565b6000806000606084860312156113a157600080fd5b60006113af868287016112fd565b93505060206113c0868287016112fd565b92505060406113d186828701611312565b9150509250925092565b600080604083850312156113ee57600080fd5b60006113fc858286016112fd565b925050602061140d85828601611312565b9150509250929050565b611420816118e4565b82525050565b61142f816118f6565b82525050565b60006114408261183e565b61144a8185611849565b935061145a818560208601611939565b611463816119fc565b840191505092915050565b600061147b602383611849565b915061148682611a0d565b604082019050919050565b600061149e602283611849565b91506114a982611a5c565b604082019050919050565b60006114c1602683611849565b91506114cc82611aab565b604082019050919050565b60006114e4602283611849565b91506114ef82611afa565b604082019050919050565b6000611507601d83611849565b915061151282611b49565b602082019050919050565b600061152a602683611849565b915061153582611b72565b604082019050919050565b600061154d602083611849565b915061155882611bc1565b602082019050919050565b6000611570602183611849565b915061157b82611bea565b604082019050919050565b6000611593602583611849565b915061159e82611c39565b604082019050919050565b60006115b6602483611849565b91506115c182611c88565b604082019050919050565b60006115d9602583611849565b91506115e482611cd7565b604082019050919050565b60006115fc601f83611849565b915061160782611d26565b602082019050919050565b61161b81611922565b82525050565b61162a8161192c565b82525050565b60006020820190506116456000830184611417565b92915050565b60006020820190506116606000830184611426565b92915050565b600060208201905081810360008301526116808184611435565b905092915050565b600060208201905081810360008301526116a18161146e565b9050919050565b600060208201905081810360008301526116c181611491565b9050919050565b600060208201905081810360008301526116e1816114b4565b9050919050565b60006020820190508181036000830152611701816114d7565b9050919050565b60006020820190508181036000830152611721816114fa565b9050919050565b600060208201905081810360008301526117418161151d565b9050919050565b6000602082019050818103600083015261176181611540565b9050919050565b6000602082019050818103600083015261178181611563565b9050919050565b600060208201905081810360008301526117a181611586565b9050919050565b600060208201905081810360008301526117c1816115a9565b9050919050565b600060208201905081810360008301526117e1816115cc565b9050919050565b60006020820190508181036000830152611801816115ef565b9050919050565b600060208201905061181d6000830184611612565b92915050565b60006020820190506118386000830184611621565b92915050565b600081519050919050565b600082825260208201905092915050565b600061186582611922565b915061187083611922565b9250827fffffffffffffffffffffffffffffffffffffffffffffffffffffffffffffffff038211156118a5576118a461199e565b5b828201905092915050565b60006118bb82611922565b91506118c683611922565b9250828210156118d9576118d861199e565b5b828203905092915050565b60006118ef82611902565b9050919050565b60008115159050919050565b600073ffffffffffffffffffffffffffffffffffffffff82169050919050565b6000819050919050565b600060ff82169050919050565b60005b8381101561195757808201518184015260208101905061193c565b83811115611966576000848401525b50505050565b6000600282049050600182168061198457607f821691505b60208210811415611998576119976119cd565b5b50919050565b7f4e487b7100000000000000000000000000000000000000000000000000000000600052601160045260246000fd5b7f4e487b7100000000000000000000000000000000000000000000000000000000600052602260045260246000fd5b6000601f19601f8301169050919050565b7f45524332303a207472616e7366657220746f20746865207a65726f206164647260008201527f6573730000000000000000000000000000000000000000000000000000000000602082015250565b7f45524332303a206275726e20616d6f756e7420657863656564732062616c616e60008201527f6365000000000000000000000000000000000000000000000000000000000000602082015250565b7f4f776e61626c653a206e6577206f776e657220697320746865207a65726f206160008201527f6464726573730000000000000000000000000000000000000000000000000000602082015250565b7f45524332303a20617070726f766520746f20746865207a65726f20616464726560008201527f7373000000000000000000000000000000000000000000000000000000000000602082015250565b7f45524332303a20696e73756666696369656e7420616c6c6f77616e6365000000600082015250565b7f45524332303a207472616e7366657220616d6f756e742065786365656473206260008201527f616c616e63650000000000000000000000000000000000000000000000000000602082015250565b7f4f776e61626c653a2063616c6c6572206973206e6f7420746865206f776e6572600082015250565b7f45524332303a206275726e2066726f6d20746865207a65726f2061646472657360008201527f7300000000000000000000000000000000000000000000000000000000000000602082015250565b7f45524332303a207472616e736665722066726f6d20746865207a65726f20616460008201527f6472657373000000000000000000000000000000000000000000000000000000602082015250565b7f45524332303a20617070726f76652066726f6d20746865207a65726f2061646460008201527f7265737300000000000000000000000000000000000000000000000000000000602082015250565b7f45524332303a2064656372656173656420616c6c6f77616e63652062656c6f7760008201527f207a65726f000000000000000000000000000000000000000000000000000000602082015250565b7f45524332303a206d696e7420746f20746865207a65726f206164647265737300600082015250565b611d58816118e4565b8114611d6357600080fd5b50565b611d6f81611922565b8114611d7a57600080fd5b5056fea2646970667358221220b6d5a9eb4df98f593442112aafa8a908ec10d114bbcefc4d93335e5b2443f18964736f6c6343000801003360806040523480156200001157600080fd5b506040518060400160405280600881526020017f48616269744e46540000000000000000000000000000000000000000000000008152506040518060400160405280600381526020017f4842540000000000000000000000000000000000000000000000000000000000815250816000908051906020019062000096929190620001a6565b508060019080519060200190620000af929190620001a6565b505050620000d2620000c6620000d860201b60201c565b620000e060201b60201c565b620002bb565b600033905090565b6000600760009054906101000a900473ffffffffffffffffffffffffffffffffffffffff16905081600760006101000a81548173ffffffffffffffffffffffffffffffffffffffff021916908373ffffffffffffffffffffffffffffffffffffffff1602179055508173ffffffffffffffffffffffffffffffffffffffff168173ffffffffffffffffffffffffffffffffffffffff167f8be0079c531659141344cd1fd0a4f28419497f9722a3daafe3b4186f6b6457e060405160405180910390a35050565b828054620001b49062000256565b90600052602060002090601f016020900481019282620001d8576000855562000224565b82601f10620001f357805160ff191683800117855562000224565b8280016001018555821562000224579182015b828111156200022357825182559160200191906001019062000206565b5b50905062000233919062000237565b5090565b5b808211156200025257600081600090555060010162000238565b5090565b600060028204905060018216806200026f57607f821691505b602082108114156200028657620002856200028c565b5b50919050565b7f4e487b7100000000000000000000000000000000000000000000000000000000600052602260045260246000fd5b612f6d80620002cb6000396000f3fe608060405234801561001057600080fd5b506004361061010b5760003560e01c8063715018a6116100a2578063b88d4fde11610071578063b88d4fde146102a4578063c87b56dd146102c0578063cf378343146102f0578063e985e9c514610320578063f2fde38b146103505761010b565b8063715018a6146102425780638da5cb5b1461024c57806395d89b411461026a578063a22cb465146102885761010b565b806323b872dd116100de57806323b872dd146101aa57806342842e0e146101c65780636352211e146101e257806370a08231146102125761010b565b806301ffc9a71461011057806306fdde0314610140578063081812fc1461015e578063095ea7b31461018e575b600080fd5b61012a60048036038101906101259190611f1c565b61036c565b6040516101379190612368565b60405180910390f35b61014861044e565b6040516101559190612383565b60405180910390f35b61017860048036038101906101739190611f6e565b6104e0565b6040516101859190612301565b60405180910390f35b6101a860048036038101906101a39190611ee0565b610565565b005b6101c460048036038101906101bf9190611d86565b61067d565b005b6101e060048036038101906101db9190611d86565b6106dd565b005b6101fc60048036038101906101f79190611f6e565b6106fd565b6040516102099190612301565b60405180910390f35b61022c60048036038101906102279190611d21565b6107af565b60405161023991906125e5565b60405180910390f35b61024a610867565b005b6102546108ef565b6040516102619190612301565b60405180910390f35b610272610919565b60405161027f9190612383565b60405180910390f35b6102a2600480360381019061029d9190611e50565b6109ab565b005b6102be60048036038101906102b99190611dd5565b6109c1565b005b6102da60048036038101906102d59190611f6e565b610a23565b6040516102e79190612383565b60405180910390f35b61030a60048036038101906103059190611e8c565b610b75565b60405161031791906125e5565b60405180910390f35b61033a60048036038101906103359190611d4a565b610bad565b6040516103479190612368565b60405180910390f35b61036a60048036038101906103659190611d21565b610c41565b005b60007f80ac58cd000000000000000000000000000000000000000000000000000000007bffffffffffffffffffffffffffffffffffffffffffffffffffffffff1916827bffffffffffffffffffffffffffffffffffffffffffffffffffffffff1916148061043757507f5b5e139f000000000000000000000000000000000000000000000000000000007bffffffffffffffffffffffffffffffffffffffffffffffffffffffff1916827bffffffffffffffffffffffffffffffffffffffffffffffffffffffff1916145b80610447575061044682610d39565b5b9050919050565b60606000805461045d9061283b565b80601f01602080910402602001604051908101604052809291908181526020018280546104899061283b565b80156104d65780601f106104ab576101008083540402835291602001916104d6565b820191906000526020600020905b8154815290600101906020018083116104b957829003601f168201915b5050505050905090565b60006104eb82610da3565b61052a576040517f08c379a000000000000000000000000000000000000000000000000000000000815260040161052190612545565b60405180910390fd5b6004600083815260200190815260200160002060009054906101000a900473ffffffffffffffffffffffffffffffffffffffff169050919050565b6000610570826106fd565b90508073ffffffffffffffffffffffffffffffffffffffff168373ffffffffffffffffffffffffffffffffffffffff1614156105e1576040517f08c379a00000000000000000000000000000000000000000000000000000000081526004016105d8906125a5565b60405180910390fd5b8073ffffffffffffffffffffffffffffffffffffffff16610600610e0f565b73ffffffffffffffffffffffffffffffffffffffff16148061062f575061062e81610629610e0f565b610bad565b5b61066e576040517f08c379a000000000000000000000000000000000000000000000000000000000815260040161066590612485565b60405180910390fd5b6106788383610e17565b505050565b61068e610688610e0f565b82610ed0565b6106cd576040517f08c379a00000000000000000000000000000000000000000000000000000000081526004016106c4906125c5565b60405180910390fd5b6106d8838383610fae565b505050565b6106f8838383604051806020016040528060008152506109c1565b505050565b6000806002600084815260200190815260200160002060009054906101000a900473ffffffffffffffffffffffffffffffffffffffff169050600073ffffffffffffffffffffffffffffffffffffffff168173ffffffffffffffffffffffffffffffffffffffff1614156107a6576040517f08c379a000000000000000000000000000000000000000000000000000000000815260040161079d906124c5565b60405180910390fd5b80915050919050565b60008073ffffffffffffffffffffffffffffffffffffffff168273ffffffffffffffffffffffffffffffffffffffff161415610820576040517f08c379a0000000000000000000000000000000000000000000000000000000008152600401610817906124a5565b60405180910390fd5b600360008373ffffffffffffffffffffffffffffffffffffffff1673ffffffffffffffffffffffffffffffffffffffff168152602001908152602001600020549050919050565b61086f610e0f565b73ffffffffffffffffffffffffffffffffffffffff1661088d6108ef565b73ffffffffffffffffffffffffffffffffffffffff16146108e3576040517f08c379a00000000000000000000000000000000000000000000000000000000081526004016108da90612565565b60405180910390fd5b6108ed6000611215565b565b6000600760009054906101000a900473ffffffffffffffffffffffffffffffffffffffff16905090565b6060600180546109289061283b565b80601f01602080910402602001604051908101604052809291908181526020018280546109549061283b565b80156109a15780601f10610976576101008083540402835291602001916109a1565b820191906000526020600020905b81548152906001019060200180831161098457829003601f168201915b5050505050905090565b6109bd6109b6610e0f565b83836112db565b5050565b6109d26109cc610e0f565b83610ed0565b610a11576040517f08c379a0000000000000000000000000000000000000000000000000000000008152600401610a08906125c5565b60405180910390fd5b610a1d84848484611448565b50505050565b6060610a2e82610da3565b610a6d576040517f08c379a0000000000000000000000000000000000000000000000000000000008152600401610a6490612525565b60405180910390fd5b6000600660008481526020019081526020016000208054610a8d9061283b565b80601f0160208091040260200160405190810160405280929190818152602001828054610ab99061283b565b8015610b065780601f10610adb57610100808354040283529160200191610b06565b820191906000526020600020905b815481529060010190602001808311610ae957829003601f168201915b505050505090506000610b176114a4565b9050600081511415610b2d578192505050610b70565b600082511115610b62578082604051602001610b4a9291906122dd565b60405160208183030381529060405292505050610b70565b610b6b846114bb565b925050505b919050565b6000610b816008611562565b6000610b8d6008611578565b9050610b998482611586565b610ba38184611760565b8091505092915050565b6000600560008473ffffffffffffffffffffffffffffffffffffffff1673ffffffffffffffffffffffffffffffffffffffff16815260200190815260200160002060008373ffffffffffffffffffffffffffffffffffffffff1673ffffffffffffffffffffffffffffffffffffffff16815260200190815260200160002060009054906101000a900460ff16905092915050565b610c49610e0f565b73ffffffffffffffffffffffffffffffffffffffff16610c676108ef565b73ffffffffffffffffffffffffffffffffffffffff1614610cbd576040517f08c379a0000000000000000000000000000000000000000000000000000000008152600401610cb490612565565b60405180910390fd5b600073ffffffffffffffffffffffffffffffffffffffff168173ffffffffffffffffffffffffffffffffffffffff161415610d2d576040517f08c379a0000000000000000000000000000000000000000000000000000000008152600401610d24906123c5565b60405180910390fd5b610d3681611215565b50565b60007f01ffc9a7000000000000000000000000000000000000000000000000000000007bffffffffffffffffffffffffffffffffffffffffffffffffffffffff1916827bffffffffffffffffffffffffffffffffffffffffffffffffffffffff1916149050919050565b60008073ffffffffffffffffffffffffffffffffffffffff166002600084815260200190815260200160002060009054906101000a900473ffffffffffffffffffffffffffffffffffffffff1673ffffffffffffffffffffffffffffffffffffffff1614159050919050565b600033905090565b816004600083815260200190815260200160002060006101000a81548173ffffffffffffffffffffffffffffffffffffffff021916908373ffffffffffffffffffffffffffffffffffffffff160217905550808273ffffffffffffffffffffffffffffffffffffffff16610e8a836106fd565b73ffffffffffffffffffffffffffffffffffffffff167f8c5be1e5ebec7d5bd14f71427d1e84f3dd0314c0f7b2291e5b200ac8c7c3b92560405160405180910390a45050565b6000610edb82610da3565b610f1a576040517f08c379a0000000000000000000000000000000000000000000000000000000008152600401610f1190612465565b60405180910390fd5b6000610f25836106fd565b90508073ffffffffffffffffffffffffffffffffffffffff168473ffffffffffffffffffffffffffffffffffffffff161480610f9457508373ffffffffffffffffffffffffffffffffffffffff16610f7c846104e0565b73ffffffffffffffffffffffffffffffffffffffff16145b80610fa55750610fa48185610bad565b5b91505092915050565b8273ffffffffffffffffffffffffffffffffffffffff16610fce826106fd565b73ffffffffffffffffffffffffffffffffffffffff1614611024576040517f08c379a000000000000000000000000000000000000000000000000000000000815260040161101b906123e5565b60405180910390fd5b600073ffffffffffffffffffffffffffffffffffffffff168273ffffffffffffffffffffffffffffffffffffffff161415611094576040517f08c379a000000000000000000000000000000000000000000000000000000000815260040161108b90612425565b60405180910390fd5b61109f8383836117d4565b6110aa600082610e17565b6001600360008573ffffffffffffffffffffffffffffffffffffffff1673ffffffffffffffffffffffffffffffffffffffff16815260200190815260200160002060008282546110fa9190612751565b925050819055506001600360008473ffffffffffffffffffffffffffffffffffffffff1673ffffffffffffffffffffffffffffffffffffffff168152602001908152602001600020600082825461115191906126ca565b92505081905550816002600083815260200190815260200160002060006101000a81548173ffffffffffffffffffffffffffffffffffffffff021916908373ffffffffffffffffffffffffffffffffffffffff160217905550808273ffffffffffffffffffffffffffffffffffffffff168473ffffffffffffffffffffffffffffffffffffffff167fddf252ad1be2c89b69c2b068fc378daa952ba7f163c4a11628f55a4df523b3ef60405160405180910390a46112108383836117d9565b505050565b6000600760009054906101000a900473ffffffffffffffffffffffffffffffffffffffff16905081600760006101000a81548173ffffffffffffffffffffffffffffffffffffffff021916908373ffffffffffffffffffffffffffffffffffffffff1602179055508173ffffffffffffffffffffffffffffffffffffffff168173ffffffffffffffffffffffffffffffffffffffff167f8be0079c531659141344cd1fd0a4f28419497f9722a3daafe3b4186f6b6457e060405160405180910390a35050565b8173ffffffffffffffffffffffffffffffffffffffff168373ffffffffffffffffffffffffffffffffffffffff16141561134a576040517f08c379a000000000000000000000000000000000000000000000000000000000815260040161134190612445565b60405180910390fd5b80600560008573ffffffffffffffffffffffffffffffffffffffff1673ffffffffffffffffffffffffffffffffffffffff16815260200190815260200160002060008473ffffffffffffffffffffffffffffffffffffffff1673ffffffffffffffffffffffffffffffffffffffff16815260200190815260200160002060006101000a81548160ff0219169083151502179055508173ffffffffffffffffffffffffffffffffffffffff168373ffffffffffffffffffffffffffffffffffffffff167f17307eab39ab6107e8899845ad3d59bd9653f200f220920489ca2b5937696c318360405161143b9190612368565b60405180910390a3505050565b611453848484610fae565b61145f848484846117de565b61149e576040517f08c379a0000000000000000000000000000000000000000000000000000000008152600401611495906123a5565b60405180910390fd5b50505050565b606060405180602001604052806000815250905090565b60606114c682610da3565b611505576040517f08c379a00000000000000000000000000000000000000000000000000000000081526004016114fc90612585565b60405180910390fd5b600061150f6114a4565b9050600081511161152f576040518060200160405280600081525061155a565b8061153984611975565b60405160200161154a9291906122dd565b6040516020818303038152906040525b915050919050565b6001816000016000828254019250508190555050565b600081600001549050919050565b600073ffffffffffffffffffffffffffffffffffffffff168273ffffffffffffffffffffffffffffffffffffffff1614156115f6576040517f08c379a00000000000000000000000000000000000000000000000000000000081526004016115ed90612505565b60405180910390fd5b6115ff81610da3565b1561163f576040517f08c379a000000000000000000000000000000000000000000000000000000000815260040161163690612405565b60405180910390fd5b61164b600083836117d4565b6001600360008473ffffffffffffffffffffffffffffffffffffffff1673ffffffffffffffffffffffffffffffffffffffff168152602001908152602001600020600082825461169b91906126ca565b92505081905550816002600083815260200190815260200160002060006101000a81548173ffffffffffffffffffffffffffffffffffffffff021916908373ffffffffffffffffffffffffffffffffffffffff160217905550808273ffffffffffffffffffffffffffffffffffffffff16600073ffffffffffffffffffffffffffffffffffffffff167fddf252ad1be2c89b69c2b068fc378daa952ba7f163c4a11628f55a4df523b3ef60405160405180910390a461175c600083836117d9565b5050565b61176982610da3565b6117a8576040517f08c379a000000000000000000000000000000000000000000000000000000000815260040161179f906124e5565b60405180910390fd5b806006600084815260200190815260200160002090805190602001906117cf929190611b45565b505050565b505050565b505050565b60006117ff8473ffffffffffffffffffffffffffffffffffffffff16611b22565b15611968578373ffffffffffffffffffffffffffffffffffffffff1663150b7a02611828610e0f565b8786866040518563ffffffff1660e01b815260040161184a949392919061231c565b602060405180830381600087803b15801561186457600080fd5b505af192505050801561189557506040513d601f19601f820116820180604052508101906118929190611f45565b60015b611918573d80600081146118c5576040519150601f19603f3d011682016040523d82523d6000602084013e6118ca565b606091505b50600081511415611910576040517f08c379a0000000000000000000000000000000000000000000000000000000008152600401611907906123a5565b60405180910390fd5b805181602001fd5b63150b7a0260e01b7bffffffffffffffffffffffffffffffffffffffffffffffffffffffff1916817bffffffffffffffffffffffffffffffffffffffffffffffffffffffff19161491505061196d565b600190505b949350505050565b606060008214156119bd576040518060400160405280600181526020017f30000000000000000000000000000000000000000000000000000000000000008152509050611b1d565b600082905060005b600082146119ef5780806119d89061289e565b915050600a826119e89190612720565b91506119c5565b60008167ffffffffffffffff811115611a31577f4e487b7100000000000000000000000000000000000000000000000000000000600052604160045260246000fd5b6040519080825280601f01601f191660200182016040528015611a635781602001600182028036833780820191505090505b5090505b60008514611b1657600182611a7c9190612751565b9150600a85611a8b91906128e7565b6030611a9791906126ca565b60f81b818381518110611ad3577f4e487b7100000000000000000000000000000000000000000000000000000000600052603260045260246000fd5b60200101907effffffffffffffffffffffffffffffffffffffffffffffffffffffffffffff1916908160001a905350600a85611b0f9190612720565b9450611a67565b8093505050505b919050565b6000808273ffffffffffffffffffffffffffffffffffffffff163b119050919050565b828054611b519061283b565b90600052602060002090601f016020900481019282611b735760008555611bba565b82601f10611b8c57805160ff1916838001178555611bba565b82800160010185558215611bba579182015b82811115611bb9578251825591602001919060010190611b9e565b5b509050611bc79190611bcb565b5090565b5b80821115611be4576000816000905550600101611bcc565b5090565b6000611bfb611bf684612625565b612600565b905082815260208101848484011115611c1357600080fd5b611c1e8482856127f9565b509392505050565b6000611c39611c3484612656565b612600565b905082815260208101848484011115611c5157600080fd5b611c5c8482856127f9565b509392505050565b600081359050611c7381612edb565b92915050565b600081359050611c8881612ef2565b92915050565b600081359050611c9d81612f09565b92915050565b600081519050611cb281612f09565b92915050565b600082601f830112611cc957600080fd5b8135611cd9848260208601611be8565b91505092915050565b600082601f830112611cf357600080fd5b8135611d03848260208601611c26565b91505092915050565b600081359050611d1b81612f20565b92915050565b600060208284031215611d3357600080fd5b6000611d4184828501611c64565b91505092915050565b60008060408385031215611d5d57600080fd5b6000611d6b85828601611c64565b9250506020611d7c85828601611c64565b9150509250929050565b600080600060608486031215611d9b57600080fd5b6000611da986828701611c64565b9350506020611dba86828701611c64565b9250506040611dcb86828701611d0c565b9150509250925092565b60008060008060808587031215611deb57600080fd5b6000611df987828801611c64565b9450506020611e0a87828801611c64565b9350506040611e1b87828801611d0c565b925050606085013567ffffffffffffffff811115611e3857600080fd5b611e4487828801611cb8565b91505092959194509250565b60008060408385031215611e6357600080fd5b6000611e7185828601611c64565b9250506020611e8285828601611c79565b9150509250929050565b60008060408385031215611e9f57600080fd5b6000611ead85828601611c64565b925050602083013567ffffffffffffffff811115611eca57600080fd5b611ed685828601611ce2565b9150509250929050565b60008060408385031215611ef357600080fd5b6000611f0185828601611c64565b9250506020611f1285828601611d0c565b9150509250929050565b600060208284031215611f2e57600080fd5b6000611f3c84828501611c8e565b91505092915050565b600060208284031215611f5757600080fd5b6000611f6584828501611ca3565b91505092915050565b600060208284031215611f8057600080fd5b6000611f8e84828501611d0c565b91505092915050565b611fa081612785565b82525050565b611faf81612797565b82525050565b6000611fc082612687565b611fca818561269d565b9350611fda818560208601612808565b611fe3816129d4565b840191505092915050565b6000611ff982612692565b61200381856126ae565b9350612013818560208601612808565b61201c816129d4565b840191505092915050565b600061203282612692565b61203c81856126bf565b935061204c818560208601612808565b80840191505092915050565b60006120656032836126ae565b9150612070826129e5565b604082019050919050565b60006120886026836126ae565b915061209382612a34565b604082019050919050565b60006120ab6025836126ae565b91506120b682612a83565b604082019050919050565b60006120ce601c836126ae565b91506120d982612ad2565b602082019050919050565b60006120f16024836126ae565b91506120fc82612afb565b604082019050919050565b60006121146019836126ae565b915061211f82612b4a565b602082019050919050565b6000612137602c836126ae565b915061214282612b73565b604082019050919050565b600061215a6038836126ae565b915061216582612bc2565b604082019050919050565b600061217d602a836126ae565b915061218882612c11565b604082019050919050565b60006121a06029836126ae565b91506121ab82612c60565b604082019050919050565b60006121c3602e836126ae565b91506121ce82612caf565b604082019050919050565b60006121e66020836126ae565b91506121f182612cfe565b602082019050919050565b60006122096031836126ae565b915061221482612d27565b604082019050919050565b600061222c602c836126ae565b915061223782612d76565b604082019050919050565b600061224f6020836126ae565b915061225a82612dc5565b602082019050919050565b6000612272602f836126ae565b915061227d82612dee565b604082019050919050565b60006122956021836126ae565b91506122a082612e3d565b604082019050919050565b60006122b86031836126ae565b91506122c382612e8c565b604082019050919050565b6122d7816127ef565b82525050565b60006122e98285612027565b91506122f58284612027565b91508190509392505050565b60006020820190506123166000830184611f97565b92915050565b60006080820190506123316000830187611f97565b61233e6020830186611f97565b61234b60408301856122ce565b818103606083015261235d8184611fb5565b905095945050505050565b600060208201905061237d6000830184611fa6565b92915050565b6000602082019050818103600083015261239d8184611fee565b905092915050565b600060208201905081810360008301526123be81612058565b9050919050565b600060208201905081810360008301526123de8161207b565b9050919050565b600060208201905081810360008301526123fe8161209e565b9050919050565b6000602082019050818103600083015261241e816120c1565b9050919050565b6000602082019050818103600083015261243e816120e4565b9050919050565b6000602082019050818103600083015261245e81612107565b9050919050565b6000602082019050818103600083015261247e8161212a565b9050919050565b6000602082019050818103600083015261249e8161214d565b9050919050565b600060208201905081810360008301526124be81612170565b9050919050565b600060208201905081810360008301526124de81612193565b9050919050565b600060208201905081810360008301526124fe816121b6565b9050919050565b6000602082019050818103600083015261251e816121d9565b9050919050565b6000602082019050818103600083015261253e816121fc565b9050919050565b6000602082019050818103600083015261255e8161221f565b9050919050565b6000602082019050818103600083015261257e81612242565b9050919050565b6000602082019050818103600083015261259e81612265565b9050919050565b600060208201905081810360008301526125be81612288565b9050919050565b600060208201905081810360008301526125de816122ab565b9050919050565b60006020820190506125fa60008301846122ce565b92915050565b600061260a61261b565b9050612616828261286d565b919050565b6000604051905090565b600067ffffffffffffffff8211156126405761263f6129a5565b5b612649826129d4565b9050602081019050919050565b600067ffffffffffffffff821115612671576126706129a5565b5b61267a826129d4565b9050602081019050919050565b600081519050919050565b600081519050919050565b600082825260208201905092915050565b600082825260208201905092915050565b600081905092915050565b60006126d5826127ef565b91506126e0836127ef565b9250827fffffffffffffffffffffffffffffffffffffffffffffffffffffffffffffffff0382111561271557612714612918565b5b828201905092915050565b600061272b826127ef565b9150612736836127ef565b92508261274657612745612947565b5b828204905092915050565b600061275c826127ef565b9150612767836127ef565b92508282101561277a57612779612918565b5b828203905092915050565b6000612790826127cf565b9050919050565b60008115159050919050565b60007fffffffff0000000000000000000000000000000000000000000000000000000082169050919050565b600073ffffffffffffffffffffffffffffffffffffffff82169050919050565b6000819050919050565b82818337600083830152505050565b60005b8381101561282657808201518184015260208101905061280b565b83811115612835576000848401525b50505050565b6000600282049050600182168061285357607f821691505b6020821081141561286757612866612976565b5b50919050565b612876826129d4565b810181811067ffffffffffffffff82111715612895576128946129a5565b5b80604052505050565b60006128a9826127ef565b91507fffffffffffffffffffffffffffffffffffffffffffffffffffffffffffffffff8214156128dc576128db612918565b5b600182019050919050565b60006128f2826127ef565b91506128fd836127ef565b92508261290d5761290c612947565b5b828206905092915050565b7f4e487b7100000000000000000000000000000000000000000000000000000000600052601160045260246000fd5b7f4e487b7100000000000000000000000000000000000000000000000000000000600052601260045260246000fd5b7f4e487b7100000000000000000000000000000000000000000000000000000000600052602260045260246000fd5b7f4e487b7100000000000000000000000000000000000000000000000000000000600052604160045260246000fd5b6000601f19601f8301169050919050565b7f4552433732313a207472616e7366657220746f206e6f6e20455243373231526560008201527f63656976657220696d706c656d656e7465720000000000000000000000000000602082015250565b7f4f776e61626c653a206e6577206f776e657220697320746865207a65726f206160008201527f6464726573730000000000000000000000000000000000000000000000000000602082015250565b7f4552433732313a207472616e736665722066726f6d20696e636f72726563742060008201527f6f776e6572000000000000000000000000000000000000000000000000000000602082015250565b7f4552433732313a20746f6b656e20616c7265616479206d696e74656400000000600082015250565b7f4552433732313a207472616e7366657220746f20746865207a65726f2061646460008201527f7265737300000000000000000000000000000000000000000000000000000000602082015250565b7f4552433732313a20617070726f766520746f2063616c6c657200000000000000600082015250565b7f4552433732313a206f70657261746f7220717565727920666f72206e6f6e657860008201527f697374656e7420746f6b656e0000000000000000000000000000000000000000602082015250565b7f4552433732313a20617070726f76652063616c6c6572206973206e6f74206f7760008201527f6e6572206e6f7220617070726f76656420666f7220616c6c0000000000000000602082015250565b7f4552433732313a2062616c616e636520717565727920666f7220746865207a6560008201527f726f206164647265737300000000000000000000000000000000000000000000602082015250565b7f4552433732313a206f776e657220717565727920666f72206e6f6e657869737460008201527f656e7420746f6b656e0000000000000000000000000000000000000000000000602082015250565b7f45524337323155524953746f726167653a2055524920736574206f66206e6f6e60008201527f6578697374656e7420746f6b656e000000000000000000000000000000000000602082015250565b7f4552433732313a206d696e7420746f20746865207a65726f2061646472657373600082015250565b7f45524337323155524953746f726167653a2055524920717565727920666f722060008201527f6e6f6e6578697374656e7420746f6b656e000000000000000000000000000000602082015250565b7f4552433732313a20617070726f76656420717565727920666f72206e6f6e657860008201527f697374656e7420746f6b656e0000000000000000000000000000000000000000602082015250565b7f4f776e61626c653a2063616c6c6572206973206e6f7420746865206f776e6572600082015250565b7f4552433732314d657461646174613a2055524920717565727920666f72206e6f60008201527f6e6578697374656e7420746f6b656e0000000000000000000000000000000000602082015250565b7f4552433732313a20617070726f76616c20746f2063757272656e74206f776e6560008201527f7200000000000000000000000000000000000000000000000000000000000000602082015250565b7f4552433732313a207472616e736665722063616c6c6572206973206e6f74206f60008201527f776e6572206e6f7220617070726f766564000000000000000000000000000000602082015250565b612ee481612785565b8114612eef57600080fd5b50565b612efb81612797565b8114612f0657600080fd5b50565b612f12816127a3565b8114612f1d57600080fd5b50565b612f29816127ef565b8114612f3457600080fd5b5056fea2646970667358221220cecce6b1ffe97a071b0a1f75ddbab76394b5ccbdc70e11b0af5710d5f7c9ff6764736f6c6343000801003368747470733a2f2f676174657761792e697066732e696f2f697066732f516d5a7a543944414b416a5946676f6a73664879323532654c46686470335a723866366439526573756931583231",
  "linkReferences": {},
  "deployedLinkReferences": {}
}