{
  "_format": "hh-sol-artifact-1",
  "contractName": "Consistently",
  "sourceName": "contracts/Consistenly.sol",
  "abi": [
    {
      "inputs": [],
      "stateMutability": "nonpayable",
      "type": "constructor"
    },
    {
      "anonymous": false,
      "inputs": [
        {
          "indexed": false,
          "internalType": "address",
          "name": "userAddress",
          "type": "address"
        },
        {
          "indexed": false,
          "internalType": "uint256",
          "name": "lastCheckInTime",
          "type": "uint256"
        }
      ],
      "name": "CheckedIn",
      "type": "event"
    },
    {
      "anonymous": false,
      "inputs": [
        {
          "indexed": false,
          "internalType": "address",
          "name": "userAddress",
          "type": "address"
        },
        {
          "indexed": false,
          "internalType": "uint256",
          "name": "weiDeposited",
          "type": "uint256"
        },
        {
          "indexed": false,
          "internalType": "string",
          "name": "habit",
          "type": "string"
        },
        {
          "indexed": false,
          "internalType": "uint256",
          "name": "timeRegistered",
          "type": "uint256"
        },
        {
          "indexed": false,
          "internalType": "bool",
          "name": "active",
          "type": "bool"
        }
      ],
      "name": "IntentionRegistered",
      "type": "event"
    },
    {
      "inputs": [],
      "name": "aavePool",
      "outputs": [
        {
          "internalType": "contract IPool",
          "name": "",
          "type": "address"
        }
      ],
      "stateMutability": "view",
      "type": "function"
    },
    {
      "inputs": [
        {
          "internalType": "address",
          "name": "",
          "type": "address"
        }
      ],
      "name": "checkInCount",
      "outputs": [
        {
          "internalType": "uint8",
          "name": "",
          "type": "uint8"
        }
      ],
      "stateMutability": "view",
      "type": "function"
    },
    {
      "inputs": [],
      "name": "checkin",
      "outputs": [],
      "stateMutability": "nonpayable",
      "type": "function"
    },
    {
      "inputs": [],
      "name": "depositIntoAave",
      "outputs": [],
      "stateMutability": "nonpayable",
      "type": "function"
    },
    {
      "inputs": [],
      "name": "getUserIntention",
      "outputs": [
        {
          "components": [
            {
              "internalType": "uint8",
              "name": "noOfDays",
              "type": "uint8"
            },
            {
              "internalType": "uint8",
              "name": "defaulted",
              "type": "uint8"
            },
            {
              "internalType": "uint256",
              "name": "timeRegistered",
              "type": "uint256"
            },
            {
              "internalType": "uint256",
              "name": "weiDeposited",
              "type": "uint256"
            },
            {
              "internalType": "uint256",
              "name": "weiBalance",
              "type": "uint256"
            },
            {
              "internalType": "string",
              "name": "habit",
              "type": "string"
            },
            {
              "internalType": "address",
              "name": "userAddress",
              "type": "address"
            },
            {
              "internalType": "bool",
              "name": "active",
              "type": "bool"
            }
          ],
          "internalType": "struct Consistently.Intention",
          "name": "",
          "type": "tuple"
        }
      ],
      "stateMutability": "view",
      "type": "function"
    },
    {
      "inputs": [],
      "name": "habit",
      "outputs": [
        {
          "internalType": "contract Habit",
          "name": "",
          "type": "address"
        }
      ],
      "stateMutability": "view",
      "type": "function"
    },
    {
      "inputs": [],
      "name": "habitNFT",
      "outputs": [
        {
          "internalType": "contract HabitNFT",
          "name": "",
          "type": "address"
        }
      ],
      "stateMutability": "view",
      "type": "function"
    },
    {
      "inputs": [
        {
          "internalType": "uint256",
          "name": "",
          "type": "uint256"
        }
      ],
      "name": "intentions",
      "outputs": [
        {
          "internalType": "uint8",
          "name": "noOfDays",
          "type": "uint8"
        },
        {
          "internalType": "uint8",
          "name": "defaulted",
          "type": "uint8"
        },
        {
          "internalType": "uint256",
          "name": "timeRegistered",
          "type": "uint256"
        },
        {
          "internalType": "uint256",
          "name": "weiDeposited",
          "type": "uint256"
        },
        {
          "internalType": "uint256",
          "name": "weiBalance",
          "type": "uint256"
        },
        {
          "internalType": "string",
          "name": "habit",
          "type": "string"
        },
        {
          "internalType": "address",
          "name": "userAddress",
          "type": "address"
        },
        {
          "internalType": "bool",
          "name": "active",
          "type": "bool"
        }
      ],
      "stateMutability": "view",
      "type": "function"
    },
    {
      "inputs": [
        {
          "internalType": "address",
          "name": "",
          "type": "address"
        }
      ],
      "name": "lastCheckIn",
      "outputs": [
        {
          "internalType": "uint256",
          "name": "",
          "type": "uint256"
        }
      ],
      "stateMutability": "view",
      "type": "function"
    },
    {
      "inputs": [
        {
          "internalType": "address",
          "name": "",
          "type": "address"
        }
      ],
      "name": "nextCheckIn",
      "outputs": [
        {
          "internalType": "uint256",
          "name": "",
          "type": "uint256"
        }
      ],
      "stateMutability": "view",
      "type": "function"
    },
    {
      "inputs": [],
      "name": "owner",
      "outputs": [
        {
          "internalType": "address",
          "name": "",
          "type": "address"
        }
      ],
      "stateMutability": "view",
      "type": "function"
    },
    {
      "inputs": [],
      "name": "redeem",
      "outputs": [],
      "stateMutability": "nonpayable",
      "type": "function"
    },
    {
      "inputs": [
        {
          "internalType": "string",
          "name": "_habit",
          "type": "string"
        },
        {
          "internalType": "uint8",
          "name": "_days",
          "type": "uint8"
        }
      ],
      "name": "register",
      "outputs": [],
      "stateMutability": "payable",
      "type": "function"
    },
    {
      "inputs": [
        {
          "internalType": "address",
          "name": "",
          "type": "address"
        }
      ],
      "name": "userAddresses",
      "outputs": [
        {
          "internalType": "bool",
          "name": "",
          "type": "bool"
        }
      ],
      "stateMutability": "view",
      "type": "function"
    },
    {
      "inputs": [
        {
          "internalType": "address",
          "name": "",
          "type": "address"
        }
      ],
      "name": "userIntentions",
      "outputs": [
        {
          "internalType": "uint256",
          "name": "",
          "type": "uint256"
        }
      ],
      "stateMutability": "view",
      "type": "function"
    },
    {
      "inputs": [],
      "name": "withdraw",
      "outputs": [],
      "stateMutability": "payable",
      "type": "function"
    }
  ],
  "bytecode": "0x60806040526040516200001290620001c3565b604051809103906000f0801580156200002f573d6000803e3d6000fd5b50600160006101000a81548173ffffffffffffffffffffffffffffffffffffffff021916908373ffffffffffffffffffffffffffffffffffffffff1602179055506040516200007e90620001d1565b604051809103906000f0801580156200009b573d6000803e3d6000fd5b50600260006101000a81548173ffffffffffffffffffffffffffffffffffffffff021916908373ffffffffffffffffffffffffffffffffffffffff1602179055506003600460146101000a81548160ff021916908360ff16021790555060ff600460156101000a81548160ff021916908360ff1602179055506102586005553480156200012757600080fd5b5033600460006101000a81548173ffffffffffffffffffffffffffffffffffffffff021916908373ffffffffffffffffffffffffffffffffffffffff16021790555073e91e690407977f0b9fdc655504b895fe4af0c3716000806101000a81548173ffffffffffffffffffffffffffffffffffffffff021916908373ffffffffffffffffffffffffffffffffffffffff160217905550620001df565b61207e80620030e583390190565b613424806200516383390190565b612ef680620001ef6000396000f3fe6080604052600436106100f35760003560e01c80639ec11dff1161008a578063c7f62a9711610059578063c7f62a97146102f3578063dedaf7fc1461031e578063ef6fdb1c14610335578063fc86dea714610372576100f3565b80639ec11dff1461025d578063a03e4bc31461029a578063baeb0718146102c5578063be040fb0146102dc576100f3565b8063767b79ed116100c6578063767b79ed146101ae5780638da5cb5b146101ca57806395cfb25a146101f557806398e8ee1414610220576100f3565b806312a6ebba146100f85780633bd9e0861461013c5780633ccfd60b146101675780636b69fd5a14610171575b600080fd5b34801561010457600080fd5b5061011f600480360381019061011a91906120d5565b6103af565b6040516101339897969594939291906127bd565b60405180910390f35b34801561014857600080fd5b506101516104d6565b60405161015e9190612765565b60405180910390f35b61016f6107c1565b005b34801561017d57600080fd5b5061019860048036038101906101939190612058565b6108bc565b6040516101a59190612787565b60405180910390f35b6101c860048036038101906101c39190612081565b6108d4565b005b3480156101d657600080fd5b506101df610da0565b6040516101ec919061248d565b60405180910390f35b34801561020157600080fd5b5061020a610dc6565b60405161021791906125cf565b60405180910390f35b34801561022c57600080fd5b5061024760048036038101906102429190612058565b610dec565b6040516102549190612787565b60405180910390f35b34801561026957600080fd5b50610284600480360381019061027f9190612058565b610e04565b60405161029191906127a2565b60405180910390f35b3480156102a657600080fd5b506102af610e24565b6040516102bc91906125ea565b60405180910390f35b3480156102d157600080fd5b506102da610e48565b005b3480156102e857600080fd5b506102f161121c565b005b3480156102ff57600080fd5b50610308611680565b60405161031591906125b4565b60405180910390f35b34801561032a57600080fd5b506103336116a6565b005b34801561034157600080fd5b5061035c60048036038101906103579190612058565b61175f565b6040516103699190612787565b60405180910390f35b34801561037e57600080fd5b5061039960048036038101906103949190612058565b611777565b6040516103a69190612599565b60405180910390f35b600681815481106103bf57600080fd5b90600052602060002090600602016000915090508060000160009054906101000a900460ff16908060000160019054906101000a900460ff169080600101549080600201549080600301549080600401805461041a90612aec565b80601f016020809104026020016040519081016040528092919081815260200182805461044690612aec565b80156104935780601f1061046857610100808354040283529160200191610493565b820191906000526020600020905b81548152906001019060200180831161047657829003601f168201915b5050505050908060050160009054906101000a900473ffffffffffffffffffffffffffffffffffffffff16908060050160149054906101000a900460ff16905088565b6104de611e96565b33600360008273ffffffffffffffffffffffffffffffffffffffff1673ffffffffffffffffffffffffffffffffffffffff16815260200190815260200160002060009054906101000a900460ff1661056b576040517f08c379a000000000000000000000000000000000000000000000000000000000815260040161056290612605565b60405180910390fd5b3361057581611797565b6105b4576040517f08c379a00000000000000000000000000000000000000000000000000000000081526004016105ab906126e5565b60405180910390fd5b60006001600760003373ffffffffffffffffffffffffffffffffffffffff1673ffffffffffffffffffffffffffffffffffffffff168152602001908152602001600020546106029190612983565b9050600060068281548110610640577f4e487b7100000000000000000000000000000000000000000000000000000000600052603260045260246000fd5b9060005260206000209060060201604051806101000160405290816000820160009054906101000a900460ff1660ff1660ff1681526020016000820160019054906101000a900460ff1660ff1660ff1681526020016001820154815260200160028201548152602001600382015481526020016004820180546106c290612aec565b80601f01602080910402602001604051908101604052809291908181526020018280546106ee90612aec565b801561073b5780601f106107105761010080835404028352916020019161073b565b820191906000526020600020905b81548152906001019060200180831161071e57829003601f168201915b505050505081526020016005820160009054906101000a900473ffffffffffffffffffffffffffffffffffffffff1673ffffffffffffffffffffffffffffffffffffffff1673ffffffffffffffffffffffffffffffffffffffff1681526020016005820160149054906101000a900460ff16151515158152505090508094505050505090565b600460009054906101000a900473ffffffffffffffffffffffffffffffffffffffff1673ffffffffffffffffffffffffffffffffffffffff163373ffffffffffffffffffffffffffffffffffffffff1614610851576040517f08c379a000000000000000000000000000000000000000000000000000000000815260040161084890612685565b60405180910390fd5b600460009054906101000a900473ffffffffffffffffffffffffffffffffffffffff1673ffffffffffffffffffffffffffffffffffffffff166108fc479081150290604051600060405180830381858888f193505050501580156108b9573d6000803e3d6000fd5b50565b60096020528060005260406000206000915090505481565b662386f26fc1000034101561091e576040517f08c379a000000000000000000000000000000000000000000000000000000000815260040161091590612705565b60405180910390fd5b600460149054906101000a900460ff1660ff168160ff161015610976576040517f08c379a000000000000000000000000000000000000000000000000000000000815260040161096d90612665565b60405180910390fd5b600460159054906101000a900460ff1660ff168160ff1611156109ce576040517f08c379a00000000000000000000000000000000000000000000000000000000081526004016109c590612625565b60405180910390fd5b6000600760003373ffffffffffffffffffffffffffffffffffffffff1673ffffffffffffffffffffffffffffffffffffffff1681526020019081526020016000205414610a50576040517f08c379a0000000000000000000000000000000000000000000000000000000008152600401610a4790612745565b60405180910390fd5b600042905060006040518061010001604052808460ff168152602001600060ff1681526020018381526020013481526020013481526020018581526020013373ffffffffffffffffffffffffffffffffffffffff168152602001600115158152509050600681908060018154018082558091505060019003906000526020600020906006020160009091909190915060008201518160000160006101000a81548160ff021916908360ff16021790555060208201518160000160016101000a81548160ff021916908360ff16021790555060408201518160010155606082015181600201556080820151816003015560a0820151816004019080519060200190610b5b929190611ef9565b5060c08201518160050160006101000a81548173ffffffffffffffffffffffffffffffffffffffff021916908373ffffffffffffffffffffffffffffffffffffffff16021790555060e08201518160050160146101000a81548160ff02191690831515021790555050506001600360003373ffffffffffffffffffffffffffffffffffffffff1673ffffffffffffffffffffffffffffffffffffffff16815260200190815260200160002060006101000a81548160ff0219169083151502179055506000600680549050905080600760003373ffffffffffffffffffffffffffffffffffffffff1673ffffffffffffffffffffffffffffffffffffffff168152602001908152602001600020819055506000600a60003373ffffffffffffffffffffffffffffffffffffffff1673ffffffffffffffffffffffffffffffffffffffff16815260200190815260200160002060006101000a81548160ff021916908360ff16021790555082600860003373ffffffffffffffffffffffffffffffffffffffff1673ffffffffffffffffffffffffffffffffffffffff1681526020019081526020016000208190555060055483610d1691906128c5565b600960003373ffffffffffffffffffffffffffffffffffffffff1673ffffffffffffffffffffffffffffffffffffffff168152602001908152602001600020819055507f337f4807ad781093d5ad55ae237b66e90ee0c4c83f987349e0198892f6328f2e333487866001604051610d9195949392919061253f565b60405180910390a15050505050565b600460009054906101000a900473ffffffffffffffffffffffffffffffffffffffff1681565b600160009054906101000a900473ffffffffffffffffffffffffffffffffffffffff1681565b60076020528060005260406000206000915090505481565b600a6020528060005260406000206000915054906101000a900460ff1681565b60008054906101000a900473ffffffffffffffffffffffffffffffffffffffff1681565b33600360008273ffffffffffffffffffffffffffffffffffffffff1673ffffffffffffffffffffffffffffffffffffffff16815260200190815260200160002060009054906101000a900460ff16610ed5576040517f08c379a0000000000000000000000000000000000000000000000000000000008152600401610ecc90612605565b60405180910390fd5b33610edf81611797565b610f1e576040517f08c379a0000000000000000000000000000000000000000000000000000000008152600401610f15906126e5565b60405180910390fd5b6000429050600960003373ffffffffffffffffffffffffffffffffffffffff1673ffffffffffffffffffffffffffffffffffffffff168152602001908152602001600020548111610fa4576040517f08c379a0000000000000000000000000000000000000000000000000000000008152600401610f9b906126c5565b60405180910390fd5b600554600960003373ffffffffffffffffffffffffffffffffffffffff1673ffffffffffffffffffffffffffffffffffffffff16815260200190815260200160002054610ff191906128c5565b8111156110025761100133611a2b565b5b600160009054906101000a900473ffffffffffffffffffffffffffffffffffffffff1673ffffffffffffffffffffffffffffffffffffffff166340c10f1933670de0b6b3a76400006040518363ffffffff1660e01b81526004016110679291906124a8565b600060405180830381600087803b15801561108157600080fd5b505af1158015611095573d6000803e3d6000fd5b505050506001600a60003373ffffffffffffffffffffffffffffffffffffffff1673ffffffffffffffffffffffffffffffffffffffff16815260200190815260200160002060009054906101000a900460ff166110f2919061291b565b600a60003373ffffffffffffffffffffffffffffffffffffffff1673ffffffffffffffffffffffffffffffffffffffff16815260200190815260200160002060006101000a81548160ff021916908360ff16021790555080600860003373ffffffffffffffffffffffffffffffffffffffff1673ffffffffffffffffffffffffffffffffffffffff168152602001908152602001600020819055506005548161119b91906128c5565b600960003373ffffffffffffffffffffffffffffffffffffffff1673ffffffffffffffffffffffffffffffffffffffff168152602001908152602001600020819055507fdddb6e14f7f2101397a6526aab95e964de7f1f44ed06aa47a1c9a0e6b9924456338260405161120f9291906124d1565b60405180910390a1505050565b33600360008273ffffffffffffffffffffffffffffffffffffffff1673ffffffffffffffffffffffffffffffffffffffff16815260200190815260200160002060009054906101000a900460ff166112a9576040517f08c379a00000000000000000000000000000000000000000000000000000000081526004016112a090612605565b60405180910390fd5b336112b381611797565b6112f2576040517f08c379a00000000000000000000000000000000000000000000000000000000081526004016112e9906126e5565b60405180910390fd5b336112fc81611c30565b61133b576040517f08c379a0000000000000000000000000000000000000000000000000000000008152600401611332906126a5565b60405180910390fd5b60006001600760003373ffffffffffffffffffffffffffffffffffffffff1673ffffffffffffffffffffffffffffffffffffffff168152602001908152602001600020546113899190612983565b90506000600682815481106113c7577f4e487b7100000000000000000000000000000000000000000000000000000000600052603260045260246000fd5b906000526020600020906006020190506000600760003373ffffffffffffffffffffffffffffffffffffffff1673ffffffffffffffffffffffffffffffffffffffff1681526020019081526020016000208190555060008160050160146101000a81548160ff0219169083151502179055506000600a60003373ffffffffffffffffffffffffffffffffffffffff1673ffffffffffffffffffffffffffffffffffffffff16815260200190815260200160002060006101000a81548160ff021916908360ff160217905550600160009054906101000a900473ffffffffffffffffffffffffffffffffffffffff1673ffffffffffffffffffffffffffffffffffffffff16639dc29fac33600160009054906101000a900473ffffffffffffffffffffffffffffffffffffffff1673ffffffffffffffffffffffffffffffffffffffff166370a08231336040518263ffffffff1660e01b815260040161152c919061248d565b60206040518083038186803b15801561154457600080fd5b505afa158015611558573d6000803e3d6000fd5b505050506040513d601f19601f8201168201806040525081019061157c91906120fe565b6040518363ffffffff1660e01b81526004016115999291906124d1565b600060405180830381600087803b1580156115b357600080fd5b505af11580156115c7573d6000803e3d6000fd5b50505050600260009054906101000a900473ffffffffffffffffffffffffffffffffffffffff1673ffffffffffffffffffffffffffffffffffffffff1663f2fb2120336040518263ffffffff1660e01b8152600401611626919061248d565b602060405180830381600087803b15801561164057600080fd5b505af1158015611654573d6000803e3d6000fd5b505050506040513d601f19601f8201168201806040525081019061167891906120fe565b505050505050565b600260009054906101000a900473ffffffffffffffffffffffffffffffffffffffff1681565b671bc16d674ec8000047111561175d5760008054906101000a900473ffffffffffffffffffffffffffffffffffffffff1673ffffffffffffffffffffffffffffffffffffffff1663e8eda9df73eeeeeeeeeeeeeeeeeeeeeeeeeeeeeeeeeeeeeeee473060006040518563ffffffff1660e01b815260040161172a94939291906124fa565b600060405180830381600087803b15801561174457600080fd5b505af1158015611758573d6000803e3d6000fd5b505050505b565b60086020528060005260406000206000915090505481565b60036020528060005260406000206000915054906101000a900460ff1681565b600080600760008473ffffffffffffffffffffffffffffffffffffffff1673ffffffffffffffffffffffffffffffffffffffff168152602001908152602001600020541161181a576040517f08c379a000000000000000000000000000000000000000000000000000000000815260040161181190612645565b60405180910390fd5b60006001600760008573ffffffffffffffffffffffffffffffffffffffff1673ffffffffffffffffffffffffffffffffffffffff168152602001908152602001600020546118689190612983565b90506000600682815481106118a6577f4e487b7100000000000000000000000000000000000000000000000000000000600052603260045260246000fd5b9060005260206000209060060201604051806101000160405290816000820160009054906101000a900460ff1660ff1660ff1681526020016000820160019054906101000a900460ff1660ff1660ff16815260200160018201548152602001600282015481526020016003820154815260200160048201805461192890612aec565b80601f016020809104026020016040519081016040528092919081815260200182805461195490612aec565b80156119a15780601f10611976576101008083540402835291602001916119a1565b820191906000526020600020905b81548152906001019060200180831161198457829003601f168201915b505050505081526020016005820160009054906101000a900473ffffffffffffffffffffffffffffffffffffffff1673ffffffffffffffffffffffffffffffffffffffff1673ffffffffffffffffffffffffffffffffffffffff1681526020016005820160149054906101000a900460ff16151515158152505090508060e0015192505050919050565b6000600760008373ffffffffffffffffffffffffffffffffffffffff1673ffffffffffffffffffffffffffffffffffffffff1681526020019081526020016000205411611aad576040517f08c379a0000000000000000000000000000000000000000000000000000000008152600401611aa490612725565b60405180910390fd5b60006001600760008473ffffffffffffffffffffffffffffffffffffffff1673ffffffffffffffffffffffffffffffffffffffff16815260200190815260200160002054611afb9190612983565b9050600060068281548110611b39577f4e487b7100000000000000000000000000000000000000000000000000000000600052603260045260246000fd5b9060005260206000209060060201905060048160020154611b5a9190612952565b8160030154611b699190612983565b816003018190555080600001600181819054906101000a900460ff1680929190611b9290612b4f565b91906101000a81548160ff021916908360ff1602179055505060048160000160019054906101000a900460ff1660ff161415611c2b5760008160050160146101000a81548160ff0219169083151502179055506000600760008573ffffffffffffffffffffffffffffffffffffffff1673ffffffffffffffffffffffffffffffffffffffff168152602001908152602001600020819055505b505050565b6000806001600760008573ffffffffffffffffffffffffffffffffffffffff1673ffffffffffffffffffffffffffffffffffffffff16815260200190815260200160002054611c7f9190612983565b9050600060068281548110611cbd577f4e487b7100000000000000000000000000000000000000000000000000000000600052603260045260246000fd5b9060005260206000209060060201604051806101000160405290816000820160009054906101000a900460ff1660ff1660ff1681526020016000820160019054906101000a900460ff1660ff1660ff168152602001600182015481526020016002820154815260200160038201548152602001600482018054611d3f90612aec565b80601f0160208091040260200160405190810160405280929190818152602001828054611d6b90612aec565b8015611db85780601f10611d8d57610100808354040283529160200191611db8565b820191906000526020600020905b815481529060010190602001808311611d9b57829003601f168201915b505050505081526020016005820160009054906101000a900473ffffffffffffffffffffffffffffffffffffffff1673ffffffffffffffffffffffffffffffffffffffff1673ffffffffffffffffffffffffffffffffffffffff1681526020016005820160149054906101000a900460ff1615151515815250509050806000015160ff16600a60008673ffffffffffffffffffffffffffffffffffffffff1673ffffffffffffffffffffffffffffffffffffffff16815260200190815260200160002060009054906101000a900460ff1660ff161492505050919050565b604051806101000160405280600060ff168152602001600060ff16815260200160008152602001600081526020016000815260200160608152602001600073ffffffffffffffffffffffffffffffffffffffff1681526020016000151581525090565b828054611f0590612aec565b90600052602060002090601f016020900481019282611f275760008555611f6e565b82601f10611f4057805160ff1916838001178555611f6e565b82800160010185558215611f6e579182015b82811115611f6d578251825591602001919060010190611f52565b5b509050611f7b9190611f7f565b5090565b5b80821115611f98576000816000905550600101611f80565b5090565b6000611faf611faa84612867565b612842565b905082815260208101848484011115611fc757600080fd5b611fd2848285612aaa565b509392505050565b600081359050611fe981612e7b565b92915050565b600082601f83011261200057600080fd5b8135612010848260208601611f9c565b91505092915050565b60008135905061202881612e92565b92915050565b60008151905061203d81612e92565b92915050565b60008135905061205281612ea9565b92915050565b60006020828403121561206a57600080fd5b600061207884828501611fda565b91505092915050565b6000806040838503121561209457600080fd5b600083013567ffffffffffffffff8111156120ae57600080fd5b6120ba85828601611fef565b92505060206120cb85828601612043565b9150509250929050565b6000602082840312156120e757600080fd5b60006120f584828501612019565b91505092915050565b60006020828403121561211057600080fd5b600061211e8482850161202e565b91505092915050565b612130816129b7565b82525050565b61213f816129b7565b82525050565b61214e816129c9565b82525050565b61215d816129c9565b82525050565b61216c81612a1a565b82525050565b61217b81612a3e565b82525050565b61218a81612a62565b82525050565b61219981612a86565b82525050565b6121a881612a98565b82525050565b60006121b982612898565b6121c381856128a3565b93506121d3818560208601612ab9565b6121dc81612c35565b840191505092915050565b60006121f282612898565b6121fc81856128b4565b935061220c818560208601612ab9565b61221581612c35565b840191505092915050565b600061222d601b836128b4565b915061223882612c46565b602082019050919050565b6000612250601e836128b4565b915061225b82612c6f565b602082019050919050565b6000612273601c836128b4565b915061227e82612c98565b602082019050919050565b6000612296601d836128b4565b91506122a182612cc1565b602082019050919050565b60006122b9601d836128b4565b91506122c482612cea565b602082019050919050565b60006122dc6018836128b4565b91506122e782612d13565b602082019050919050565b60006122ff6022836128b4565b915061230a82612d3c565b604082019050919050565b60006123226019836128b4565b915061232d82612d8b565b602082019050919050565b60006123456021836128b4565b915061235082612db4565b604082019050919050565b60006123686020836128b4565b915061237382612e03565b602082019050919050565b600061238b602d836128b4565b915061239682612e2c565b604082019050919050565b6000610100830160008301516123ba600086018261246f565b5060208301516123cd602086018261246f565b5060408301516123e06040860182612451565b5060608301516123f36060860182612451565b5060808301516124066080860182612451565b5060a083015184820360a086015261241e82826121ae565b91505060c083015161243360c0860182612127565b5060e083015161244660e0860182612145565b508091505092915050565b61245a81612a03565b82525050565b61246981612a03565b82525050565b61247881612a0d565b82525050565b61248781612a0d565b82525050565b60006020820190506124a26000830184612136565b92915050565b60006040820190506124bd6000830185612136565b6124ca602083018461219f565b9392505050565b60006040820190506124e66000830185612136565b6124f36020830184612460565b9392505050565b600060808201905061250f6000830187612136565b61251c6020830186612460565b6125296040830185612136565b6125366060830184612190565b95945050505050565b600060a0820190506125546000830188612136565b6125616020830187612460565b818103604083015261257381866121e7565b90506125826060830185612460565b61258f6080830184612154565b9695505050505050565b60006020820190506125ae6000830184612154565b92915050565b60006020820190506125c96000830184612163565b92915050565b60006020820190506125e46000830184612172565b92915050565b60006020820190506125ff6000830184612181565b92915050565b6000602082019050818103600083015261261e81612220565b9050919050565b6000602082019050818103600083015261263e81612243565b9050919050565b6000602082019050818103600083015261265e81612266565b9050919050565b6000602082019050818103600083015261267e81612289565b9050919050565b6000602082019050818103600083015261269e816122ac565b9050919050565b600060208201905081810360008301526126be816122cf565b9050919050565b600060208201905081810360008301526126de816122f2565b9050919050565b600060208201905081810360008301526126fe81612315565b9050919050565b6000602082019050818103600083015261271e81612338565b9050919050565b6000602082019050818103600083015261273e8161235b565b9050919050565b6000602082019050818103600083015261275e8161237e565b9050919050565b6000602082019050818103600083015261277f81846123a1565b905092915050565b600060208201905061279c6000830184612460565b92915050565b60006020820190506127b7600083018461247e565b92915050565b6000610100820190506127d3600083018b61247e565b6127e0602083018a61247e565b6127ed6040830189612460565b6127fa6060830188612460565b6128076080830187612460565b81810360a083015261281981866121e7565b905061282860c0830185612136565b61283560e0830184612154565b9998505050505050505050565b600061284c61285d565b90506128588282612b1e565b919050565b6000604051905090565b600067ffffffffffffffff82111561288257612881612c06565b5b61288b82612c35565b9050602081019050919050565b600081519050919050565b600082825260208201905092915050565b600082825260208201905092915050565b60006128d082612a03565b91506128db83612a03565b9250827fffffffffffffffffffffffffffffffffffffffffffffffffffffffffffffffff038211156129105761290f612b79565b5b828201905092915050565b600061292682612a0d565b915061293183612a0d565b92508260ff0382111561294757612946612b79565b5b828201905092915050565b600061295d82612a03565b915061296883612a03565b92508261297857612977612ba8565b5b828204905092915050565b600061298e82612a03565b915061299983612a03565b9250828210156129ac576129ab612b79565b5b828203905092915050565b60006129c2826129e3565b9050919050565b60008115159050919050565b600061ffff82169050919050565b600073ffffffffffffffffffffffffffffffffffffffff82169050919050565b6000819050919050565b600060ff82169050919050565b6000612a2582612a2c565b9050919050565b6000612a37826129e3565b9050919050565b6000612a4982612a50565b9050919050565b6000612a5b826129e3565b9050919050565b6000612a6d82612a74565b9050919050565b6000612a7f826129e3565b9050919050565b6000612a91826129d5565b9050919050565b6000612aa382612a03565b9050919050565b82818337600083830152505050565b60005b83811015612ad7578082015181840152602081019050612abc565b83811115612ae6576000848401525b50505050565b60006002820490506001821680612b0457607f821691505b60208210811415612b1857612b17612bd7565b5b50919050565b612b2782612c35565b810181811067ffffffffffffffff82111715612b4657612b45612c06565b5b80604052505050565b6000612b5a82612a0d565b915060ff821415612b6e57612b6d612b79565b5b600182019050919050565b7f4e487b7100000000000000000000000000000000000000000000000000000000600052601160045260246000fd5b7f4e487b7100000000000000000000000000000000000000000000000000000000600052601260045260246000fd5b7f4e487b7100000000000000000000000000000000000000000000000000000000600052602260045260246000fd5b7f4e487b7100000000000000000000000000000000000000000000000000000000600052604160045260246000fd5b6000601f19601f8301169050919050565b7f4f6e6c7920526567697374656420557365727320416c6c6f7765640000000000600082015250565b7f4d6178696d756d206f662032353520646179732041636365707461626c650000600082015250565b7f5573657220496e74656e74696f6e206973206e6f742061637469766500000000600082015250565b7f4d696e696d756d206f6620323120646179732041636365707461626c65000000600082015250565b7f6f6e6c79206f776e65722063616e2077697468647261772066756e6473000000600082015250565b7f517565737420686173206265656e20636f6d706c657465640000000000000000600082015250565b7f596f752063616e6e6f7420636865636b696e2077697468696e20323420486f7560008201527f7273000000000000000000000000000000000000000000000000000000000000602082015250565b7f4f6e6c792061637469766520757365727320416c6c6f77656400000000000000600082015250565b7f4d696e696d756d20416d6f756e74206f66202e3120457468205265717569726560008201527f6400000000000000000000000000000000000000000000000000000000000000602082015250565b7f5573657220686173206e6f205265676973746572656420496e74656e74696f6e600082015250565b7f596f752063616e206f6e6c792068617665206f6e65206861626974207472616360008201527f6b656420617420612074696d6500000000000000000000000000000000000000602082015250565b612e84816129b7565b8114612e8f57600080fd5b50565b612e9b81612a03565b8114612ea657600080fd5b50565b612eb281612a0d565b8114612ebd57600080fd5b5056fea26469706673582212201ee4c792093424422f7013ef09f3eda406bbb889b1f505acf0a26d581dc58f4464736f6c6343000801003360806040523480156200001157600080fd5b506040518060400160405280600781526020017f48616269747632000000000000000000000000000000000000000000000000008152506040518060400160405280600381526020017f4842540000000000000000000000000000000000000000000000000000000000815250816003908051906020019062000096929190620001a6565b508060049080519060200190620000af929190620001a6565b505050620000d2620000c6620000d860201b60201c565b620000e060201b60201c565b620002bb565b600033905090565b6000600560009054906101000a900473ffffffffffffffffffffffffffffffffffffffff16905081600560006101000a81548173ffffffffffffffffffffffffffffffffffffffff021916908373ffffffffffffffffffffffffffffffffffffffff1602179055508173ffffffffffffffffffffffffffffffffffffffff168173ffffffffffffffffffffffffffffffffffffffff167f8be0079c531659141344cd1fd0a4f28419497f9722a3daafe3b4186f6b6457e060405160405180910390a35050565b828054620001b49062000256565b90600052602060002090601f016020900481019282620001d8576000855562000224565b82601f10620001f357805160ff191683800117855562000224565b8280016001018555821562000224579182015b828111156200022357825182559160200191906001019062000206565b5b50905062000233919062000237565b5090565b5b808211156200025257600081600090555060010162000238565b5090565b600060028204905060018216806200026f57607f821691505b602082108114156200028657620002856200028c565b5b50919050565b7f4e487b7100000000000000000000000000000000000000000000000000000000600052602260045260246000fd5b611db380620002cb6000396000f3fe608060405234801561001057600080fd5b50600436106101005760003560e01c8063715018a611610097578063a457c2d711610066578063a457c2d71461029d578063a9059cbb146102cd578063dd62ed3e146102fd578063f2fde38b1461032d57610100565b8063715018a61461023b5780638da5cb5b1461024557806395d89b41146102635780639dc29fac1461028157610100565b8063313ce567116100d3578063313ce567146101a157806339509351146101bf57806340c10f19146101ef57806370a082311461020b57610100565b806306fdde0314610105578063095ea7b31461012357806318160ddd1461015357806323b872dd14610171575b600080fd5b61010d610349565b60405161011a9190611666565b60405180910390f35b61013d600480360381019061013891906113db565b6103db565b60405161014a919061164b565b60405180910390f35b61015b6103fe565b6040516101689190611808565b60405180910390f35b61018b6004803603810190610186919061138c565b610408565b604051610198919061164b565b60405180910390f35b6101a9610437565b6040516101b69190611823565b60405180910390f35b6101d960048036038101906101d491906113db565b610440565b6040516101e6919061164b565b60405180910390f35b610209600480360381019061020491906113db565b6104ea565b005b61022560048036038101906102209190611327565b610574565b6040516102329190611808565b60405180910390f35b6102436105bc565b005b61024d610644565b60405161025a9190611630565b60405180910390f35b61026b61066e565b6040516102789190611666565b60405180910390f35b61029b600480360381019061029691906113db565b610700565b005b6102b760048036038101906102b291906113db565b61078a565b6040516102c4919061164b565b60405180910390f35b6102e760048036038101906102e291906113db565b610874565b6040516102f4919061164b565b60405180910390f35b61031760048036038101906103129190611350565b610897565b6040516103249190611808565b60405180910390f35b61034760048036038101906103429190611327565b61091e565b005b6060600380546103589061196c565b80601f01602080910402602001604051908101604052809291908181526020018280546103849061196c565b80156103d15780601f106103a6576101008083540402835291602001916103d1565b820191906000526020600020905b8154815290600101906020018083116103b457829003601f168201915b5050505050905090565b6000806103e6610a16565b90506103f3818585610a1e565b600191505092915050565b6000600254905090565b600080610413610a16565b9050610420858285610be9565b61042b858585610c75565b60019150509392505050565b60006012905090565b60008061044b610a16565b90506104df818585600160008673ffffffffffffffffffffffffffffffffffffffff1673ffffffffffffffffffffffffffffffffffffffff16815260200190815260200160002060008973ffffffffffffffffffffffffffffffffffffffff1673ffffffffffffffffffffffffffffffffffffffff168152602001908152602001600020546104da919061185a565b610a1e565b600191505092915050565b6104f2610a16565b73ffffffffffffffffffffffffffffffffffffffff16610510610644565b73ffffffffffffffffffffffffffffffffffffffff1614610566576040517f08c379a000000000000000000000000000000000000000000000000000000000815260040161055d90611748565b60405180910390fd5b6105708282610ef6565b5050565b60008060008373ffffffffffffffffffffffffffffffffffffffff1673ffffffffffffffffffffffffffffffffffffffff168152602001908152602001600020549050919050565b6105c4610a16565b73ffffffffffffffffffffffffffffffffffffffff166105e2610644565b73ffffffffffffffffffffffffffffffffffffffff1614610638576040517f08c379a000000000000000000000000000000000000000000000000000000000815260040161062f90611748565b60405180910390fd5b6106426000611056565b565b6000600560009054906101000a900473ffffffffffffffffffffffffffffffffffffffff16905090565b60606004805461067d9061196c565b80601f01602080910402602001604051908101604052809291908181526020018280546106a99061196c565b80156106f65780601f106106cb576101008083540402835291602001916106f6565b820191906000526020600020905b8154815290600101906020018083116106d957829003601f168201915b5050505050905090565b610708610a16565b73ffffffffffffffffffffffffffffffffffffffff16610726610644565b73ffffffffffffffffffffffffffffffffffffffff161461077c576040517f08c379a000000000000000000000000000000000000000000000000000000000815260040161077390611748565b60405180910390fd5b610786828261111c565b5050565b600080610795610a16565b90506000600160008373ffffffffffffffffffffffffffffffffffffffff1673ffffffffffffffffffffffffffffffffffffffff16815260200190815260200160002060008673ffffffffffffffffffffffffffffffffffffffff1673ffffffffffffffffffffffffffffffffffffffff1681526020019081526020016000205490508381101561085b576040517f08c379a0000000000000000000000000000000000000000000000000000000008152600401610852906117c8565b60405180910390fd5b6108688286868403610a1e565b60019250505092915050565b60008061087f610a16565b905061088c818585610c75565b600191505092915050565b6000600160008473ffffffffffffffffffffffffffffffffffffffff1673ffffffffffffffffffffffffffffffffffffffff16815260200190815260200160002060008373ffffffffffffffffffffffffffffffffffffffff1673ffffffffffffffffffffffffffffffffffffffff16815260200190815260200160002054905092915050565b610926610a16565b73ffffffffffffffffffffffffffffffffffffffff16610944610644565b73ffffffffffffffffffffffffffffffffffffffff161461099a576040517f08c379a000000000000000000000000000000000000000000000000000000000815260040161099190611748565b60405180910390fd5b600073ffffffffffffffffffffffffffffffffffffffff168173ffffffffffffffffffffffffffffffffffffffff161415610a0a576040517f08c379a0000000000000000000000000000000000000000000000000000000008152600401610a01906116c8565b60405180910390fd5b610a1381611056565b50565b600033905090565b600073ffffffffffffffffffffffffffffffffffffffff168373ffffffffffffffffffffffffffffffffffffffff161415610a8e576040517f08c379a0000000000000000000000000000000000000000000000000000000008152600401610a85906117a8565b60405180910390fd5b600073ffffffffffffffffffffffffffffffffffffffff168273ffffffffffffffffffffffffffffffffffffffff161415610afe576040517f08c379a0000000000000000000000000000000000000000000000000000000008152600401610af5906116e8565b60405180910390fd5b80600160008573ffffffffffffffffffffffffffffffffffffffff1673ffffffffffffffffffffffffffffffffffffffff16815260200190815260200160002060008473ffffffffffffffffffffffffffffffffffffffff1673ffffffffffffffffffffffffffffffffffffffff168152602001908152602001600020819055508173ffffffffffffffffffffffffffffffffffffffff168373ffffffffffffffffffffffffffffffffffffffff167f8c5be1e5ebec7d5bd14f71427d1e84f3dd0314c0f7b2291e5b200ac8c7c3b92583604051610bdc9190611808565b60405180910390a3505050565b6000610bf58484610897565b90507fffffffffffffffffffffffffffffffffffffffffffffffffffffffffffffffff8114610c6f5781811015610c61576040517f08c379a0000000000000000000000000000000000000000000000000000000008152600401610c5890611708565b60405180910390fd5b610c6e8484848403610a1e565b5b50505050565b600073ffffffffffffffffffffffffffffffffffffffff168373ffffffffffffffffffffffffffffffffffffffff161415610ce5576040517f08c379a0000000000000000000000000000000000000000000000000000000008152600401610cdc90611788565b60405180910390fd5b600073ffffffffffffffffffffffffffffffffffffffff168273ffffffffffffffffffffffffffffffffffffffff161415610d55576040517f08c379a0000000000000000000000000000000000000000000000000000000008152600401610d4c90611688565b60405180910390fd5b610d608383836112f3565b60008060008573ffffffffffffffffffffffffffffffffffffffff1673ffffffffffffffffffffffffffffffffffffffff16815260200190815260200160002054905081811015610de6576040517f08c379a0000000000000000000000000000000000000000000000000000000008152600401610ddd90611728565b60405180910390fd5b8181036000808673ffffffffffffffffffffffffffffffffffffffff1673ffffffffffffffffffffffffffffffffffffffff16815260200190815260200160002081905550816000808573ffffffffffffffffffffffffffffffffffffffff1673ffffffffffffffffffffffffffffffffffffffff1681526020019081526020016000206000828254610e79919061185a565b925050819055508273ffffffffffffffffffffffffffffffffffffffff168473ffffffffffffffffffffffffffffffffffffffff167fddf252ad1be2c89b69c2b068fc378daa952ba7f163c4a11628f55a4df523b3ef84604051610edd9190611808565b60405180910390a3610ef08484846112f8565b50505050565b600073ffffffffffffffffffffffffffffffffffffffff168273ffffffffffffffffffffffffffffffffffffffff161415610f66576040517f08c379a0000000000000000000000000000000000000000000000000000000008152600401610f5d906117e8565b60405180910390fd5b610f72600083836112f3565b8060026000828254610f84919061185a565b92505081905550806000808473ffffffffffffffffffffffffffffffffffffffff1673ffffffffffffffffffffffffffffffffffffffff1681526020019081526020016000206000828254610fd9919061185a565b925050819055508173ffffffffffffffffffffffffffffffffffffffff16600073ffffffffffffffffffffffffffffffffffffffff167fddf252ad1be2c89b69c2b068fc378daa952ba7f163c4a11628f55a4df523b3ef8360405161103e9190611808565b60405180910390a3611052600083836112f8565b5050565b6000600560009054906101000a900473ffffffffffffffffffffffffffffffffffffffff16905081600560006101000a81548173ffffffffffffffffffffffffffffffffffffffff021916908373ffffffffffffffffffffffffffffffffffffffff1602179055508173ffffffffffffffffffffffffffffffffffffffff168173ffffffffffffffffffffffffffffffffffffffff167f8be0079c531659141344cd1fd0a4f28419497f9722a3daafe3b4186f6b6457e060405160405180910390a35050565b600073ffffffffffffffffffffffffffffffffffffffff168273ffffffffffffffffffffffffffffffffffffffff16141561118c576040517f08c379a000000000000000000000000000000000000000000000000000000000815260040161118390611768565b60405180910390fd5b611198826000836112f3565b60008060008473ffffffffffffffffffffffffffffffffffffffff1673ffffffffffffffffffffffffffffffffffffffff1681526020019081526020016000205490508181101561121e576040517f08c379a0000000000000000000000000000000000000000000000000000000008152600401611215906116a8565b60405180910390fd5b8181036000808573ffffffffffffffffffffffffffffffffffffffff1673ffffffffffffffffffffffffffffffffffffffff16815260200190815260200160002081905550816002600082825461127591906118b0565b92505081905550600073ffffffffffffffffffffffffffffffffffffffff168373ffffffffffffffffffffffffffffffffffffffff167fddf252ad1be2c89b69c2b068fc378daa952ba7f163c4a11628f55a4df523b3ef846040516112da9190611808565b60405180910390a36112ee836000846112f8565b505050565b505050565b505050565b60008135905061130c81611d4f565b92915050565b60008135905061132181611d66565b92915050565b60006020828403121561133957600080fd5b6000611347848285016112fd565b91505092915050565b6000806040838503121561136357600080fd5b6000611371858286016112fd565b9250506020611382858286016112fd565b9150509250929050565b6000806000606084860312156113a157600080fd5b60006113af868287016112fd565b93505060206113c0868287016112fd565b92505060406113d186828701611312565b9150509250925092565b600080604083850312156113ee57600080fd5b60006113fc858286016112fd565b925050602061140d85828601611312565b9150509250929050565b611420816118e4565b82525050565b61142f816118f6565b82525050565b60006114408261183e565b61144a8185611849565b935061145a818560208601611939565b611463816119fc565b840191505092915050565b600061147b602383611849565b915061148682611a0d565b604082019050919050565b600061149e602283611849565b91506114a982611a5c565b604082019050919050565b60006114c1602683611849565b91506114cc82611aab565b604082019050919050565b60006114e4602283611849565b91506114ef82611afa565b604082019050919050565b6000611507601d83611849565b915061151282611b49565b602082019050919050565b600061152a602683611849565b915061153582611b72565b604082019050919050565b600061154d602083611849565b915061155882611bc1565b602082019050919050565b6000611570602183611849565b915061157b82611bea565b604082019050919050565b6000611593602583611849565b915061159e82611c39565b604082019050919050565b60006115b6602483611849565b91506115c182611c88565b604082019050919050565b60006115d9602583611849565b91506115e482611cd7565b604082019050919050565b60006115fc601f83611849565b915061160782611d26565b602082019050919050565b61161b81611922565b82525050565b61162a8161192c565b82525050565b60006020820190506116456000830184611417565b92915050565b60006020820190506116606000830184611426565b92915050565b600060208201905081810360008301526116808184611435565b905092915050565b600060208201905081810360008301526116a18161146e565b9050919050565b600060208201905081810360008301526116c181611491565b9050919050565b600060208201905081810360008301526116e1816114b4565b9050919050565b60006020820190508181036000830152611701816114d7565b9050919050565b60006020820190508181036000830152611721816114fa565b9050919050565b600060208201905081810360008301526117418161151d565b9050919050565b6000602082019050818103600083015261176181611540565b9050919050565b6000602082019050818103600083015261178181611563565b9050919050565b600060208201905081810360008301526117a181611586565b9050919050565b600060208201905081810360008301526117c1816115a9565b9050919050565b600060208201905081810360008301526117e1816115cc565b9050919050565b60006020820190508181036000830152611801816115ef565b9050919050565b600060208201905061181d6000830184611612565b92915050565b60006020820190506118386000830184611621565b92915050565b600081519050919050565b600082825260208201905092915050565b600061186582611922565b915061187083611922565b9250827fffffffffffffffffffffffffffffffffffffffffffffffffffffffffffffffff038211156118a5576118a461199e565b5b828201905092915050565b60006118bb82611922565b91506118c683611922565b9250828210156118d9576118d861199e565b5b828203905092915050565b60006118ef82611902565b9050919050565b60008115159050919050565b600073ffffffffffffffffffffffffffffffffffffffff82169050919050565b6000819050919050565b600060ff82169050919050565b60005b8381101561195757808201518184015260208101905061193c565b83811115611966576000848401525b50505050565b6000600282049050600182168061198457607f821691505b60208210811415611998576119976119cd565b5b50919050565b7f4e487b7100000000000000000000000000000000000000000000000000000000600052601160045260246000fd5b7f4e487b7100000000000000000000000000000000000000000000000000000000600052602260045260246000fd5b6000601f19601f8301169050919050565b7f45524332303a207472616e7366657220746f20746865207a65726f206164647260008201527f6573730000000000000000000000000000000000000000000000000000000000602082015250565b7f45524332303a206275726e20616d6f756e7420657863656564732062616c616e60008201527f6365000000000000000000000000000000000000000000000000000000000000602082015250565b7f4f776e61626c653a206e6577206f776e657220697320746865207a65726f206160008201527f6464726573730000000000000000000000000000000000000000000000000000602082015250565b7f45524332303a20617070726f766520746f20746865207a65726f20616464726560008201527f7373000000000000000000000000000000000000000000000000000000000000602082015250565b7f45524332303a20696e73756666696369656e7420616c6c6f77616e6365000000600082015250565b7f45524332303a207472616e7366657220616d6f756e742065786365656473206260008201527f616c616e63650000000000000000000000000000000000000000000000000000602082015250565b7f4f776e61626c653a2063616c6c6572206973206e6f7420746865206f776e6572600082015250565b7f45524332303a206275726e2066726f6d20746865207a65726f2061646472657360008201527f7300000000000000000000000000000000000000000000000000000000000000602082015250565b7f45524332303a207472616e736665722066726f6d20746865207a65726f20616460008201527f6472657373000000000000000000000000000000000000000000000000000000602082015250565b7f45524332303a20617070726f76652066726f6d20746865207a65726f2061646460008201527f7265737300000000000000000000000000000000000000000000000000000000602082015250565b7f45524332303a2064656372656173656420616c6c6f77616e63652062656c6f7760008201527f207a65726f000000000000000000000000000000000000000000000000000000602082015250565b7f45524332303a206d696e7420746f20746865207a65726f206164647265737300600082015250565b611d58816118e4565b8114611d6357600080fd5b50565b611d6f81611922565b8114611d7a57600080fd5b5056fea2646970667358221220b6d5a9eb4df98f593442112aafa8a908ec10d114bbcefc4d93335e5b2443f18964736f6c6343000801003360806040523480156200001157600080fd5b506040518060400160405280600881526020017f48616269744e46540000000000000000000000000000000000000000000000008152506040518060400160405280600381526020017f4842540000000000000000000000000000000000000000000000000000000000815250816000908051906020019062000096929190620001a6565b508060019080519060200190620000af929190620001a6565b505050620000d2620000c6620000d860201b60201c565b620000e060201b60201c565b620002bb565b600033905090565b6000600760009054906101000a900473ffffffffffffffffffffffffffffffffffffffff16905081600760006101000a81548173ffffffffffffffffffffffffffffffffffffffff021916908373ffffffffffffffffffffffffffffffffffffffff1602179055508173ffffffffffffffffffffffffffffffffffffffff168173ffffffffffffffffffffffffffffffffffffffff167f8be0079c531659141344cd1fd0a4f28419497f9722a3daafe3b4186f6b6457e060405160405180910390a35050565b828054620001b49062000256565b90600052602060002090601f016020900481019282620001d8576000855562000224565b82601f10620001f357805160ff191683800117855562000224565b8280016001018555821562000224579182015b828111156200022357825182559160200191906001019062000206565b5b50905062000233919062000237565b5090565b5b808211156200025257600081600090555060010162000238565b5090565b600060028204905060018216806200026f57607f821691505b602082108114156200028657620002856200028c565b5b50919050565b7f4e487b7100000000000000000000000000000000000000000000000000000000600052602260045260246000fd5b61315980620002cb6000396000f3fe608060405234801561001057600080fd5b50600436106101165760003560e01c8063715018a6116100a2578063b88d4fde11610071578063b88d4fde146102cb578063c87b56dd146102e7578063e985e9c514610317578063f2fb212014610347578063f2fde38b1461037757610116565b8063715018a6146102695780638da5cb5b1461027357806395d89b4114610291578063a22cb465146102af57610116565b806323b872dd116100e957806323b872dd146101b557806342842e0e146101d157806355f804b3146101ed5780636352211e1461020957806370a082311461023957610116565b806301ffc9a71461011b57806306fdde031461014b578063081812fc14610169578063095ea7b314610199575b600080fd5b61013560048036038101906101309190612027565b610393565b6040516101429190612521565b60405180910390f35b610153610475565b604051610160919061253c565b60405180910390f35b610183600480360381019061017e91906120ba565b610507565b60405161019091906124ba565b60405180910390f35b6101b360048036038101906101ae9190611feb565b61058c565b005b6101cf60048036038101906101ca9190611ee5565b6106a4565b005b6101eb60048036038101906101e69190611ee5565b610704565b005b61020760048036038101906102029190612079565b610724565b005b610223600480360381019061021e91906120ba565b6107ba565b60405161023091906124ba565b60405180910390f35b610253600480360381019061024e9190611e80565b61086c565b604051610260919061279e565b60405180910390f35b610271610924565b005b61027b6109ac565b60405161028891906124ba565b60405180910390f35b6102996109d6565b6040516102a6919061253c565b60405180910390f35b6102c960048036038101906102c49190611faf565b610a68565b005b6102e560048036038101906102e09190611f34565b610a7e565b005b61030160048036038101906102fc91906120ba565b610ae0565b60405161030e919061253c565b60405180910390f35b610331600480360381019061032c9190611ea9565b610c32565b60405161033e9190612521565b60405180910390f35b610361600480360381019061035c9190611e80565b610cc6565b60405161036e919061279e565b60405180910390f35b610391600480360381019061038c9190611e80565b610d25565b005b60007f80ac58cd000000000000000000000000000000000000000000000000000000007bffffffffffffffffffffffffffffffffffffffffffffffffffffffff1916827bffffffffffffffffffffffffffffffffffffffffffffffffffffffff1916148061045e57507f5b5e139f000000000000000000000000000000000000000000000000000000007bffffffffffffffffffffffffffffffffffffffffffffffffffffffff1916827bffffffffffffffffffffffffffffffffffffffffffffffffffffffff1916145b8061046e575061046d82610e1d565b5b9050919050565b606060008054610484906129f4565b80601f01602080910402602001604051908101604052809291908181526020018280546104b0906129f4565b80156104fd5780601f106104d2576101008083540402835291602001916104fd565b820191906000526020600020905b8154815290600101906020018083116104e057829003601f168201915b5050505050905090565b600061051282610e87565b610551576040517f08c379a0000000000000000000000000000000000000000000000000000000008152600401610548906126fe565b60405180910390fd5b6004600083815260200190815260200160002060009054906101000a900473ffffffffffffffffffffffffffffffffffffffff169050919050565b6000610597826107ba565b90508073ffffffffffffffffffffffffffffffffffffffff168373ffffffffffffffffffffffffffffffffffffffff161415610608576040517f08c379a00000000000000000000000000000000000000000000000000000000081526004016105ff9061275e565b60405180910390fd5b8073ffffffffffffffffffffffffffffffffffffffff16610627610ef3565b73ffffffffffffffffffffffffffffffffffffffff161480610656575061065581610650610ef3565b610c32565b5b610695576040517f08c379a000000000000000000000000000000000000000000000000000000000815260040161068c9061263e565b60405180910390fd5b61069f8383610efb565b505050565b6106b56106af610ef3565b82610fb4565b6106f4576040517f08c379a00000000000000000000000000000000000000000000000000000000081526004016106eb9061277e565b60405180910390fd5b6106ff838383611092565b505050565b61071f83838360405180602001604052806000815250610a7e565b505050565b61072c610ef3565b73ffffffffffffffffffffffffffffffffffffffff1661074a6109ac565b73ffffffffffffffffffffffffffffffffffffffff16146107a0576040517f08c379a00000000000000000000000000000000000000000000000000000000081526004016107979061271e565b60405180910390fd5b80600990805190602001906107b6929190611ca4565b5050565b6000806002600084815260200190815260200160002060009054906101000a900473ffffffffffffffffffffffffffffffffffffffff169050600073ffffffffffffffffffffffffffffffffffffffff168173ffffffffffffffffffffffffffffffffffffffff161415610863576040517f08c379a000000000000000000000000000000000000000000000000000000000815260040161085a9061267e565b60405180910390fd5b80915050919050565b60008073ffffffffffffffffffffffffffffffffffffffff168273ffffffffffffffffffffffffffffffffffffffff1614156108dd576040517f08c379a00000000000000000000000000000000000000000000000000000000081526004016108d49061265e565b60405180910390fd5b600360008373ffffffffffffffffffffffffffffffffffffffff1673ffffffffffffffffffffffffffffffffffffffff168152602001908152602001600020549050919050565b61092c610ef3565b73ffffffffffffffffffffffffffffffffffffffff1661094a6109ac565b73ffffffffffffffffffffffffffffffffffffffff16146109a0576040517f08c379a00000000000000000000000000000000000000000000000000000000081526004016109979061271e565b60405180910390fd5b6109aa60006112f9565b565b6000600760009054906101000a900473ffffffffffffffffffffffffffffffffffffffff16905090565b6060600180546109e5906129f4565b80601f0160208091040260200160405190810160405280929190818152602001828054610a11906129f4565b8015610a5e5780601f10610a3357610100808354040283529160200191610a5e565b820191906000526020600020905b815481529060010190602001808311610a4157829003601f168201915b5050505050905090565b610a7a610a73610ef3565b83836113bf565b5050565b610a8f610a89610ef3565b83610fb4565b610ace576040517f08c379a0000000000000000000000000000000000000000000000000000000008152600401610ac59061277e565b60405180910390fd5b610ada8484848461152c565b50505050565b6060610aeb82610e87565b610b2a576040517f08c379a0000000000000000000000000000000000000000000000000000000008152600401610b21906126de565b60405180910390fd5b6000600660008481526020019081526020016000208054610b4a906129f4565b80601f0160208091040260200160405190810160405280929190818152602001828054610b76906129f4565b8015610bc35780601f10610b9857610100808354040283529160200191610bc3565b820191906000526020600020905b815481529060010190602001808311610ba657829003601f168201915b505050505090506000610bd4611588565b9050600081511415610bea578192505050610c2d565b600082511115610c1f578082604051602001610c07929190612463565b60405160208183030381529060405292505050610c2d565b610c288461161a565b925050505b919050565b6000600560008473ffffffffffffffffffffffffffffffffffffffff1673ffffffffffffffffffffffffffffffffffffffff16815260200190815260200160002060008373ffffffffffffffffffffffffffffffffffffffff1673ffffffffffffffffffffffffffffffffffffffff16815260200190815260200160002060009054906101000a900460ff16905092915050565b6000610cd260086116c1565b6000610cde60086116d7565b9050610cea83826116e5565b610d1c81610cf6611588565b83604051602001610d08929190612487565b6040516020818303038152906040526118bf565b80915050919050565b610d2d610ef3565b73ffffffffffffffffffffffffffffffffffffffff16610d4b6109ac565b73ffffffffffffffffffffffffffffffffffffffff1614610da1576040517f08c379a0000000000000000000000000000000000000000000000000000000008152600401610d989061271e565b60405180910390fd5b600073ffffffffffffffffffffffffffffffffffffffff168173ffffffffffffffffffffffffffffffffffffffff161415610e11576040517f08c379a0000000000000000000000000000000000000000000000000000000008152600401610e089061257e565b60405180910390fd5b610e1a816112f9565b50565b60007f01ffc9a7000000000000000000000000000000000000000000000000000000007bffffffffffffffffffffffffffffffffffffffffffffffffffffffff1916827bffffffffffffffffffffffffffffffffffffffffffffffffffffffff1916149050919050565b60008073ffffffffffffffffffffffffffffffffffffffff166002600084815260200190815260200160002060009054906101000a900473ffffffffffffffffffffffffffffffffffffffff1673ffffffffffffffffffffffffffffffffffffffff1614159050919050565b600033905090565b816004600083815260200190815260200160002060006101000a81548173ffffffffffffffffffffffffffffffffffffffff021916908373ffffffffffffffffffffffffffffffffffffffff160217905550808273ffffffffffffffffffffffffffffffffffffffff16610f6e836107ba565b73ffffffffffffffffffffffffffffffffffffffff167f8c5be1e5ebec7d5bd14f71427d1e84f3dd0314c0f7b2291e5b200ac8c7c3b92560405160405180910390a45050565b6000610fbf82610e87565b610ffe576040517f08c379a0000000000000000000000000000000000000000000000000000000008152600401610ff59061261e565b60405180910390fd5b6000611009836107ba565b90508073ffffffffffffffffffffffffffffffffffffffff168473ffffffffffffffffffffffffffffffffffffffff16148061107857508373ffffffffffffffffffffffffffffffffffffffff1661106084610507565b73ffffffffffffffffffffffffffffffffffffffff16145b8061108957506110888185610c32565b5b91505092915050565b8273ffffffffffffffffffffffffffffffffffffffff166110b2826107ba565b73ffffffffffffffffffffffffffffffffffffffff1614611108576040517f08c379a00000000000000000000000000000000000000000000000000000000081526004016110ff9061259e565b60405180910390fd5b600073ffffffffffffffffffffffffffffffffffffffff168273ffffffffffffffffffffffffffffffffffffffff161415611178576040517f08c379a000000000000000000000000000000000000000000000000000000000815260040161116f906125de565b60405180910390fd5b611183838383611933565b61118e600082610efb565b6001600360008573ffffffffffffffffffffffffffffffffffffffff1673ffffffffffffffffffffffffffffffffffffffff16815260200190815260200160002060008282546111de919061290a565b925050819055506001600360008473ffffffffffffffffffffffffffffffffffffffff1673ffffffffffffffffffffffffffffffffffffffff16815260200190815260200160002060008282546112359190612883565b92505081905550816002600083815260200190815260200160002060006101000a81548173ffffffffffffffffffffffffffffffffffffffff021916908373ffffffffffffffffffffffffffffffffffffffff160217905550808273ffffffffffffffffffffffffffffffffffffffff168473ffffffffffffffffffffffffffffffffffffffff167fddf252ad1be2c89b69c2b068fc378daa952ba7f163c4a11628f55a4df523b3ef60405160405180910390a46112f4838383611938565b505050565b6000600760009054906101000a900473ffffffffffffffffffffffffffffffffffffffff16905081600760006101000a81548173ffffffffffffffffffffffffffffffffffffffff021916908373ffffffffffffffffffffffffffffffffffffffff1602179055508173ffffffffffffffffffffffffffffffffffffffff168173ffffffffffffffffffffffffffffffffffffffff167f8be0079c531659141344cd1fd0a4f28419497f9722a3daafe3b4186f6b6457e060405160405180910390a35050565b8173ffffffffffffffffffffffffffffffffffffffff168373ffffffffffffffffffffffffffffffffffffffff16141561142e576040517f08c379a0000000000000000000000000000000000000000000000000000000008152600401611425906125fe565b60405180910390fd5b80600560008573ffffffffffffffffffffffffffffffffffffffff1673ffffffffffffffffffffffffffffffffffffffff16815260200190815260200160002060008473ffffffffffffffffffffffffffffffffffffffff1673ffffffffffffffffffffffffffffffffffffffff16815260200190815260200160002060006101000a81548160ff0219169083151502179055508173ffffffffffffffffffffffffffffffffffffffff168373ffffffffffffffffffffffffffffffffffffffff167f17307eab39ab6107e8899845ad3d59bd9653f200f220920489ca2b5937696c318360405161151f9190612521565b60405180910390a3505050565b611537848484611092565b6115438484848461193d565b611582576040517f08c379a00000000000000000000000000000000000000000000000000000000081526004016115799061255e565b60405180910390fd5b50505050565b606060098054611597906129f4565b80601f01602080910402602001604051908101604052809291908181526020018280546115c3906129f4565b80156116105780601f106115e557610100808354040283529160200191611610565b820191906000526020600020905b8154815290600101906020018083116115f357829003601f168201915b5050505050905090565b606061162582610e87565b611664576040517f08c379a000000000000000000000000000000000000000000000000000000000815260040161165b9061273e565b60405180910390fd5b600061166e611588565b9050600081511161168e57604051806020016040528060008152506116b9565b8061169884611ad4565b6040516020016116a9929190612463565b6040516020818303038152906040525b915050919050565b6001816000016000828254019250508190555050565b600081600001549050919050565b600073ffffffffffffffffffffffffffffffffffffffff168273ffffffffffffffffffffffffffffffffffffffff161415611755576040517f08c379a000000000000000000000000000000000000000000000000000000000815260040161174c906126be565b60405180910390fd5b61175e81610e87565b1561179e576040517f08c379a0000000000000000000000000000000000000000000000000000000008152600401611795906125be565b60405180910390fd5b6117aa60008383611933565b6001600360008473ffffffffffffffffffffffffffffffffffffffff1673ffffffffffffffffffffffffffffffffffffffff16815260200190815260200160002060008282546117fa9190612883565b92505081905550816002600083815260200190815260200160002060006101000a81548173ffffffffffffffffffffffffffffffffffffffff021916908373ffffffffffffffffffffffffffffffffffffffff160217905550808273ffffffffffffffffffffffffffffffffffffffff16600073ffffffffffffffffffffffffffffffffffffffff167fddf252ad1be2c89b69c2b068fc378daa952ba7f163c4a11628f55a4df523b3ef60405160405180910390a46118bb60008383611938565b5050565b6118c882610e87565b611907576040517f08c379a00000000000000000000000000000000000000000000000000000000081526004016118fe9061269e565b60405180910390fd5b8060066000848152602001908152602001600020908051906020019061192e929190611ca4565b505050565b505050565b505050565b600061195e8473ffffffffffffffffffffffffffffffffffffffff16611c81565b15611ac7578373ffffffffffffffffffffffffffffffffffffffff1663150b7a02611987610ef3565b8786866040518563ffffffff1660e01b81526004016119a994939291906124d5565b602060405180830381600087803b1580156119c357600080fd5b505af19250505080156119f457506040513d601f19601f820116820180604052508101906119f19190612050565b60015b611a77573d8060008114611a24576040519150601f19603f3d011682016040523d82523d6000602084013e611a29565b606091505b50600081511415611a6f576040517f08c379a0000000000000000000000000000000000000000000000000000000008152600401611a669061255e565b60405180910390fd5b805181602001fd5b63150b7a0260e01b7bffffffffffffffffffffffffffffffffffffffffffffffffffffffff1916817bffffffffffffffffffffffffffffffffffffffffffffffffffffffff191614915050611acc565b600190505b949350505050565b60606000821415611b1c576040518060400160405280600181526020017f30000000000000000000000000000000000000000000000000000000000000008152509050611c7c565b600082905060005b60008214611b4e578080611b3790612a57565b915050600a82611b4791906128d9565b9150611b24565b60008167ffffffffffffffff811115611b90577f4e487b7100000000000000000000000000000000000000000000000000000000600052604160045260246000fd5b6040519080825280601f01601f191660200182016040528015611bc25781602001600182028036833780820191505090505b5090505b60008514611c7557600182611bdb919061290a565b9150600a85611bea9190612aaa565b6030611bf69190612883565b60f81b818381518110611c32577f4e487b7100000000000000000000000000000000000000000000000000000000600052603260045260246000fd5b60200101907effffffffffffffffffffffffffffffffffffffffffffffffffffffffffffff1916908160001a905350600a85611c6e91906128d9565b9450611bc6565b8093505050505b919050565b6000808273ffffffffffffffffffffffffffffffffffffffff163b119050919050565b828054611cb0906129f4565b90600052602060002090601f016020900481019282611cd25760008555611d19565b82601f10611ceb57805160ff1916838001178555611d19565b82800160010185558215611d19579182015b82811115611d18578251825591602001919060010190611cfd565b5b509050611d269190611d2a565b5090565b5b80821115611d43576000816000905550600101611d2b565b5090565b6000611d5a611d55846127de565b6127b9565b905082815260208101848484011115611d7257600080fd5b611d7d8482856129b2565b509392505050565b6000611d98611d938461280f565b6127b9565b905082815260208101848484011115611db057600080fd5b611dbb8482856129b2565b509392505050565b600081359050611dd2816130c7565b92915050565b600081359050611de7816130de565b92915050565b600081359050611dfc816130f5565b92915050565b600081519050611e11816130f5565b92915050565b600082601f830112611e2857600080fd5b8135611e38848260208601611d47565b91505092915050565b600082601f830112611e5257600080fd5b8135611e62848260208601611d85565b91505092915050565b600081359050611e7a8161310c565b92915050565b600060208284031215611e9257600080fd5b6000611ea084828501611dc3565b91505092915050565b60008060408385031215611ebc57600080fd5b6000611eca85828601611dc3565b9250506020611edb85828601611dc3565b9150509250929050565b600080600060608486031215611efa57600080fd5b6000611f0886828701611dc3565b9350506020611f1986828701611dc3565b9250506040611f2a86828701611e6b565b9150509250925092565b60008060008060808587031215611f4a57600080fd5b6000611f5887828801611dc3565b9450506020611f6987828801611dc3565b9350506040611f7a87828801611e6b565b925050606085013567ffffffffffffffff811115611f9757600080fd5b611fa387828801611e17565b91505092959194509250565b60008060408385031215611fc257600080fd5b6000611fd085828601611dc3565b9250506020611fe185828601611dd8565b9150509250929050565b60008060408385031215611ffe57600080fd5b600061200c85828601611dc3565b925050602061201d85828601611e6b565b9150509250929050565b60006020828403121561203957600080fd5b600061204784828501611ded565b91505092915050565b60006020828403121561206257600080fd5b600061207084828501611e02565b91505092915050565b60006020828403121561208b57600080fd5b600082013567ffffffffffffffff8111156120a557600080fd5b6120b184828501611e41565b91505092915050565b6000602082840312156120cc57600080fd5b60006120da84828501611e6b565b91505092915050565b6120ec8161293e565b82525050565b6120fb81612950565b82525050565b600061210c82612840565b6121168185612856565b93506121268185602086016129c1565b61212f81612b97565b840191505092915050565b60006121458261284b565b61214f8185612867565b935061215f8185602086016129c1565b61216881612b97565b840191505092915050565b600061217e8261284b565b6121888185612878565b93506121988185602086016129c1565b80840191505092915050565b60006121b1603283612867565b91506121bc82612ba8565b604082019050919050565b60006121d4602683612867565b91506121df82612bf7565b604082019050919050565b60006121f7602583612867565b915061220282612c46565b604082019050919050565b600061221a601c83612867565b915061222582612c95565b602082019050919050565b600061223d602483612867565b915061224882612cbe565b604082019050919050565b6000612260601983612867565b915061226b82612d0d565b602082019050919050565b6000612283602c83612867565b915061228e82612d36565b604082019050919050565b60006122a6603883612867565b91506122b182612d85565b604082019050919050565b60006122c9602a83612867565b91506122d482612dd4565b604082019050919050565b60006122ec602983612867565b91506122f782612e23565b604082019050919050565b600061230f602e83612867565b915061231a82612e72565b604082019050919050565b6000612332602083612867565b915061233d82612ec1565b602082019050919050565b6000612355603183612867565b915061236082612eea565b604082019050919050565b6000612378602c83612867565b915061238382612f39565b604082019050919050565b600061239b602083612867565b91506123a682612f88565b602082019050919050565b60006123be602f83612867565b91506123c982612fb1565b604082019050919050565b60006123e1602183612867565b91506123ec82613000565b604082019050919050565b6000612404603183612867565b915061240f8261304f565b604082019050919050565b6000612427600183612878565b91506124328261309e565b600182019050919050565b612446816129a8565b82525050565b61245d612458826129a8565b612aa0565b82525050565b600061246f8285612173565b915061247b8284612173565b91508190509392505050565b60006124938285612173565b915061249e8261241a565b91506124aa828461244c565b6020820191508190509392505050565b60006020820190506124cf60008301846120e3565b92915050565b60006080820190506124ea60008301876120e3565b6124f760208301866120e3565b612504604083018561243d565b81810360608301526125168184612101565b905095945050505050565b600060208201905061253660008301846120f2565b92915050565b60006020820190508181036000830152612556818461213a565b905092915050565b60006020820190508181036000830152612577816121a4565b9050919050565b60006020820190508181036000830152612597816121c7565b9050919050565b600060208201905081810360008301526125b7816121ea565b9050919050565b600060208201905081810360008301526125d78161220d565b9050919050565b600060208201905081810360008301526125f781612230565b9050919050565b6000602082019050818103600083015261261781612253565b9050919050565b6000602082019050818103600083015261263781612276565b9050919050565b6000602082019050818103600083015261265781612299565b9050919050565b60006020820190508181036000830152612677816122bc565b9050919050565b60006020820190508181036000830152612697816122df565b9050919050565b600060208201905081810360008301526126b781612302565b9050919050565b600060208201905081810360008301526126d781612325565b9050919050565b600060208201905081810360008301526126f781612348565b9050919050565b600060208201905081810360008301526127178161236b565b9050919050565b600060208201905081810360008301526127378161238e565b9050919050565b60006020820190508181036000830152612757816123b1565b9050919050565b60006020820190508181036000830152612777816123d4565b9050919050565b60006020820190508181036000830152612797816123f7565b9050919050565b60006020820190506127b3600083018461243d565b92915050565b60006127c36127d4565b90506127cf8282612a26565b919050565b6000604051905090565b600067ffffffffffffffff8211156127f9576127f8612b68565b5b61280282612b97565b9050602081019050919050565b600067ffffffffffffffff82111561282a57612829612b68565b5b61283382612b97565b9050602081019050919050565b600081519050919050565b600081519050919050565b600082825260208201905092915050565b600082825260208201905092915050565b600081905092915050565b600061288e826129a8565b9150612899836129a8565b9250827fffffffffffffffffffffffffffffffffffffffffffffffffffffffffffffffff038211156128ce576128cd612adb565b5b828201905092915050565b60006128e4826129a8565b91506128ef836129a8565b9250826128ff576128fe612b0a565b5b828204905092915050565b6000612915826129a8565b9150612920836129a8565b92508282101561293357612932612adb565b5b828203905092915050565b600061294982612988565b9050919050565b60008115159050919050565b60007fffffffff0000000000000000000000000000000000000000000000000000000082169050919050565b600073ffffffffffffffffffffffffffffffffffffffff82169050919050565b6000819050919050565b82818337600083830152505050565b60005b838110156129df5780820151818401526020810190506129c4565b838111156129ee576000848401525b50505050565b60006002820490506001821680612a0c57607f821691505b60208210811415612a2057612a1f612b39565b5b50919050565b612a2f82612b97565b810181811067ffffffffffffffff82111715612a4e57612a4d612b68565b5b80604052505050565b6000612a62826129a8565b91507fffffffffffffffffffffffffffffffffffffffffffffffffffffffffffffffff821415612a9557612a94612adb565b5b600182019050919050565b6000819050919050565b6000612ab5826129a8565b9150612ac0836129a8565b925082612ad057612acf612b0a565b5b828206905092915050565b7f4e487b7100000000000000000000000000000000000000000000000000000000600052601160045260246000fd5b7f4e487b7100000000000000000000000000000000000000000000000000000000600052601260045260246000fd5b7f4e487b7100000000000000000000000000000000000000000000000000000000600052602260045260246000fd5b7f4e487b7100000000000000000000000000000000000000000000000000000000600052604160045260246000fd5b6000601f19601f8301169050919050565b7f4552433732313a207472616e7366657220746f206e6f6e20455243373231526560008201527f63656976657220696d706c656d656e7465720000000000000000000000000000602082015250565b7f4f776e61626c653a206e6577206f776e657220697320746865207a65726f206160008201527f6464726573730000000000000000000000000000000000000000000000000000602082015250565b7f4552433732313a207472616e736665722066726f6d20696e636f72726563742060008201527f6f776e6572000000000000000000000000000000000000000000000000000000602082015250565b7f4552433732313a20746f6b656e20616c7265616479206d696e74656400000000600082015250565b7f4552433732313a207472616e7366657220746f20746865207a65726f2061646460008201527f7265737300000000000000000000000000000000000000000000000000000000602082015250565b7f4552433732313a20617070726f766520746f2063616c6c657200000000000000600082015250565b7f4552433732313a206f70657261746f7220717565727920666f72206e6f6e657860008201527f697374656e7420746f6b656e0000000000000000000000000000000000000000602082015250565b7f4552433732313a20617070726f76652063616c6c6572206973206e6f74206f7760008201527f6e6572206e6f7220617070726f76656420666f7220616c6c0000000000000000602082015250565b7f4552433732313a2062616c616e636520717565727920666f7220746865207a6560008201527f726f206164647265737300000000000000000000000000000000000000000000602082015250565b7f4552433732313a206f776e657220717565727920666f72206e6f6e657869737460008201527f656e7420746f6b656e0000000000000000000000000000000000000000000000602082015250565b7f45524337323155524953746f726167653a2055524920736574206f66206e6f6e60008201527f6578697374656e7420746f6b656e000000000000000000000000000000000000602082015250565b7f4552433732313a206d696e7420746f20746865207a65726f2061646472657373600082015250565b7f45524337323155524953746f726167653a2055524920717565727920666f722060008201527f6e6f6e6578697374656e7420746f6b656e000000000000000000000000000000602082015250565b7f4552433732313a20617070726f76656420717565727920666f72206e6f6e657860008201527f697374656e7420746f6b656e0000000000000000000000000000000000000000602082015250565b7f4f776e61626c653a2063616c6c6572206973206e6f7420746865206f776e6572600082015250565b7f4552433732314d657461646174613a2055524920717565727920666f72206e6f60008201527f6e6578697374656e7420746f6b656e0000000000000000000000000000000000602082015250565b7f4552433732313a20617070726f76616c20746f2063757272656e74206f776e6560008201527f7200000000000000000000000000000000000000000000000000000000000000602082015250565b7f4552433732313a207472616e736665722063616c6c6572206973206e6f74206f60008201527f776e6572206e6f7220617070726f766564000000000000000000000000000000602082015250565b7f2f00000000000000000000000000000000000000000000000000000000000000600082015250565b6130d08161293e565b81146130db57600080fd5b50565b6130e781612950565b81146130f257600080fd5b50565b6130fe8161295c565b811461310957600080fd5b50565b613115816129a8565b811461312057600080fd5b5056fea2646970667358221220a4da0c16b3bdfe58fd0130db02c6561d4a7ab87a6fbe9e10ff3d1f266ee4344c64736f6c63430008010033",
  "linkReferences": {},
  "deployedLinkReferences": {}
}