{
    "_format": "hh-sol-artifact-1",
    "contractName": "Consistently",
    "sourceName": "contracts/Consistenly.sol",
    "abi": [
        {
            "inputs": [],
            "stateMutability": "nonpayable",
            "type": "constructor"
        },
        {
            "anonymous": false,
            "inputs": [
                {
                    "indexed": false,
                    "internalType": "address",
                    "name": "userAddress",
                    "type": "address"
                },
                {
                    "indexed": false,
                    "internalType": "uint256",
                    "name": "lastCheckInTime",
                    "type": "uint256"
                }
            ],
            "name": "CheckedIn",
            "type": "event"
        },
        {
            "anonymous": false,
            "inputs": [
                {
                    "indexed": false,
                    "internalType": "address",
                    "name": "userAddress",
                    "type": "address"
                },
                {
                    "indexed": false,
                    "internalType": "uint256",
                    "name": "weiDeposited",
                    "type": "uint256"
                },
                {
                    "indexed": false,
                    "internalType": "string",
                    "name": "habit",
                    "type": "string"
                },
                {
                    "indexed": false,
                    "internalType": "uint256",
                    "name": "timeRegistered",
                    "type": "uint256"
                },
                {
                    "indexed": false,
                    "internalType": "bool",
                    "name": "active",
                    "type": "bool"
                }
            ],
            "name": "IntentionRegistered",
            "type": "event"
        },
        {
            "inputs": [],
            "name": "aavePool",
            "outputs": [
                {
                    "internalType": "contract IPool",
                    "name": "",
                    "type": "address"
                }
            ],
            "stateMutability": "view",
            "type": "function"
        },
        {
            "inputs": [
                {
                    "internalType": "address",
                    "name": "",
                    "type": "address"
                }
            ],
            "name": "checkInCount",
            "outputs": [
                {
                    "internalType": "uint8",
                    "name": "",
                    "type": "uint8"
                }
            ],
            "stateMutability": "view",
            "type": "function"
        },
        {
            "inputs": [],
            "name": "checkin",
            "outputs": [],
            "stateMutability": "nonpayable",
            "type": "function"
        },
        {
            "inputs": [],
            "name": "depositIntoAave",
            "outputs": [],
            "stateMutability": "nonpayable",
            "type": "function"
        },
        {
            "inputs": [],
            "name": "getUserIntention",
            "outputs": [
                {
                    "components": [
                        {
                            "internalType": "uint8",
                            "name": "noOfDays",
                            "type": "uint8"
                        },
                        {
                            "internalType": "uint8",
                            "name": "defaulted",
                            "type": "uint8"
                        },
                        {
                            "internalType": "uint256",
                            "name": "timeRegistered",
                            "type": "uint256"
                        },
                        {
                            "internalType": "uint256",
                            "name": "weiDeposited",
                            "type": "uint256"
                        },
                        {
                            "internalType": "uint256",
                            "name": "weiBalance",
                            "type": "uint256"
                        },
                        {
                            "internalType": "string",
                            "name": "habit",
                            "type": "string"
                        },
                        {
                            "internalType": "address",
                            "name": "userAddress",
                            "type": "address"
                        },
                        {
                            "internalType": "bool",
                            "name": "active",
                            "type": "bool"
                        }
                    ],
                    "internalType": "struct Consistently.Intention",
                    "name": "",
                    "type": "tuple"
                }
            ],
            "stateMutability": "view",
            "type": "function"
        },
        {
            "inputs": [],
            "name": "habit",
            "outputs": [
                {
                    "internalType": "contract Habit",
                    "name": "",
                    "type": "address"
                }
            ],
            "stateMutability": "view",
            "type": "function"
        },
        {
            "inputs": [],
            "name": "habitNFT",
            "outputs": [
                {
                    "internalType": "contract HabitNFT",
                    "name": "",
                    "type": "address"
                }
            ],
            "stateMutability": "view",
            "type": "function"
        },
        {
            "inputs": [
                {
                    "internalType": "uint256",
                    "name": "",
                    "type": "uint256"
                }
            ],
            "name": "intentions",
            "outputs": [
                {
                    "internalType": "uint8",
                    "name": "noOfDays",
                    "type": "uint8"
                },
                {
                    "internalType": "uint8",
                    "name": "defaulted",
                    "type": "uint8"
                },
                {
                    "internalType": "uint256",
                    "name": "timeRegistered",
                    "type": "uint256"
                },
                {
                    "internalType": "uint256",
                    "name": "weiDeposited",
                    "type": "uint256"
                },
                {
                    "internalType": "uint256",
                    "name": "weiBalance",
                    "type": "uint256"
                },
                {
                    "internalType": "string",
                    "name": "habit",
                    "type": "string"
                },
                {
                    "internalType": "address",
                    "name": "userAddress",
                    "type": "address"
                },
                {
                    "internalType": "bool",
                    "name": "active",
                    "type": "bool"
                }
            ],
            "stateMutability": "view",
            "type": "function"
        },
        {
            "inputs": [
                {
                    "internalType": "address",
                    "name": "",
                    "type": "address"
                }
            ],
            "name": "lastCheckIn",
            "outputs": [
                {
                    "internalType": "uint256",
                    "name": "",
                    "type": "uint256"
                }
            ],
            "stateMutability": "view",
            "type": "function"
        },
        {
            "inputs": [
                {
                    "internalType": "address",
                    "name": "",
                    "type": "address"
                }
            ],
            "name": "nextCheckIn",
            "outputs": [
                {
                    "internalType": "uint256",
                    "name": "",
                    "type": "uint256"
                }
            ],
            "stateMutability": "view",
            "type": "function"
        },
        {
            "inputs": [],
            "name": "owner",
            "outputs": [
                {
                    "internalType": "address",
                    "name": "",
                    "type": "address"
                }
            ],
            "stateMutability": "view",
            "type": "function"
        },
        {
            "inputs": [],
            "name": "redeem",
            "outputs": [],
            "stateMutability": "nonpayable",
            "type": "function"
        },
        {
            "inputs": [
                {
                    "internalType": "string",
                    "name": "_habit",
                    "type": "string"
                },
                {
                    "internalType": "uint8",
                    "name": "_days",
                    "type": "uint8"
                }
            ],
            "name": "register",
            "outputs": [],
            "stateMutability": "payable",
            "type": "function"
        },
        {
            "inputs": [
                {
                    "internalType": "address",
                    "name": "",
                    "type": "address"
                }
            ],
            "name": "userAddresses",
            "outputs": [
                {
                    "internalType": "bool",
                    "name": "",
                    "type": "bool"
                }
            ],
            "stateMutability": "view",
            "type": "function"
        },
        {
            "inputs": [
                {
                    "internalType": "address",
                    "name": "",
                    "type": "address"
                }
            ],
            "name": "userIntentions",
            "outputs": [
                {
                    "internalType": "uint256",
                    "name": "",
                    "type": "uint256"
                }
            ],
            "stateMutability": "view",
            "type": "function"
        }
    ],
    "bytecode": "0x60806040526040516200001290620001d9565b604051809103906000f0801580156200002f573d6000803e3d6000fd5b50600160006101000a81548173ffffffffffffffffffffffffffffffffffffffff021916908373ffffffffffffffffffffffffffffffffffffffff1602179055506040516200007e90620001e7565b604051809103906000f0801580156200009b573d6000803e3d6000fd5b50600260006101000a81548173ffffffffffffffffffffffffffffffffffffffff021916908373ffffffffffffffffffffffffffffffffffffffff1602179055506002600460146101000a81548160ff021916908360ff16021790555060ff600460156101000a81548160ff021916908360ff160217905550603c600460166101000a81548160ff021916908360ff1602179055503480156200013d57600080fd5b5033600460006101000a81548173ffffffffffffffffffffffffffffffffffffffff021916908373ffffffffffffffffffffffffffffffffffffffff16021790555073e91e690407977f0b9fdc655504b895fe4af0c3716000806101000a81548173ffffffffffffffffffffffffffffffffffffffff021916908373ffffffffffffffffffffffffffffffffffffffff160217905550620001f5565b61207e8062002e4f83390190565b6134248062004ecd83390190565b612c4a80620002056000396000f3fe6080604052600436106100e85760003560e01c80639ec11dff1161008a578063c7f62a9711610059578063c7f62a97146102de578063dedaf7fc14610309578063ef6fdb1c14610320578063fc86dea71461035d576100e8565b80639ec11dff14610248578063a03e4bc314610285578063baeb0718146102b0578063be040fb0146102c7576100e8565b8063767b79ed116100c6578063767b79ed146101995780638da5cb5b146101b557806395cfb25a146101e057806398e8ee141461020b576100e8565b806312a6ebba146100ed5780633bd9e086146101315780636b69fd5a1461015c575b600080fd5b3480156100f957600080fd5b50610114600480360381019061010f9190611f27565b61039a565b604051610128989796959493929190612589565b60405180910390f35b34801561013d57600080fd5b506101466104c1565b6040516101539190612531565b60405180910390f35b34801561016857600080fd5b50610183600480360381019061017e9190611eaa565b6107ac565b6040516101909190612553565b60405180910390f35b6101b360048036038101906101ae9190611ed3565b6107c4565b005b3480156101c157600080fd5b506101ca610c1e565b6040516101d79190612299565b60405180910390f35b3480156101ec57600080fd5b506101f5610c44565b60405161020291906123db565b60405180910390f35b34801561021757600080fd5b50610232600480360381019061022d9190611eaa565b610c6a565b60405161023f9190612553565b60405180910390f35b34801561025457600080fd5b5061026f600480360381019061026a9190611eaa565b610c82565b60405161027c919061256e565b60405180910390f35b34801561029157600080fd5b5061029a610ca2565b6040516102a791906123f6565b60405180910390f35b3480156102bc57600080fd5b506102c5610cc6565b005b3480156102d357600080fd5b506102dc6110b3565b005b3480156102ea57600080fd5b506102f36114d2565b60405161030091906123c0565b60405180910390f35b34801561031557600080fd5b5061031e6114f8565b005b34801561032c57600080fd5b5061034760048036038101906103429190611eaa565b6115b1565b6040516103549190612553565b60405180910390f35b34801561036957600080fd5b50610384600480360381019061037f9190611eaa565b6115c9565b60405161039191906123a5565b60405180910390f35b600581815481106103aa57600080fd5b90600052602060002090600602016000915090508060000160009054906101000a900460ff16908060000160019054906101000a900460ff1690806001015490806002015490806003015490806004018054610405906128b8565b80601f0160208091040260200160405190810160405280929190818152602001828054610431906128b8565b801561047e5780601f106104535761010080835404028352916020019161047e565b820191906000526020600020905b81548152906001019060200180831161046157829003601f168201915b5050505050908060050160009054906101000a900473ffffffffffffffffffffffffffffffffffffffff16908060050160149054906101000a900460ff16905088565b6104c9611ce8565b33600360008273ffffffffffffffffffffffffffffffffffffffff1673ffffffffffffffffffffffffffffffffffffffff16815260200190815260200160002060009054906101000a900460ff16610556576040517f08c379a000000000000000000000000000000000000000000000000000000000815260040161054d90612411565b60405180910390fd5b33610560816115e9565b61059f576040517f08c379a0000000000000000000000000000000000000000000000000000000008152600401610596906124d1565b60405180910390fd5b60006001600660003373ffffffffffffffffffffffffffffffffffffffff1673ffffffffffffffffffffffffffffffffffffffff168152602001908152602001600020546105ed919061274f565b905060006005828154811061062b577f4e487b7100000000000000000000000000000000000000000000000000000000600052603260045260246000fd5b9060005260206000209060060201604051806101000160405290816000820160009054906101000a900460ff1660ff1660ff1681526020016000820160019054906101000a900460ff1660ff1660ff1681526020016001820154815260200160028201548152602001600382015481526020016004820180546106ad906128b8565b80601f01602080910402602001604051908101604052809291908181526020018280546106d9906128b8565b80156107265780601f106106fb57610100808354040283529160200191610726565b820191906000526020600020905b81548152906001019060200180831161070957829003601f168201915b505050505081526020016005820160009054906101000a900473ffffffffffffffffffffffffffffffffffffffff1673ffffffffffffffffffffffffffffffffffffffff1673ffffffffffffffffffffffffffffffffffffffff1681526020016005820160149054906101000a900460ff16151515158152505090508094505050505090565b60086020528060005260406000206000915090505481565b662386f26fc1000034101561080e576040517f08c379a0000000000000000000000000000000000000000000000000000000008152600401610805906124f1565b60405180910390fd5b600460149054906101000a900460ff1660ff168160ff161015610866576040517f08c379a000000000000000000000000000000000000000000000000000000000815260040161085d90612471565b60405180910390fd5b600460159054906101000a900460ff1660ff168160ff1611156108be576040517f08c379a00000000000000000000000000000000000000000000000000000000081526004016108b590612431565b60405180910390fd5b600042905060006040518061010001604052808460ff168152602001600060ff1681526020018381526020013481526020013481526020018581526020013373ffffffffffffffffffffffffffffffffffffffff168152602001600115158152509050600581908060018154018082558091505060019003906000526020600020906006020160009091909190915060008201518160000160006101000a81548160ff021916908360ff16021790555060208201518160000160016101000a81548160ff021916908360ff16021790555060408201518160010155606082015181600201556080820151816003015560a08201518160040190805190602001906109c9929190611d4b565b5060c08201518160050160006101000a81548173ffffffffffffffffffffffffffffffffffffffff021916908373ffffffffffffffffffffffffffffffffffffffff16021790555060e08201518160050160146101000a81548160ff02191690831515021790555050506001600360003373ffffffffffffffffffffffffffffffffffffffff1673ffffffffffffffffffffffffffffffffffffffff16815260200190815260200160002060006101000a81548160ff0219169083151502179055506000600580549050905080600660003373ffffffffffffffffffffffffffffffffffffffff1673ffffffffffffffffffffffffffffffffffffffff168152602001908152602001600020819055506000600960003373ffffffffffffffffffffffffffffffffffffffff1673ffffffffffffffffffffffffffffffffffffffff16815260200190815260200160002060006101000a81548160ff021916908360ff16021790555082600760003373ffffffffffffffffffffffffffffffffffffffff1673ffffffffffffffffffffffffffffffffffffffff16815260200190815260200160002081905550600460169054906101000a900460ff1660ff1683610b949190612691565b600860003373ffffffffffffffffffffffffffffffffffffffff1673ffffffffffffffffffffffffffffffffffffffff168152602001908152602001600020819055507f337f4807ad781093d5ad55ae237b66e90ee0c4c83f987349e0198892f6328f2e333487866001604051610c0f95949392919061234b565b60405180910390a15050505050565b600460009054906101000a900473ffffffffffffffffffffffffffffffffffffffff1681565b600160009054906101000a900473ffffffffffffffffffffffffffffffffffffffff1681565b60066020528060005260406000206000915090505481565b60096020528060005260406000206000915054906101000a900460ff1681565b60008054906101000a900473ffffffffffffffffffffffffffffffffffffffff1681565b33600360008273ffffffffffffffffffffffffffffffffffffffff1673ffffffffffffffffffffffffffffffffffffffff16815260200190815260200160002060009054906101000a900460ff16610d53576040517f08c379a0000000000000000000000000000000000000000000000000000000008152600401610d4a90612411565b60405180910390fd5b33610d5d816115e9565b610d9c576040517f08c379a0000000000000000000000000000000000000000000000000000000008152600401610d93906124d1565b60405180910390fd5b6000429050600860003373ffffffffffffffffffffffffffffffffffffffff1673ffffffffffffffffffffffffffffffffffffffff168152602001908152602001600020548111610e22576040517f08c379a0000000000000000000000000000000000000000000000000000000008152600401610e19906124b1565b60405180910390fd5b600460169054906101000a900460ff1660ff16600860003373ffffffffffffffffffffffffffffffffffffffff1673ffffffffffffffffffffffffffffffffffffffff16815260200190815260200160002054610e7f9190612691565b811115610e9057610e8f3361187d565b5b600160009054906101000a900473ffffffffffffffffffffffffffffffffffffffff1673ffffffffffffffffffffffffffffffffffffffff166340c10f193360016040518363ffffffff1660e01b8152600401610eee9291906122b4565b600060405180830381600087803b158015610f0857600080fd5b505af1158015610f1c573d6000803e3d6000fd5b505050506001600960003373ffffffffffffffffffffffffffffffffffffffff1673ffffffffffffffffffffffffffffffffffffffff16815260200190815260200160002060009054906101000a900460ff16610f7991906126e7565b600960003373ffffffffffffffffffffffffffffffffffffffff1673ffffffffffffffffffffffffffffffffffffffff16815260200190815260200160002060006101000a81548160ff021916908360ff16021790555080600760003373ffffffffffffffffffffffffffffffffffffffff1673ffffffffffffffffffffffffffffffffffffffff16815260200190815260200160002081905550600460169054906101000a900460ff1660ff16816110329190612691565b600860003373ffffffffffffffffffffffffffffffffffffffff1673ffffffffffffffffffffffffffffffffffffffff168152602001908152602001600020819055507fdddb6e14f7f2101397a6526aab95e964de7f1f44ed06aa47a1c9a0e6b992445633826040516110a69291906122dd565b60405180910390a1505050565b33600360008273ffffffffffffffffffffffffffffffffffffffff1673ffffffffffffffffffffffffffffffffffffffff16815260200190815260200160002060009054906101000a900460ff16611140576040517f08c379a000000000000000000000000000000000000000000000000000000000815260040161113790612411565b60405180910390fd5b3361114a816115e9565b611189576040517f08c379a0000000000000000000000000000000000000000000000000000000008152600401611180906124d1565b60405180910390fd5b3361119381611a82565b6111d2576040517f08c379a00000000000000000000000000000000000000000000000000000000081526004016111c990612491565b60405180910390fd5b60006001600660003373ffffffffffffffffffffffffffffffffffffffff1673ffffffffffffffffffffffffffffffffffffffff16815260200190815260200160002054611220919061274f565b905060006005828154811061125e577f4e487b7100000000000000000000000000000000000000000000000000000000600052603260045260246000fd5b9060005260206000209060060201905060008160050160146101000a81548160ff0219169083151502179055506000600960003373ffffffffffffffffffffffffffffffffffffffff1673ffffffffffffffffffffffffffffffffffffffff16815260200190815260200160002060006101000a81548160ff021916908360ff160217905550600160009054906101000a900473ffffffffffffffffffffffffffffffffffffffff1673ffffffffffffffffffffffffffffffffffffffff16639dc29fac33600160009054906101000a900473ffffffffffffffffffffffffffffffffffffffff1673ffffffffffffffffffffffffffffffffffffffff166370a08231336040518263ffffffff1660e01b815260040161137e9190612299565b60206040518083038186803b15801561139657600080fd5b505afa1580156113aa573d6000803e3d6000fd5b505050506040513d601f19601f820116820180604052508101906113ce9190611f50565b6040518363ffffffff1660e01b81526004016113eb9291906122dd565b600060405180830381600087803b15801561140557600080fd5b505af1158015611419573d6000803e3d6000fd5b50505050600260009054906101000a900473ffffffffffffffffffffffffffffffffffffffff1673ffffffffffffffffffffffffffffffffffffffff1663f2fb2120336040518263ffffffff1660e01b81526004016114789190612299565b602060405180830381600087803b15801561149257600080fd5b505af11580156114a6573d6000803e3d6000fd5b505050506040513d601f19601f820116820180604052508101906114ca9190611f50565b505050505050565b600260009054906101000a900473ffffffffffffffffffffffffffffffffffffffff1681565b671bc16d674ec800004711156115af5760008054906101000a900473ffffffffffffffffffffffffffffffffffffffff1673ffffffffffffffffffffffffffffffffffffffff1663e8eda9df73eeeeeeeeeeeeeeeeeeeeeeeeeeeeeeeeeeeeeeee473060006040518563ffffffff1660e01b815260040161157c9493929190612306565b600060405180830381600087803b15801561159657600080fd5b505af11580156115aa573d6000803e3d6000fd5b505050505b565b60076020528060005260406000206000915090505481565b60036020528060005260406000206000915054906101000a900460ff1681565b600080600660008473ffffffffffffffffffffffffffffffffffffffff1673ffffffffffffffffffffffffffffffffffffffff168152602001908152602001600020541161166c576040517f08c379a000000000000000000000000000000000000000000000000000000000815260040161166390612451565b60405180910390fd5b60006001600660008573ffffffffffffffffffffffffffffffffffffffff1673ffffffffffffffffffffffffffffffffffffffff168152602001908152602001600020546116ba919061274f565b90506000600582815481106116f8577f4e487b7100000000000000000000000000000000000000000000000000000000600052603260045260246000fd5b9060005260206000209060060201604051806101000160405290816000820160009054906101000a900460ff1660ff1660ff1681526020016000820160019054906101000a900460ff1660ff1660ff16815260200160018201548152602001600282015481526020016003820154815260200160048201805461177a906128b8565b80601f01602080910402602001604051908101604052809291908181526020018280546117a6906128b8565b80156117f35780601f106117c8576101008083540402835291602001916117f3565b820191906000526020600020905b8154815290600101906020018083116117d657829003601f168201915b505050505081526020016005820160009054906101000a900473ffffffffffffffffffffffffffffffffffffffff1673ffffffffffffffffffffffffffffffffffffffff1673ffffffffffffffffffffffffffffffffffffffff1681526020016005820160149054906101000a900460ff16151515158152505090508060e0015192505050919050565b6000600660008373ffffffffffffffffffffffffffffffffffffffff1673ffffffffffffffffffffffffffffffffffffffff16815260200190815260200160002054116118ff576040517f08c379a00000000000000000000000000000000000000000000000000000000081526004016118f690612511565b60405180910390fd5b60006001600660008473ffffffffffffffffffffffffffffffffffffffff1673ffffffffffffffffffffffffffffffffffffffff1681526020019081526020016000205461194d919061274f565b905060006005828154811061198b577f4e487b7100000000000000000000000000000000000000000000000000000000600052603260045260246000fd5b90600052602060002090600602019050600481600201546119ac919061271e565b81600301546119bb919061274f565b816003018190555080600001600181819054906101000a900460ff16809291906119e49061291b565b91906101000a81548160ff021916908360ff1602179055505060048160000160019054906101000a900460ff1660ff161415611a7d5760008160050160146101000a81548160ff0219169083151502179055506000600660008573ffffffffffffffffffffffffffffffffffffffff1673ffffffffffffffffffffffffffffffffffffffff168152602001908152602001600020819055505b505050565b6000806001600660008573ffffffffffffffffffffffffffffffffffffffff1673ffffffffffffffffffffffffffffffffffffffff16815260200190815260200160002054611ad1919061274f565b9050600060058281548110611b0f577f4e487b7100000000000000000000000000000000000000000000000000000000600052603260045260246000fd5b9060005260206000209060060201604051806101000160405290816000820160009054906101000a900460ff1660ff1660ff1681526020016000820160019054906101000a900460ff1660ff1660ff168152602001600182015481526020016002820154815260200160038201548152602001600482018054611b91906128b8565b80601f0160208091040260200160405190810160405280929190818152602001828054611bbd906128b8565b8015611c0a5780601f10611bdf57610100808354040283529160200191611c0a565b820191906000526020600020905b815481529060010190602001808311611bed57829003601f168201915b505050505081526020016005820160009054906101000a900473ffffffffffffffffffffffffffffffffffffffff1673ffffffffffffffffffffffffffffffffffffffff1673ffffffffffffffffffffffffffffffffffffffff1681526020016005820160149054906101000a900460ff1615151515815250509050806000015160ff16600960008673ffffffffffffffffffffffffffffffffffffffff1673ffffffffffffffffffffffffffffffffffffffff16815260200190815260200160002060009054906101000a900460ff1660ff161492505050919050565b604051806101000160405280600060ff168152602001600060ff16815260200160008152602001600081526020016000815260200160608152602001600073ffffffffffffffffffffffffffffffffffffffff1681526020016000151581525090565b828054611d57906128b8565b90600052602060002090601f016020900481019282611d795760008555611dc0565b82601f10611d9257805160ff1916838001178555611dc0565b82800160010185558215611dc0579182015b82811115611dbf578251825591602001919060010190611da4565b5b509050611dcd9190611dd1565b5090565b5b80821115611dea576000816000905550600101611dd2565b5090565b6000611e01611dfc84612633565b61260e565b905082815260208101848484011115611e1957600080fd5b611e24848285612876565b509392505050565b600081359050611e3b81612bcf565b92915050565b600082601f830112611e5257600080fd5b8135611e62848260208601611dee565b91505092915050565b600081359050611e7a81612be6565b92915050565b600081519050611e8f81612be6565b92915050565b600081359050611ea481612bfd565b92915050565b600060208284031215611ebc57600080fd5b6000611eca84828501611e2c565b91505092915050565b60008060408385031215611ee657600080fd5b600083013567ffffffffffffffff811115611f0057600080fd5b611f0c85828601611e41565b9250506020611f1d85828601611e95565b9150509250929050565b600060208284031215611f3957600080fd5b6000611f4784828501611e6b565b91505092915050565b600060208284031215611f6257600080fd5b6000611f7084828501611e80565b91505092915050565b611f8281612783565b82525050565b611f9181612783565b82525050565b611fa081612795565b82525050565b611faf81612795565b82525050565b611fbe816127e6565b82525050565b611fcd8161280a565b82525050565b611fdc8161282e565b82525050565b611feb81612852565b82525050565b611ffa81612864565b82525050565b600061200b82612664565b612015818561266f565b9350612025818560208601612885565b61202e81612a01565b840191505092915050565b600061204482612664565b61204e8185612680565b935061205e818560208601612885565b61206781612a01565b840191505092915050565b600061207f601b83612680565b915061208a82612a12565b602082019050919050565b60006120a2601e83612680565b91506120ad82612a3b565b602082019050919050565b60006120c5601c83612680565b91506120d082612a64565b602082019050919050565b60006120e8601d83612680565b91506120f382612a8d565b602082019050919050565b600061210b601883612680565b915061211682612ab6565b602082019050919050565b600061212e602283612680565b915061213982612adf565b604082019050919050565b6000612151601983612680565b915061215c82612b2e565b602082019050919050565b6000612174602183612680565b915061217f82612b57565b604082019050919050565b6000612197602083612680565b91506121a282612ba6565b602082019050919050565b6000610100830160008301516121c6600086018261227b565b5060208301516121d9602086018261227b565b5060408301516121ec604086018261225d565b5060608301516121ff606086018261225d565b506080830151612212608086018261225d565b5060a083015184820360a086015261222a8282612000565b91505060c083015161223f60c0860182611f79565b5060e083015161225260e0860182611f97565b508091505092915050565b612266816127cf565b82525050565b612275816127cf565b82525050565b612284816127d9565b82525050565b612293816127d9565b82525050565b60006020820190506122ae6000830184611f88565b92915050565b60006040820190506122c96000830185611f88565b6122d66020830184611ff1565b9392505050565b60006040820190506122f26000830185611f88565b6122ff602083018461226c565b9392505050565b600060808201905061231b6000830187611f88565b612328602083018661226c565b6123356040830185611f88565b6123426060830184611fe2565b95945050505050565b600060a0820190506123606000830188611f88565b61236d602083018761226c565b818103604083015261237f8186612039565b905061238e606083018561226c565b61239b6080830184611fa6565b9695505050505050565b60006020820190506123ba6000830184611fa6565b92915050565b60006020820190506123d56000830184611fb5565b92915050565b60006020820190506123f06000830184611fc4565b92915050565b600060208201905061240b6000830184611fd3565b92915050565b6000602082019050818103600083015261242a81612072565b9050919050565b6000602082019050818103600083015261244a81612095565b9050919050565b6000602082019050818103600083015261246a816120b8565b9050919050565b6000602082019050818103600083015261248a816120db565b9050919050565b600060208201905081810360008301526124aa816120fe565b9050919050565b600060208201905081810360008301526124ca81612121565b9050919050565b600060208201905081810360008301526124ea81612144565b9050919050565b6000602082019050818103600083015261250a81612167565b9050919050565b6000602082019050818103600083015261252a8161218a565b9050919050565b6000602082019050818103600083015261254b81846121ad565b905092915050565b6000602082019050612568600083018461226c565b92915050565b6000602082019050612583600083018461228a565b92915050565b60006101008201905061259f600083018b61228a565b6125ac602083018a61228a565b6125b9604083018961226c565b6125c6606083018861226c565b6125d3608083018761226c565b81810360a08301526125e58186612039565b90506125f460c0830185611f88565b61260160e0830184611fa6565b9998505050505050505050565b6000612618612629565b905061262482826128ea565b919050565b6000604051905090565b600067ffffffffffffffff82111561264e5761264d6129d2565b5b61265782612a01565b9050602081019050919050565b600081519050919050565b600082825260208201905092915050565b600082825260208201905092915050565b600061269c826127cf565b91506126a7836127cf565b9250827fffffffffffffffffffffffffffffffffffffffffffffffffffffffffffffffff038211156126dc576126db612945565b5b828201905092915050565b60006126f2826127d9565b91506126fd836127d9565b92508260ff0382111561271357612712612945565b5b828201905092915050565b6000612729826127cf565b9150612734836127cf565b92508261274457612743612974565b5b828204905092915050565b600061275a826127cf565b9150612765836127cf565b92508282101561277857612777612945565b5b828203905092915050565b600061278e826127af565b9050919050565b60008115159050919050565b600061ffff82169050919050565b600073ffffffffffffffffffffffffffffffffffffffff82169050919050565b6000819050919050565b600060ff82169050919050565b60006127f1826127f8565b9050919050565b6000612803826127af565b9050919050565b60006128158261281c565b9050919050565b6000612827826127af565b9050919050565b600061283982612840565b9050919050565b600061284b826127af565b9050919050565b600061285d826127a1565b9050919050565b600061286f826127cf565b9050919050565b82818337600083830152505050565b60005b838110156128a3578082015181840152602081019050612888565b838111156128b2576000848401525b50505050565b600060028204905060018216806128d057607f821691505b602082108114156128e4576128e36129a3565b5b50919050565b6128f382612a01565b810181811067ffffffffffffffff82111715612912576129116129d2565b5b80604052505050565b6000612926826127d9565b915060ff82141561293a57612939612945565b5b600182019050919050565b7f4e487b7100000000000000000000000000000000000000000000000000000000600052601160045260246000fd5b7f4e487b7100000000000000000000000000000000000000000000000000000000600052601260045260246000fd5b7f4e487b7100000000000000000000000000000000000000000000000000000000600052602260045260246000fd5b7f4e487b7100000000000000000000000000000000000000000000000000000000600052604160045260246000fd5b6000601f19601f8301169050919050565b7f4f6e6c7920526567697374656420557365727320416c6c6f7765640000000000600082015250565b7f4d6178696d756d206f662032353520646179732041636365707461626c650000600082015250565b7f5573657220496e74656e74696f6e206973206e6f742061637469766500000000600082015250565b7f4d696e696d756d206f6620323120646179732041636365707461626c65000000600082015250565b7f517565737420686173206265656e20636f6d706c657465640000000000000000600082015250565b7f596f752063616e6e6f7420636865636b696e2077697468696e20323420486f7560008201527f7273000000000000000000000000000000000000000000000000000000000000602082015250565b7f4f6e6c792061637469766520757365727320416c6c6f77656400000000000000600082015250565b7f4d696e696d756d20416d6f756e74206f66202e3120457468205265717569726560008201527f6400000000000000000000000000000000000000000000000000000000000000602082015250565b7f5573657220686173206e6f205265676973746572656420496e74656e74696f6e600082015250565b612bd881612783565b8114612be357600080fd5b50565b612bef816127cf565b8114612bfa57600080fd5b50565b612c06816127d9565b8114612c1157600080fd5b5056fea2646970667358221220a348bfa83b8e072bff6190223f26c54c119c449b90d32e260677b3d5e776938764736f6c6343000801003360806040523480156200001157600080fd5b506040518060400160405280600581526020017f48616269740000000000000000000000000000000000000000000000000000008152506040518060400160405280600381526020017f4842540000000000000000000000000000000000000000000000000000000000815250816003908051906020019062000096929190620001a6565b508060049080519060200190620000af929190620001a6565b505050620000d2620000c6620000d860201b60201c565b620000e060201b60201c565b620002bb565b600033905090565b6000600560009054906101000a900473ffffffffffffffffffffffffffffffffffffffff16905081600560006101000a81548173ffffffffffffffffffffffffffffffffffffffff021916908373ffffffffffffffffffffffffffffffffffffffff1602179055508173ffffffffffffffffffffffffffffffffffffffff168173ffffffffffffffffffffffffffffffffffffffff167f8be0079c531659141344cd1fd0a4f28419497f9722a3daafe3b4186f6b6457e060405160405180910390a35050565b828054620001b49062000256565b90600052602060002090601f016020900481019282620001d8576000855562000224565b82601f10620001f357805160ff191683800117855562000224565b8280016001018555821562000224579182015b828111156200022357825182559160200191906001019062000206565b5b50905062000233919062000237565b5090565b5b808211156200025257600081600090555060010162000238565b5090565b600060028204905060018216806200026f57607f821691505b602082108114156200028657620002856200028c565b5b50919050565b7f4e487b7100000000000000000000000000000000000000000000000000000000600052602260045260246000fd5b611db380620002cb6000396000f3fe608060405234801561001057600080fd5b50600436106101005760003560e01c8063715018a611610097578063a457c2d711610066578063a457c2d71461029d578063a9059cbb146102cd578063dd62ed3e146102fd578063f2fde38b1461032d57610100565b8063715018a61461023b5780638da5cb5b1461024557806395d89b41146102635780639dc29fac1461028157610100565b8063313ce567116100d3578063313ce567146101a157806339509351146101bf57806340c10f19146101ef57806370a082311461020b57610100565b806306fdde0314610105578063095ea7b31461012357806318160ddd1461015357806323b872dd14610171575b600080fd5b61010d610349565b60405161011a9190611666565b60405180910390f35b61013d600480360381019061013891906113db565b6103db565b60405161014a919061164b565b60405180910390f35b61015b6103fe565b6040516101689190611808565b60405180910390f35b61018b6004803603810190610186919061138c565b610408565b604051610198919061164b565b60405180910390f35b6101a9610437565b6040516101b69190611823565b60405180910390f35b6101d960048036038101906101d491906113db565b610440565b6040516101e6919061164b565b60405180910390f35b610209600480360381019061020491906113db565b6104ea565b005b61022560048036038101906102209190611327565b610574565b6040516102329190611808565b60405180910390f35b6102436105bc565b005b61024d610644565b60405161025a9190611630565b60405180910390f35b61026b61066e565b6040516102789190611666565b60405180910390f35b61029b600480360381019061029691906113db565b610700565b005b6102b760048036038101906102b291906113db565b61078a565b6040516102c4919061164b565b60405180910390f35b6102e760048036038101906102e291906113db565b610874565b6040516102f4919061164b565b60405180910390f35b61031760048036038101906103129190611350565b610897565b6040516103249190611808565b60405180910390f35b61034760048036038101906103429190611327565b61091e565b005b6060600380546103589061196c565b80601f01602080910402602001604051908101604052809291908181526020018280546103849061196c565b80156103d15780601f106103a6576101008083540402835291602001916103d1565b820191906000526020600020905b8154815290600101906020018083116103b457829003601f168201915b5050505050905090565b6000806103e6610a16565b90506103f3818585610a1e565b600191505092915050565b6000600254905090565b600080610413610a16565b9050610420858285610be9565b61042b858585610c75565b60019150509392505050565b60006012905090565b60008061044b610a16565b90506104df818585600160008673ffffffffffffffffffffffffffffffffffffffff1673ffffffffffffffffffffffffffffffffffffffff16815260200190815260200160002060008973ffffffffffffffffffffffffffffffffffffffff1673ffffffffffffffffffffffffffffffffffffffff168152602001908152602001600020546104da919061185a565b610a1e565b600191505092915050565b6104f2610a16565b73ffffffffffffffffffffffffffffffffffffffff16610510610644565b73ffffffffffffffffffffffffffffffffffffffff1614610566576040517f08c379a000000000000000000000000000000000000000000000000000000000815260040161055d90611748565b60405180910390fd5b6105708282610ef6565b5050565b60008060008373ffffffffffffffffffffffffffffffffffffffff1673ffffffffffffffffffffffffffffffffffffffff168152602001908152602001600020549050919050565b6105c4610a16565b73ffffffffffffffffffffffffffffffffffffffff166105e2610644565b73ffffffffffffffffffffffffffffffffffffffff1614610638576040517f08c379a000000000000000000000000000000000000000000000000000000000815260040161062f90611748565b60405180910390fd5b6106426000611056565b565b6000600560009054906101000a900473ffffffffffffffffffffffffffffffffffffffff16905090565b60606004805461067d9061196c565b80601f01602080910402602001604051908101604052809291908181526020018280546106a99061196c565b80156106f65780601f106106cb576101008083540402835291602001916106f6565b820191906000526020600020905b8154815290600101906020018083116106d957829003601f168201915b5050505050905090565b610708610a16565b73ffffffffffffffffffffffffffffffffffffffff16610726610644565b73ffffffffffffffffffffffffffffffffffffffff161461077c576040517f08c379a000000000000000000000000000000000000000000000000000000000815260040161077390611748565b60405180910390fd5b610786828261111c565b5050565b600080610795610a16565b90506000600160008373ffffffffffffffffffffffffffffffffffffffff1673ffffffffffffffffffffffffffffffffffffffff16815260200190815260200160002060008673ffffffffffffffffffffffffffffffffffffffff1673ffffffffffffffffffffffffffffffffffffffff1681526020019081526020016000205490508381101561085b576040517f08c379a0000000000000000000000000000000000000000000000000000000008152600401610852906117c8565b60405180910390fd5b6108688286868403610a1e565b60019250505092915050565b60008061087f610a16565b905061088c818585610c75565b600191505092915050565b6000600160008473ffffffffffffffffffffffffffffffffffffffff1673ffffffffffffffffffffffffffffffffffffffff16815260200190815260200160002060008373ffffffffffffffffffffffffffffffffffffffff1673ffffffffffffffffffffffffffffffffffffffff16815260200190815260200160002054905092915050565b610926610a16565b73ffffffffffffffffffffffffffffffffffffffff16610944610644565b73ffffffffffffffffffffffffffffffffffffffff161461099a576040517f08c379a000000000000000000000000000000000000000000000000000000000815260040161099190611748565b60405180910390fd5b600073ffffffffffffffffffffffffffffffffffffffff168173ffffffffffffffffffffffffffffffffffffffff161415610a0a576040517f08c379a0000000000000000000000000000000000000000000000000000000008152600401610a01906116c8565b60405180910390fd5b610a1381611056565b50565b600033905090565b600073ffffffffffffffffffffffffffffffffffffffff168373ffffffffffffffffffffffffffffffffffffffff161415610a8e576040517f08c379a0000000000000000000000000000000000000000000000000000000008152600401610a85906117a8565b60405180910390fd5b600073ffffffffffffffffffffffffffffffffffffffff168273ffffffffffffffffffffffffffffffffffffffff161415610afe576040517f08c379a0000000000000000000000000000000000000000000000000000000008152600401610af5906116e8565b60405180910390fd5b80600160008573ffffffffffffffffffffffffffffffffffffffff1673ffffffffffffffffffffffffffffffffffffffff16815260200190815260200160002060008473ffffffffffffffffffffffffffffffffffffffff1673ffffffffffffffffffffffffffffffffffffffff168152602001908152602001600020819055508173ffffffffffffffffffffffffffffffffffffffff168373ffffffffffffffffffffffffffffffffffffffff167f8c5be1e5ebec7d5bd14f71427d1e84f3dd0314c0f7b2291e5b200ac8c7c3b92583604051610bdc9190611808565b60405180910390a3505050565b6000610bf58484610897565b90507fffffffffffffffffffffffffffffffffffffffffffffffffffffffffffffffff8114610c6f5781811015610c61576040517f08c379a0000000000000000000000000000000000000000000000000000000008152600401610c5890611708565b60405180910390fd5b610c6e8484848403610a1e565b5b50505050565b600073ffffffffffffffffffffffffffffffffffffffff168373ffffffffffffffffffffffffffffffffffffffff161415610ce5576040517f08c379a0000000000000000000000000000000000000000000000000000000008152600401610cdc90611788565b60405180910390fd5b600073ffffffffffffffffffffffffffffffffffffffff168273ffffffffffffffffffffffffffffffffffffffff161415610d55576040517f08c379a0000000000000000000000000000000000000000000000000000000008152600401610d4c90611688565b60405180910390fd5b610d608383836112f3565b60008060008573ffffffffffffffffffffffffffffffffffffffff1673ffffffffffffffffffffffffffffffffffffffff16815260200190815260200160002054905081811015610de6576040517f08c379a0000000000000000000000000000000000000000000000000000000008152600401610ddd90611728565b60405180910390fd5b8181036000808673ffffffffffffffffffffffffffffffffffffffff1673ffffffffffffffffffffffffffffffffffffffff16815260200190815260200160002081905550816000808573ffffffffffffffffffffffffffffffffffffffff1673ffffffffffffffffffffffffffffffffffffffff1681526020019081526020016000206000828254610e79919061185a565b925050819055508273ffffffffffffffffffffffffffffffffffffffff168473ffffffffffffffffffffffffffffffffffffffff167fddf252ad1be2c89b69c2b068fc378daa952ba7f163c4a11628f55a4df523b3ef84604051610edd9190611808565b60405180910390a3610ef08484846112f8565b50505050565b600073ffffffffffffffffffffffffffffffffffffffff168273ffffffffffffffffffffffffffffffffffffffff161415610f66576040517f08c379a0000000000000000000000000000000000000000000000000000000008152600401610f5d906117e8565b60405180910390fd5b610f72600083836112f3565b8060026000828254610f84919061185a565b92505081905550806000808473ffffffffffffffffffffffffffffffffffffffff1673ffffffffffffffffffffffffffffffffffffffff1681526020019081526020016000206000828254610fd9919061185a565b925050819055508173ffffffffffffffffffffffffffffffffffffffff16600073ffffffffffffffffffffffffffffffffffffffff167fddf252ad1be2c89b69c2b068fc378daa952ba7f163c4a11628f55a4df523b3ef8360405161103e9190611808565b60405180910390a3611052600083836112f8565b5050565b6000600560009054906101000a900473ffffffffffffffffffffffffffffffffffffffff16905081600560006101000a81548173ffffffffffffffffffffffffffffffffffffffff021916908373ffffffffffffffffffffffffffffffffffffffff1602179055508173ffffffffffffffffffffffffffffffffffffffff168173ffffffffffffffffffffffffffffffffffffffff167f8be0079c531659141344cd1fd0a4f28419497f9722a3daafe3b4186f6b6457e060405160405180910390a35050565b600073ffffffffffffffffffffffffffffffffffffffff168273ffffffffffffffffffffffffffffffffffffffff16141561118c576040517f08c379a000000000000000000000000000000000000000000000000000000000815260040161118390611768565b60405180910390fd5b611198826000836112f3565b60008060008473ffffffffffffffffffffffffffffffffffffffff1673ffffffffffffffffffffffffffffffffffffffff1681526020019081526020016000205490508181101561121e576040517f08c379a0000000000000000000000000000000000000000000000000000000008152600401611215906116a8565b60405180910390fd5b8181036000808573ffffffffffffffffffffffffffffffffffffffff1673ffffffffffffffffffffffffffffffffffffffff16815260200190815260200160002081905550816002600082825461127591906118b0565b92505081905550600073ffffffffffffffffffffffffffffffffffffffff168373ffffffffffffffffffffffffffffffffffffffff167fddf252ad1be2c89b69c2b068fc378daa952ba7f163c4a11628f55a4df523b3ef846040516112da9190611808565b60405180910390a36112ee836000846112f8565b505050565b505050565b505050565b60008135905061130c81611d4f565b92915050565b60008135905061132181611d66565b92915050565b60006020828403121561133957600080fd5b6000611347848285016112fd565b91505092915050565b6000806040838503121561136357600080fd5b6000611371858286016112fd565b9250506020611382858286016112fd565b9150509250929050565b6000806000606084860312156113a157600080fd5b60006113af868287016112fd565b93505060206113c0868287016112fd565b92505060406113d186828701611312565b9150509250925092565b600080604083850312156113ee57600080fd5b60006113fc858286016112fd565b925050602061140d85828601611312565b9150509250929050565b611420816118e4565b82525050565b61142f816118f6565b82525050565b60006114408261183e565b61144a8185611849565b935061145a818560208601611939565b611463816119fc565b840191505092915050565b600061147b602383611849565b915061148682611a0d565b604082019050919050565b600061149e602283611849565b91506114a982611a5c565b604082019050919050565b60006114c1602683611849565b91506114cc82611aab565b604082019050919050565b60006114e4602283611849565b91506114ef82611afa565b604082019050919050565b6000611507601d83611849565b915061151282611b49565b602082019050919050565b600061152a602683611849565b915061153582611b72565b604082019050919050565b600061154d602083611849565b915061155882611bc1565b602082019050919050565b6000611570602183611849565b915061157b82611bea565b604082019050919050565b6000611593602583611849565b915061159e82611c39565b604082019050919050565b60006115b6602483611849565b91506115c182611c88565b604082019050919050565b60006115d9602583611849565b91506115e482611cd7565b604082019050919050565b60006115fc601f83611849565b915061160782611d26565b602082019050919050565b61161b81611922565b82525050565b61162a8161192c565b82525050565b60006020820190506116456000830184611417565b92915050565b60006020820190506116606000830184611426565b92915050565b600060208201905081810360008301526116808184611435565b905092915050565b600060208201905081810360008301526116a18161146e565b9050919050565b600060208201905081810360008301526116c181611491565b9050919050565b600060208201905081810360008301526116e1816114b4565b9050919050565b60006020820190508181036000830152611701816114d7565b9050919050565b60006020820190508181036000830152611721816114fa565b9050919050565b600060208201905081810360008301526117418161151d565b9050919050565b6000602082019050818103600083015261176181611540565b9050919050565b6000602082019050818103600083015261178181611563565b9050919050565b600060208201905081810360008301526117a181611586565b9050919050565b600060208201905081810360008301526117c1816115a9565b9050919050565b600060208201905081810360008301526117e1816115cc565b9050919050565b60006020820190508181036000830152611801816115ef565b9050919050565b600060208201905061181d6000830184611612565b92915050565b60006020820190506118386000830184611621565b92915050565b600081519050919050565b600082825260208201905092915050565b600061186582611922565b915061187083611922565b9250827fffffffffffffffffffffffffffffffffffffffffffffffffffffffffffffffff038211156118a5576118a461199e565b5b828201905092915050565b60006118bb82611922565b91506118c683611922565b9250828210156118d9576118d861199e565b5b828203905092915050565b60006118ef82611902565b9050919050565b60008115159050919050565b600073ffffffffffffffffffffffffffffffffffffffff82169050919050565b6000819050919050565b600060ff82169050919050565b60005b8381101561195757808201518184015260208101905061193c565b83811115611966576000848401525b50505050565b6000600282049050600182168061198457607f821691505b60208210811415611998576119976119cd565b5b50919050565b7f4e487b7100000000000000000000000000000000000000000000000000000000600052601160045260246000fd5b7f4e487b7100000000000000000000000000000000000000000000000000000000600052602260045260246000fd5b6000601f19601f8301169050919050565b7f45524332303a207472616e7366657220746f20746865207a65726f206164647260008201527f6573730000000000000000000000000000000000000000000000000000000000602082015250565b7f45524332303a206275726e20616d6f756e7420657863656564732062616c616e60008201527f6365000000000000000000000000000000000000000000000000000000000000602082015250565b7f4f776e61626c653a206e6577206f776e657220697320746865207a65726f206160008201527f6464726573730000000000000000000000000000000000000000000000000000602082015250565b7f45524332303a20617070726f766520746f20746865207a65726f20616464726560008201527f7373000000000000000000000000000000000000000000000000000000000000602082015250565b7f45524332303a20696e73756666696369656e7420616c6c6f77616e6365000000600082015250565b7f45524332303a207472616e7366657220616d6f756e742065786365656473206260008201527f616c616e63650000000000000000000000000000000000000000000000000000602082015250565b7f4f776e61626c653a2063616c6c6572206973206e6f7420746865206f776e6572600082015250565b7f45524332303a206275726e2066726f6d20746865207a65726f2061646472657360008201527f7300000000000000000000000000000000000000000000000000000000000000602082015250565b7f45524332303a207472616e736665722066726f6d20746865207a65726f20616460008201527f6472657373000000000000000000000000000000000000000000000000000000602082015250565b7f45524332303a20617070726f76652066726f6d20746865207a65726f2061646460008201527f7265737300000000000000000000000000000000000000000000000000000000602082015250565b7f45524332303a2064656372656173656420616c6c6f77616e63652062656c6f7760008201527f207a65726f000000000000000000000000000000000000000000000000000000602082015250565b7f45524332303a206d696e7420746f20746865207a65726f206164647265737300600082015250565b611d58816118e4565b8114611d6357600080fd5b50565b611d6f81611922565b8114611d7a57600080fd5b5056fea2646970667358221220024035a8d67b66f0c162e0f70b27b43c9688650cbfc58a95d878209c7ef459b364736f6c6343000801003360806040523480156200001157600080fd5b506040518060400160405280600881526020017f48616269744e46540000000000000000000000000000000000000000000000008152506040518060400160405280600381526020017f4842540000000000000000000000000000000000000000000000000000000000815250816000908051906020019062000096929190620001a6565b508060019080519060200190620000af929190620001a6565b505050620000d2620000c6620000d860201b60201c565b620000e060201b60201c565b620002bb565b600033905090565b6000600760009054906101000a900473ffffffffffffffffffffffffffffffffffffffff16905081600760006101000a81548173ffffffffffffffffffffffffffffffffffffffff021916908373ffffffffffffffffffffffffffffffffffffffff1602179055508173ffffffffffffffffffffffffffffffffffffffff168173ffffffffffffffffffffffffffffffffffffffff167f8be0079c531659141344cd1fd0a4f28419497f9722a3daafe3b4186f6b6457e060405160405180910390a35050565b828054620001b49062000256565b90600052602060002090601f016020900481019282620001d8576000855562000224565b82601f10620001f357805160ff191683800117855562000224565b8280016001018555821562000224579182015b828111156200022357825182559160200191906001019062000206565b5b50905062000233919062000237565b5090565b5b808211156200025257600081600090555060010162000238565b5090565b600060028204905060018216806200026f57607f821691505b602082108114156200028657620002856200028c565b5b50919050565b7f4e487b7100000000000000000000000000000000000000000000000000000000600052602260045260246000fd5b61315980620002cb6000396000f3fe608060405234801561001057600080fd5b50600436106101165760003560e01c8063715018a6116100a2578063b88d4fde11610071578063b88d4fde146102cb578063c87b56dd146102e7578063e985e9c514610317578063f2fb212014610347578063f2fde38b1461037757610116565b8063715018a6146102695780638da5cb5b1461027357806395d89b4114610291578063a22cb465146102af57610116565b806323b872dd116100e957806323b872dd146101b557806342842e0e146101d157806355f804b3146101ed5780636352211e1461020957806370a082311461023957610116565b806301ffc9a71461011b57806306fdde031461014b578063081812fc14610169578063095ea7b314610199575b600080fd5b61013560048036038101906101309190612027565b610393565b6040516101429190612521565b60405180910390f35b610153610475565b604051610160919061253c565b60405180910390f35b610183600480360381019061017e91906120ba565b610507565b60405161019091906124ba565b60405180910390f35b6101b360048036038101906101ae9190611feb565b61058c565b005b6101cf60048036038101906101ca9190611ee5565b6106a4565b005b6101eb60048036038101906101e69190611ee5565b610704565b005b61020760048036038101906102029190612079565b610724565b005b610223600480360381019061021e91906120ba565b6107ba565b60405161023091906124ba565b60405180910390f35b610253600480360381019061024e9190611e80565b61086c565b604051610260919061279e565b60405180910390f35b610271610924565b005b61027b6109ac565b60405161028891906124ba565b60405180910390f35b6102996109d6565b6040516102a6919061253c565b60405180910390f35b6102c960048036038101906102c49190611faf565b610a68565b005b6102e560048036038101906102e09190611f34565b610a7e565b005b61030160048036038101906102fc91906120ba565b610ae0565b60405161030e919061253c565b60405180910390f35b610331600480360381019061032c9190611ea9565b610c32565b60405161033e9190612521565b60405180910390f35b610361600480360381019061035c9190611e80565b610cc6565b60405161036e919061279e565b60405180910390f35b610391600480360381019061038c9190611e80565b610d25565b005b60007f80ac58cd000000000000000000000000000000000000000000000000000000007bffffffffffffffffffffffffffffffffffffffffffffffffffffffff1916827bffffffffffffffffffffffffffffffffffffffffffffffffffffffff1916148061045e57507f5b5e139f000000000000000000000000000000000000000000000000000000007bffffffffffffffffffffffffffffffffffffffffffffffffffffffff1916827bffffffffffffffffffffffffffffffffffffffffffffffffffffffff1916145b8061046e575061046d82610e1d565b5b9050919050565b606060008054610484906129f4565b80601f01602080910402602001604051908101604052809291908181526020018280546104b0906129f4565b80156104fd5780601f106104d2576101008083540402835291602001916104fd565b820191906000526020600020905b8154815290600101906020018083116104e057829003601f168201915b5050505050905090565b600061051282610e87565b610551576040517f08c379a0000000000000000000000000000000000000000000000000000000008152600401610548906126fe565b60405180910390fd5b6004600083815260200190815260200160002060009054906101000a900473ffffffffffffffffffffffffffffffffffffffff169050919050565b6000610597826107ba565b90508073ffffffffffffffffffffffffffffffffffffffff168373ffffffffffffffffffffffffffffffffffffffff161415610608576040517f08c379a00000000000000000000000000000000000000000000000000000000081526004016105ff9061275e565b60405180910390fd5b8073ffffffffffffffffffffffffffffffffffffffff16610627610ef3565b73ffffffffffffffffffffffffffffffffffffffff161480610656575061065581610650610ef3565b610c32565b5b610695576040517f08c379a000000000000000000000000000000000000000000000000000000000815260040161068c9061263e565b60405180910390fd5b61069f8383610efb565b505050565b6106b56106af610ef3565b82610fb4565b6106f4576040517f08c379a00000000000000000000000000000000000000000000000000000000081526004016106eb9061277e565b60405180910390fd5b6106ff838383611092565b505050565b61071f83838360405180602001604052806000815250610a7e565b505050565b61072c610ef3565b73ffffffffffffffffffffffffffffffffffffffff1661074a6109ac565b73ffffffffffffffffffffffffffffffffffffffff16146107a0576040517f08c379a00000000000000000000000000000000000000000000000000000000081526004016107979061271e565b60405180910390fd5b80600990805190602001906107b6929190611ca4565b5050565b6000806002600084815260200190815260200160002060009054906101000a900473ffffffffffffffffffffffffffffffffffffffff169050600073ffffffffffffffffffffffffffffffffffffffff168173ffffffffffffffffffffffffffffffffffffffff161415610863576040517f08c379a000000000000000000000000000000000000000000000000000000000815260040161085a9061267e565b60405180910390fd5b80915050919050565b60008073ffffffffffffffffffffffffffffffffffffffff168273ffffffffffffffffffffffffffffffffffffffff1614156108dd576040517f08c379a00000000000000000000000000000000000000000000000000000000081526004016108d49061265e565b60405180910390fd5b600360008373ffffffffffffffffffffffffffffffffffffffff1673ffffffffffffffffffffffffffffffffffffffff168152602001908152602001600020549050919050565b61092c610ef3565b73ffffffffffffffffffffffffffffffffffffffff1661094a6109ac565b73ffffffffffffffffffffffffffffffffffffffff16146109a0576040517f08c379a00000000000000000000000000000000000000000000000000000000081526004016109979061271e565b60405180910390fd5b6109aa60006112f9565b565b6000600760009054906101000a900473ffffffffffffffffffffffffffffffffffffffff16905090565b6060600180546109e5906129f4565b80601f0160208091040260200160405190810160405280929190818152602001828054610a11906129f4565b8015610a5e5780601f10610a3357610100808354040283529160200191610a5e565b820191906000526020600020905b815481529060010190602001808311610a4157829003601f168201915b5050505050905090565b610a7a610a73610ef3565b83836113bf565b5050565b610a8f610a89610ef3565b83610fb4565b610ace576040517f08c379a0000000000000000000000000000000000000000000000000000000008152600401610ac59061277e565b60405180910390fd5b610ada8484848461152c565b50505050565b6060610aeb82610e87565b610b2a576040517f08c379a0000000000000000000000000000000000000000000000000000000008152600401610b21906126de565b60405180910390fd5b6000600660008481526020019081526020016000208054610b4a906129f4565b80601f0160208091040260200160405190810160405280929190818152602001828054610b76906129f4565b8015610bc35780601f10610b9857610100808354040283529160200191610bc3565b820191906000526020600020905b815481529060010190602001808311610ba657829003601f168201915b505050505090506000610bd4611588565b9050600081511415610bea578192505050610c2d565b600082511115610c1f578082604051602001610c07929190612463565b60405160208183030381529060405292505050610c2d565b610c288461161a565b925050505b919050565b6000600560008473ffffffffffffffffffffffffffffffffffffffff1673ffffffffffffffffffffffffffffffffffffffff16815260200190815260200160002060008373ffffffffffffffffffffffffffffffffffffffff1673ffffffffffffffffffffffffffffffffffffffff16815260200190815260200160002060009054906101000a900460ff16905092915050565b6000610cd260086116c1565b6000610cde60086116d7565b9050610cea83826116e5565b610d1c81610cf6611588565b83604051602001610d08929190612487565b6040516020818303038152906040526118bf565b80915050919050565b610d2d610ef3565b73ffffffffffffffffffffffffffffffffffffffff16610d4b6109ac565b73ffffffffffffffffffffffffffffffffffffffff1614610da1576040517f08c379a0000000000000000000000000000000000000000000000000000000008152600401610d989061271e565b60405180910390fd5b600073ffffffffffffffffffffffffffffffffffffffff168173ffffffffffffffffffffffffffffffffffffffff161415610e11576040517f08c379a0000000000000000000000000000000000000000000000000000000008152600401610e089061257e565b60405180910390fd5b610e1a816112f9565b50565b60007f01ffc9a7000000000000000000000000000000000000000000000000000000007bffffffffffffffffffffffffffffffffffffffffffffffffffffffff1916827bffffffffffffffffffffffffffffffffffffffffffffffffffffffff1916149050919050565b60008073ffffffffffffffffffffffffffffffffffffffff166002600084815260200190815260200160002060009054906101000a900473ffffffffffffffffffffffffffffffffffffffff1673ffffffffffffffffffffffffffffffffffffffff1614159050919050565b600033905090565b816004600083815260200190815260200160002060006101000a81548173ffffffffffffffffffffffffffffffffffffffff021916908373ffffffffffffffffffffffffffffffffffffffff160217905550808273ffffffffffffffffffffffffffffffffffffffff16610f6e836107ba565b73ffffffffffffffffffffffffffffffffffffffff167f8c5be1e5ebec7d5bd14f71427d1e84f3dd0314c0f7b2291e5b200ac8c7c3b92560405160405180910390a45050565b6000610fbf82610e87565b610ffe576040517f08c379a0000000000000000000000000000000000000000000000000000000008152600401610ff59061261e565b60405180910390fd5b6000611009836107ba565b90508073ffffffffffffffffffffffffffffffffffffffff168473ffffffffffffffffffffffffffffffffffffffff16148061107857508373ffffffffffffffffffffffffffffffffffffffff1661106084610507565b73ffffffffffffffffffffffffffffffffffffffff16145b8061108957506110888185610c32565b5b91505092915050565b8273ffffffffffffffffffffffffffffffffffffffff166110b2826107ba565b73ffffffffffffffffffffffffffffffffffffffff1614611108576040517f08c379a00000000000000000000000000000000000000000000000000000000081526004016110ff9061259e565b60405180910390fd5b600073ffffffffffffffffffffffffffffffffffffffff168273ffffffffffffffffffffffffffffffffffffffff161415611178576040517f08c379a000000000000000000000000000000000000000000000000000000000815260040161116f906125de565b60405180910390fd5b611183838383611933565b61118e600082610efb565b6001600360008573ffffffffffffffffffffffffffffffffffffffff1673ffffffffffffffffffffffffffffffffffffffff16815260200190815260200160002060008282546111de919061290a565b925050819055506001600360008473ffffffffffffffffffffffffffffffffffffffff1673ffffffffffffffffffffffffffffffffffffffff16815260200190815260200160002060008282546112359190612883565b92505081905550816002600083815260200190815260200160002060006101000a81548173ffffffffffffffffffffffffffffffffffffffff021916908373ffffffffffffffffffffffffffffffffffffffff160217905550808273ffffffffffffffffffffffffffffffffffffffff168473ffffffffffffffffffffffffffffffffffffffff167fddf252ad1be2c89b69c2b068fc378daa952ba7f163c4a11628f55a4df523b3ef60405160405180910390a46112f4838383611938565b505050565b6000600760009054906101000a900473ffffffffffffffffffffffffffffffffffffffff16905081600760006101000a81548173ffffffffffffffffffffffffffffffffffffffff021916908373ffffffffffffffffffffffffffffffffffffffff1602179055508173ffffffffffffffffffffffffffffffffffffffff168173ffffffffffffffffffffffffffffffffffffffff167f8be0079c531659141344cd1fd0a4f28419497f9722a3daafe3b4186f6b6457e060405160405180910390a35050565b8173ffffffffffffffffffffffffffffffffffffffff168373ffffffffffffffffffffffffffffffffffffffff16141561142e576040517f08c379a0000000000000000000000000000000000000000000000000000000008152600401611425906125fe565b60405180910390fd5b80600560008573ffffffffffffffffffffffffffffffffffffffff1673ffffffffffffffffffffffffffffffffffffffff16815260200190815260200160002060008473ffffffffffffffffffffffffffffffffffffffff1673ffffffffffffffffffffffffffffffffffffffff16815260200190815260200160002060006101000a81548160ff0219169083151502179055508173ffffffffffffffffffffffffffffffffffffffff168373ffffffffffffffffffffffffffffffffffffffff167f17307eab39ab6107e8899845ad3d59bd9653f200f220920489ca2b5937696c318360405161151f9190612521565b60405180910390a3505050565b611537848484611092565b6115438484848461193d565b611582576040517f08c379a00000000000000000000000000000000000000000000000000000000081526004016115799061255e565b60405180910390fd5b50505050565b606060098054611597906129f4565b80601f01602080910402602001604051908101604052809291908181526020018280546115c3906129f4565b80156116105780601f106115e557610100808354040283529160200191611610565b820191906000526020600020905b8154815290600101906020018083116115f357829003601f168201915b5050505050905090565b606061162582610e87565b611664576040517f08c379a000000000000000000000000000000000000000000000000000000000815260040161165b9061273e565b60405180910390fd5b600061166e611588565b9050600081511161168e57604051806020016040528060008152506116b9565b8061169884611ad4565b6040516020016116a9929190612463565b6040516020818303038152906040525b915050919050565b6001816000016000828254019250508190555050565b600081600001549050919050565b600073ffffffffffffffffffffffffffffffffffffffff168273ffffffffffffffffffffffffffffffffffffffff161415611755576040517f08c379a000000000000000000000000000000000000000000000000000000000815260040161174c906126be565b60405180910390fd5b61175e81610e87565b1561179e576040517f08c379a0000000000000000000000000000000000000000000000000000000008152600401611795906125be565b60405180910390fd5b6117aa60008383611933565b6001600360008473ffffffffffffffffffffffffffffffffffffffff1673ffffffffffffffffffffffffffffffffffffffff16815260200190815260200160002060008282546117fa9190612883565b92505081905550816002600083815260200190815260200160002060006101000a81548173ffffffffffffffffffffffffffffffffffffffff021916908373ffffffffffffffffffffffffffffffffffffffff160217905550808273ffffffffffffffffffffffffffffffffffffffff16600073ffffffffffffffffffffffffffffffffffffffff167fddf252ad1be2c89b69c2b068fc378daa952ba7f163c4a11628f55a4df523b3ef60405160405180910390a46118bb60008383611938565b5050565b6118c882610e87565b611907576040517f08c379a00000000000000000000000000000000000000000000000000000000081526004016118fe9061269e565b60405180910390fd5b8060066000848152602001908152602001600020908051906020019061192e929190611ca4565b505050565b505050565b505050565b600061195e8473ffffffffffffffffffffffffffffffffffffffff16611c81565b15611ac7578373ffffffffffffffffffffffffffffffffffffffff1663150b7a02611987610ef3565b8786866040518563ffffffff1660e01b81526004016119a994939291906124d5565b602060405180830381600087803b1580156119c357600080fd5b505af19250505080156119f457506040513d601f19601f820116820180604052508101906119f19190612050565b60015b611a77573d8060008114611a24576040519150601f19603f3d011682016040523d82523d6000602084013e611a29565b606091505b50600081511415611a6f576040517f08c379a0000000000000000000000000000000000000000000000000000000008152600401611a669061255e565b60405180910390fd5b805181602001fd5b63150b7a0260e01b7bffffffffffffffffffffffffffffffffffffffffffffffffffffffff1916817bffffffffffffffffffffffffffffffffffffffffffffffffffffffff191614915050611acc565b600190505b949350505050565b60606000821415611b1c576040518060400160405280600181526020017f30000000000000000000000000000000000000000000000000000000000000008152509050611c7c565b600082905060005b60008214611b4e578080611b3790612a57565b915050600a82611b4791906128d9565b9150611b24565b60008167ffffffffffffffff811115611b90577f4e487b7100000000000000000000000000000000000000000000000000000000600052604160045260246000fd5b6040519080825280601f01601f191660200182016040528015611bc25781602001600182028036833780820191505090505b5090505b60008514611c7557600182611bdb919061290a565b9150600a85611bea9190612aaa565b6030611bf69190612883565b60f81b818381518110611c32577f4e487b7100000000000000000000000000000000000000000000000000000000600052603260045260246000fd5b60200101907effffffffffffffffffffffffffffffffffffffffffffffffffffffffffffff1916908160001a905350600a85611c6e91906128d9565b9450611bc6565b8093505050505b919050565b6000808273ffffffffffffffffffffffffffffffffffffffff163b119050919050565b828054611cb0906129f4565b90600052602060002090601f016020900481019282611cd25760008555611d19565b82601f10611ceb57805160ff1916838001178555611d19565b82800160010185558215611d19579182015b82811115611d18578251825591602001919060010190611cfd565b5b509050611d269190611d2a565b5090565b5b80821115611d43576000816000905550600101611d2b565b5090565b6000611d5a611d55846127de565b6127b9565b905082815260208101848484011115611d7257600080fd5b611d7d8482856129b2565b509392505050565b6000611d98611d938461280f565b6127b9565b905082815260208101848484011115611db057600080fd5b611dbb8482856129b2565b509392505050565b600081359050611dd2816130c7565b92915050565b600081359050611de7816130de565b92915050565b600081359050611dfc816130f5565b92915050565b600081519050611e11816130f5565b92915050565b600082601f830112611e2857600080fd5b8135611e38848260208601611d47565b91505092915050565b600082601f830112611e5257600080fd5b8135611e62848260208601611d85565b91505092915050565b600081359050611e7a8161310c565b92915050565b600060208284031215611e9257600080fd5b6000611ea084828501611dc3565b91505092915050565b60008060408385031215611ebc57600080fd5b6000611eca85828601611dc3565b9250506020611edb85828601611dc3565b9150509250929050565b600080600060608486031215611efa57600080fd5b6000611f0886828701611dc3565b9350506020611f1986828701611dc3565b9250506040611f2a86828701611e6b565b9150509250925092565b60008060008060808587031215611f4a57600080fd5b6000611f5887828801611dc3565b9450506020611f6987828801611dc3565b9350506040611f7a87828801611e6b565b925050606085013567ffffffffffffffff811115611f9757600080fd5b611fa387828801611e17565b91505092959194509250565b60008060408385031215611fc257600080fd5b6000611fd085828601611dc3565b9250506020611fe185828601611dd8565b9150509250929050565b60008060408385031215611ffe57600080fd5b600061200c85828601611dc3565b925050602061201d85828601611e6b565b9150509250929050565b60006020828403121561203957600080fd5b600061204784828501611ded565b91505092915050565b60006020828403121561206257600080fd5b600061207084828501611e02565b91505092915050565b60006020828403121561208b57600080fd5b600082013567ffffffffffffffff8111156120a557600080fd5b6120b184828501611e41565b91505092915050565b6000602082840312156120cc57600080fd5b60006120da84828501611e6b565b91505092915050565b6120ec8161293e565b82525050565b6120fb81612950565b82525050565b600061210c82612840565b6121168185612856565b93506121268185602086016129c1565b61212f81612b97565b840191505092915050565b60006121458261284b565b61214f8185612867565b935061215f8185602086016129c1565b61216881612b97565b840191505092915050565b600061217e8261284b565b6121888185612878565b93506121988185602086016129c1565b80840191505092915050565b60006121b1603283612867565b91506121bc82612ba8565b604082019050919050565b60006121d4602683612867565b91506121df82612bf7565b604082019050919050565b60006121f7602583612867565b915061220282612c46565b604082019050919050565b600061221a601c83612867565b915061222582612c95565b602082019050919050565b600061223d602483612867565b915061224882612cbe565b604082019050919050565b6000612260601983612867565b915061226b82612d0d565b602082019050919050565b6000612283602c83612867565b915061228e82612d36565b604082019050919050565b60006122a6603883612867565b91506122b182612d85565b604082019050919050565b60006122c9602a83612867565b91506122d482612dd4565b604082019050919050565b60006122ec602983612867565b91506122f782612e23565b604082019050919050565b600061230f602e83612867565b915061231a82612e72565b604082019050919050565b6000612332602083612867565b915061233d82612ec1565b602082019050919050565b6000612355603183612867565b915061236082612eea565b604082019050919050565b6000612378602c83612867565b915061238382612f39565b604082019050919050565b600061239b602083612867565b91506123a682612f88565b602082019050919050565b60006123be602f83612867565b91506123c982612fb1565b604082019050919050565b60006123e1602183612867565b91506123ec82613000565b604082019050919050565b6000612404603183612867565b915061240f8261304f565b604082019050919050565b6000612427600183612878565b91506124328261309e565b600182019050919050565b612446816129a8565b82525050565b61245d612458826129a8565b612aa0565b82525050565b600061246f8285612173565b915061247b8284612173565b91508190509392505050565b60006124938285612173565b915061249e8261241a565b91506124aa828461244c565b6020820191508190509392505050565b60006020820190506124cf60008301846120e3565b92915050565b60006080820190506124ea60008301876120e3565b6124f760208301866120e3565b612504604083018561243d565b81810360608301526125168184612101565b905095945050505050565b600060208201905061253660008301846120f2565b92915050565b60006020820190508181036000830152612556818461213a565b905092915050565b60006020820190508181036000830152612577816121a4565b9050919050565b60006020820190508181036000830152612597816121c7565b9050919050565b600060208201905081810360008301526125b7816121ea565b9050919050565b600060208201905081810360008301526125d78161220d565b9050919050565b600060208201905081810360008301526125f781612230565b9050919050565b6000602082019050818103600083015261261781612253565b9050919050565b6000602082019050818103600083015261263781612276565b9050919050565b6000602082019050818103600083015261265781612299565b9050919050565b60006020820190508181036000830152612677816122bc565b9050919050565b60006020820190508181036000830152612697816122df565b9050919050565b600060208201905081810360008301526126b781612302565b9050919050565b600060208201905081810360008301526126d781612325565b9050919050565b600060208201905081810360008301526126f781612348565b9050919050565b600060208201905081810360008301526127178161236b565b9050919050565b600060208201905081810360008301526127378161238e565b9050919050565b60006020820190508181036000830152612757816123b1565b9050919050565b60006020820190508181036000830152612777816123d4565b9050919050565b60006020820190508181036000830152612797816123f7565b9050919050565b60006020820190506127b3600083018461243d565b92915050565b60006127c36127d4565b90506127cf8282612a26565b919050565b6000604051905090565b600067ffffffffffffffff8211156127f9576127f8612b68565b5b61280282612b97565b9050602081019050919050565b600067ffffffffffffffff82111561282a57612829612b68565b5b61283382612b97565b9050602081019050919050565b600081519050919050565b600081519050919050565b600082825260208201905092915050565b600082825260208201905092915050565b600081905092915050565b600061288e826129a8565b9150612899836129a8565b9250827fffffffffffffffffffffffffffffffffffffffffffffffffffffffffffffffff038211156128ce576128cd612adb565b5b828201905092915050565b60006128e4826129a8565b91506128ef836129a8565b9250826128ff576128fe612b0a565b5b828204905092915050565b6000612915826129a8565b9150612920836129a8565b92508282101561293357612932612adb565b5b828203905092915050565b600061294982612988565b9050919050565b60008115159050919050565b60007fffffffff0000000000000000000000000000000000000000000000000000000082169050919050565b600073ffffffffffffffffffffffffffffffffffffffff82169050919050565b6000819050919050565b82818337600083830152505050565b60005b838110156129df5780820151818401526020810190506129c4565b838111156129ee576000848401525b50505050565b60006002820490506001821680612a0c57607f821691505b60208210811415612a2057612a1f612b39565b5b50919050565b612a2f82612b97565b810181811067ffffffffffffffff82111715612a4e57612a4d612b68565b5b80604052505050565b6000612a62826129a8565b91507fffffffffffffffffffffffffffffffffffffffffffffffffffffffffffffffff821415612a9557612a94612adb565b5b600182019050919050565b6000819050919050565b6000612ab5826129a8565b9150612ac0836129a8565b925082612ad057612acf612b0a565b5b828206905092915050565b7f4e487b7100000000000000000000000000000000000000000000000000000000600052601160045260246000fd5b7f4e487b7100000000000000000000000000000000000000000000000000000000600052601260045260246000fd5b7f4e487b7100000000000000000000000000000000000000000000000000000000600052602260045260246000fd5b7f4e487b7100000000000000000000000000000000000000000000000000000000600052604160045260246000fd5b6000601f19601f8301169050919050565b7f4552433732313a207472616e7366657220746f206e6f6e20455243373231526560008201527f63656976657220696d706c656d656e7465720000000000000000000000000000602082015250565b7f4f776e61626c653a206e6577206f776e657220697320746865207a65726f206160008201527f6464726573730000000000000000000000000000000000000000000000000000602082015250565b7f4552433732313a207472616e736665722066726f6d20696e636f72726563742060008201527f6f776e6572000000000000000000000000000000000000000000000000000000602082015250565b7f4552433732313a20746f6b656e20616c7265616479206d696e74656400000000600082015250565b7f4552433732313a207472616e7366657220746f20746865207a65726f2061646460008201527f7265737300000000000000000000000000000000000000000000000000000000602082015250565b7f4552433732313a20617070726f766520746f2063616c6c657200000000000000600082015250565b7f4552433732313a206f70657261746f7220717565727920666f72206e6f6e657860008201527f697374656e7420746f6b656e0000000000000000000000000000000000000000602082015250565b7f4552433732313a20617070726f76652063616c6c6572206973206e6f74206f7760008201527f6e6572206e6f7220617070726f76656420666f7220616c6c0000000000000000602082015250565b7f4552433732313a2062616c616e636520717565727920666f7220746865207a6560008201527f726f206164647265737300000000000000000000000000000000000000000000602082015250565b7f4552433732313a206f776e657220717565727920666f72206e6f6e657869737460008201527f656e7420746f6b656e0000000000000000000000000000000000000000000000602082015250565b7f45524337323155524953746f726167653a2055524920736574206f66206e6f6e60008201527f6578697374656e7420746f6b656e000000000000000000000000000000000000602082015250565b7f4552433732313a206d696e7420746f20746865207a65726f2061646472657373600082015250565b7f45524337323155524953746f726167653a2055524920717565727920666f722060008201527f6e6f6e6578697374656e7420746f6b656e000000000000000000000000000000602082015250565b7f4552433732313a20617070726f76656420717565727920666f72206e6f6e657860008201527f697374656e7420746f6b656e0000000000000000000000000000000000000000602082015250565b7f4f776e61626c653a2063616c6c6572206973206e6f7420746865206f776e6572600082015250565b7f4552433732314d657461646174613a2055524920717565727920666f72206e6f60008201527f6e6578697374656e7420746f6b656e0000000000000000000000000000000000602082015250565b7f4552433732313a20617070726f76616c20746f2063757272656e74206f776e6560008201527f7200000000000000000000000000000000000000000000000000000000000000602082015250565b7f4552433732313a207472616e736665722063616c6c6572206973206e6f74206f60008201527f776e6572206e6f7220617070726f766564000000000000000000000000000000602082015250565b7f2f00000000000000000000000000000000000000000000000000000000000000600082015250565b6130d08161293e565b81146130db57600080fd5b50565b6130e781612950565b81146130f257600080fd5b50565b6130fe8161295c565b811461310957600080fd5b50565b613115816129a8565b811461312057600080fd5b5056fea2646970667358221220a4da0c16b3bdfe58fd0130db02c6561d4a7ab87a6fbe9e10ff3d1f266ee4344c64736f6c63430008010033",
    "linkReferences": {},
    "deployedLinkReferences": {}
}