{
  "_format": "hh-sol-artifact-1",
  "contractName": "Consistently",
  "sourceName": "contracts/Consistenly.sol",
  "abi": [
    {
      "inputs": [],
      "stateMutability": "nonpayable",
      "type": "constructor"
    },
    {
      "anonymous": false,
      "inputs": [
        {
          "indexed": false,
          "internalType": "address",
          "name": "userAddress",
          "type": "address"
        },
        {
          "indexed": false,
          "internalType": "uint256",
          "name": "lastCheckInTime",
          "type": "uint256"
        }
      ],
      "name": "CheckedIn",
      "type": "event"
    },
    {
      "anonymous": false,
      "inputs": [
        {
          "indexed": false,
          "internalType": "address",
          "name": "userAddress",
          "type": "address"
        },
        {
          "indexed": false,
          "internalType": "uint256",
          "name": "weiDeposited",
          "type": "uint256"
        },
        {
          "indexed": false,
          "internalType": "string",
          "name": "habit",
          "type": "string"
        },
        {
          "indexed": false,
          "internalType": "uint256",
          "name": "timeRegistered",
          "type": "uint256"
        },
        {
          "indexed": false,
          "internalType": "bool",
          "name": "active",
          "type": "bool"
        }
      ],
      "name": "IntentionRegistered",
      "type": "event"
    },
    {
      "inputs": [],
      "name": "aavePool",
      "outputs": [
        {
          "internalType": "contract IPool",
          "name": "",
          "type": "address"
        }
      ],
      "stateMutability": "view",
      "type": "function"
    },
    {
      "inputs": [
        {
          "internalType": "address",
          "name": "",
          "type": "address"
        }
      ],
      "name": "checkInCount",
      "outputs": [
        {
          "internalType": "uint8",
          "name": "",
          "type": "uint8"
        }
      ],
      "stateMutability": "view",
      "type": "function"
    },
    {
      "inputs": [],
      "name": "checkin",
      "outputs": [],
      "stateMutability": "nonpayable",
      "type": "function"
    },
    {
      "inputs": [],
      "name": "depositIntoAave",
      "outputs": [],
      "stateMutability": "nonpayable",
      "type": "function"
    },
    {
      "inputs": [
        {
          "internalType": "address",
          "name": "addr",
          "type": "address"
        }
      ],
      "name": "getSpecificUserIntention",
      "outputs": [
        {
          "components": [
            {
              "internalType": "uint8",
              "name": "noOfDays",
              "type": "uint8"
            },
            {
              "internalType": "uint8",
              "name": "defaulted",
              "type": "uint8"
            },
            {
              "internalType": "uint256",
              "name": "timeRegistered",
              "type": "uint256"
            },
            {
              "internalType": "uint256",
              "name": "weiDeposited",
              "type": "uint256"
            },
            {
              "internalType": "uint256",
              "name": "weiBalance",
              "type": "uint256"
            },
            {
              "internalType": "string",
              "name": "habit",
              "type": "string"
            },
            {
              "internalType": "address",
              "name": "userAddress",
              "type": "address"
            },
            {
              "internalType": "bool",
              "name": "active",
              "type": "bool"
            }
          ],
          "internalType": "struct Consistently.Intention",
          "name": "",
          "type": "tuple"
        }
      ],
      "stateMutability": "view",
      "type": "function"
    },
    {
      "inputs": [],
      "name": "getUserIntention",
      "outputs": [
        {
          "components": [
            {
              "internalType": "uint8",
              "name": "noOfDays",
              "type": "uint8"
            },
            {
              "internalType": "uint8",
              "name": "defaulted",
              "type": "uint8"
            },
            {
              "internalType": "uint256",
              "name": "timeRegistered",
              "type": "uint256"
            },
            {
              "internalType": "uint256",
              "name": "weiDeposited",
              "type": "uint256"
            },
            {
              "internalType": "uint256",
              "name": "weiBalance",
              "type": "uint256"
            },
            {
              "internalType": "string",
              "name": "habit",
              "type": "string"
            },
            {
              "internalType": "address",
              "name": "userAddress",
              "type": "address"
            },
            {
              "internalType": "bool",
              "name": "active",
              "type": "bool"
            }
          ],
          "internalType": "struct Consistently.Intention",
          "name": "",
          "type": "tuple"
        }
      ],
      "stateMutability": "view",
      "type": "function"
    },
    {
      "inputs": [],
      "name": "habit",
      "outputs": [
        {
          "internalType": "contract Habit",
          "name": "",
          "type": "address"
        }
      ],
      "stateMutability": "view",
      "type": "function"
    },
    {
      "inputs": [],
      "name": "habitNFT",
      "outputs": [
        {
          "internalType": "contract HabitNFT",
          "name": "",
          "type": "address"
        }
      ],
      "stateMutability": "view",
      "type": "function"
    },
    {
      "inputs": [
        {
          "internalType": "uint256",
          "name": "",
          "type": "uint256"
        }
      ],
      "name": "intentions",
      "outputs": [
        {
          "internalType": "uint8",
          "name": "noOfDays",
          "type": "uint8"
        },
        {
          "internalType": "uint8",
          "name": "defaulted",
          "type": "uint8"
        },
        {
          "internalType": "uint256",
          "name": "timeRegistered",
          "type": "uint256"
        },
        {
          "internalType": "uint256",
          "name": "weiDeposited",
          "type": "uint256"
        },
        {
          "internalType": "uint256",
          "name": "weiBalance",
          "type": "uint256"
        },
        {
          "internalType": "string",
          "name": "habit",
          "type": "string"
        },
        {
          "internalType": "address",
          "name": "userAddress",
          "type": "address"
        },
        {
          "internalType": "bool",
          "name": "active",
          "type": "bool"
        }
      ],
      "stateMutability": "view",
      "type": "function"
    },
    {
      "inputs": [
        {
          "internalType": "address",
          "name": "",
          "type": "address"
        }
      ],
      "name": "lastCheckIn",
      "outputs": [
        {
          "internalType": "uint256",
          "name": "",
          "type": "uint256"
        }
      ],
      "stateMutability": "view",
      "type": "function"
    },
    {
      "inputs": [
        {
          "internalType": "address",
          "name": "",
          "type": "address"
        }
      ],
      "name": "nextCheckIn",
      "outputs": [
        {
          "internalType": "uint256",
          "name": "",
          "type": "uint256"
        }
      ],
      "stateMutability": "view",
      "type": "function"
    },
    {
      "inputs": [],
      "name": "owner",
      "outputs": [
        {
          "internalType": "address",
          "name": "",
          "type": "address"
        }
      ],
      "stateMutability": "view",
      "type": "function"
    },
    {
      "inputs": [],
      "name": "redeem",
      "outputs": [],
      "stateMutability": "nonpayable",
      "type": "function"
    },
    {
      "inputs": [
        {
          "internalType": "string",
          "name": "_habit",
          "type": "string"
        },
        {
          "internalType": "uint8",
          "name": "_days",
          "type": "uint8"
        }
      ],
      "name": "register",
      "outputs": [],
      "stateMutability": "payable",
      "type": "function"
    },
    {
      "inputs": [],
      "name": "social",
      "outputs": [
        {
          "internalType": "contract Social",
          "name": "",
          "type": "address"
        }
      ],
      "stateMutability": "view",
      "type": "function"
    },
    {
      "inputs": [
        {
          "internalType": "address",
          "name": "",
          "type": "address"
        }
      ],
      "name": "userAddresses",
      "outputs": [
        {
          "internalType": "bool",
          "name": "",
          "type": "bool"
        }
      ],
      "stateMutability": "view",
      "type": "function"
    },
    {
      "inputs": [
        {
          "internalType": "address",
          "name": "",
          "type": "address"
        }
      ],
      "name": "userIntentions",
      "outputs": [
        {
          "internalType": "uint256",
          "name": "",
          "type": "uint256"
        }
      ],
      "stateMutability": "view",
      "type": "function"
    },
    {
      "inputs": [],
      "name": "withdraw",
      "outputs": [],
      "stateMutability": "payable",
      "type": "function"
    }
  ],
  "bytecode": "0x6080604052604051620000129062000261565b604051809103906000f0801580156200002f573d6000803e3d6000fd5b50600160006101000a81548173ffffffffffffffffffffffffffffffffffffffff021916908373ffffffffffffffffffffffffffffffffffffffff1602179055506040516200007e906200026f565b604051809103906000f0801580156200009b573d6000803e3d6000fd5b50600260006101000a81548173ffffffffffffffffffffffffffffffffffffffff021916908373ffffffffffffffffffffffffffffffffffffffff160217905550604051620000ea906200027d565b604051809103906000f08015801562000107573d6000803e3d6000fd5b50600360006101000a81548173ffffffffffffffffffffffffffffffffffffffff021916908373ffffffffffffffffffffffffffffffffffffffff1602179055506040518060800160405280604b815260200162009dac604b913960069080519060200190620001799291906200028b565b506001600760006101000a81548160ff021916908360ff16021790555060ff600760016101000a81548160ff021916908360ff16021790555061a8c0600855348015620001c557600080fd5b5033600560006101000a81548173ffffffffffffffffffffffffffffffffffffffff021916908373ffffffffffffffffffffffffffffffffffffffff16021790555073e91e690407977f0b9fdc655504b895fe4af0c3716000806101000a81548173ffffffffffffffffffffffffffffffffffffffff021916908373ffffffffffffffffffffffffffffffffffffffff160217905550620003a0565b61207e806200374d83390190565b61323880620057cb83390190565b6113a98062008a0383390190565b82805462000299906200033b565b90600052602060002090601f016020900481019282620002bd576000855562000309565b82601f10620002d857805160ff191683800117855562000309565b8280016001018555821562000309579182015b8281111562000308578251825591602001919060010190620002eb565b5b5090506200031891906200031c565b5090565b5b80821115620003375760008160009055506001016200031d565b5090565b600060028204905060018216806200035457607f821691505b602082108114156200036b576200036a62000371565b5b50919050565b7f4e487b7100000000000000000000000000000000000000000000000000000000600052602260045260246000fd5b61339d80620003b06000396000f3fe6080604052600436106101095760003560e01c80639ec11dff11610095578063be040fb011610064578063be040fb01461035a578063c7f62a9714610371578063dedaf7fc1461039c578063ef6fdb1c146103b3578063fc86dea7146103f057610109565b80639ec11dff1461029e578063a03e4bc3146102db578063a0cf870414610306578063baeb07181461034357610109565b80637233f2be116100dc5780637233f2be146101c4578063767b79ed146101ef5780638da5cb5b1461020b57806395cfb25a1461023657806398e8ee141461026157610109565b806312a6ebba1461010e5780633bd9e086146101525780633ccfd60b1461017d5780636b69fd5a14610187575b600080fd5b34801561011a57600080fd5b5061013560048036038101906101309190612469565b61042d565b604051610149989796959493929190612c2b565b60405180910390f35b34801561015e57600080fd5b50610167610554565b6040516101749190612bd3565b60405180910390f35b61018561083f565b005b34801561019357600080fd5b506101ae60048036038101906101a991906123ec565b61093a565b6040516101bb9190612bf5565b60405180910390f35b3480156101d057600080fd5b506101d9610952565b6040516101e69190612a58565b60405180910390f35b61020960048036038101906102049190612415565b610978565b005b34801561021757600080fd5b50610220610e44565b60405161022d91906128b0565b60405180910390f35b34801561024257600080fd5b5061024b610e6a565b6040516102589190612a22565b60405180910390f35b34801561026d57600080fd5b50610288600480360381019061028391906123ec565b610e90565b6040516102959190612bf5565b60405180910390f35b3480156102aa57600080fd5b506102c560048036038101906102c091906123ec565b610ea8565b6040516102d29190612c10565b60405180910390f35b3480156102e757600080fd5b506102f0610ec8565b6040516102fd9190612a3d565b60405180910390f35b34801561031257600080fd5b5061032d600480360381019061032891906123ec565b610eec565b60405161033a9190612bd3565b60405180910390f35b34801561034f57600080fd5b506103586111d9565b005b34801561036657600080fd5b5061036f6115ad565b005b34801561037d57600080fd5b50610386611a14565b6040516103939190612a07565b60405180910390f35b3480156103a857600080fd5b506103b1611a3a565b005b3480156103bf57600080fd5b506103da60048036038101906103d591906123ec565b611af3565b6040516103e79190612bf5565b60405180910390f35b3480156103fc57600080fd5b50610417600480360381019061041291906123ec565b611b0b565b60405161042491906129ec565b60405180910390f35b6009818154811061043d57600080fd5b90600052602060002090600602016000915090508060000160009054906101000a900460ff16908060000160019054906101000a900460ff169080600101549080600201549080600301549080600401805461049890612f93565b80601f01602080910402602001604051908101604052809291908181526020018280546104c490612f93565b80156105115780601f106104e657610100808354040283529160200191610511565b820191906000526020600020905b8154815290600101906020018083116104f457829003601f168201915b5050505050908060050160009054906101000a900473ffffffffffffffffffffffffffffffffffffffff16908060050160149054906101000a900460ff16905088565b61055c61222a565b33600460008273ffffffffffffffffffffffffffffffffffffffff1673ffffffffffffffffffffffffffffffffffffffff16815260200190815260200160002060009054906101000a900460ff166105e9576040517f08c379a00000000000000000000000000000000000000000000000000000000081526004016105e090612a73565b60405180910390fd5b336105f381611b2b565b610632576040517f08c379a000000000000000000000000000000000000000000000000000000000815260040161062990612b53565b60405180910390fd5b60006001600a60003373ffffffffffffffffffffffffffffffffffffffff1673ffffffffffffffffffffffffffffffffffffffff168152602001908152602001600020546106809190612e06565b90506000600982815481106106be577f4e487b7100000000000000000000000000000000000000000000000000000000600052603260045260246000fd5b9060005260206000209060060201604051806101000160405290816000820160009054906101000a900460ff1660ff1660ff1681526020016000820160019054906101000a900460ff1660ff1660ff16815260200160018201548152602001600282015481526020016003820154815260200160048201805461074090612f93565b80601f016020809104026020016040519081016040528092919081815260200182805461076c90612f93565b80156107b95780601f1061078e576101008083540402835291602001916107b9565b820191906000526020600020905b81548152906001019060200180831161079c57829003601f168201915b505050505081526020016005820160009054906101000a900473ffffffffffffffffffffffffffffffffffffffff1673ffffffffffffffffffffffffffffffffffffffff1673ffffffffffffffffffffffffffffffffffffffff1681526020016005820160149054906101000a900460ff16151515158152505090508094505050505090565b600560009054906101000a900473ffffffffffffffffffffffffffffffffffffffff1673ffffffffffffffffffffffffffffffffffffffff163373ffffffffffffffffffffffffffffffffffffffff16146108cf576040517f08c379a00000000000000000000000000000000000000000000000000000000081526004016108c690612af3565b60405180910390fd5b600560009054906101000a900473ffffffffffffffffffffffffffffffffffffffff1673ffffffffffffffffffffffffffffffffffffffff166108fc479081150290604051600060405180830381858888f19350505050158015610937573d6000803e3d6000fd5b50565b600c6020528060005260406000206000915090505481565b600360009054906101000a900473ffffffffffffffffffffffffffffffffffffffff1681565b66038d7ea4c680003410156109c2576040517f08c379a00000000000000000000000000000000000000000000000000000000081526004016109b990612b73565b60405180910390fd5b600760009054906101000a900460ff1660ff168160ff161015610a1a576040517f08c379a0000000000000000000000000000000000000000000000000000000008152600401610a1190612ad3565b60405180910390fd5b600760019054906101000a900460ff1660ff168160ff161115610a72576040517f08c379a0000000000000000000000000000000000000000000000000000000008152600401610a6990612a93565b60405180910390fd5b6000600a60003373ffffffffffffffffffffffffffffffffffffffff1673ffffffffffffffffffffffffffffffffffffffff1681526020019081526020016000205414610af4576040517f08c379a0000000000000000000000000000000000000000000000000000000008152600401610aeb90612bb3565b60405180910390fd5b600042905060006040518061010001604052808460ff168152602001600060ff1681526020018381526020013481526020013481526020018581526020013373ffffffffffffffffffffffffffffffffffffffff168152602001600115158152509050600981908060018154018082558091505060019003906000526020600020906006020160009091909190915060008201518160000160006101000a81548160ff021916908360ff16021790555060208201518160000160016101000a81548160ff021916908360ff16021790555060408201518160010155606082015181600201556080820151816003015560a0820151816004019080519060200190610bff92919061228d565b5060c08201518160050160006101000a81548173ffffffffffffffffffffffffffffffffffffffff021916908373ffffffffffffffffffffffffffffffffffffffff16021790555060e08201518160050160146101000a81548160ff02191690831515021790555050506001600460003373ffffffffffffffffffffffffffffffffffffffff1673ffffffffffffffffffffffffffffffffffffffff16815260200190815260200160002060006101000a81548160ff0219169083151502179055506000600980549050905080600a60003373ffffffffffffffffffffffffffffffffffffffff1673ffffffffffffffffffffffffffffffffffffffff168152602001908152602001600020819055506000600d60003373ffffffffffffffffffffffffffffffffffffffff1673ffffffffffffffffffffffffffffffffffffffff16815260200190815260200160002060006101000a81548160ff021916908360ff16021790555082600b60003373ffffffffffffffffffffffffffffffffffffffff1673ffffffffffffffffffffffffffffffffffffffff1681526020019081526020016000208190555060085483610dba9190612d48565b600c60003373ffffffffffffffffffffffffffffffffffffffff1673ffffffffffffffffffffffffffffffffffffffff168152602001908152602001600020819055507f337f4807ad781093d5ad55ae237b66e90ee0c4c83f987349e0198892f6328f2e333487866001604051610e35959493929190612992565b60405180910390a15050505050565b600560009054906101000a900473ffffffffffffffffffffffffffffffffffffffff1681565b600160009054906101000a900473ffffffffffffffffffffffffffffffffffffffff1681565b600a6020528060005260406000206000915090505481565b600d6020528060005260406000206000915054906101000a900460ff1681565b60008054906101000a900473ffffffffffffffffffffffffffffffffffffffff1681565b610ef461222a565b81600460008273ffffffffffffffffffffffffffffffffffffffff1673ffffffffffffffffffffffffffffffffffffffff16815260200190815260200160002060009054906101000a900460ff16610f81576040517f08c379a0000000000000000000000000000000000000000000000000000000008152600401610f7890612a73565b60405180910390fd5b82610f8b81611b2b565b610fca576040517f08c379a0000000000000000000000000000000000000000000000000000000008152600401610fc190612b53565b60405180910390fd5b60006001600a60008773ffffffffffffffffffffffffffffffffffffffff1673ffffffffffffffffffffffffffffffffffffffff168152602001908152602001600020546110189190612e06565b9050600060098281548110611056577f4e487b7100000000000000000000000000000000000000000000000000000000600052603260045260246000fd5b9060005260206000209060060201604051806101000160405290816000820160009054906101000a900460ff1660ff1660ff1681526020016000820160019054906101000a900460ff1660ff1660ff1681526020016001820154815260200160028201548152602001600382015481526020016004820180546110d890612f93565b80601f016020809104026020016040519081016040528092919081815260200182805461110490612f93565b80156111515780601f1061112657610100808354040283529160200191611151565b820191906000526020600020905b81548152906001019060200180831161113457829003601f168201915b505050505081526020016005820160009054906101000a900473ffffffffffffffffffffffffffffffffffffffff1673ffffffffffffffffffffffffffffffffffffffff1673ffffffffffffffffffffffffffffffffffffffff1681526020016005820160149054906101000a900460ff161515151581525050905080945050505050919050565b33600460008273ffffffffffffffffffffffffffffffffffffffff1673ffffffffffffffffffffffffffffffffffffffff16815260200190815260200160002060009054906101000a900460ff16611266576040517f08c379a000000000000000000000000000000000000000000000000000000000815260040161125d90612a73565b60405180910390fd5b3361127081611b2b565b6112af576040517f08c379a00000000000000000000000000000000000000000000000000000000081526004016112a690612b53565b60405180910390fd5b6000429050600c60003373ffffffffffffffffffffffffffffffffffffffff1673ffffffffffffffffffffffffffffffffffffffff168152602001908152602001600020548111611335576040517f08c379a000000000000000000000000000000000000000000000000000000000815260040161132c90612b33565b60405180910390fd5b600854600c60003373ffffffffffffffffffffffffffffffffffffffff1673ffffffffffffffffffffffffffffffffffffffff168152602001908152602001600020546113829190612d48565b8111156113935761139233611dbf565b5b600160009054906101000a900473ffffffffffffffffffffffffffffffffffffffff1673ffffffffffffffffffffffffffffffffffffffff166340c10f1933670de0b6b3a76400006040518363ffffffff1660e01b81526004016113f89291906128cb565b600060405180830381600087803b15801561141257600080fd5b505af1158015611426573d6000803e3d6000fd5b505050506001600d60003373ffffffffffffffffffffffffffffffffffffffff1673ffffffffffffffffffffffffffffffffffffffff16815260200190815260200160002060009054906101000a900460ff166114839190612d9e565b600d60003373ffffffffffffffffffffffffffffffffffffffff1673ffffffffffffffffffffffffffffffffffffffff16815260200190815260200160002060006101000a81548160ff021916908360ff16021790555080600b60003373ffffffffffffffffffffffffffffffffffffffff1673ffffffffffffffffffffffffffffffffffffffff168152602001908152602001600020819055506008548161152c9190612d48565b600c60003373ffffffffffffffffffffffffffffffffffffffff1673ffffffffffffffffffffffffffffffffffffffff168152602001908152602001600020819055507fdddb6e14f7f2101397a6526aab95e964de7f1f44ed06aa47a1c9a0e6b992445633826040516115a0929190612924565b60405180910390a1505050565b33600460008273ffffffffffffffffffffffffffffffffffffffff1673ffffffffffffffffffffffffffffffffffffffff16815260200190815260200160002060009054906101000a900460ff1661163a576040517f08c379a000000000000000000000000000000000000000000000000000000000815260040161163190612a73565b60405180910390fd5b3361164481611b2b565b611683576040517f08c379a000000000000000000000000000000000000000000000000000000000815260040161167a90612b53565b60405180910390fd5b3361168d81611fc4565b6116cc576040517f08c379a00000000000000000000000000000000000000000000000000000000081526004016116c390612b13565b60405180910390fd5b60006001600a60003373ffffffffffffffffffffffffffffffffffffffff1673ffffffffffffffffffffffffffffffffffffffff1681526020019081526020016000205461171a9190612e06565b9050600060098281548110611758577f4e487b7100000000000000000000000000000000000000000000000000000000600052603260045260246000fd5b906000526020600020906006020190506000600a60003373ffffffffffffffffffffffffffffffffffffffff1673ffffffffffffffffffffffffffffffffffffffff1681526020019081526020016000208190555060008160050160146101000a81548160ff0219169083151502179055506000600d60003373ffffffffffffffffffffffffffffffffffffffff1673ffffffffffffffffffffffffffffffffffffffff16815260200190815260200160002060006101000a81548160ff021916908360ff160217905550600160009054906101000a900473ffffffffffffffffffffffffffffffffffffffff1673ffffffffffffffffffffffffffffffffffffffff16639dc29fac33600160009054906101000a900473ffffffffffffffffffffffffffffffffffffffff1673ffffffffffffffffffffffffffffffffffffffff166370a08231336040518263ffffffff1660e01b81526004016118bd91906128b0565b60206040518083038186803b1580156118d557600080fd5b505afa1580156118e9573d6000803e3d6000fd5b505050506040513d601f19601f8201168201806040525081019061190d9190612492565b6040518363ffffffff1660e01b815260040161192a929190612924565b600060405180830381600087803b15801561194457600080fd5b505af1158015611958573d6000803e3d6000fd5b50505050600260009054906101000a900473ffffffffffffffffffffffffffffffffffffffff1673ffffffffffffffffffffffffffffffffffffffff1663cf3783433360066040518363ffffffff1660e01b81526004016119ba9291906128f4565b602060405180830381600087803b1580156119d457600080fd5b505af11580156119e8573d6000803e3d6000fd5b505050506040513d601f19601f82011682018060405250810190611a0c9190612492565b505050505050565b600260009054906101000a900473ffffffffffffffffffffffffffffffffffffffff1681565b671bc16d674ec80000471115611af15760008054906101000a900473ffffffffffffffffffffffffffffffffffffffff1673ffffffffffffffffffffffffffffffffffffffff1663e8eda9df73eeeeeeeeeeeeeeeeeeeeeeeeeeeeeeeeeeeeeeee473060006040518563ffffffff1660e01b8152600401611abe949392919061294d565b600060405180830381600087803b158015611ad857600080fd5b505af1158015611aec573d6000803e3d6000fd5b505050505b565b600b6020528060005260406000206000915090505481565b60046020528060005260406000206000915054906101000a900460ff1681565b600080600a60008473ffffffffffffffffffffffffffffffffffffffff1673ffffffffffffffffffffffffffffffffffffffff1681526020019081526020016000205411611bae576040517f08c379a0000000000000000000000000000000000000000000000000000000008152600401611ba590612ab3565b60405180910390fd5b60006001600a60008573ffffffffffffffffffffffffffffffffffffffff1673ffffffffffffffffffffffffffffffffffffffff16815260200190815260200160002054611bfc9190612e06565b9050600060098281548110611c3a577f4e487b7100000000000000000000000000000000000000000000000000000000600052603260045260246000fd5b9060005260206000209060060201604051806101000160405290816000820160009054906101000a900460ff1660ff1660ff1681526020016000820160019054906101000a900460ff1660ff1660ff168152602001600182015481526020016002820154815260200160038201548152602001600482018054611cbc90612f93565b80601f0160208091040260200160405190810160405280929190818152602001828054611ce890612f93565b8015611d355780601f10611d0a57610100808354040283529160200191611d35565b820191906000526020600020905b815481529060010190602001808311611d1857829003601f168201915b505050505081526020016005820160009054906101000a900473ffffffffffffffffffffffffffffffffffffffff1673ffffffffffffffffffffffffffffffffffffffff1673ffffffffffffffffffffffffffffffffffffffff1681526020016005820160149054906101000a900460ff16151515158152505090508060e0015192505050919050565b6000600a60008373ffffffffffffffffffffffffffffffffffffffff1673ffffffffffffffffffffffffffffffffffffffff1681526020019081526020016000205411611e41576040517f08c379a0000000000000000000000000000000000000000000000000000000008152600401611e3890612b93565b60405180910390fd5b60006001600a60008473ffffffffffffffffffffffffffffffffffffffff1673ffffffffffffffffffffffffffffffffffffffff16815260200190815260200160002054611e8f9190612e06565b9050600060098281548110611ecd577f4e487b7100000000000000000000000000000000000000000000000000000000600052603260045260246000fd5b9060005260206000209060060201905060048160020154611eee9190612dd5565b8160030154611efd9190612e06565b816003018190555080600001600181819054906101000a900460ff1680929190611f2690612ff6565b91906101000a81548160ff021916908360ff1602179055505060048160000160019054906101000a900460ff1660ff161415611fbf5760008160050160146101000a81548160ff0219169083151502179055506000600a60008573ffffffffffffffffffffffffffffffffffffffff1673ffffffffffffffffffffffffffffffffffffffff168152602001908152602001600020819055505b505050565b6000806001600a60008573ffffffffffffffffffffffffffffffffffffffff1673ffffffffffffffffffffffffffffffffffffffff168152602001908152602001600020546120139190612e06565b9050600060098281548110612051577f4e487b7100000000000000000000000000000000000000000000000000000000600052603260045260246000fd5b9060005260206000209060060201604051806101000160405290816000820160009054906101000a900460ff1660ff1660ff1681526020016000820160019054906101000a900460ff1660ff1660ff1681526020016001820154815260200160028201548152602001600382015481526020016004820180546120d390612f93565b80601f01602080910402602001604051908101604052809291908181526020018280546120ff90612f93565b801561214c5780601f106121215761010080835404028352916020019161214c565b820191906000526020600020905b81548152906001019060200180831161212f57829003601f168201915b505050505081526020016005820160009054906101000a900473ffffffffffffffffffffffffffffffffffffffff1673ffffffffffffffffffffffffffffffffffffffff1673ffffffffffffffffffffffffffffffffffffffff1681526020016005820160149054906101000a900460ff1615151515815250509050806000015160ff16600d60008673ffffffffffffffffffffffffffffffffffffffff1673ffffffffffffffffffffffffffffffffffffffff16815260200190815260200160002060009054906101000a900460ff1660ff161492505050919050565b604051806101000160405280600060ff168152602001600060ff16815260200160008152602001600081526020016000815260200160608152602001600073ffffffffffffffffffffffffffffffffffffffff1681526020016000151581525090565b82805461229990612f93565b90600052602060002090601f0160209004810192826122bb5760008555612302565b82601f106122d457805160ff1916838001178555612302565b82800160010185558215612302579182015b828111156123015782518255916020019190600101906122e6565b5b50905061230f9190612313565b5090565b5b8082111561232c576000816000905550600101612314565b5090565b600061234361233e84612cd5565b612cb0565b90508281526020810184848401111561235b57600080fd5b612366848285612f51565b509392505050565b60008135905061237d81613322565b92915050565b600082601f83011261239457600080fd5b81356123a4848260208601612330565b91505092915050565b6000813590506123bc81613339565b92915050565b6000815190506123d181613339565b92915050565b6000813590506123e681613350565b92915050565b6000602082840312156123fe57600080fd5b600061240c8482850161236e565b91505092915050565b6000806040838503121561242857600080fd5b600083013567ffffffffffffffff81111561244257600080fd5b61244e85828601612383565b925050602061245f858286016123d7565b9150509250929050565b60006020828403121561247b57600080fd5b6000612489848285016123ad565b91505092915050565b6000602082840312156124a457600080fd5b60006124b2848285016123c2565b91505092915050565b6124c481612e3a565b82525050565b6124d381612e3a565b82525050565b6124e281612e4c565b82525050565b6124f181612e4c565b82525050565b61250081612e9d565b82525050565b61250f81612ec1565b82525050565b61251e81612ee5565b82525050565b61252d81612f09565b82525050565b61253c81612f2d565b82525050565b61254b81612f3f565b82525050565b600061255c82612d1b565b6125668185612d26565b9350612576818560208601612f60565b61257f816130dc565b840191505092915050565b600061259582612d1b565b61259f8185612d37565b93506125af818560208601612f60565b6125b8816130dc565b840191505092915050565b600081546125d081612f93565b6125da8186612d37565b945060018216600081146125f557600181146126075761263a565b60ff198316865260208601935061263a565b61261085612d06565b60005b8381101561263257815481890152600182019150602081019050612613565b808801955050505b50505092915050565b6000612650601b83612d37565b915061265b826130ed565b602082019050919050565b6000612673601e83612d37565b915061267e82613116565b602082019050919050565b6000612696601c83612d37565b91506126a18261313f565b602082019050919050565b60006126b9601d83612d37565b91506126c482613168565b602082019050919050565b60006126dc601d83612d37565b91506126e782613191565b602082019050919050565b60006126ff601883612d37565b915061270a826131ba565b602082019050919050565b6000612722602283612d37565b915061272d826131e3565b604082019050919050565b6000612745601983612d37565b915061275082613232565b602082019050919050565b6000612768602183612d37565b91506127738261325b565b604082019050919050565b600061278b602083612d37565b9150612796826132aa565b602082019050919050565b60006127ae602d83612d37565b91506127b9826132d3565b604082019050919050565b6000610100830160008301516127dd6000860182612892565b5060208301516127f06020860182612892565b5060408301516128036040860182612874565b5060608301516128166060860182612874565b5060808301516128296080860182612874565b5060a083015184820360a08601526128418282612551565b91505060c083015161285660c08601826124bb565b5060e083015161286960e08601826124d9565b508091505092915050565b61287d81612e86565b82525050565b61288c81612e86565b82525050565b61289b81612e90565b82525050565b6128aa81612e90565b82525050565b60006020820190506128c560008301846124ca565b92915050565b60006040820190506128e060008301856124ca565b6128ed6020830184612542565b9392505050565b600060408201905061290960008301856124ca565b818103602083015261291b81846125c3565b90509392505050565b600060408201905061293960008301856124ca565b6129466020830184612883565b9392505050565b600060808201905061296260008301876124ca565b61296f6020830186612883565b61297c60408301856124ca565b6129896060830184612533565b95945050505050565b600060a0820190506129a760008301886124ca565b6129b46020830187612883565b81810360408301526129c6818661258a565b90506129d56060830185612883565b6129e260808301846124e8565b9695505050505050565b6000602082019050612a0160008301846124e8565b92915050565b6000602082019050612a1c60008301846124f7565b92915050565b6000602082019050612a376000830184612506565b92915050565b6000602082019050612a526000830184612515565b92915050565b6000602082019050612a6d6000830184612524565b92915050565b60006020820190508181036000830152612a8c81612643565b9050919050565b60006020820190508181036000830152612aac81612666565b9050919050565b60006020820190508181036000830152612acc81612689565b9050919050565b60006020820190508181036000830152612aec816126ac565b9050919050565b60006020820190508181036000830152612b0c816126cf565b9050919050565b60006020820190508181036000830152612b2c816126f2565b9050919050565b60006020820190508181036000830152612b4c81612715565b9050919050565b60006020820190508181036000830152612b6c81612738565b9050919050565b60006020820190508181036000830152612b8c8161275b565b9050919050565b60006020820190508181036000830152612bac8161277e565b9050919050565b60006020820190508181036000830152612bcc816127a1565b9050919050565b60006020820190508181036000830152612bed81846127c4565b905092915050565b6000602082019050612c0a6000830184612883565b92915050565b6000602082019050612c2560008301846128a1565b92915050565b600061010082019050612c41600083018b6128a1565b612c4e602083018a6128a1565b612c5b6040830189612883565b612c686060830188612883565b612c756080830187612883565b81810360a0830152612c87818661258a565b9050612c9660c08301856124ca565b612ca360e08301846124e8565b9998505050505050505050565b6000612cba612ccb565b9050612cc68282612fc5565b919050565b6000604051905090565b600067ffffffffffffffff821115612cf057612cef6130ad565b5b612cf9826130dc565b9050602081019050919050565b60008190508160005260206000209050919050565b600081519050919050565b600082825260208201905092915050565b600082825260208201905092915050565b6000612d5382612e86565b9150612d5e83612e86565b9250827fffffffffffffffffffffffffffffffffffffffffffffffffffffffffffffffff03821115612d9357612d92613020565b5b828201905092915050565b6000612da982612e90565b9150612db483612e90565b92508260ff03821115612dca57612dc9613020565b5b828201905092915050565b6000612de082612e86565b9150612deb83612e86565b925082612dfb57612dfa61304f565b5b828204905092915050565b6000612e1182612e86565b9150612e1c83612e86565b925082821015612e2f57612e2e613020565b5b828203905092915050565b6000612e4582612e66565b9050919050565b60008115159050919050565b600061ffff82169050919050565b600073ffffffffffffffffffffffffffffffffffffffff82169050919050565b6000819050919050565b600060ff82169050919050565b6000612ea882612eaf565b9050919050565b6000612eba82612e66565b9050919050565b6000612ecc82612ed3565b9050919050565b6000612ede82612e66565b9050919050565b6000612ef082612ef7565b9050919050565b6000612f0282612e66565b9050919050565b6000612f1482612f1b565b9050919050565b6000612f2682612e66565b9050919050565b6000612f3882612e58565b9050919050565b6000612f4a82612e86565b9050919050565b82818337600083830152505050565b60005b83811015612f7e578082015181840152602081019050612f63565b83811115612f8d576000848401525b50505050565b60006002820490506001821680612fab57607f821691505b60208210811415612fbf57612fbe61307e565b5b50919050565b612fce826130dc565b810181811067ffffffffffffffff82111715612fed57612fec6130ad565b5b80604052505050565b600061300182612e90565b915060ff82141561301557613014613020565b5b600182019050919050565b7f4e487b7100000000000000000000000000000000000000000000000000000000600052601160045260246000fd5b7f4e487b7100000000000000000000000000000000000000000000000000000000600052601260045260246000fd5b7f4e487b7100000000000000000000000000000000000000000000000000000000600052602260045260246000fd5b7f4e487b7100000000000000000000000000000000000000000000000000000000600052604160045260246000fd5b6000601f19601f8301169050919050565b7f4f6e6c7920526567697374656420557365727320416c6c6f7765640000000000600082015250565b7f4d6178696d756d206f662032353520646179732041636365707461626c650000600082015250565b7f5573657220496e74656e74696f6e206973206e6f742061637469766500000000600082015250565b7f4d696e696d756d206f6620323120646179732041636365707461626c65000000600082015250565b7f6f6e6c79206f776e65722063616e2077697468647261772066756e6473000000600082015250565b7f517565737420686173206265656e20636f6d706c657465640000000000000000600082015250565b7f596f752063616e6e6f7420636865636b696e2077697468696e20323420486f7560008201527f7273000000000000000000000000000000000000000000000000000000000000602082015250565b7f4f6e6c792061637469766520757365727320416c6c6f77656400000000000000600082015250565b7f4d696e696d756d20416d6f756e74206f66202e3120457468205265717569726560008201527f6400000000000000000000000000000000000000000000000000000000000000602082015250565b7f5573657220686173206e6f205265676973746572656420496e74656e74696f6e600082015250565b7f596f752063616e206f6e6c792068617665206f6e65206861626974207472616360008201527f6b656420617420612074696d6500000000000000000000000000000000000000602082015250565b61332b81612e3a565b811461333657600080fd5b50565b61334281612e86565b811461334d57600080fd5b50565b61335981612e90565b811461336457600080fd5b5056fea2646970667358221220bb7f421d74340b7b61d8e545a598e47ee0119694859fdba27e260d0f11455ca864736f6c6343000801003360806040523480156200001157600080fd5b506040518060400160405280600781526020017f48616269747632000000000000000000000000000000000000000000000000008152506040518060400160405280600381526020017f4842540000000000000000000000000000000000000000000000000000000000815250816003908051906020019062000096929190620001a6565b508060049080519060200190620000af929190620001a6565b505050620000d2620000c6620000d860201b60201c565b620000e060201b60201c565b620002bb565b600033905090565b6000600560009054906101000a900473ffffffffffffffffffffffffffffffffffffffff16905081600560006101000a81548173ffffffffffffffffffffffffffffffffffffffff021916908373ffffffffffffffffffffffffffffffffffffffff1602179055508173ffffffffffffffffffffffffffffffffffffffff168173ffffffffffffffffffffffffffffffffffffffff167f8be0079c531659141344cd1fd0a4f28419497f9722a3daafe3b4186f6b6457e060405160405180910390a35050565b828054620001b49062000256565b90600052602060002090601f016020900481019282620001d8576000855562000224565b82601f10620001f357805160ff191683800117855562000224565b8280016001018555821562000224579182015b828111156200022357825182559160200191906001019062000206565b5b50905062000233919062000237565b5090565b5b808211156200025257600081600090555060010162000238565b5090565b600060028204905060018216806200026f57607f821691505b602082108114156200028657620002856200028c565b5b50919050565b7f4e487b7100000000000000000000000000000000000000000000000000000000600052602260045260246000fd5b611db380620002cb6000396000f3fe608060405234801561001057600080fd5b50600436106101005760003560e01c8063715018a611610097578063a457c2d711610066578063a457c2d71461029d578063a9059cbb146102cd578063dd62ed3e146102fd578063f2fde38b1461032d57610100565b8063715018a61461023b5780638da5cb5b1461024557806395d89b41146102635780639dc29fac1461028157610100565b8063313ce567116100d3578063313ce567146101a157806339509351146101bf57806340c10f19146101ef57806370a082311461020b57610100565b806306fdde0314610105578063095ea7b31461012357806318160ddd1461015357806323b872dd14610171575b600080fd5b61010d610349565b60405161011a9190611666565b60405180910390f35b61013d600480360381019061013891906113db565b6103db565b60405161014a919061164b565b60405180910390f35b61015b6103fe565b6040516101689190611808565b60405180910390f35b61018b6004803603810190610186919061138c565b610408565b604051610198919061164b565b60405180910390f35b6101a9610437565b6040516101b69190611823565b60405180910390f35b6101d960048036038101906101d491906113db565b610440565b6040516101e6919061164b565b60405180910390f35b610209600480360381019061020491906113db565b6104ea565b005b61022560048036038101906102209190611327565b610574565b6040516102329190611808565b60405180910390f35b6102436105bc565b005b61024d610644565b60405161025a9190611630565b60405180910390f35b61026b61066e565b6040516102789190611666565b60405180910390f35b61029b600480360381019061029691906113db565b610700565b005b6102b760048036038101906102b291906113db565b61078a565b6040516102c4919061164b565b60405180910390f35b6102e760048036038101906102e291906113db565b610874565b6040516102f4919061164b565b60405180910390f35b61031760048036038101906103129190611350565b610897565b6040516103249190611808565b60405180910390f35b61034760048036038101906103429190611327565b61091e565b005b6060600380546103589061196c565b80601f01602080910402602001604051908101604052809291908181526020018280546103849061196c565b80156103d15780601f106103a6576101008083540402835291602001916103d1565b820191906000526020600020905b8154815290600101906020018083116103b457829003601f168201915b5050505050905090565b6000806103e6610a16565b90506103f3818585610a1e565b600191505092915050565b6000600254905090565b600080610413610a16565b9050610420858285610be9565b61042b858585610c75565b60019150509392505050565b60006012905090565b60008061044b610a16565b90506104df818585600160008673ffffffffffffffffffffffffffffffffffffffff1673ffffffffffffffffffffffffffffffffffffffff16815260200190815260200160002060008973ffffffffffffffffffffffffffffffffffffffff1673ffffffffffffffffffffffffffffffffffffffff168152602001908152602001600020546104da919061185a565b610a1e565b600191505092915050565b6104f2610a16565b73ffffffffffffffffffffffffffffffffffffffff16610510610644565b73ffffffffffffffffffffffffffffffffffffffff1614610566576040517f08c379a000000000000000000000000000000000000000000000000000000000815260040161055d90611748565b60405180910390fd5b6105708282610ef6565b5050565b60008060008373ffffffffffffffffffffffffffffffffffffffff1673ffffffffffffffffffffffffffffffffffffffff168152602001908152602001600020549050919050565b6105c4610a16565b73ffffffffffffffffffffffffffffffffffffffff166105e2610644565b73ffffffffffffffffffffffffffffffffffffffff1614610638576040517f08c379a000000000000000000000000000000000000000000000000000000000815260040161062f90611748565b60405180910390fd5b6106426000611056565b565b6000600560009054906101000a900473ffffffffffffffffffffffffffffffffffffffff16905090565b60606004805461067d9061196c565b80601f01602080910402602001604051908101604052809291908181526020018280546106a99061196c565b80156106f65780601f106106cb576101008083540402835291602001916106f6565b820191906000526020600020905b8154815290600101906020018083116106d957829003601f168201915b5050505050905090565b610708610a16565b73ffffffffffffffffffffffffffffffffffffffff16610726610644565b73ffffffffffffffffffffffffffffffffffffffff161461077c576040517f08c379a000000000000000000000000000000000000000000000000000000000815260040161077390611748565b60405180910390fd5b610786828261111c565b5050565b600080610795610a16565b90506000600160008373ffffffffffffffffffffffffffffffffffffffff1673ffffffffffffffffffffffffffffffffffffffff16815260200190815260200160002060008673ffffffffffffffffffffffffffffffffffffffff1673ffffffffffffffffffffffffffffffffffffffff1681526020019081526020016000205490508381101561085b576040517f08c379a0000000000000000000000000000000000000000000000000000000008152600401610852906117c8565b60405180910390fd5b6108688286868403610a1e565b60019250505092915050565b60008061087f610a16565b905061088c818585610c75565b600191505092915050565b6000600160008473ffffffffffffffffffffffffffffffffffffffff1673ffffffffffffffffffffffffffffffffffffffff16815260200190815260200160002060008373ffffffffffffffffffffffffffffffffffffffff1673ffffffffffffffffffffffffffffffffffffffff16815260200190815260200160002054905092915050565b610926610a16565b73ffffffffffffffffffffffffffffffffffffffff16610944610644565b73ffffffffffffffffffffffffffffffffffffffff161461099a576040517f08c379a000000000000000000000000000000000000000000000000000000000815260040161099190611748565b60405180910390fd5b600073ffffffffffffffffffffffffffffffffffffffff168173ffffffffffffffffffffffffffffffffffffffff161415610a0a576040517f08c379a0000000000000000000000000000000000000000000000000000000008152600401610a01906116c8565b60405180910390fd5b610a1381611056565b50565b600033905090565b600073ffffffffffffffffffffffffffffffffffffffff168373ffffffffffffffffffffffffffffffffffffffff161415610a8e576040517f08c379a0000000000000000000000000000000000000000000000000000000008152600401610a85906117a8565b60405180910390fd5b600073ffffffffffffffffffffffffffffffffffffffff168273ffffffffffffffffffffffffffffffffffffffff161415610afe576040517f08c379a0000000000000000000000000000000000000000000000000000000008152600401610af5906116e8565b60405180910390fd5b80600160008573ffffffffffffffffffffffffffffffffffffffff1673ffffffffffffffffffffffffffffffffffffffff16815260200190815260200160002060008473ffffffffffffffffffffffffffffffffffffffff1673ffffffffffffffffffffffffffffffffffffffff168152602001908152602001600020819055508173ffffffffffffffffffffffffffffffffffffffff168373ffffffffffffffffffffffffffffffffffffffff167f8c5be1e5ebec7d5bd14f71427d1e84f3dd0314c0f7b2291e5b200ac8c7c3b92583604051610bdc9190611808565b60405180910390a3505050565b6000610bf58484610897565b90507fffffffffffffffffffffffffffffffffffffffffffffffffffffffffffffffff8114610c6f5781811015610c61576040517f08c379a0000000000000000000000000000000000000000000000000000000008152600401610c5890611708565b60405180910390fd5b610c6e8484848403610a1e565b5b50505050565b600073ffffffffffffffffffffffffffffffffffffffff168373ffffffffffffffffffffffffffffffffffffffff161415610ce5576040517f08c379a0000000000000000000000000000000000000000000000000000000008152600401610cdc90611788565b60405180910390fd5b600073ffffffffffffffffffffffffffffffffffffffff168273ffffffffffffffffffffffffffffffffffffffff161415610d55576040517f08c379a0000000000000000000000000000000000000000000000000000000008152600401610d4c90611688565b60405180910390fd5b610d608383836112f3565b60008060008573ffffffffffffffffffffffffffffffffffffffff1673ffffffffffffffffffffffffffffffffffffffff16815260200190815260200160002054905081811015610de6576040517f08c379a0000000000000000000000000000000000000000000000000000000008152600401610ddd90611728565b60405180910390fd5b8181036000808673ffffffffffffffffffffffffffffffffffffffff1673ffffffffffffffffffffffffffffffffffffffff16815260200190815260200160002081905550816000808573ffffffffffffffffffffffffffffffffffffffff1673ffffffffffffffffffffffffffffffffffffffff1681526020019081526020016000206000828254610e79919061185a565b925050819055508273ffffffffffffffffffffffffffffffffffffffff168473ffffffffffffffffffffffffffffffffffffffff167fddf252ad1be2c89b69c2b068fc378daa952ba7f163c4a11628f55a4df523b3ef84604051610edd9190611808565b60405180910390a3610ef08484846112f8565b50505050565b600073ffffffffffffffffffffffffffffffffffffffff168273ffffffffffffffffffffffffffffffffffffffff161415610f66576040517f08c379a0000000000000000000000000000000000000000000000000000000008152600401610f5d906117e8565b60405180910390fd5b610f72600083836112f3565b8060026000828254610f84919061185a565b92505081905550806000808473ffffffffffffffffffffffffffffffffffffffff1673ffffffffffffffffffffffffffffffffffffffff1681526020019081526020016000206000828254610fd9919061185a565b925050819055508173ffffffffffffffffffffffffffffffffffffffff16600073ffffffffffffffffffffffffffffffffffffffff167fddf252ad1be2c89b69c2b068fc378daa952ba7f163c4a11628f55a4df523b3ef8360405161103e9190611808565b60405180910390a3611052600083836112f8565b5050565b6000600560009054906101000a900473ffffffffffffffffffffffffffffffffffffffff16905081600560006101000a81548173ffffffffffffffffffffffffffffffffffffffff021916908373ffffffffffffffffffffffffffffffffffffffff1602179055508173ffffffffffffffffffffffffffffffffffffffff168173ffffffffffffffffffffffffffffffffffffffff167f8be0079c531659141344cd1fd0a4f28419497f9722a3daafe3b4186f6b6457e060405160405180910390a35050565b600073ffffffffffffffffffffffffffffffffffffffff168273ffffffffffffffffffffffffffffffffffffffff16141561118c576040517f08c379a000000000000000000000000000000000000000000000000000000000815260040161118390611768565b60405180910390fd5b611198826000836112f3565b60008060008473ffffffffffffffffffffffffffffffffffffffff1673ffffffffffffffffffffffffffffffffffffffff1681526020019081526020016000205490508181101561121e576040517f08c379a0000000000000000000000000000000000000000000000000000000008152600401611215906116a8565b60405180910390fd5b8181036000808573ffffffffffffffffffffffffffffffffffffffff1673ffffffffffffffffffffffffffffffffffffffff16815260200190815260200160002081905550816002600082825461127591906118b0565b92505081905550600073ffffffffffffffffffffffffffffffffffffffff168373ffffffffffffffffffffffffffffffffffffffff167fddf252ad1be2c89b69c2b068fc378daa952ba7f163c4a11628f55a4df523b3ef846040516112da9190611808565b60405180910390a36112ee836000846112f8565b505050565b505050565b505050565b60008135905061130c81611d4f565b92915050565b60008135905061132181611d66565b92915050565b60006020828403121561133957600080fd5b6000611347848285016112fd565b91505092915050565b6000806040838503121561136357600080fd5b6000611371858286016112fd565b9250506020611382858286016112fd565b9150509250929050565b6000806000606084860312156113a157600080fd5b60006113af868287016112fd565b93505060206113c0868287016112fd565b92505060406113d186828701611312565b9150509250925092565b600080604083850312156113ee57600080fd5b60006113fc858286016112fd565b925050602061140d85828601611312565b9150509250929050565b611420816118e4565b82525050565b61142f816118f6565b82525050565b60006114408261183e565b61144a8185611849565b935061145a818560208601611939565b611463816119fc565b840191505092915050565b600061147b602383611849565b915061148682611a0d565b604082019050919050565b600061149e602283611849565b91506114a982611a5c565b604082019050919050565b60006114c1602683611849565b91506114cc82611aab565b604082019050919050565b60006114e4602283611849565b91506114ef82611afa565b604082019050919050565b6000611507601d83611849565b915061151282611b49565b602082019050919050565b600061152a602683611849565b915061153582611b72565b604082019050919050565b600061154d602083611849565b915061155882611bc1565b602082019050919050565b6000611570602183611849565b915061157b82611bea565b604082019050919050565b6000611593602583611849565b915061159e82611c39565b604082019050919050565b60006115b6602483611849565b91506115c182611c88565b604082019050919050565b60006115d9602583611849565b91506115e482611cd7565b604082019050919050565b60006115fc601f83611849565b915061160782611d26565b602082019050919050565b61161b81611922565b82525050565b61162a8161192c565b82525050565b60006020820190506116456000830184611417565b92915050565b60006020820190506116606000830184611426565b92915050565b600060208201905081810360008301526116808184611435565b905092915050565b600060208201905081810360008301526116a18161146e565b9050919050565b600060208201905081810360008301526116c181611491565b9050919050565b600060208201905081810360008301526116e1816114b4565b9050919050565b60006020820190508181036000830152611701816114d7565b9050919050565b60006020820190508181036000830152611721816114fa565b9050919050565b600060208201905081810360008301526117418161151d565b9050919050565b6000602082019050818103600083015261176181611540565b9050919050565b6000602082019050818103600083015261178181611563565b9050919050565b600060208201905081810360008301526117a181611586565b9050919050565b600060208201905081810360008301526117c1816115a9565b9050919050565b600060208201905081810360008301526117e1816115cc565b9050919050565b60006020820190508181036000830152611801816115ef565b9050919050565b600060208201905061181d6000830184611612565b92915050565b60006020820190506118386000830184611621565b92915050565b600081519050919050565b600082825260208201905092915050565b600061186582611922565b915061187083611922565b9250827fffffffffffffffffffffffffffffffffffffffffffffffffffffffffffffffff038211156118a5576118a461199e565b5b828201905092915050565b60006118bb82611922565b91506118c683611922565b9250828210156118d9576118d861199e565b5b828203905092915050565b60006118ef82611902565b9050919050565b60008115159050919050565b600073ffffffffffffffffffffffffffffffffffffffff82169050919050565b6000819050919050565b600060ff82169050919050565b60005b8381101561195757808201518184015260208101905061193c565b83811115611966576000848401525b50505050565b6000600282049050600182168061198457607f821691505b60208210811415611998576119976119cd565b5b50919050565b7f4e487b7100000000000000000000000000000000000000000000000000000000600052601160045260246000fd5b7f4e487b7100000000000000000000000000000000000000000000000000000000600052602260045260246000fd5b6000601f19601f8301169050919050565b7f45524332303a207472616e7366657220746f20746865207a65726f206164647260008201527f6573730000000000000000000000000000000000000000000000000000000000602082015250565b7f45524332303a206275726e20616d6f756e7420657863656564732062616c616e60008201527f6365000000000000000000000000000000000000000000000000000000000000602082015250565b7f4f776e61626c653a206e6577206f776e657220697320746865207a65726f206160008201527f6464726573730000000000000000000000000000000000000000000000000000602082015250565b7f45524332303a20617070726f766520746f20746865207a65726f20616464726560008201527f7373000000000000000000000000000000000000000000000000000000000000602082015250565b7f45524332303a20696e73756666696369656e7420616c6c6f77616e6365000000600082015250565b7f45524332303a207472616e7366657220616d6f756e742065786365656473206260008201527f616c616e63650000000000000000000000000000000000000000000000000000602082015250565b7f4f776e61626c653a2063616c6c6572206973206e6f7420746865206f776e6572600082015250565b7f45524332303a206275726e2066726f6d20746865207a65726f2061646472657360008201527f7300000000000000000000000000000000000000000000000000000000000000602082015250565b7f45524332303a207472616e736665722066726f6d20746865207a65726f20616460008201527f6472657373000000000000000000000000000000000000000000000000000000602082015250565b7f45524332303a20617070726f76652066726f6d20746865207a65726f2061646460008201527f7265737300000000000000000000000000000000000000000000000000000000602082015250565b7f45524332303a2064656372656173656420616c6c6f77616e63652062656c6f7760008201527f207a65726f000000000000000000000000000000000000000000000000000000602082015250565b7f45524332303a206d696e7420746f20746865207a65726f206164647265737300600082015250565b611d58816118e4565b8114611d6357600080fd5b50565b611d6f81611922565b8114611d7a57600080fd5b5056fea2646970667358221220d99abdc5c7d91bce51e07dc06e2e4a2191f3a70f7e65f021f6804b6092b8178f64736f6c6343000801003360806040523480156200001157600080fd5b506040518060400160405280600881526020017f48616269744e46540000000000000000000000000000000000000000000000008152506040518060400160405280600381526020017f4842540000000000000000000000000000000000000000000000000000000000815250816000908051906020019062000096929190620001a6565b508060019080519060200190620000af929190620001a6565b505050620000d2620000c6620000d860201b60201c565b620000e060201b60201c565b620002bb565b600033905090565b6000600760009054906101000a900473ffffffffffffffffffffffffffffffffffffffff16905081600760006101000a81548173ffffffffffffffffffffffffffffffffffffffff021916908373ffffffffffffffffffffffffffffffffffffffff1602179055508173ffffffffffffffffffffffffffffffffffffffff168173ffffffffffffffffffffffffffffffffffffffff167f8be0079c531659141344cd1fd0a4f28419497f9722a3daafe3b4186f6b6457e060405160405180910390a35050565b828054620001b49062000256565b90600052602060002090601f016020900481019282620001d8576000855562000224565b82601f10620001f357805160ff191683800117855562000224565b8280016001018555821562000224579182015b828111156200022357825182559160200191906001019062000206565b5b50905062000233919062000237565b5090565b5b808211156200025257600081600090555060010162000238565b5090565b600060028204905060018216806200026f57607f821691505b602082108114156200028657620002856200028c565b5b50919050565b7f4e487b7100000000000000000000000000000000000000000000000000000000600052602260045260246000fd5b612f6d80620002cb6000396000f3fe608060405234801561001057600080fd5b506004361061010b5760003560e01c8063715018a6116100a2578063b88d4fde11610071578063b88d4fde146102a4578063c87b56dd146102c0578063cf378343146102f0578063e985e9c514610320578063f2fde38b146103505761010b565b8063715018a6146102425780638da5cb5b1461024c57806395d89b411461026a578063a22cb465146102885761010b565b806323b872dd116100de57806323b872dd146101aa57806342842e0e146101c65780636352211e146101e257806370a08231146102125761010b565b806301ffc9a71461011057806306fdde0314610140578063081812fc1461015e578063095ea7b31461018e575b600080fd5b61012a60048036038101906101259190611f1c565b61036c565b6040516101379190612368565b60405180910390f35b61014861044e565b6040516101559190612383565b60405180910390f35b61017860048036038101906101739190611f6e565b6104e0565b6040516101859190612301565b60405180910390f35b6101a860048036038101906101a39190611ee0565b610565565b005b6101c460048036038101906101bf9190611d86565b61067d565b005b6101e060048036038101906101db9190611d86565b6106dd565b005b6101fc60048036038101906101f79190611f6e565b6106fd565b6040516102099190612301565b60405180910390f35b61022c60048036038101906102279190611d21565b6107af565b60405161023991906125e5565b60405180910390f35b61024a610867565b005b6102546108ef565b6040516102619190612301565b60405180910390f35b610272610919565b60405161027f9190612383565b60405180910390f35b6102a2600480360381019061029d9190611e50565b6109ab565b005b6102be60048036038101906102b99190611dd5565b6109c1565b005b6102da60048036038101906102d59190611f6e565b610a23565b6040516102e79190612383565b60405180910390f35b61030a60048036038101906103059190611e8c565b610b75565b60405161031791906125e5565b60405180910390f35b61033a60048036038101906103359190611d4a565b610bad565b6040516103479190612368565b60405180910390f35b61036a60048036038101906103659190611d21565b610c41565b005b60007f80ac58cd000000000000000000000000000000000000000000000000000000007bffffffffffffffffffffffffffffffffffffffffffffffffffffffff1916827bffffffffffffffffffffffffffffffffffffffffffffffffffffffff1916148061043757507f5b5e139f000000000000000000000000000000000000000000000000000000007bffffffffffffffffffffffffffffffffffffffffffffffffffffffff1916827bffffffffffffffffffffffffffffffffffffffffffffffffffffffff1916145b80610447575061044682610d39565b5b9050919050565b60606000805461045d9061283b565b80601f01602080910402602001604051908101604052809291908181526020018280546104899061283b565b80156104d65780601f106104ab576101008083540402835291602001916104d6565b820191906000526020600020905b8154815290600101906020018083116104b957829003601f168201915b5050505050905090565b60006104eb82610da3565b61052a576040517f08c379a000000000000000000000000000000000000000000000000000000000815260040161052190612545565b60405180910390fd5b6004600083815260200190815260200160002060009054906101000a900473ffffffffffffffffffffffffffffffffffffffff169050919050565b6000610570826106fd565b90508073ffffffffffffffffffffffffffffffffffffffff168373ffffffffffffffffffffffffffffffffffffffff1614156105e1576040517f08c379a00000000000000000000000000000000000000000000000000000000081526004016105d8906125a5565b60405180910390fd5b8073ffffffffffffffffffffffffffffffffffffffff16610600610e0f565b73ffffffffffffffffffffffffffffffffffffffff16148061062f575061062e81610629610e0f565b610bad565b5b61066e576040517f08c379a000000000000000000000000000000000000000000000000000000000815260040161066590612485565b60405180910390fd5b6106788383610e17565b505050565b61068e610688610e0f565b82610ed0565b6106cd576040517f08c379a00000000000000000000000000000000000000000000000000000000081526004016106c4906125c5565b60405180910390fd5b6106d8838383610fae565b505050565b6106f8838383604051806020016040528060008152506109c1565b505050565b6000806002600084815260200190815260200160002060009054906101000a900473ffffffffffffffffffffffffffffffffffffffff169050600073ffffffffffffffffffffffffffffffffffffffff168173ffffffffffffffffffffffffffffffffffffffff1614156107a6576040517f08c379a000000000000000000000000000000000000000000000000000000000815260040161079d906124c5565b60405180910390fd5b80915050919050565b60008073ffffffffffffffffffffffffffffffffffffffff168273ffffffffffffffffffffffffffffffffffffffff161415610820576040517f08c379a0000000000000000000000000000000000000000000000000000000008152600401610817906124a5565b60405180910390fd5b600360008373ffffffffffffffffffffffffffffffffffffffff1673ffffffffffffffffffffffffffffffffffffffff168152602001908152602001600020549050919050565b61086f610e0f565b73ffffffffffffffffffffffffffffffffffffffff1661088d6108ef565b73ffffffffffffffffffffffffffffffffffffffff16146108e3576040517f08c379a00000000000000000000000000000000000000000000000000000000081526004016108da90612565565b60405180910390fd5b6108ed6000611215565b565b6000600760009054906101000a900473ffffffffffffffffffffffffffffffffffffffff16905090565b6060600180546109289061283b565b80601f01602080910402602001604051908101604052809291908181526020018280546109549061283b565b80156109a15780601f10610976576101008083540402835291602001916109a1565b820191906000526020600020905b81548152906001019060200180831161098457829003601f168201915b5050505050905090565b6109bd6109b6610e0f565b83836112db565b5050565b6109d26109cc610e0f565b83610ed0565b610a11576040517f08c379a0000000000000000000000000000000000000000000000000000000008152600401610a08906125c5565b60405180910390fd5b610a1d84848484611448565b50505050565b6060610a2e82610da3565b610a6d576040517f08c379a0000000000000000000000000000000000000000000000000000000008152600401610a6490612525565b60405180910390fd5b6000600660008481526020019081526020016000208054610a8d9061283b565b80601f0160208091040260200160405190810160405280929190818152602001828054610ab99061283b565b8015610b065780601f10610adb57610100808354040283529160200191610b06565b820191906000526020600020905b815481529060010190602001808311610ae957829003601f168201915b505050505090506000610b176114a4565b9050600081511415610b2d578192505050610b70565b600082511115610b62578082604051602001610b4a9291906122dd565b60405160208183030381529060405292505050610b70565b610b6b846114bb565b925050505b919050565b6000610b816008611562565b6000610b8d6008611578565b9050610b998482611586565b610ba38184611760565b8091505092915050565b6000600560008473ffffffffffffffffffffffffffffffffffffffff1673ffffffffffffffffffffffffffffffffffffffff16815260200190815260200160002060008373ffffffffffffffffffffffffffffffffffffffff1673ffffffffffffffffffffffffffffffffffffffff16815260200190815260200160002060009054906101000a900460ff16905092915050565b610c49610e0f565b73ffffffffffffffffffffffffffffffffffffffff16610c676108ef565b73ffffffffffffffffffffffffffffffffffffffff1614610cbd576040517f08c379a0000000000000000000000000000000000000000000000000000000008152600401610cb490612565565b60405180910390fd5b600073ffffffffffffffffffffffffffffffffffffffff168173ffffffffffffffffffffffffffffffffffffffff161415610d2d576040517f08c379a0000000000000000000000000000000000000000000000000000000008152600401610d24906123c5565b60405180910390fd5b610d3681611215565b50565b60007f01ffc9a7000000000000000000000000000000000000000000000000000000007bffffffffffffffffffffffffffffffffffffffffffffffffffffffff1916827bffffffffffffffffffffffffffffffffffffffffffffffffffffffff1916149050919050565b60008073ffffffffffffffffffffffffffffffffffffffff166002600084815260200190815260200160002060009054906101000a900473ffffffffffffffffffffffffffffffffffffffff1673ffffffffffffffffffffffffffffffffffffffff1614159050919050565b600033905090565b816004600083815260200190815260200160002060006101000a81548173ffffffffffffffffffffffffffffffffffffffff021916908373ffffffffffffffffffffffffffffffffffffffff160217905550808273ffffffffffffffffffffffffffffffffffffffff16610e8a836106fd565b73ffffffffffffffffffffffffffffffffffffffff167f8c5be1e5ebec7d5bd14f71427d1e84f3dd0314c0f7b2291e5b200ac8c7c3b92560405160405180910390a45050565b6000610edb82610da3565b610f1a576040517f08c379a0000000000000000000000000000000000000000000000000000000008152600401610f1190612465565b60405180910390fd5b6000610f25836106fd565b90508073ffffffffffffffffffffffffffffffffffffffff168473ffffffffffffffffffffffffffffffffffffffff161480610f9457508373ffffffffffffffffffffffffffffffffffffffff16610f7c846104e0565b73ffffffffffffffffffffffffffffffffffffffff16145b80610fa55750610fa48185610bad565b5b91505092915050565b8273ffffffffffffffffffffffffffffffffffffffff16610fce826106fd565b73ffffffffffffffffffffffffffffffffffffffff1614611024576040517f08c379a000000000000000000000000000000000000000000000000000000000815260040161101b906123e5565b60405180910390fd5b600073ffffffffffffffffffffffffffffffffffffffff168273ffffffffffffffffffffffffffffffffffffffff161415611094576040517f08c379a000000000000000000000000000000000000000000000000000000000815260040161108b90612425565b60405180910390fd5b61109f8383836117d4565b6110aa600082610e17565b6001600360008573ffffffffffffffffffffffffffffffffffffffff1673ffffffffffffffffffffffffffffffffffffffff16815260200190815260200160002060008282546110fa9190612751565b925050819055506001600360008473ffffffffffffffffffffffffffffffffffffffff1673ffffffffffffffffffffffffffffffffffffffff168152602001908152602001600020600082825461115191906126ca565b92505081905550816002600083815260200190815260200160002060006101000a81548173ffffffffffffffffffffffffffffffffffffffff021916908373ffffffffffffffffffffffffffffffffffffffff160217905550808273ffffffffffffffffffffffffffffffffffffffff168473ffffffffffffffffffffffffffffffffffffffff167fddf252ad1be2c89b69c2b068fc378daa952ba7f163c4a11628f55a4df523b3ef60405160405180910390a46112108383836117d9565b505050565b6000600760009054906101000a900473ffffffffffffffffffffffffffffffffffffffff16905081600760006101000a81548173ffffffffffffffffffffffffffffffffffffffff021916908373ffffffffffffffffffffffffffffffffffffffff1602179055508173ffffffffffffffffffffffffffffffffffffffff168173ffffffffffffffffffffffffffffffffffffffff167f8be0079c531659141344cd1fd0a4f28419497f9722a3daafe3b4186f6b6457e060405160405180910390a35050565b8173ffffffffffffffffffffffffffffffffffffffff168373ffffffffffffffffffffffffffffffffffffffff16141561134a576040517f08c379a000000000000000000000000000000000000000000000000000000000815260040161134190612445565b60405180910390fd5b80600560008573ffffffffffffffffffffffffffffffffffffffff1673ffffffffffffffffffffffffffffffffffffffff16815260200190815260200160002060008473ffffffffffffffffffffffffffffffffffffffff1673ffffffffffffffffffffffffffffffffffffffff16815260200190815260200160002060006101000a81548160ff0219169083151502179055508173ffffffffffffffffffffffffffffffffffffffff168373ffffffffffffffffffffffffffffffffffffffff167f17307eab39ab6107e8899845ad3d59bd9653f200f220920489ca2b5937696c318360405161143b9190612368565b60405180910390a3505050565b611453848484610fae565b61145f848484846117de565b61149e576040517f08c379a0000000000000000000000000000000000000000000000000000000008152600401611495906123a5565b60405180910390fd5b50505050565b606060405180602001604052806000815250905090565b60606114c682610da3565b611505576040517f08c379a00000000000000000000000000000000000000000000000000000000081526004016114fc90612585565b60405180910390fd5b600061150f6114a4565b9050600081511161152f576040518060200160405280600081525061155a565b8061153984611975565b60405160200161154a9291906122dd565b6040516020818303038152906040525b915050919050565b6001816000016000828254019250508190555050565b600081600001549050919050565b600073ffffffffffffffffffffffffffffffffffffffff168273ffffffffffffffffffffffffffffffffffffffff1614156115f6576040517f08c379a00000000000000000000000000000000000000000000000000000000081526004016115ed90612505565b60405180910390fd5b6115ff81610da3565b1561163f576040517f08c379a000000000000000000000000000000000000000000000000000000000815260040161163690612405565b60405180910390fd5b61164b600083836117d4565b6001600360008473ffffffffffffffffffffffffffffffffffffffff1673ffffffffffffffffffffffffffffffffffffffff168152602001908152602001600020600082825461169b91906126ca565b92505081905550816002600083815260200190815260200160002060006101000a81548173ffffffffffffffffffffffffffffffffffffffff021916908373ffffffffffffffffffffffffffffffffffffffff160217905550808273ffffffffffffffffffffffffffffffffffffffff16600073ffffffffffffffffffffffffffffffffffffffff167fddf252ad1be2c89b69c2b068fc378daa952ba7f163c4a11628f55a4df523b3ef60405160405180910390a461175c600083836117d9565b5050565b61176982610da3565b6117a8576040517f08c379a000000000000000000000000000000000000000000000000000000000815260040161179f906124e5565b60405180910390fd5b806006600084815260200190815260200160002090805190602001906117cf929190611b45565b505050565b505050565b505050565b60006117ff8473ffffffffffffffffffffffffffffffffffffffff16611b22565b15611968578373ffffffffffffffffffffffffffffffffffffffff1663150b7a02611828610e0f565b8786866040518563ffffffff1660e01b815260040161184a949392919061231c565b602060405180830381600087803b15801561186457600080fd5b505af192505050801561189557506040513d601f19601f820116820180604052508101906118929190611f45565b60015b611918573d80600081146118c5576040519150601f19603f3d011682016040523d82523d6000602084013e6118ca565b606091505b50600081511415611910576040517f08c379a0000000000000000000000000000000000000000000000000000000008152600401611907906123a5565b60405180910390fd5b805181602001fd5b63150b7a0260e01b7bffffffffffffffffffffffffffffffffffffffffffffffffffffffff1916817bffffffffffffffffffffffffffffffffffffffffffffffffffffffff19161491505061196d565b600190505b949350505050565b606060008214156119bd576040518060400160405280600181526020017f30000000000000000000000000000000000000000000000000000000000000008152509050611b1d565b600082905060005b600082146119ef5780806119d89061289e565b915050600a826119e89190612720565b91506119c5565b60008167ffffffffffffffff811115611a31577f4e487b7100000000000000000000000000000000000000000000000000000000600052604160045260246000fd5b6040519080825280601f01601f191660200182016040528015611a635781602001600182028036833780820191505090505b5090505b60008514611b1657600182611a7c9190612751565b9150600a85611a8b91906128e7565b6030611a9791906126ca565b60f81b818381518110611ad3577f4e487b7100000000000000000000000000000000000000000000000000000000600052603260045260246000fd5b60200101907effffffffffffffffffffffffffffffffffffffffffffffffffffffffffffff1916908160001a905350600a85611b0f9190612720565b9450611a67565b8093505050505b919050565b6000808273ffffffffffffffffffffffffffffffffffffffff163b119050919050565b828054611b519061283b565b90600052602060002090601f016020900481019282611b735760008555611bba565b82601f10611b8c57805160ff1916838001178555611bba565b82800160010185558215611bba579182015b82811115611bb9578251825591602001919060010190611b9e565b5b509050611bc79190611bcb565b5090565b5b80821115611be4576000816000905550600101611bcc565b5090565b6000611bfb611bf684612625565b612600565b905082815260208101848484011115611c1357600080fd5b611c1e8482856127f9565b509392505050565b6000611c39611c3484612656565b612600565b905082815260208101848484011115611c5157600080fd5b611c5c8482856127f9565b509392505050565b600081359050611c7381612edb565b92915050565b600081359050611c8881612ef2565b92915050565b600081359050611c9d81612f09565b92915050565b600081519050611cb281612f09565b92915050565b600082601f830112611cc957600080fd5b8135611cd9848260208601611be8565b91505092915050565b600082601f830112611cf357600080fd5b8135611d03848260208601611c26565b91505092915050565b600081359050611d1b81612f20565b92915050565b600060208284031215611d3357600080fd5b6000611d4184828501611c64565b91505092915050565b60008060408385031215611d5d57600080fd5b6000611d6b85828601611c64565b9250506020611d7c85828601611c64565b9150509250929050565b600080600060608486031215611d9b57600080fd5b6000611da986828701611c64565b9350506020611dba86828701611c64565b9250506040611dcb86828701611d0c565b9150509250925092565b60008060008060808587031215611deb57600080fd5b6000611df987828801611c64565b9450506020611e0a87828801611c64565b9350506040611e1b87828801611d0c565b925050606085013567ffffffffffffffff811115611e3857600080fd5b611e4487828801611cb8565b91505092959194509250565b60008060408385031215611e6357600080fd5b6000611e7185828601611c64565b9250506020611e8285828601611c79565b9150509250929050565b60008060408385031215611e9f57600080fd5b6000611ead85828601611c64565b925050602083013567ffffffffffffffff811115611eca57600080fd5b611ed685828601611ce2565b9150509250929050565b60008060408385031215611ef357600080fd5b6000611f0185828601611c64565b9250506020611f1285828601611d0c565b9150509250929050565b600060208284031215611f2e57600080fd5b6000611f3c84828501611c8e565b91505092915050565b600060208284031215611f5757600080fd5b6000611f6584828501611ca3565b91505092915050565b600060208284031215611f8057600080fd5b6000611f8e84828501611d0c565b91505092915050565b611fa081612785565b82525050565b611faf81612797565b82525050565b6000611fc082612687565b611fca818561269d565b9350611fda818560208601612808565b611fe3816129d4565b840191505092915050565b6000611ff982612692565b61200381856126ae565b9350612013818560208601612808565b61201c816129d4565b840191505092915050565b600061203282612692565b61203c81856126bf565b935061204c818560208601612808565b80840191505092915050565b60006120656032836126ae565b9150612070826129e5565b604082019050919050565b60006120886026836126ae565b915061209382612a34565b604082019050919050565b60006120ab6025836126ae565b91506120b682612a83565b604082019050919050565b60006120ce601c836126ae565b91506120d982612ad2565b602082019050919050565b60006120f16024836126ae565b91506120fc82612afb565b604082019050919050565b60006121146019836126ae565b915061211f82612b4a565b602082019050919050565b6000612137602c836126ae565b915061214282612b73565b604082019050919050565b600061215a6038836126ae565b915061216582612bc2565b604082019050919050565b600061217d602a836126ae565b915061218882612c11565b604082019050919050565b60006121a06029836126ae565b91506121ab82612c60565b604082019050919050565b60006121c3602e836126ae565b91506121ce82612caf565b604082019050919050565b60006121e66020836126ae565b91506121f182612cfe565b602082019050919050565b60006122096031836126ae565b915061221482612d27565b604082019050919050565b600061222c602c836126ae565b915061223782612d76565b604082019050919050565b600061224f6020836126ae565b915061225a82612dc5565b602082019050919050565b6000612272602f836126ae565b915061227d82612dee565b604082019050919050565b60006122956021836126ae565b91506122a082612e3d565b604082019050919050565b60006122b86031836126ae565b91506122c382612e8c565b604082019050919050565b6122d7816127ef565b82525050565b60006122e98285612027565b91506122f58284612027565b91508190509392505050565b60006020820190506123166000830184611f97565b92915050565b60006080820190506123316000830187611f97565b61233e6020830186611f97565b61234b60408301856122ce565b818103606083015261235d8184611fb5565b905095945050505050565b600060208201905061237d6000830184611fa6565b92915050565b6000602082019050818103600083015261239d8184611fee565b905092915050565b600060208201905081810360008301526123be81612058565b9050919050565b600060208201905081810360008301526123de8161207b565b9050919050565b600060208201905081810360008301526123fe8161209e565b9050919050565b6000602082019050818103600083015261241e816120c1565b9050919050565b6000602082019050818103600083015261243e816120e4565b9050919050565b6000602082019050818103600083015261245e81612107565b9050919050565b6000602082019050818103600083015261247e8161212a565b9050919050565b6000602082019050818103600083015261249e8161214d565b9050919050565b600060208201905081810360008301526124be81612170565b9050919050565b600060208201905081810360008301526124de81612193565b9050919050565b600060208201905081810360008301526124fe816121b6565b9050919050565b6000602082019050818103600083015261251e816121d9565b9050919050565b6000602082019050818103600083015261253e816121fc565b9050919050565b6000602082019050818103600083015261255e8161221f565b9050919050565b6000602082019050818103600083015261257e81612242565b9050919050565b6000602082019050818103600083015261259e81612265565b9050919050565b600060208201905081810360008301526125be81612288565b9050919050565b600060208201905081810360008301526125de816122ab565b9050919050565b60006020820190506125fa60008301846122ce565b92915050565b600061260a61261b565b9050612616828261286d565b919050565b6000604051905090565b600067ffffffffffffffff8211156126405761263f6129a5565b5b612649826129d4565b9050602081019050919050565b600067ffffffffffffffff821115612671576126706129a5565b5b61267a826129d4565b9050602081019050919050565b600081519050919050565b600081519050919050565b600082825260208201905092915050565b600082825260208201905092915050565b600081905092915050565b60006126d5826127ef565b91506126e0836127ef565b9250827fffffffffffffffffffffffffffffffffffffffffffffffffffffffffffffffff0382111561271557612714612918565b5b828201905092915050565b600061272b826127ef565b9150612736836127ef565b92508261274657612745612947565b5b828204905092915050565b600061275c826127ef565b9150612767836127ef565b92508282101561277a57612779612918565b5b828203905092915050565b6000612790826127cf565b9050919050565b60008115159050919050565b60007fffffffff0000000000000000000000000000000000000000000000000000000082169050919050565b600073ffffffffffffffffffffffffffffffffffffffff82169050919050565b6000819050919050565b82818337600083830152505050565b60005b8381101561282657808201518184015260208101905061280b565b83811115612835576000848401525b50505050565b6000600282049050600182168061285357607f821691505b6020821081141561286757612866612976565b5b50919050565b612876826129d4565b810181811067ffffffffffffffff82111715612895576128946129a5565b5b80604052505050565b60006128a9826127ef565b91507fffffffffffffffffffffffffffffffffffffffffffffffffffffffffffffffff8214156128dc576128db612918565b5b600182019050919050565b60006128f2826127ef565b91506128fd836127ef565b92508261290d5761290c612947565b5b828206905092915050565b7f4e487b7100000000000000000000000000000000000000000000000000000000600052601160045260246000fd5b7f4e487b7100000000000000000000000000000000000000000000000000000000600052601260045260246000fd5b7f4e487b7100000000000000000000000000000000000000000000000000000000600052602260045260246000fd5b7f4e487b7100000000000000000000000000000000000000000000000000000000600052604160045260246000fd5b6000601f19601f8301169050919050565b7f4552433732313a207472616e7366657220746f206e6f6e20455243373231526560008201527f63656976657220696d706c656d656e7465720000000000000000000000000000602082015250565b7f4f776e61626c653a206e6577206f776e657220697320746865207a65726f206160008201527f6464726573730000000000000000000000000000000000000000000000000000602082015250565b7f4552433732313a207472616e736665722066726f6d20696e636f72726563742060008201527f6f776e6572000000000000000000000000000000000000000000000000000000602082015250565b7f4552433732313a20746f6b656e20616c7265616479206d696e74656400000000600082015250565b7f4552433732313a207472616e7366657220746f20746865207a65726f2061646460008201527f7265737300000000000000000000000000000000000000000000000000000000602082015250565b7f4552433732313a20617070726f766520746f2063616c6c657200000000000000600082015250565b7f4552433732313a206f70657261746f7220717565727920666f72206e6f6e657860008201527f697374656e7420746f6b656e0000000000000000000000000000000000000000602082015250565b7f4552433732313a20617070726f76652063616c6c6572206973206e6f74206f7760008201527f6e6572206e6f7220617070726f76656420666f7220616c6c0000000000000000602082015250565b7f4552433732313a2062616c616e636520717565727920666f7220746865207a6560008201527f726f206164647265737300000000000000000000000000000000000000000000602082015250565b7f4552433732313a206f776e657220717565727920666f72206e6f6e657869737460008201527f656e7420746f6b656e0000000000000000000000000000000000000000000000602082015250565b7f45524337323155524953746f726167653a2055524920736574206f66206e6f6e60008201527f6578697374656e7420746f6b656e000000000000000000000000000000000000602082015250565b7f4552433732313a206d696e7420746f20746865207a65726f2061646472657373600082015250565b7f45524337323155524953746f726167653a2055524920717565727920666f722060008201527f6e6f6e6578697374656e7420746f6b656e000000000000000000000000000000602082015250565b7f4552433732313a20617070726f76656420717565727920666f72206e6f6e657860008201527f697374656e7420746f6b656e0000000000000000000000000000000000000000602082015250565b7f4f776e61626c653a2063616c6c6572206973206e6f7420746865206f776e6572600082015250565b7f4552433732314d657461646174613a2055524920717565727920666f72206e6f60008201527f6e6578697374656e7420746f6b656e0000000000000000000000000000000000602082015250565b7f4552433732313a20617070726f76616c20746f2063757272656e74206f776e6560008201527f7200000000000000000000000000000000000000000000000000000000000000602082015250565b7f4552433732313a207472616e736665722063616c6c6572206973206e6f74206f60008201527f776e6572206e6f7220617070726f766564000000000000000000000000000000602082015250565b612ee481612785565b8114612eef57600080fd5b50565b612efb81612797565b8114612f0657600080fd5b50565b612f12816127a3565b8114612f1d57600080fd5b50565b612f29816127ef565b8114612f3457600080fd5b5056fea2646970667358221220a5172facb54b7e41276bef8c156a70be3bfc6001cf47d3f9a1a000b0583f641264736f6c63430008010033608060405234801561001057600080fd5b50611389806100206000396000f3fe608060405234801561001057600080fd5b50600436106100885760003560e01c8063a230c5241161005b578063a230c52414610125578063b1cb54ad14610155578063d8f72b3414610173578063eb6e50171461018f57610088565b80635f6b45691461008d57806380cee8a5146100bd5780638110a800146100d957806395867cdd14610109575b600080fd5b6100a760048036038101906100a29190610fa1565b6101ab565b6040516100b491906110f7565b60405180910390f35b6100d760048036038101906100d29190610f3c565b6101f9565b005b6100f360048036038101906100ee9190610f65565b61039b565b604051610100919061114f565b60405180910390f35b610123600480360381019061011e9190610fdd565b6103ca565b005b61013f600480360381019061013a9190610f3c565b610446565b60405161014c9190611134565b60405180910390f35b61015d610466565b60405161016a9190611112565b60405180910390f35b61018d60048036038101906101889190610fdd565b610531565b005b6101a960048036038101906101a49190610f3c565b6105ad565b005b600260205281600052604060002081815481106101c757600080fd5b906000526020600020016000915091509054906101000a900473ffffffffffffffffffffffffffffffffffffffff1681565b6000600160003373ffffffffffffffffffffffffffffffffffffffff1673ffffffffffffffffffffffffffffffffffffffff16815260200190815260200160002060008373ffffffffffffffffffffffffffffffffffffffff1673ffffffffffffffffffffffffffffffffffffffff16815260200190815260200160002060006101000a81548160ff021916908360028111156102bf577f4e487b7100000000000000000000000000000000000000000000000000000000600052602160045260246000fd5b02179055506000600160008373ffffffffffffffffffffffffffffffffffffffff1673ffffffffffffffffffffffffffffffffffffffff16815260200190815260200160002060003373ffffffffffffffffffffffffffffffffffffffff1673ffffffffffffffffffffffffffffffffffffffff16815260200190815260200160002060006101000a81548160ff0219169083600281111561038a577f4e487b7100000000000000000000000000000000000000000000000000000000600052602160045260246000fd5b021790555061039881610992565b50565b60016020528160005260406000206020528060005260406000206000915091509054906101000a900460ff1681565b60005b828290508110156104415761042e838383818110610414577f4e487b7100000000000000000000000000000000000000000000000000000000600052603260045260246000fd5b90506020020160208101906104299190610f3c565b6105ad565b808061043990611241565b9150506103cd565b505050565b60006020528060005260406000206000915054906101000a900460ff1681565b6060600260003373ffffffffffffffffffffffffffffffffffffffff1673ffffffffffffffffffffffffffffffffffffffff16815260200190815260200160002080548060200260200160405190810160405280929190818152602001828054801561052757602002820191906000526020600020905b8160009054906101000a900473ffffffffffffffffffffffffffffffffffffffff1673ffffffffffffffffffffffffffffffffffffffff16815260200190600101908083116104dd575b5050505050905090565b60005b828290508110156105a85761059583838381811061057b577f4e487b7100000000000000000000000000000000000000000000000000000000600052603260045260246000fd5b90506020020160208101906105909190610f3c565b6101f9565b80806105a090611241565b915050610534565b505050565b803373ffffffffffffffffffffffffffffffffffffffff168173ffffffffffffffffffffffffffffffffffffffff16141561061d576040517f08c379a00000000000000000000000000000000000000000000000000000000081526004016106149061116a565b60405180910390fd5b60006002811115610657577f4e487b7100000000000000000000000000000000000000000000000000000000600052602160045260246000fd5b600160008473ffffffffffffffffffffffffffffffffffffffff1673ffffffffffffffffffffffffffffffffffffffff16815260200190815260200160002060003373ffffffffffffffffffffffffffffffffffffffff1673ffffffffffffffffffffffffffffffffffffffff16815260200190815260200160002060009054906101000a900460ff166002811115610719577f4e487b7100000000000000000000000000000000000000000000000000000000600052602160045260246000fd5b14156107ee5760018060003373ffffffffffffffffffffffffffffffffffffffff1673ffffffffffffffffffffffffffffffffffffffff16815260200190815260200160002060008473ffffffffffffffffffffffffffffffffffffffff1673ffffffffffffffffffffffffffffffffffffffff16815260200190815260200160002060006101000a81548160ff021916908360028111156107e4577f4e487b7100000000000000000000000000000000000000000000000000000000600052602160045260246000fd5b021790555061098e565b6002600160003373ffffffffffffffffffffffffffffffffffffffff1673ffffffffffffffffffffffffffffffffffffffff16815260200190815260200160002060008473ffffffffffffffffffffffffffffffffffffffff1673ffffffffffffffffffffffffffffffffffffffff16815260200190815260200160002060006101000a81548160ff021916908360028111156108b4577f4e487b7100000000000000000000000000000000000000000000000000000000600052602160045260246000fd5b02179055506002600160008473ffffffffffffffffffffffffffffffffffffffff1673ffffffffffffffffffffffffffffffffffffffff16815260200190815260200160002060003373ffffffffffffffffffffffffffffffffffffffff1673ffffffffffffffffffffffffffffffffffffffff16815260200190815260200160002060006101000a81548160ff0219169083600281111561097f577f4e487b7100000000000000000000000000000000000000000000000000000000600052602160045260246000fd5b021790555061098d82610d85565b5b5050565b60005b600260003373ffffffffffffffffffffffffffffffffffffffff1673ffffffffffffffffffffffffffffffffffffffff16815260200190815260200160002080549050811015610d81578173ffffffffffffffffffffffffffffffffffffffff16600260003373ffffffffffffffffffffffffffffffffffffffff1673ffffffffffffffffffffffffffffffffffffffff1681526020019081526020016000208281548110610a6d577f4e487b7100000000000000000000000000000000000000000000000000000000600052603260045260246000fd5b9060005260206000200160009054906101000a900473ffffffffffffffffffffffffffffffffffffffff1673ffffffffffffffffffffffffffffffffffffffff161415610d6e576000600260003373ffffffffffffffffffffffffffffffffffffffff1673ffffffffffffffffffffffffffffffffffffffff1681526020019081526020016000208281548110610b2d577f4e487b7100000000000000000000000000000000000000000000000000000000600052603260045260246000fd5b9060005260206000200160006101000a81548173ffffffffffffffffffffffffffffffffffffffff021916908373ffffffffffffffffffffffffffffffffffffffff16021790555060005b600260008473ffffffffffffffffffffffffffffffffffffffff1673ffffffffffffffffffffffffffffffffffffffff16815260200190815260200160002080549050811015610d6c573373ffffffffffffffffffffffffffffffffffffffff16600260008573ffffffffffffffffffffffffffffffffffffffff1673ffffffffffffffffffffffffffffffffffffffff1681526020019081526020016000208381548110610c50577f4e487b7100000000000000000000000000000000000000000000000000000000600052603260045260246000fd5b9060005260206000200160009054906101000a900473ffffffffffffffffffffffffffffffffffffffff1673ffffffffffffffffffffffffffffffffffffffff161415610d59576000600260008573ffffffffffffffffffffffffffffffffffffffff1673ffffffffffffffffffffffffffffffffffffffff1681526020019081526020016000208381548110610d10577f4e487b7100000000000000000000000000000000000000000000000000000000600052603260045260246000fd5b9060005260206000200160006101000a81548173ffffffffffffffffffffffffffffffffffffffff021916908373ffffffffffffffffffffffffffffffffffffffff1602179055505b8080610d6490611241565b915050610b78565b505b8080610d7990611241565b915050610995565b5050565b600260003373ffffffffffffffffffffffffffffffffffffffff1673ffffffffffffffffffffffffffffffffffffffff168152602001908152602001600020819080600181540180825580915050600190039060005260206000200160009091909190916101000a81548173ffffffffffffffffffffffffffffffffffffffff021916908373ffffffffffffffffffffffffffffffffffffffff160217905550600260008273ffffffffffffffffffffffffffffffffffffffff1673ffffffffffffffffffffffffffffffffffffffff168152602001908152602001600020339080600181540180825580915050600190039060005260206000200160009091909190916101000a81548173ffffffffffffffffffffffffffffffffffffffff021916908373ffffffffffffffffffffffffffffffffffffffff16021790555050565b600081359050610ed781611325565b92915050565b60008083601f840112610eef57600080fd5b8235905067ffffffffffffffff811115610f0857600080fd5b602083019150836020820283011115610f2057600080fd5b9250929050565b600081359050610f368161133c565b92915050565b600060208284031215610f4e57600080fd5b6000610f5c84828501610ec8565b91505092915050565b60008060408385031215610f7857600080fd5b6000610f8685828601610ec8565b9250506020610f9785828601610ec8565b9150509250929050565b60008060408385031215610fb457600080fd5b6000610fc285828601610ec8565b9250506020610fd385828601610f27565b9150509250929050565b60008060208385031215610ff057600080fd5b600083013567ffffffffffffffff81111561100a57600080fd5b61101685828601610edd565b92509250509250929050565b600061102e838361103a565b60208301905092915050565b611043816111d4565b82525050565b611052816111d4565b82525050565b60006110638261119a565b61106d81856111b2565b93506110788361118a565b8060005b838110156110a95781516110908882611022565b975061109b836111a5565b92505060018101905061107c565b5085935050505092915050565b6110bf816111e6565b82525050565b6110ce8161122f565b82525050565b60006110e16015836111c3565b91506110ec826112e8565b602082019050919050565b600060208201905061110c6000830184611049565b92915050565b6000602082019050818103600083015261112c8184611058565b905092915050565b600060208201905061114960008301846110b6565b92915050565b600060208201905061116460008301846110c5565b92915050565b60006020820190508181036000830152611183816110d4565b9050919050565b6000819050602082019050919050565b600081519050919050565b6000602082019050919050565b600082825260208201905092915050565b600082825260208201905092915050565b60006111df82611205565b9050919050565b60008115159050919050565b600081905061120082611311565b919050565b600073ffffffffffffffffffffffffffffffffffffffff82169050919050565b6000819050919050565b600061123a826111f2565b9050919050565b600061124c82611225565b91507fffffffffffffffffffffffffffffffffffffffffffffffffffffffffffffffff82141561127f5761127e61128a565b5b600182019050919050565b7f4e487b7100000000000000000000000000000000000000000000000000000000600052601160045260246000fd5b7f4e487b7100000000000000000000000000000000000000000000000000000000600052602160045260246000fd5b7f43616e277420667269656e6420796f757273656c660000000000000000000000600082015250565b60038110611322576113216112b9565b5b50565b61132e816111d4565b811461133957600080fd5b50565b61134581611225565b811461135057600080fd5b5056fea2646970667358221220cacf5d5b493e9d6b69a4eb05acbd9c25019cb72159eed9024c18a801948cd6dc64736f6c6343000801003368747470733a2f2f676174657761792e697066732e696f2f697066732f516d5a7a543944414b416a5946676f6a73664879323532654c46686470335a723866366439526573756931583231",
  "linkReferences": {},
  "deployedLinkReferences": {}
}