{
  "_format": "hh-sol-artifact-1",
  "contractName": "Consistently",
  "sourceName": "contracts/Consistenly.sol",
  "abi": [
    {
      "inputs": [],
      "stateMutability": "nonpayable",
      "type": "constructor"
    },
    {
      "anonymous": false,
      "inputs": [
        {
          "indexed": false,
          "internalType": "address",
          "name": "userAddress",
          "type": "address"
        },
        {
          "indexed": false,
          "internalType": "uint256",
          "name": "lastCheckInTime",
          "type": "uint256"
        }
      ],
      "name": "CheckedIn",
      "type": "event"
    },
    {
      "anonymous": false,
      "inputs": [
        {
          "indexed": false,
          "internalType": "address",
          "name": "userAddress",
          "type": "address"
        },
        {
          "indexed": false,
          "internalType": "uint256",
          "name": "weiDeposited",
          "type": "uint256"
        },
        {
          "indexed": false,
          "internalType": "string",
          "name": "habit",
          "type": "string"
        },
        {
          "indexed": false,
          "internalType": "uint256",
          "name": "timeRegistered",
          "type": "uint256"
        },
        {
          "indexed": false,
          "internalType": "bool",
          "name": "active",
          "type": "bool"
        }
      ],
      "name": "IntentionRegistered",
      "type": "event"
    },
    {
      "inputs": [],
      "name": "aavePool",
      "outputs": [
        {
          "internalType": "contract IPool",
          "name": "",
          "type": "address"
        }
      ],
      "stateMutability": "view",
      "type": "function"
    },
    {
      "inputs": [
        {
          "internalType": "address",
          "name": "",
          "type": "address"
        }
      ],
      "name": "checkInCount",
      "outputs": [
        {
          "internalType": "uint8",
          "name": "",
          "type": "uint8"
        }
      ],
      "stateMutability": "view",
      "type": "function"
    },
    {
      "inputs": [],
      "name": "checkin",
      "outputs": [],
      "stateMutability": "nonpayable",
      "type": "function"
    },
    {
      "inputs": [],
      "name": "depositIntoAave",
      "outputs": [],
      "stateMutability": "nonpayable",
      "type": "function"
    },
    {
      "inputs": [
        {
          "internalType": "address",
          "name": "addr",
          "type": "address"
        }
      ],
      "name": "getSpecificUserIntention",
      "outputs": [
        {
          "components": [
            {
              "internalType": "uint8",
              "name": "noOfDays",
              "type": "uint8"
            },
            {
              "internalType": "uint8",
              "name": "defaulted",
              "type": "uint8"
            },
            {
              "internalType": "uint256",
              "name": "timeRegistered",
              "type": "uint256"
            },
            {
              "internalType": "uint256",
              "name": "weiDeposited",
              "type": "uint256"
            },
            {
              "internalType": "uint256",
              "name": "weiBalance",
              "type": "uint256"
            },
            {
              "internalType": "string",
              "name": "habit",
              "type": "string"
            },
            {
              "internalType": "address",
              "name": "userAddress",
              "type": "address"
            },
            {
              "internalType": "bool",
              "name": "active",
              "type": "bool"
            }
          ],
          "internalType": "struct Consistently.Intention",
          "name": "",
          "type": "tuple"
        }
      ],
      "stateMutability": "view",
      "type": "function"
    },
    {
      "inputs": [],
      "name": "getUserIntention",
      "outputs": [
        {
          "components": [
            {
              "internalType": "uint8",
              "name": "noOfDays",
              "type": "uint8"
            },
            {
              "internalType": "uint8",
              "name": "defaulted",
              "type": "uint8"
            },
            {
              "internalType": "uint256",
              "name": "timeRegistered",
              "type": "uint256"
            },
            {
              "internalType": "uint256",
              "name": "weiDeposited",
              "type": "uint256"
            },
            {
              "internalType": "uint256",
              "name": "weiBalance",
              "type": "uint256"
            },
            {
              "internalType": "string",
              "name": "habit",
              "type": "string"
            },
            {
              "internalType": "address",
              "name": "userAddress",
              "type": "address"
            },
            {
              "internalType": "bool",
              "name": "active",
              "type": "bool"
            }
          ],
          "internalType": "struct Consistently.Intention",
          "name": "",
          "type": "tuple"
        }
      ],
      "stateMutability": "view",
      "type": "function"
    },
    {
      "inputs": [],
      "name": "habit",
      "outputs": [
        {
          "internalType": "contract Habit",
          "name": "",
          "type": "address"
        }
      ],
      "stateMutability": "view",
      "type": "function"
    },
    {
      "inputs": [],
      "name": "habitNFT",
      "outputs": [
        {
          "internalType": "contract NewHabitNFT",
          "name": "",
          "type": "address"
        }
      ],
      "stateMutability": "view",
      "type": "function"
    },
    {
      "inputs": [
        {
          "internalType": "uint256",
          "name": "",
          "type": "uint256"
        }
      ],
      "name": "intentions",
      "outputs": [
        {
          "internalType": "uint8",
          "name": "noOfDays",
          "type": "uint8"
        },
        {
          "internalType": "uint8",
          "name": "defaulted",
          "type": "uint8"
        },
        {
          "internalType": "uint256",
          "name": "timeRegistered",
          "type": "uint256"
        },
        {
          "internalType": "uint256",
          "name": "weiDeposited",
          "type": "uint256"
        },
        {
          "internalType": "uint256",
          "name": "weiBalance",
          "type": "uint256"
        },
        {
          "internalType": "string",
          "name": "habit",
          "type": "string"
        },
        {
          "internalType": "address",
          "name": "userAddress",
          "type": "address"
        },
        {
          "internalType": "bool",
          "name": "active",
          "type": "bool"
        }
      ],
      "stateMutability": "view",
      "type": "function"
    },
    {
      "inputs": [
        {
          "internalType": "address",
          "name": "",
          "type": "address"
        }
      ],
      "name": "lastCheckIn",
      "outputs": [
        {
          "internalType": "uint256",
          "name": "",
          "type": "uint256"
        }
      ],
      "stateMutability": "view",
      "type": "function"
    },
    {
      "inputs": [
        {
          "internalType": "address",
          "name": "",
          "type": "address"
        }
      ],
      "name": "nextCheckIn",
      "outputs": [
        {
          "internalType": "uint256",
          "name": "",
          "type": "uint256"
        }
      ],
      "stateMutability": "view",
      "type": "function"
    },
    {
      "inputs": [],
      "name": "owner",
      "outputs": [
        {
          "internalType": "address",
          "name": "",
          "type": "address"
        }
      ],
      "stateMutability": "view",
      "type": "function"
    },
    {
      "inputs": [],
      "name": "redeem",
      "outputs": [],
      "stateMutability": "nonpayable",
      "type": "function"
    },
    {
      "inputs": [
        {
          "internalType": "string",
          "name": "_habit",
          "type": "string"
        },
        {
          "internalType": "uint8",
          "name": "_days",
          "type": "uint8"
        }
      ],
      "name": "register",
      "outputs": [],
      "stateMutability": "payable",
      "type": "function"
    },
    {
      "inputs": [],
      "name": "social",
      "outputs": [
        {
          "internalType": "contract Social",
          "name": "",
          "type": "address"
        }
      ],
      "stateMutability": "view",
      "type": "function"
    },
    {
      "inputs": [
        {
          "internalType": "address",
          "name": "",
          "type": "address"
        }
      ],
      "name": "userAddresses",
      "outputs": [
        {
          "internalType": "bool",
          "name": "",
          "type": "bool"
        }
      ],
      "stateMutability": "view",
      "type": "function"
    },
    {
      "inputs": [
        {
          "internalType": "address",
          "name": "",
          "type": "address"
        }
      ],
      "name": "userIntentions",
      "outputs": [
        {
          "internalType": "uint256",
          "name": "",
          "type": "uint256"
        }
      ],
      "stateMutability": "view",
      "type": "function"
    },
    {
      "inputs": [],
      "name": "withdraw",
      "outputs": [],
      "stateMutability": "payable",
      "type": "function"
    }
  ],
  "bytecode": "0x608060405260405162000012906200022e565b604051809103906000f0801580156200002f573d6000803e3d6000fd5b50600160006101000a81548173ffffffffffffffffffffffffffffffffffffffff021916908373ffffffffffffffffffffffffffffffffffffffff1602179055506040516200007e906200023c565b604051809103906000f0801580156200009b573d6000803e3d6000fd5b50600260006101000a81548173ffffffffffffffffffffffffffffffffffffffff021916908373ffffffffffffffffffffffffffffffffffffffff160217905550604051620000ea906200024a565b604051809103906000f08015801562000107573d6000803e3d6000fd5b50600360006101000a81548173ffffffffffffffffffffffffffffffffffffffff021916908373ffffffffffffffffffffffffffffffffffffffff1602179055506001600560146101000a81548160ff021916908360ff16021790555060ff600560156101000a81548160ff021916908360ff160217905550603c6006553480156200019257600080fd5b5033600560006101000a81548173ffffffffffffffffffffffffffffffffffffffff021916908373ffffffffffffffffffffffffffffffffffffffff16021790555073e91e690407977f0b9fdc655504b895fe4af0c3716000806101000a81548173ffffffffffffffffffffffffffffffffffffffff021916908373ffffffffffffffffffffffffffffffffffffffff16021790555062000258565b61207e806200359b83390190565b61499b806200561983390190565b6113a98062009fb483390190565b61333380620002686000396000f3fe6080604052600436106101095760003560e01c80639ec11dff11610095578063be040fb011610064578063be040fb01461035a578063c7f62a9714610371578063dedaf7fc1461039c578063ef6fdb1c146103b3578063fc86dea7146103f057610109565b80639ec11dff1461029e578063a03e4bc3146102db578063a0cf870414610306578063baeb07181461034357610109565b80637233f2be116100dc5780637233f2be146101c4578063767b79ed146101ef5780638da5cb5b1461020b57806395cfb25a1461023657806398e8ee141461026157610109565b806312a6ebba1461010e5780633bd9e086146101525780633ccfd60b1461017d5780636b69fd5a14610187575b600080fd5b34801561011a57600080fd5b506101356004803603810190610130919061244b565b61042d565b604051610149989796959493929190612bb2565b60405180910390f35b34801561015e57600080fd5b50610167610554565b6040516101749190612b5a565b60405180910390f35b61018561083f565b005b34801561019357600080fd5b506101ae60048036038101906101a991906123ce565b61093a565b6040516101bb9190612b7c565b60405180910390f35b3480156101d057600080fd5b506101d9610952565b6040516101e691906129df565b60405180910390f35b610209600480360381019061020491906123f7565b610978565b005b34801561021757600080fd5b50610220610e44565b60405161022d9190612830565b60405180910390f35b34801561024257600080fd5b5061024b610e6a565b604051610258919061298e565b60405180910390f35b34801561026d57600080fd5b50610288600480360381019061028391906123ce565b610e90565b6040516102959190612b7c565b60405180910390f35b3480156102aa57600080fd5b506102c560048036038101906102c091906123ce565b610ea8565b6040516102d29190612b97565b60405180910390f35b3480156102e757600080fd5b506102f0610ec8565b6040516102fd91906129a9565b60405180910390f35b34801561031257600080fd5b5061032d600480360381019061032891906123ce565b610eec565b60405161033a9190612b5a565b60405180910390f35b34801561034f57600080fd5b506103586111d9565b005b34801561036657600080fd5b5061036f6115ad565b005b34801561037d57600080fd5b506103866119f6565b60405161039391906129c4565b60405180910390f35b3480156103a857600080fd5b506103b1611a1c565b005b3480156103bf57600080fd5b506103da60048036038101906103d591906123ce565b611ad5565b6040516103e79190612b7c565b60405180910390f35b3480156103fc57600080fd5b50610417600480360381019061041291906123ce565b611aed565b6040516104249190612973565b60405180910390f35b6007818154811061043d57600080fd5b90600052602060002090600602016000915090508060000160009054906101000a900460ff16908060000160019054906101000a900460ff169080600101549080600201549080600301549080600401805461049890612f29565b80601f01602080910402602001604051908101604052809291908181526020018280546104c490612f29565b80156105115780601f106104e657610100808354040283529160200191610511565b820191906000526020600020905b8154815290600101906020018083116104f457829003601f168201915b5050505050908060050160009054906101000a900473ffffffffffffffffffffffffffffffffffffffff16908060050160149054906101000a900460ff16905088565b61055c61220c565b33600460008273ffffffffffffffffffffffffffffffffffffffff1673ffffffffffffffffffffffffffffffffffffffff16815260200190815260200160002060009054906101000a900460ff166105e9576040517f08c379a00000000000000000000000000000000000000000000000000000000081526004016105e0906129fa565b60405180910390fd5b336105f381611b0d565b610632576040517f08c379a000000000000000000000000000000000000000000000000000000000815260040161062990612ada565b60405180910390fd5b60006001600860003373ffffffffffffffffffffffffffffffffffffffff1673ffffffffffffffffffffffffffffffffffffffff168152602001908152602001600020546106809190612d78565b90506000600782815481106106be577f4e487b7100000000000000000000000000000000000000000000000000000000600052603260045260246000fd5b9060005260206000209060060201604051806101000160405290816000820160009054906101000a900460ff1660ff1660ff1681526020016000820160019054906101000a900460ff1660ff1660ff16815260200160018201548152602001600282015481526020016003820154815260200160048201805461074090612f29565b80601f016020809104026020016040519081016040528092919081815260200182805461076c90612f29565b80156107b95780601f1061078e576101008083540402835291602001916107b9565b820191906000526020600020905b81548152906001019060200180831161079c57829003601f168201915b505050505081526020016005820160009054906101000a900473ffffffffffffffffffffffffffffffffffffffff1673ffffffffffffffffffffffffffffffffffffffff1673ffffffffffffffffffffffffffffffffffffffff1681526020016005820160149054906101000a900460ff16151515158152505090508094505050505090565b600560009054906101000a900473ffffffffffffffffffffffffffffffffffffffff1673ffffffffffffffffffffffffffffffffffffffff163373ffffffffffffffffffffffffffffffffffffffff16146108cf576040517f08c379a00000000000000000000000000000000000000000000000000000000081526004016108c690612a7a565b60405180910390fd5b600560009054906101000a900473ffffffffffffffffffffffffffffffffffffffff1673ffffffffffffffffffffffffffffffffffffffff166108fc479081150290604051600060405180830381858888f19350505050158015610937573d6000803e3d6000fd5b50565b600a6020528060005260406000206000915090505481565b600360009054906101000a900473ffffffffffffffffffffffffffffffffffffffff1681565b66038d7ea4c680003410156109c2576040517f08c379a00000000000000000000000000000000000000000000000000000000081526004016109b990612afa565b60405180910390fd5b600560149054906101000a900460ff1660ff168160ff161015610a1a576040517f08c379a0000000000000000000000000000000000000000000000000000000008152600401610a1190612a5a565b60405180910390fd5b600560159054906101000a900460ff1660ff168160ff161115610a72576040517f08c379a0000000000000000000000000000000000000000000000000000000008152600401610a6990612a1a565b60405180910390fd5b6000600860003373ffffffffffffffffffffffffffffffffffffffff1673ffffffffffffffffffffffffffffffffffffffff1681526020019081526020016000205414610af4576040517f08c379a0000000000000000000000000000000000000000000000000000000008152600401610aeb90612b3a565b60405180910390fd5b600042905060006040518061010001604052808460ff168152602001600060ff1681526020018381526020013481526020013481526020018581526020013373ffffffffffffffffffffffffffffffffffffffff168152602001600115158152509050600781908060018154018082558091505060019003906000526020600020906006020160009091909190915060008201518160000160006101000a81548160ff021916908360ff16021790555060208201518160000160016101000a81548160ff021916908360ff16021790555060408201518160010155606082015181600201556080820151816003015560a0820151816004019080519060200190610bff92919061226f565b5060c08201518160050160006101000a81548173ffffffffffffffffffffffffffffffffffffffff021916908373ffffffffffffffffffffffffffffffffffffffff16021790555060e08201518160050160146101000a81548160ff02191690831515021790555050506001600460003373ffffffffffffffffffffffffffffffffffffffff1673ffffffffffffffffffffffffffffffffffffffff16815260200190815260200160002060006101000a81548160ff0219169083151502179055506000600780549050905080600860003373ffffffffffffffffffffffffffffffffffffffff1673ffffffffffffffffffffffffffffffffffffffff168152602001908152602001600020819055506000600b60003373ffffffffffffffffffffffffffffffffffffffff1673ffffffffffffffffffffffffffffffffffffffff16815260200190815260200160002060006101000a81548160ff021916908360ff16021790555082600960003373ffffffffffffffffffffffffffffffffffffffff1673ffffffffffffffffffffffffffffffffffffffff1681526020019081526020016000208190555060065483610dba9190612cba565b600a60003373ffffffffffffffffffffffffffffffffffffffff1673ffffffffffffffffffffffffffffffffffffffff168152602001908152602001600020819055507f337f4807ad781093d5ad55ae237b66e90ee0c4c83f987349e0198892f6328f2e333487866001604051610e35959493929190612919565b60405180910390a15050505050565b600560009054906101000a900473ffffffffffffffffffffffffffffffffffffffff1681565b600160009054906101000a900473ffffffffffffffffffffffffffffffffffffffff1681565b60086020528060005260406000206000915090505481565b600b6020528060005260406000206000915054906101000a900460ff1681565b60008054906101000a900473ffffffffffffffffffffffffffffffffffffffff1681565b610ef461220c565b81600460008273ffffffffffffffffffffffffffffffffffffffff1673ffffffffffffffffffffffffffffffffffffffff16815260200190815260200160002060009054906101000a900460ff16610f81576040517f08c379a0000000000000000000000000000000000000000000000000000000008152600401610f78906129fa565b60405180910390fd5b82610f8b81611b0d565b610fca576040517f08c379a0000000000000000000000000000000000000000000000000000000008152600401610fc190612ada565b60405180910390fd5b60006001600860008773ffffffffffffffffffffffffffffffffffffffff1673ffffffffffffffffffffffffffffffffffffffff168152602001908152602001600020546110189190612d78565b9050600060078281548110611056577f4e487b7100000000000000000000000000000000000000000000000000000000600052603260045260246000fd5b9060005260206000209060060201604051806101000160405290816000820160009054906101000a900460ff1660ff1660ff1681526020016000820160019054906101000a900460ff1660ff1660ff1681526020016001820154815260200160028201548152602001600382015481526020016004820180546110d890612f29565b80601f016020809104026020016040519081016040528092919081815260200182805461110490612f29565b80156111515780601f1061112657610100808354040283529160200191611151565b820191906000526020600020905b81548152906001019060200180831161113457829003601f168201915b505050505081526020016005820160009054906101000a900473ffffffffffffffffffffffffffffffffffffffff1673ffffffffffffffffffffffffffffffffffffffff1673ffffffffffffffffffffffffffffffffffffffff1681526020016005820160149054906101000a900460ff161515151581525050905080945050505050919050565b33600460008273ffffffffffffffffffffffffffffffffffffffff1673ffffffffffffffffffffffffffffffffffffffff16815260200190815260200160002060009054906101000a900460ff16611266576040517f08c379a000000000000000000000000000000000000000000000000000000000815260040161125d906129fa565b60405180910390fd5b3361127081611b0d565b6112af576040517f08c379a00000000000000000000000000000000000000000000000000000000081526004016112a690612ada565b60405180910390fd5b6000429050600a60003373ffffffffffffffffffffffffffffffffffffffff1673ffffffffffffffffffffffffffffffffffffffff168152602001908152602001600020548111611335576040517f08c379a000000000000000000000000000000000000000000000000000000000815260040161132c90612aba565b60405180910390fd5b600654600a60003373ffffffffffffffffffffffffffffffffffffffff1673ffffffffffffffffffffffffffffffffffffffff168152602001908152602001600020546113829190612cba565b8111156113935761139233611da1565b5b600160009054906101000a900473ffffffffffffffffffffffffffffffffffffffff1673ffffffffffffffffffffffffffffffffffffffff166340c10f1933670de0b6b3a76400006040518363ffffffff1660e01b81526004016113f8929190612882565b600060405180830381600087803b15801561141257600080fd5b505af1158015611426573d6000803e3d6000fd5b505050506001600b60003373ffffffffffffffffffffffffffffffffffffffff1673ffffffffffffffffffffffffffffffffffffffff16815260200190815260200160002060009054906101000a900460ff166114839190612d10565b600b60003373ffffffffffffffffffffffffffffffffffffffff1673ffffffffffffffffffffffffffffffffffffffff16815260200190815260200160002060006101000a81548160ff021916908360ff16021790555080600960003373ffffffffffffffffffffffffffffffffffffffff1673ffffffffffffffffffffffffffffffffffffffff168152602001908152602001600020819055506006548161152c9190612cba565b600a60003373ffffffffffffffffffffffffffffffffffffffff1673ffffffffffffffffffffffffffffffffffffffff168152602001908152602001600020819055507fdddb6e14f7f2101397a6526aab95e964de7f1f44ed06aa47a1c9a0e6b992445633826040516115a09291906128ab565b60405180910390a1505050565b33600460008273ffffffffffffffffffffffffffffffffffffffff1673ffffffffffffffffffffffffffffffffffffffff16815260200190815260200160002060009054906101000a900460ff1661163a576040517f08c379a0000000000000000000000000000000000000000000000000000000008152600401611631906129fa565b60405180910390fd5b3361164481611b0d565b611683576040517f08c379a000000000000000000000000000000000000000000000000000000000815260040161167a90612ada565b60405180910390fd5b3361168d81611fa6565b6116cc576040517f08c379a00000000000000000000000000000000000000000000000000000000081526004016116c390612a9a565b60405180910390fd5b60006001600860003373ffffffffffffffffffffffffffffffffffffffff1673ffffffffffffffffffffffffffffffffffffffff1681526020019081526020016000205461171a9190612d78565b9050600060078281548110611758577f4e487b7100000000000000000000000000000000000000000000000000000000600052603260045260246000fd5b906000526020600020906006020190506000600860003373ffffffffffffffffffffffffffffffffffffffff1673ffffffffffffffffffffffffffffffffffffffff1681526020019081526020016000208190555060008160050160146101000a81548160ff0219169083151502179055506000600b60003373ffffffffffffffffffffffffffffffffffffffff1673ffffffffffffffffffffffffffffffffffffffff16815260200190815260200160002060006101000a81548160ff021916908360ff160217905550600160009054906101000a900473ffffffffffffffffffffffffffffffffffffffff1673ffffffffffffffffffffffffffffffffffffffff16639dc29fac33600160009054906101000a900473ffffffffffffffffffffffffffffffffffffffff1673ffffffffffffffffffffffffffffffffffffffff166370a08231336040518263ffffffff1660e01b81526004016118bd9190612830565b60206040518083038186803b1580156118d557600080fd5b505afa1580156118e9573d6000803e3d6000fd5b505050506040513d601f19601f8201168201806040525081019061190d9190612474565b6040518363ffffffff1660e01b815260040161192a9291906128ab565b600060405180830381600087803b15801561194457600080fd5b505af1158015611958573d6000803e3d6000fd5b50505050600260009054906101000a900473ffffffffffffffffffffffffffffffffffffffff1673ffffffffffffffffffffffffffffffffffffffff1663156e29f633600060016040518463ffffffff1660e01b81526004016119bd9392919061284b565b600060405180830381600087803b1580156119d757600080fd5b505af11580156119eb573d6000803e3d6000fd5b505050505050505050565b600260009054906101000a900473ffffffffffffffffffffffffffffffffffffffff1681565b671bc16d674ec80000471115611ad35760008054906101000a900473ffffffffffffffffffffffffffffffffffffffff1673ffffffffffffffffffffffffffffffffffffffff1663e8eda9df73eeeeeeeeeeeeeeeeeeeeeeeeeeeeeeeeeeeeeeee473060006040518563ffffffff1660e01b8152600401611aa094939291906128d4565b600060405180830381600087803b158015611aba57600080fd5b505af1158015611ace573d6000803e3d6000fd5b505050505b565b60096020528060005260406000206000915090505481565b60046020528060005260406000206000915054906101000a900460ff1681565b600080600860008473ffffffffffffffffffffffffffffffffffffffff1673ffffffffffffffffffffffffffffffffffffffff1681526020019081526020016000205411611b90576040517f08c379a0000000000000000000000000000000000000000000000000000000008152600401611b8790612a3a565b60405180910390fd5b60006001600860008573ffffffffffffffffffffffffffffffffffffffff1673ffffffffffffffffffffffffffffffffffffffff16815260200190815260200160002054611bde9190612d78565b9050600060078281548110611c1c577f4e487b7100000000000000000000000000000000000000000000000000000000600052603260045260246000fd5b9060005260206000209060060201604051806101000160405290816000820160009054906101000a900460ff1660ff1660ff1681526020016000820160019054906101000a900460ff1660ff1660ff168152602001600182015481526020016002820154815260200160038201548152602001600482018054611c9e90612f29565b80601f0160208091040260200160405190810160405280929190818152602001828054611cca90612f29565b8015611d175780601f10611cec57610100808354040283529160200191611d17565b820191906000526020600020905b815481529060010190602001808311611cfa57829003601f168201915b505050505081526020016005820160009054906101000a900473ffffffffffffffffffffffffffffffffffffffff1673ffffffffffffffffffffffffffffffffffffffff1673ffffffffffffffffffffffffffffffffffffffff1681526020016005820160149054906101000a900460ff16151515158152505090508060e0015192505050919050565b6000600860008373ffffffffffffffffffffffffffffffffffffffff1673ffffffffffffffffffffffffffffffffffffffff1681526020019081526020016000205411611e23576040517f08c379a0000000000000000000000000000000000000000000000000000000008152600401611e1a90612b1a565b60405180910390fd5b60006001600860008473ffffffffffffffffffffffffffffffffffffffff1673ffffffffffffffffffffffffffffffffffffffff16815260200190815260200160002054611e719190612d78565b9050600060078281548110611eaf577f4e487b7100000000000000000000000000000000000000000000000000000000600052603260045260246000fd5b9060005260206000209060060201905060048160020154611ed09190612d47565b8160030154611edf9190612d78565b816003018190555080600001600181819054906101000a900460ff1680929190611f0890612f8c565b91906101000a81548160ff021916908360ff1602179055505060048160000160019054906101000a900460ff1660ff161415611fa15760008160050160146101000a81548160ff0219169083151502179055506000600860008573ffffffffffffffffffffffffffffffffffffffff1673ffffffffffffffffffffffffffffffffffffffff168152602001908152602001600020819055505b505050565b6000806001600860008573ffffffffffffffffffffffffffffffffffffffff1673ffffffffffffffffffffffffffffffffffffffff16815260200190815260200160002054611ff59190612d78565b9050600060078281548110612033577f4e487b7100000000000000000000000000000000000000000000000000000000600052603260045260246000fd5b9060005260206000209060060201604051806101000160405290816000820160009054906101000a900460ff1660ff1660ff1681526020016000820160019054906101000a900460ff1660ff1660ff1681526020016001820154815260200160028201548152602001600382015481526020016004820180546120b590612f29565b80601f01602080910402602001604051908101604052809291908181526020018280546120e190612f29565b801561212e5780601f106121035761010080835404028352916020019161212e565b820191906000526020600020905b81548152906001019060200180831161211157829003601f168201915b505050505081526020016005820160009054906101000a900473ffffffffffffffffffffffffffffffffffffffff1673ffffffffffffffffffffffffffffffffffffffff1673ffffffffffffffffffffffffffffffffffffffff1681526020016005820160149054906101000a900460ff1615151515815250509050806000015160ff16600b60008673ffffffffffffffffffffffffffffffffffffffff1673ffffffffffffffffffffffffffffffffffffffff16815260200190815260200160002060009054906101000a900460ff1660ff161492505050919050565b604051806101000160405280600060ff168152602001600060ff16815260200160008152602001600081526020016000815260200160608152602001600073ffffffffffffffffffffffffffffffffffffffff1681526020016000151581525090565b82805461227b90612f29565b90600052602060002090601f01602090048101928261229d57600085556122e4565b82601f106122b657805160ff19168380011785556122e4565b828001600101855582156122e4579182015b828111156122e35782518255916020019190600101906122c8565b5b5090506122f191906122f5565b5090565b5b8082111561230e5760008160009055506001016122f6565b5090565b600061232561232084612c5c565b612c37565b90508281526020810184848401111561233d57600080fd5b612348848285612ee7565b509392505050565b60008135905061235f816132b8565b92915050565b600082601f83011261237657600080fd5b8135612386848260208601612312565b91505092915050565b60008135905061239e816132cf565b92915050565b6000815190506123b3816132cf565b92915050565b6000813590506123c8816132e6565b92915050565b6000602082840312156123e057600080fd5b60006123ee84828501612350565b91505092915050565b6000806040838503121561240a57600080fd5b600083013567ffffffffffffffff81111561242457600080fd5b61243085828601612365565b9250506020612441858286016123b9565b9150509250929050565b60006020828403121561245d57600080fd5b600061246b8482850161238f565b91505092915050565b60006020828403121561248657600080fd5b6000612494848285016123a4565b91505092915050565b6124a681612dac565b82525050565b6124b581612dac565b82525050565b6124c481612dbe565b82525050565b6124d381612dbe565b82525050565b6124e281612e0f565b82525050565b6124f181612e33565b82525050565b61250081612e57565b82525050565b61250f81612e7b565b82525050565b61251e81612e9f565b82525050565b61252d81612eb1565b82525050565b61253c81612ec3565b82525050565b61254b81612ed5565b82525050565b600061255c82612c8d565b6125668185612c98565b9350612576818560208601612ef6565b61257f81613072565b840191505092915050565b600061259582612c8d565b61259f8185612ca9565b93506125af818560208601612ef6565b6125b881613072565b840191505092915050565b60006125d0601b83612ca9565b91506125db82613083565b602082019050919050565b60006125f3601e83612ca9565b91506125fe826130ac565b602082019050919050565b6000612616601c83612ca9565b9150612621826130d5565b602082019050919050565b6000612639601d83612ca9565b9150612644826130fe565b602082019050919050565b600061265c601d83612ca9565b915061266782613127565b602082019050919050565b600061267f601883612ca9565b915061268a82613150565b602082019050919050565b60006126a2602283612ca9565b91506126ad82613179565b604082019050919050565b60006126c5601983612ca9565b91506126d0826131c8565b602082019050919050565b60006126e8602183612ca9565b91506126f3826131f1565b604082019050919050565b600061270b602083612ca9565b915061271682613240565b602082019050919050565b600061272e602d83612ca9565b915061273982613269565b604082019050919050565b60006101008301600083015161275d6000860182612812565b5060208301516127706020860182612812565b50604083015161278360408601826127f4565b50606083015161279660608601826127f4565b5060808301516127a960808601826127f4565b5060a083015184820360a08601526127c18282612551565b91505060c08301516127d660c086018261249d565b5060e08301516127e960e08601826124bb565b508091505092915050565b6127fd81612df8565b82525050565b61280c81612df8565b82525050565b61281b81612e02565b82525050565b61282a81612e02565b82525050565b600060208201905061284560008301846124ac565b92915050565b600060608201905061286060008301866124ac565b61286d6020830185612524565b61287a6040830184612542565b949350505050565b600060408201905061289760008301856124ac565b6128a46020830184612533565b9392505050565b60006040820190506128c060008301856124ac565b6128cd6020830184612803565b9392505050565b60006080820190506128e960008301876124ac565b6128f66020830186612803565b61290360408301856124ac565b6129106060830184612515565b95945050505050565b600060a08201905061292e60008301886124ac565b61293b6020830187612803565b818103604083015261294d818661258a565b905061295c6060830185612803565b61296960808301846124ca565b9695505050505050565b600060208201905061298860008301846124ca565b92915050565b60006020820190506129a360008301846124d9565b92915050565b60006020820190506129be60008301846124e8565b92915050565b60006020820190506129d960008301846124f7565b92915050565b60006020820190506129f46000830184612506565b92915050565b60006020820190508181036000830152612a13816125c3565b9050919050565b60006020820190508181036000830152612a33816125e6565b9050919050565b60006020820190508181036000830152612a5381612609565b9050919050565b60006020820190508181036000830152612a738161262c565b9050919050565b60006020820190508181036000830152612a938161264f565b9050919050565b60006020820190508181036000830152612ab381612672565b9050919050565b60006020820190508181036000830152612ad381612695565b9050919050565b60006020820190508181036000830152612af3816126b8565b9050919050565b60006020820190508181036000830152612b13816126db565b9050919050565b60006020820190508181036000830152612b33816126fe565b9050919050565b60006020820190508181036000830152612b5381612721565b9050919050565b60006020820190508181036000830152612b748184612744565b905092915050565b6000602082019050612b916000830184612803565b92915050565b6000602082019050612bac6000830184612821565b92915050565b600061010082019050612bc8600083018b612821565b612bd5602083018a612821565b612be26040830189612803565b612bef6060830188612803565b612bfc6080830187612803565b81810360a0830152612c0e818661258a565b9050612c1d60c08301856124ac565b612c2a60e08301846124ca565b9998505050505050505050565b6000612c41612c52565b9050612c4d8282612f5b565b919050565b6000604051905090565b600067ffffffffffffffff821115612c7757612c76613043565b5b612c8082613072565b9050602081019050919050565b600081519050919050565b600082825260208201905092915050565b600082825260208201905092915050565b6000612cc582612df8565b9150612cd083612df8565b9250827fffffffffffffffffffffffffffffffffffffffffffffffffffffffffffffffff03821115612d0557612d04612fb6565b5b828201905092915050565b6000612d1b82612e02565b9150612d2683612e02565b92508260ff03821115612d3c57612d3b612fb6565b5b828201905092915050565b6000612d5282612df8565b9150612d5d83612df8565b925082612d6d57612d6c612fe5565b5b828204905092915050565b6000612d8382612df8565b9150612d8e83612df8565b925082821015612da157612da0612fb6565b5b828203905092915050565b6000612db782612dd8565b9050919050565b60008115159050919050565b600061ffff82169050919050565b600073ffffffffffffffffffffffffffffffffffffffff82169050919050565b6000819050919050565b600060ff82169050919050565b6000612e1a82612e21565b9050919050565b6000612e2c82612dd8565b9050919050565b6000612e3e82612e45565b9050919050565b6000612e5082612dd8565b9050919050565b6000612e6282612e69565b9050919050565b6000612e7482612dd8565b9050919050565b6000612e8682612e8d565b9050919050565b6000612e9882612dd8565b9050919050565b6000612eaa82612dca565b9050919050565b6000612ebc82612df8565b9050919050565b6000612ece82612df8565b9050919050565b6000612ee082612df8565b9050919050565b82818337600083830152505050565b60005b83811015612f14578082015181840152602081019050612ef9565b83811115612f23576000848401525b50505050565b60006002820490506001821680612f4157607f821691505b60208210811415612f5557612f54613014565b5b50919050565b612f6482613072565b810181811067ffffffffffffffff82111715612f8357612f82613043565b5b80604052505050565b6000612f9782612e02565b915060ff821415612fab57612faa612fb6565b5b600182019050919050565b7f4e487b7100000000000000000000000000000000000000000000000000000000600052601160045260246000fd5b7f4e487b7100000000000000000000000000000000000000000000000000000000600052601260045260246000fd5b7f4e487b7100000000000000000000000000000000000000000000000000000000600052602260045260246000fd5b7f4e487b7100000000000000000000000000000000000000000000000000000000600052604160045260246000fd5b6000601f19601f8301169050919050565b7f4f6e6c7920526567697374656420557365727320416c6c6f7765640000000000600082015250565b7f4d6178696d756d206f662032353520646179732041636365707461626c650000600082015250565b7f5573657220496e74656e74696f6e206973206e6f742061637469766500000000600082015250565b7f4d696e696d756d206f6620323120646179732041636365707461626c65000000600082015250565b7f6f6e6c79206f776e65722063616e2077697468647261772066756e6473000000600082015250565b7f517565737420686173206265656e20636f6d706c657465640000000000000000600082015250565b7f596f752063616e6e6f7420636865636b696e2077697468696e20323420486f7560008201527f7273000000000000000000000000000000000000000000000000000000000000602082015250565b7f4f6e6c792061637469766520757365727320416c6c6f77656400000000000000600082015250565b7f4d696e696d756d20416d6f756e74206f66202e3120457468205265717569726560008201527f6400000000000000000000000000000000000000000000000000000000000000602082015250565b7f5573657220686173206e6f205265676973746572656420496e74656e74696f6e600082015250565b7f596f752063616e206f6e6c792068617665206f6e65206861626974207472616360008201527f6b656420617420612074696d6500000000000000000000000000000000000000602082015250565b6132c181612dac565b81146132cc57600080fd5b50565b6132d881612df8565b81146132e357600080fd5b50565b6132ef81612e02565b81146132fa57600080fd5b5056fea2646970667358221220c011ee187d8e8bc095f562f8998cb98ce0320b1d1566b68ab1ca84e11f84776c64736f6c6343000801003360806040523480156200001157600080fd5b506040518060400160405280600781526020017f48616269747632000000000000000000000000000000000000000000000000008152506040518060400160405280600381526020017f4842540000000000000000000000000000000000000000000000000000000000815250816003908051906020019062000096929190620001a6565b508060049080519060200190620000af929190620001a6565b505050620000d2620000c6620000d860201b60201c565b620000e060201b60201c565b620002bb565b600033905090565b6000600560009054906101000a900473ffffffffffffffffffffffffffffffffffffffff16905081600560006101000a81548173ffffffffffffffffffffffffffffffffffffffff021916908373ffffffffffffffffffffffffffffffffffffffff1602179055508173ffffffffffffffffffffffffffffffffffffffff168173ffffffffffffffffffffffffffffffffffffffff167f8be0079c531659141344cd1fd0a4f28419497f9722a3daafe3b4186f6b6457e060405160405180910390a35050565b828054620001b49062000256565b90600052602060002090601f016020900481019282620001d8576000855562000224565b82601f10620001f357805160ff191683800117855562000224565b8280016001018555821562000224579182015b828111156200022357825182559160200191906001019062000206565b5b50905062000233919062000237565b5090565b5b808211156200025257600081600090555060010162000238565b5090565b600060028204905060018216806200026f57607f821691505b602082108114156200028657620002856200028c565b5b50919050565b7f4e487b7100000000000000000000000000000000000000000000000000000000600052602260045260246000fd5b611db380620002cb6000396000f3fe608060405234801561001057600080fd5b50600436106101005760003560e01c8063715018a611610097578063a457c2d711610066578063a457c2d71461029d578063a9059cbb146102cd578063dd62ed3e146102fd578063f2fde38b1461032d57610100565b8063715018a61461023b5780638da5cb5b1461024557806395d89b41146102635780639dc29fac1461028157610100565b8063313ce567116100d3578063313ce567146101a157806339509351146101bf57806340c10f19146101ef57806370a082311461020b57610100565b806306fdde0314610105578063095ea7b31461012357806318160ddd1461015357806323b872dd14610171575b600080fd5b61010d610349565b60405161011a9190611666565b60405180910390f35b61013d600480360381019061013891906113db565b6103db565b60405161014a919061164b565b60405180910390f35b61015b6103fe565b6040516101689190611808565b60405180910390f35b61018b6004803603810190610186919061138c565b610408565b604051610198919061164b565b60405180910390f35b6101a9610437565b6040516101b69190611823565b60405180910390f35b6101d960048036038101906101d491906113db565b610440565b6040516101e6919061164b565b60405180910390f35b610209600480360381019061020491906113db565b6104ea565b005b61022560048036038101906102209190611327565b610574565b6040516102329190611808565b60405180910390f35b6102436105bc565b005b61024d610644565b60405161025a9190611630565b60405180910390f35b61026b61066e565b6040516102789190611666565b60405180910390f35b61029b600480360381019061029691906113db565b610700565b005b6102b760048036038101906102b291906113db565b61078a565b6040516102c4919061164b565b60405180910390f35b6102e760048036038101906102e291906113db565b610874565b6040516102f4919061164b565b60405180910390f35b61031760048036038101906103129190611350565b610897565b6040516103249190611808565b60405180910390f35b61034760048036038101906103429190611327565b61091e565b005b6060600380546103589061196c565b80601f01602080910402602001604051908101604052809291908181526020018280546103849061196c565b80156103d15780601f106103a6576101008083540402835291602001916103d1565b820191906000526020600020905b8154815290600101906020018083116103b457829003601f168201915b5050505050905090565b6000806103e6610a16565b90506103f3818585610a1e565b600191505092915050565b6000600254905090565b600080610413610a16565b9050610420858285610be9565b61042b858585610c75565b60019150509392505050565b60006012905090565b60008061044b610a16565b90506104df818585600160008673ffffffffffffffffffffffffffffffffffffffff1673ffffffffffffffffffffffffffffffffffffffff16815260200190815260200160002060008973ffffffffffffffffffffffffffffffffffffffff1673ffffffffffffffffffffffffffffffffffffffff168152602001908152602001600020546104da919061185a565b610a1e565b600191505092915050565b6104f2610a16565b73ffffffffffffffffffffffffffffffffffffffff16610510610644565b73ffffffffffffffffffffffffffffffffffffffff1614610566576040517f08c379a000000000000000000000000000000000000000000000000000000000815260040161055d90611748565b60405180910390fd5b6105708282610ef6565b5050565b60008060008373ffffffffffffffffffffffffffffffffffffffff1673ffffffffffffffffffffffffffffffffffffffff168152602001908152602001600020549050919050565b6105c4610a16565b73ffffffffffffffffffffffffffffffffffffffff166105e2610644565b73ffffffffffffffffffffffffffffffffffffffff1614610638576040517f08c379a000000000000000000000000000000000000000000000000000000000815260040161062f90611748565b60405180910390fd5b6106426000611056565b565b6000600560009054906101000a900473ffffffffffffffffffffffffffffffffffffffff16905090565b60606004805461067d9061196c565b80601f01602080910402602001604051908101604052809291908181526020018280546106a99061196c565b80156106f65780601f106106cb576101008083540402835291602001916106f6565b820191906000526020600020905b8154815290600101906020018083116106d957829003601f168201915b5050505050905090565b610708610a16565b73ffffffffffffffffffffffffffffffffffffffff16610726610644565b73ffffffffffffffffffffffffffffffffffffffff161461077c576040517f08c379a000000000000000000000000000000000000000000000000000000000815260040161077390611748565b60405180910390fd5b610786828261111c565b5050565b600080610795610a16565b90506000600160008373ffffffffffffffffffffffffffffffffffffffff1673ffffffffffffffffffffffffffffffffffffffff16815260200190815260200160002060008673ffffffffffffffffffffffffffffffffffffffff1673ffffffffffffffffffffffffffffffffffffffff1681526020019081526020016000205490508381101561085b576040517f08c379a0000000000000000000000000000000000000000000000000000000008152600401610852906117c8565b60405180910390fd5b6108688286868403610a1e565b60019250505092915050565b60008061087f610a16565b905061088c818585610c75565b600191505092915050565b6000600160008473ffffffffffffffffffffffffffffffffffffffff1673ffffffffffffffffffffffffffffffffffffffff16815260200190815260200160002060008373ffffffffffffffffffffffffffffffffffffffff1673ffffffffffffffffffffffffffffffffffffffff16815260200190815260200160002054905092915050565b610926610a16565b73ffffffffffffffffffffffffffffffffffffffff16610944610644565b73ffffffffffffffffffffffffffffffffffffffff161461099a576040517f08c379a000000000000000000000000000000000000000000000000000000000815260040161099190611748565b60405180910390fd5b600073ffffffffffffffffffffffffffffffffffffffff168173ffffffffffffffffffffffffffffffffffffffff161415610a0a576040517f08c379a0000000000000000000000000000000000000000000000000000000008152600401610a01906116c8565b60405180910390fd5b610a1381611056565b50565b600033905090565b600073ffffffffffffffffffffffffffffffffffffffff168373ffffffffffffffffffffffffffffffffffffffff161415610a8e576040517f08c379a0000000000000000000000000000000000000000000000000000000008152600401610a85906117a8565b60405180910390fd5b600073ffffffffffffffffffffffffffffffffffffffff168273ffffffffffffffffffffffffffffffffffffffff161415610afe576040517f08c379a0000000000000000000000000000000000000000000000000000000008152600401610af5906116e8565b60405180910390fd5b80600160008573ffffffffffffffffffffffffffffffffffffffff1673ffffffffffffffffffffffffffffffffffffffff16815260200190815260200160002060008473ffffffffffffffffffffffffffffffffffffffff1673ffffffffffffffffffffffffffffffffffffffff168152602001908152602001600020819055508173ffffffffffffffffffffffffffffffffffffffff168373ffffffffffffffffffffffffffffffffffffffff167f8c5be1e5ebec7d5bd14f71427d1e84f3dd0314c0f7b2291e5b200ac8c7c3b92583604051610bdc9190611808565b60405180910390a3505050565b6000610bf58484610897565b90507fffffffffffffffffffffffffffffffffffffffffffffffffffffffffffffffff8114610c6f5781811015610c61576040517f08c379a0000000000000000000000000000000000000000000000000000000008152600401610c5890611708565b60405180910390fd5b610c6e8484848403610a1e565b5b50505050565b600073ffffffffffffffffffffffffffffffffffffffff168373ffffffffffffffffffffffffffffffffffffffff161415610ce5576040517f08c379a0000000000000000000000000000000000000000000000000000000008152600401610cdc90611788565b60405180910390fd5b600073ffffffffffffffffffffffffffffffffffffffff168273ffffffffffffffffffffffffffffffffffffffff161415610d55576040517f08c379a0000000000000000000000000000000000000000000000000000000008152600401610d4c90611688565b60405180910390fd5b610d608383836112f3565b60008060008573ffffffffffffffffffffffffffffffffffffffff1673ffffffffffffffffffffffffffffffffffffffff16815260200190815260200160002054905081811015610de6576040517f08c379a0000000000000000000000000000000000000000000000000000000008152600401610ddd90611728565b60405180910390fd5b8181036000808673ffffffffffffffffffffffffffffffffffffffff1673ffffffffffffffffffffffffffffffffffffffff16815260200190815260200160002081905550816000808573ffffffffffffffffffffffffffffffffffffffff1673ffffffffffffffffffffffffffffffffffffffff1681526020019081526020016000206000828254610e79919061185a565b925050819055508273ffffffffffffffffffffffffffffffffffffffff168473ffffffffffffffffffffffffffffffffffffffff167fddf252ad1be2c89b69c2b068fc378daa952ba7f163c4a11628f55a4df523b3ef84604051610edd9190611808565b60405180910390a3610ef08484846112f8565b50505050565b600073ffffffffffffffffffffffffffffffffffffffff168273ffffffffffffffffffffffffffffffffffffffff161415610f66576040517f08c379a0000000000000000000000000000000000000000000000000000000008152600401610f5d906117e8565b60405180910390fd5b610f72600083836112f3565b8060026000828254610f84919061185a565b92505081905550806000808473ffffffffffffffffffffffffffffffffffffffff1673ffffffffffffffffffffffffffffffffffffffff1681526020019081526020016000206000828254610fd9919061185a565b925050819055508173ffffffffffffffffffffffffffffffffffffffff16600073ffffffffffffffffffffffffffffffffffffffff167fddf252ad1be2c89b69c2b068fc378daa952ba7f163c4a11628f55a4df523b3ef8360405161103e9190611808565b60405180910390a3611052600083836112f8565b5050565b6000600560009054906101000a900473ffffffffffffffffffffffffffffffffffffffff16905081600560006101000a81548173ffffffffffffffffffffffffffffffffffffffff021916908373ffffffffffffffffffffffffffffffffffffffff1602179055508173ffffffffffffffffffffffffffffffffffffffff168173ffffffffffffffffffffffffffffffffffffffff167f8be0079c531659141344cd1fd0a4f28419497f9722a3daafe3b4186f6b6457e060405160405180910390a35050565b600073ffffffffffffffffffffffffffffffffffffffff168273ffffffffffffffffffffffffffffffffffffffff16141561118c576040517f08c379a000000000000000000000000000000000000000000000000000000000815260040161118390611768565b60405180910390fd5b611198826000836112f3565b60008060008473ffffffffffffffffffffffffffffffffffffffff1673ffffffffffffffffffffffffffffffffffffffff1681526020019081526020016000205490508181101561121e576040517f08c379a0000000000000000000000000000000000000000000000000000000008152600401611215906116a8565b60405180910390fd5b8181036000808573ffffffffffffffffffffffffffffffffffffffff1673ffffffffffffffffffffffffffffffffffffffff16815260200190815260200160002081905550816002600082825461127591906118b0565b92505081905550600073ffffffffffffffffffffffffffffffffffffffff168373ffffffffffffffffffffffffffffffffffffffff167fddf252ad1be2c89b69c2b068fc378daa952ba7f163c4a11628f55a4df523b3ef846040516112da9190611808565b60405180910390a36112ee836000846112f8565b505050565b505050565b505050565b60008135905061130c81611d4f565b92915050565b60008135905061132181611d66565b92915050565b60006020828403121561133957600080fd5b6000611347848285016112fd565b91505092915050565b6000806040838503121561136357600080fd5b6000611371858286016112fd565b9250506020611382858286016112fd565b9150509250929050565b6000806000606084860312156113a157600080fd5b60006113af868287016112fd565b93505060206113c0868287016112fd565b92505060406113d186828701611312565b9150509250925092565b600080604083850312156113ee57600080fd5b60006113fc858286016112fd565b925050602061140d85828601611312565b9150509250929050565b611420816118e4565b82525050565b61142f816118f6565b82525050565b60006114408261183e565b61144a8185611849565b935061145a818560208601611939565b611463816119fc565b840191505092915050565b600061147b602383611849565b915061148682611a0d565b604082019050919050565b600061149e602283611849565b91506114a982611a5c565b604082019050919050565b60006114c1602683611849565b91506114cc82611aab565b604082019050919050565b60006114e4602283611849565b91506114ef82611afa565b604082019050919050565b6000611507601d83611849565b915061151282611b49565b602082019050919050565b600061152a602683611849565b915061153582611b72565b604082019050919050565b600061154d602083611849565b915061155882611bc1565b602082019050919050565b6000611570602183611849565b915061157b82611bea565b604082019050919050565b6000611593602583611849565b915061159e82611c39565b604082019050919050565b60006115b6602483611849565b91506115c182611c88565b604082019050919050565b60006115d9602583611849565b91506115e482611cd7565b604082019050919050565b60006115fc601f83611849565b915061160782611d26565b602082019050919050565b61161b81611922565b82525050565b61162a8161192c565b82525050565b60006020820190506116456000830184611417565b92915050565b60006020820190506116606000830184611426565b92915050565b600060208201905081810360008301526116808184611435565b905092915050565b600060208201905081810360008301526116a18161146e565b9050919050565b600060208201905081810360008301526116c181611491565b9050919050565b600060208201905081810360008301526116e1816114b4565b9050919050565b60006020820190508181036000830152611701816114d7565b9050919050565b60006020820190508181036000830152611721816114fa565b9050919050565b600060208201905081810360008301526117418161151d565b9050919050565b6000602082019050818103600083015261176181611540565b9050919050565b6000602082019050818103600083015261178181611563565b9050919050565b600060208201905081810360008301526117a181611586565b9050919050565b600060208201905081810360008301526117c1816115a9565b9050919050565b600060208201905081810360008301526117e1816115cc565b9050919050565b60006020820190508181036000830152611801816115ef565b9050919050565b600060208201905061181d6000830184611612565b92915050565b60006020820190506118386000830184611621565b92915050565b600081519050919050565b600082825260208201905092915050565b600061186582611922565b915061187083611922565b9250827fffffffffffffffffffffffffffffffffffffffffffffffffffffffffffffffff038211156118a5576118a461199e565b5b828201905092915050565b60006118bb82611922565b91506118c683611922565b9250828210156118d9576118d861199e565b5b828203905092915050565b60006118ef82611902565b9050919050565b60008115159050919050565b600073ffffffffffffffffffffffffffffffffffffffff82169050919050565b6000819050919050565b600060ff82169050919050565b60005b8381101561195757808201518184015260208101905061193c565b83811115611966576000848401525b50505050565b6000600282049050600182168061198457607f821691505b60208210811415611998576119976119cd565b5b50919050565b7f4e487b7100000000000000000000000000000000000000000000000000000000600052601160045260246000fd5b7f4e487b7100000000000000000000000000000000000000000000000000000000600052602260045260246000fd5b6000601f19601f8301169050919050565b7f45524332303a207472616e7366657220746f20746865207a65726f206164647260008201527f6573730000000000000000000000000000000000000000000000000000000000602082015250565b7f45524332303a206275726e20616d6f756e7420657863656564732062616c616e60008201527f6365000000000000000000000000000000000000000000000000000000000000602082015250565b7f4f776e61626c653a206e6577206f776e657220697320746865207a65726f206160008201527f6464726573730000000000000000000000000000000000000000000000000000602082015250565b7f45524332303a20617070726f766520746f20746865207a65726f20616464726560008201527f7373000000000000000000000000000000000000000000000000000000000000602082015250565b7f45524332303a20696e73756666696369656e7420616c6c6f77616e6365000000600082015250565b7f45524332303a207472616e7366657220616d6f756e742065786365656473206260008201527f616c616e63650000000000000000000000000000000000000000000000000000602082015250565b7f4f776e61626c653a2063616c6c6572206973206e6f7420746865206f776e6572600082015250565b7f45524332303a206275726e2066726f6d20746865207a65726f2061646472657360008201527f7300000000000000000000000000000000000000000000000000000000000000602082015250565b7f45524332303a207472616e736665722066726f6d20746865207a65726f20616460008201527f6472657373000000000000000000000000000000000000000000000000000000602082015250565b7f45524332303a20617070726f76652066726f6d20746865207a65726f2061646460008201527f7265737300000000000000000000000000000000000000000000000000000000602082015250565b7f45524332303a2064656372656173656420616c6c6f77616e63652062656c6f7760008201527f207a65726f000000000000000000000000000000000000000000000000000000602082015250565b7f45524332303a206d696e7420746f20746865207a65726f206164647265737300600082015250565b611d58816118e4565b8114611d6357600080fd5b50565b611d6f81611922565b8114611d7a57600080fd5b5056fea2646970667358221220d99abdc5c7d91bce51e07dc06e2e4a2191f3a70f7e65f021f6804b6092b8178f64736f6c63430008010033608060405260006004553480156200001657600080fd5b506040518060800160405280605a815260200162004941605a913962000042816200008e60201b60201c565b506200006362000057620000aa60201b60201c565b620000b260201b60201c565b620000883360006001604051806020016040528060008152506200017860201b60201c565b62000d86565b8060029080519060200190620000a69291906200063b565b5050565b600033905090565b6000600360009054906101000a900473ffffffffffffffffffffffffffffffffffffffff16905081600360006101000a81548173ffffffffffffffffffffffffffffffffffffffff021916908373ffffffffffffffffffffffffffffffffffffffff1602179055508173ffffffffffffffffffffffffffffffffffffffff168173ffffffffffffffffffffffffffffffffffffffff167f8be0079c531659141344cd1fd0a4f28419497f9722a3daafe3b4186f6b6457e060405160405180910390a35050565b600073ffffffffffffffffffffffffffffffffffffffff168473ffffffffffffffffffffffffffffffffffffffff161415620001eb576040517f08c379a0000000000000000000000000000000000000000000000000000000008152600401620001e29062000913565b60405180910390fd5b6000620001fd620000aa60201b60201c565b9050620002368160008762000218886200033d60201b60201c565b62000229886200033d60201b60201c565b876200040660201b60201c565b8260008086815260200190815260200160002060008773ffffffffffffffffffffffffffffffffffffffff1673ffffffffffffffffffffffffffffffffffffffff1681526020019081526020016000206000828254620002979190620009a4565b925050819055508473ffffffffffffffffffffffffffffffffffffffff16600073ffffffffffffffffffffffffffffffffffffffff168273ffffffffffffffffffffffffffffffffffffffff167fc3d58168c5ae7397731d063d5bbf3d657854427343f4c083240f7aacaa2d0f6287876040516200031792919062000935565b60405180910390a462000336816000878787876200040e60201b60201c565b5050505050565b60606000600167ffffffffffffffff81111562000383577f4e487b7100000000000000000000000000000000000000000000000000000000600052604160045260246000fd5b604051908082528060200260200182016040528015620003b25781602001602082028036833780820191505090505b5090508281600081518110620003f1577f4e487b7100000000000000000000000000000000000000000000000000000000600052603260045260246000fd5b60200260200101818152505080915050919050565b505050505050565b6200043a8473ffffffffffffffffffffffffffffffffffffffff166200061860201b62000efd1760201c565b1562000610578373ffffffffffffffffffffffffffffffffffffffff1663f23a6e6187878686866040518663ffffffff1660e01b81526004016200048395949392919062000847565b602060405180830381600087803b1580156200049e57600080fd5b505af1925050508015620004d257506040513d601f19601f82011682018060405250810190620004cf919062000702565b60015b6200058457620004e162000b9a565b806308c379a01415620005455750620004f962000cca565b8062000506575062000547565b806040517f08c379a00000000000000000000000000000000000000000000000000000000081526004016200053c9190620008ab565b60405180910390fd5b505b6040517f08c379a00000000000000000000000000000000000000000000000000000000081526004016200057b90620008cf565b60405180910390fd5b63f23a6e6160e01b7bffffffffffffffffffffffffffffffffffffffffffffffffffffffff1916817bffffffffffffffffffffffffffffffffffffffffffffffffffffffff1916146200060e576040517f08c379a00000000000000000000000000000000000000000000000000000000081526004016200060590620008f1565b60405180910390fd5b505b505050505050565b6000808273ffffffffffffffffffffffffffffffffffffffff163b119050919050565b828054620006499062000aa1565b90600052602060002090601f0160209004810192826200066d5760008555620006b9565b82601f106200068857805160ff1916838001178555620006b9565b82800160010185558215620006b9579182015b82811115620006b85782518255916020019190600101906200069b565b5b509050620006c89190620006cc565b5090565b5b80821115620006e7576000816000905550600101620006cd565b5090565b600081519050620006fc8162000d6c565b92915050565b6000602082840312156200071557600080fd5b60006200072584828501620006eb565b91505092915050565b620007398162000a01565b82525050565b60006200074c826200096c565b62000758818562000982565b93506200076a81856020860162000a6b565b620007758162000bbf565b840191505092915050565b60006200078d8262000977565b62000799818562000993565b9350620007ab81856020860162000a6b565b620007b68162000bbf565b840191505092915050565b6000620007d060348362000993565b9150620007dd8262000bdd565b604082019050919050565b6000620007f760288362000993565b9150620008048262000c2c565b604082019050919050565b60006200081e60218362000993565b91506200082b8262000c7b565b604082019050919050565b620008418162000a61565b82525050565b600060a0820190506200085e60008301886200072e565b6200086d60208301876200072e565b6200087c604083018662000836565b6200088b606083018562000836565b81810360808301526200089f81846200073f565b90509695505050505050565b60006020820190508181036000830152620008c7818462000780565b905092915050565b60006020820190508181036000830152620008ea81620007c1565b9050919050565b600060208201905081810360008301526200090c81620007e8565b9050919050565b600060208201905081810360008301526200092e816200080f565b9050919050565b60006040820190506200094c600083018562000836565b6200095b602083018462000836565b9392505050565b6000604051905090565b600081519050919050565b600081519050919050565b600082825260208201905092915050565b600082825260208201905092915050565b6000620009b18262000a61565b9150620009be8362000a61565b9250827fffffffffffffffffffffffffffffffffffffffffffffffffffffffffffffffff03821115620009f657620009f562000b0d565b5b828201905092915050565b600062000a0e8262000a41565b9050919050565b60007fffffffff0000000000000000000000000000000000000000000000000000000082169050919050565b600073ffffffffffffffffffffffffffffffffffffffff82169050919050565b6000819050919050565b60005b8381101562000a8b57808201518184015260208101905062000a6e565b8381111562000a9b576000848401525b50505050565b6000600282049050600182168062000aba57607f821691505b6020821081141562000ad15762000ad062000b3c565b5b50919050565b62000ae28262000bbf565b810181811067ffffffffffffffff8211171562000b045762000b0362000b6b565b5b80604052505050565b7f4e487b7100000000000000000000000000000000000000000000000000000000600052601160045260246000fd5b7f4e487b7100000000000000000000000000000000000000000000000000000000600052602260045260246000fd5b7f4e487b7100000000000000000000000000000000000000000000000000000000600052604160045260246000fd5b600060033d111562000bbc5760046000803e62000bb960005162000bd0565b90505b90565b6000601f19601f8301169050919050565b60008160e01c9050919050565b7f455243313135353a207472616e7366657220746f206e6f6e204552433131353560008201527f526563656976657220696d706c656d656e746572000000000000000000000000602082015250565b7f455243313135353a204552433131353552656365697665722072656a6563746560008201527f6420746f6b656e73000000000000000000000000000000000000000000000000602082015250565b7f455243313135353a206d696e7420746f20746865207a65726f2061646472657360008201527f7300000000000000000000000000000000000000000000000000000000000000602082015250565b600060443d101562000cdc5762000d69565b62000ce662000962565b60043d036004823e80513d602482011167ffffffffffffffff8211171562000d1057505062000d69565b808201805167ffffffffffffffff81111562000d30575050505062000d69565b80602083010160043d03850181111562000d4f57505050505062000d69565b62000d608260200185018662000ad7565b82955050505050505b90565b62000d778162000a15565b811462000d8357600080fd5b50565b613bab8062000d966000396000f3fe6080604052600436106101135760003560e01c80634e1273f4116100a0578063a035b1fe11610064578063a035b1fe1461037b578063a22cb465146103a6578063e985e9c5146103cf578063f242432a1461040c578063f2fde38b1461043557610113565b80634e1273f4146102a8578063715018a6146102e55780638da5cb5b146102fc5780638fe423401461032757806391b7f5ed1461035257610113565b8063156e29f6116100e7578063156e29f6146101f857806319ff1d21146102145780631f7fdffa1461023f5780632eb2c2d6146102685780633ccfd60b1461029157610113565b8062fdd58e1461011857806301ffc9a71461015557806302fe5305146101925780630e89341c146101bb575b600080fd5b34801561012457600080fd5b5061013f600480360381019061013a91906127ac565b61045e565b60405161014c91906130bf565b60405180910390f35b34801561016157600080fd5b5061017c600480360381019061017791906128a3565b610527565b6040516101899190612ea2565b60405180910390f35b34801561019e57600080fd5b506101b960048036038101906101b491906128f5565b610609565b005b3480156101c757600080fd5b506101e260048036038101906101dd9190612936565b610691565b6040516101ef9190612ebd565b60405180910390f35b610212600480360381019061020d91906127e8565b6106c2565b005b34801561022057600080fd5b506102296106e2565b6040516102369190612ebd565b60405180910390f35b34801561024b57600080fd5b50610266600480360381019061026191906126c5565b61071f565b005b34801561027457600080fd5b5061028f600480360381019061028a9190612577565b6107ad565b005b34801561029d57600080fd5b506102a661084e565b005b3480156102b457600080fd5b506102cf60048036038101906102ca9190612837565b6109c6565b6040516102dc9190612e49565b60405180910390f35b3480156102f157600080fd5b506102fa610b77565b005b34801561030857600080fd5b50610311610bff565b60405161031e9190612d6c565b60405180910390f35b34801561033357600080fd5b5061033c610c29565b60405161034991906130bf565b60405180910390f35b34801561035e57600080fd5b5061037960048036038101906103749190612936565b610c2e565b005b34801561038757600080fd5b50610390610cb4565b60405161039d91906130bf565b60405180910390f35b3480156103b257600080fd5b506103cd60048036038101906103c89190612770565b610cba565b005b3480156103db57600080fd5b506103f660048036038101906103f1919061253b565b610cd0565b6040516104039190612ea2565b60405180910390f35b34801561041857600080fd5b50610433600480360381019061042e9190612636565b610d64565b005b34801561044157600080fd5b5061045c60048036038101906104579190612512565b610e05565b005b60008073ffffffffffffffffffffffffffffffffffffffff168373ffffffffffffffffffffffffffffffffffffffff1614156104cf576040517f08c379a00000000000000000000000000000000000000000000000000000000081526004016104c690612f1f565b60405180910390fd5b60008083815260200190815260200160002060008473ffffffffffffffffffffffffffffffffffffffff1673ffffffffffffffffffffffffffffffffffffffff16815260200190815260200160002054905092915050565b60007fd9b67a26000000000000000000000000000000000000000000000000000000007bffffffffffffffffffffffffffffffffffffffffffffffffffffffff1916827bffffffffffffffffffffffffffffffffffffffffffffffffffffffff191614806105f257507f0e89341c000000000000000000000000000000000000000000000000000000007bffffffffffffffffffffffffffffffffffffffffffffffffffffffff1916827bffffffffffffffffffffffffffffffffffffffffffffffffffffffff1916145b80610602575061060182610f20565b5b9050919050565b610611610f8a565b73ffffffffffffffffffffffffffffffffffffffff1661062f610bff565b73ffffffffffffffffffffffffffffffffffffffff1614610685576040517f08c379a000000000000000000000000000000000000000000000000000000000815260040161067c9061301f565b60405180910390fd5b61068e81610f92565b50565b606061069c82610fac565b6040516020016106ac9190612d2a565b6040516020818303038152906040529050919050565b6106dd83838360405180602001604052806000815250611159565b505050565b60606040518060400160405280600b81526020017f68656c6c6f20776f726c64000000000000000000000000000000000000000000815250905090565b610727610f8a565b73ffffffffffffffffffffffffffffffffffffffff16610745610bff565b73ffffffffffffffffffffffffffffffffffffffff161461079b576040517f08c379a00000000000000000000000000000000000000000000000000000000081526004016107929061301f565b60405180910390fd5b6107a7848484846112ef565b50505050565b6107b5610f8a565b73ffffffffffffffffffffffffffffffffffffffff168573ffffffffffffffffffffffffffffffffffffffff1614806107fb57506107fa856107f5610f8a565b610cd0565b5b61083a576040517f08c379a000000000000000000000000000000000000000000000000000000000815260040161083190612fbf565b60405180910390fd5b6108478585858585611559565b5050505050565b610856610f8a565b73ffffffffffffffffffffffffffffffffffffffff16610874610bff565b73ffffffffffffffffffffffffffffffffffffffff16146108ca576040517f08c379a00000000000000000000000000000000000000000000000000000000081526004016108c19061301f565b60405180910390fd5b6000471161090d576040517f08c379a000000000000000000000000000000000000000000000000000000000815260040161090490612fff565b60405180910390fd5b600080610918610bff565b73ffffffffffffffffffffffffffffffffffffffff164760405161093b90612d57565b60006040518083038185875af1925050503d8060008114610978576040519150601f19603f3d011682016040523d82523d6000602084013e61097d565b606091505b5091509150816109c2576040517f08c379a00000000000000000000000000000000000000000000000000000000081526004016109b990612f7f565b60405180910390fd5b5050565b60608151835114610a0c576040517f08c379a0000000000000000000000000000000000000000000000000000000008152600401610a039061305f565b60405180910390fd5b6000835167ffffffffffffffff811115610a4f577f4e487b7100000000000000000000000000000000000000000000000000000000600052604160045260246000fd5b604051908082528060200260200182016040528015610a7d5781602001602082028036833780820191505090505b50905060005b8451811015610b6c57610b16858281518110610ac8577f4e487b7100000000000000000000000000000000000000000000000000000000600052603260045260246000fd5b6020026020010151858381518110610b09577f4e487b7100000000000000000000000000000000000000000000000000000000600052603260045260246000fd5b602002602001015161045e565b828281518110610b4f577f4e487b7100000000000000000000000000000000000000000000000000000000600052603260045260246000fd5b60200260200101818152505080610b659061343d565b9050610a83565b508091505092915050565b610b7f610f8a565b73ffffffffffffffffffffffffffffffffffffffff16610b9d610bff565b73ffffffffffffffffffffffffffffffffffffffff1614610bf3576040517f08c379a0000000000000000000000000000000000000000000000000000000008152600401610bea9061301f565b60405180910390fd5b610bfd60006118b9565b565b6000600360009054906101000a900473ffffffffffffffffffffffffffffffffffffffff16905090565b600081565b610c36610f8a565b73ffffffffffffffffffffffffffffffffffffffff16610c54610bff565b73ffffffffffffffffffffffffffffffffffffffff1614610caa576040517f08c379a0000000000000000000000000000000000000000000000000000000008152600401610ca19061301f565b60405180910390fd5b8060048190555050565b60045481565b610ccc610cc5610f8a565b838361197f565b5050565b6000600160008473ffffffffffffffffffffffffffffffffffffffff1673ffffffffffffffffffffffffffffffffffffffff16815260200190815260200160002060008373ffffffffffffffffffffffffffffffffffffffff1673ffffffffffffffffffffffffffffffffffffffff16815260200190815260200160002060009054906101000a900460ff16905092915050565b610d6c610f8a565b73ffffffffffffffffffffffffffffffffffffffff168573ffffffffffffffffffffffffffffffffffffffff161480610db25750610db185610dac610f8a565b610cd0565b5b610df1576040517f08c379a0000000000000000000000000000000000000000000000000000000008152600401610de890612f5f565b60405180910390fd5b610dfe8585858585611aec565b5050505050565b610e0d610f8a565b73ffffffffffffffffffffffffffffffffffffffff16610e2b610bff565b73ffffffffffffffffffffffffffffffffffffffff1614610e81576040517f08c379a0000000000000000000000000000000000000000000000000000000008152600401610e789061301f565b60405180910390fd5b600073ffffffffffffffffffffffffffffffffffffffff168173ffffffffffffffffffffffffffffffffffffffff161415610ef1576040517f08c379a0000000000000000000000000000000000000000000000000000000008152600401610ee890612f3f565b60405180910390fd5b610efa816118b9565b50565b6000808273ffffffffffffffffffffffffffffffffffffffff163b119050919050565b60007f01ffc9a7000000000000000000000000000000000000000000000000000000007bffffffffffffffffffffffffffffffffffffffffffffffffffffffff1916827bffffffffffffffffffffffffffffffffffffffffffffffffffffffff1916149050919050565b600033905090565b8060029080519060200190610fa892919061220a565b5050565b60606000821415610ff4576040518060400160405280600181526020017f30000000000000000000000000000000000000000000000000000000000000008152509050611154565b600082905060005b6000821461102657808061100f9061343d565b915050600a8261101f91906132bf565b9150610ffc565b60008167ffffffffffffffff811115611068577f4e487b7100000000000000000000000000000000000000000000000000000000600052604160045260246000fd5b6040519080825280601f01601f19166020018201604052801561109a5781602001600182028036833780820191505090505b5090505b6000851461114d576001826110b391906132f0565b9150600a856110c29190613486565b60306110ce9190613269565b60f81b81838151811061110a577f4e487b7100000000000000000000000000000000000000000000000000000000600052603260045260246000fd5b60200101907effffffffffffffffffffffffffffffffffffffffffffffffffffffffffffff1916908160001a905350600a8561114691906132bf565b945061109e565b8093505050505b919050565b600073ffffffffffffffffffffffffffffffffffffffff168473ffffffffffffffffffffffffffffffffffffffff1614156111c9576040517f08c379a00000000000000000000000000000000000000000000000000000000081526004016111c09061309f565b60405180910390fd5b60006111d3610f8a565b90506111f4816000876111e588611d6e565b6111ee88611d6e565b87611e34565b8260008086815260200190815260200160002060008773ffffffffffffffffffffffffffffffffffffffff1673ffffffffffffffffffffffffffffffffffffffff16815260200190815260200160002060008282546112539190613269565b925050819055508473ffffffffffffffffffffffffffffffffffffffff16600073ffffffffffffffffffffffffffffffffffffffff168273ffffffffffffffffffffffffffffffffffffffff167fc3d58168c5ae7397731d063d5bbf3d657854427343f4c083240f7aacaa2d0f6287876040516112d19291906130da565b60405180910390a46112e881600087878787611e3c565b5050505050565b600073ffffffffffffffffffffffffffffffffffffffff168473ffffffffffffffffffffffffffffffffffffffff16141561135f576040517f08c379a00000000000000000000000000000000000000000000000000000000081526004016113569061309f565b60405180910390fd5b81518351146113a3576040517f08c379a000000000000000000000000000000000000000000000000000000000815260040161139a9061307f565b60405180910390fd5b60006113ad610f8a565b90506113be81600087878787611e34565b60005b84518110156114c357838181518110611403577f4e487b7100000000000000000000000000000000000000000000000000000000600052603260045260246000fd5b6020026020010151600080878481518110611447577f4e487b7100000000000000000000000000000000000000000000000000000000600052603260045260246000fd5b6020026020010151815260200190815260200160002060008873ffffffffffffffffffffffffffffffffffffffff1673ffffffffffffffffffffffffffffffffffffffff16815260200190815260200160002060008282546114a99190613269565b9250508190555080806114bb9061343d565b9150506113c1565b508473ffffffffffffffffffffffffffffffffffffffff16600073ffffffffffffffffffffffffffffffffffffffff168273ffffffffffffffffffffffffffffffffffffffff167f4a39dc06d4c0dbc64b70af90fd698a233a518aa5d07e595d983b8c0526c8f7fb878760405161153b929190612e6b565b60405180910390a461155281600087878787612023565b5050505050565b815183511461159d576040517f08c379a00000000000000000000000000000000000000000000000000000000081526004016115949061307f565b60405180910390fd5b600073ffffffffffffffffffffffffffffffffffffffff168473ffffffffffffffffffffffffffffffffffffffff16141561160d576040517f08c379a000000000000000000000000000000000000000000000000000000000815260040161160490612f9f565b60405180910390fd5b6000611617610f8a565b9050611627818787878787611e34565b60005b845181101561182457600085828151811061166e577f4e487b7100000000000000000000000000000000000000000000000000000000600052603260045260246000fd5b6020026020010151905060008583815181106116b3577f4e487b7100000000000000000000000000000000000000000000000000000000600052603260045260246000fd5b60200260200101519050600080600084815260200190815260200160002060008b73ffffffffffffffffffffffffffffffffffffffff1673ffffffffffffffffffffffffffffffffffffffff16815260200190815260200160002054905081811015611754576040517f08c379a000000000000000000000000000000000000000000000000000000000815260040161174b90612fdf565b60405180910390fd5b81810360008085815260200190815260200160002060008c73ffffffffffffffffffffffffffffffffffffffff1673ffffffffffffffffffffffffffffffffffffffff168152602001908152602001600020819055508160008085815260200190815260200160002060008b73ffffffffffffffffffffffffffffffffffffffff1673ffffffffffffffffffffffffffffffffffffffff16815260200190815260200160002060008282546118099190613269565b925050819055505050508061181d9061343d565b905061162a565b508473ffffffffffffffffffffffffffffffffffffffff168673ffffffffffffffffffffffffffffffffffffffff168273ffffffffffffffffffffffffffffffffffffffff167f4a39dc06d4c0dbc64b70af90fd698a233a518aa5d07e595d983b8c0526c8f7fb878760405161189b929190612e6b565b60405180910390a46118b1818787878787612023565b505050505050565b6000600360009054906101000a900473ffffffffffffffffffffffffffffffffffffffff16905081600360006101000a81548173ffffffffffffffffffffffffffffffffffffffff021916908373ffffffffffffffffffffffffffffffffffffffff1602179055508173ffffffffffffffffffffffffffffffffffffffff168173ffffffffffffffffffffffffffffffffffffffff167f8be0079c531659141344cd1fd0a4f28419497f9722a3daafe3b4186f6b6457e060405160405180910390a35050565b8173ffffffffffffffffffffffffffffffffffffffff168373ffffffffffffffffffffffffffffffffffffffff1614156119ee576040517f08c379a00000000000000000000000000000000000000000000000000000000081526004016119e59061303f565b60405180910390fd5b80600160008573ffffffffffffffffffffffffffffffffffffffff1673ffffffffffffffffffffffffffffffffffffffff16815260200190815260200160002060008473ffffffffffffffffffffffffffffffffffffffff1673ffffffffffffffffffffffffffffffffffffffff16815260200190815260200160002060006101000a81548160ff0219169083151502179055508173ffffffffffffffffffffffffffffffffffffffff168373ffffffffffffffffffffffffffffffffffffffff167f17307eab39ab6107e8899845ad3d59bd9653f200f220920489ca2b5937696c3183604051611adf9190612ea2565b60405180910390a3505050565b600073ffffffffffffffffffffffffffffffffffffffff168473ffffffffffffffffffffffffffffffffffffffff161415611b5c576040517f08c379a0000000000000000000000000000000000000000000000000000000008152600401611b5390612f9f565b60405180910390fd5b6000611b66610f8a565b9050611b86818787611b7788611d6e565b611b8088611d6e565b87611e34565b600080600086815260200190815260200160002060008873ffffffffffffffffffffffffffffffffffffffff1673ffffffffffffffffffffffffffffffffffffffff16815260200190815260200160002054905083811015611c1d576040517f08c379a0000000000000000000000000000000000000000000000000000000008152600401611c1490612fdf565b60405180910390fd5b83810360008087815260200190815260200160002060008973ffffffffffffffffffffffffffffffffffffffff1673ffffffffffffffffffffffffffffffffffffffff168152602001908152602001600020819055508360008087815260200190815260200160002060008873ffffffffffffffffffffffffffffffffffffffff1673ffffffffffffffffffffffffffffffffffffffff1681526020019081526020016000206000828254611cd29190613269565b925050819055508573ffffffffffffffffffffffffffffffffffffffff168773ffffffffffffffffffffffffffffffffffffffff168373ffffffffffffffffffffffffffffffffffffffff167fc3d58168c5ae7397731d063d5bbf3d657854427343f4c083240f7aacaa2d0f628888604051611d4f9291906130da565b60405180910390a4611d65828888888888611e3c565b50505050505050565b60606000600167ffffffffffffffff811115611db3577f4e487b7100000000000000000000000000000000000000000000000000000000600052604160045260246000fd5b604051908082528060200260200182016040528015611de15781602001602082028036833780820191505090505b5090508281600081518110611e1f577f4e487b7100000000000000000000000000000000000000000000000000000000600052603260045260246000fd5b60200260200101818152505080915050919050565b505050505050565b611e5b8473ffffffffffffffffffffffffffffffffffffffff16610efd565b1561201b578373ffffffffffffffffffffffffffffffffffffffff1663f23a6e6187878686866040518663ffffffff1660e01b8152600401611ea1959493929190612def565b602060405180830381600087803b158015611ebb57600080fd5b505af1925050508015611eec57506040513d601f19601f82011682018060405250810190611ee991906128cc565b60015b611f9257611ef8613573565b806308c379a01415611f555750611f0d613a83565b80611f185750611f57565b806040517f08c379a0000000000000000000000000000000000000000000000000000000008152600401611f4c9190612ebd565b60405180910390fd5b505b6040517f08c379a0000000000000000000000000000000000000000000000000000000008152600401611f8990612edf565b60405180910390fd5b63f23a6e6160e01b7bffffffffffffffffffffffffffffffffffffffffffffffffffffffff1916817bffffffffffffffffffffffffffffffffffffffffffffffffffffffff191614612019576040517f08c379a000000000000000000000000000000000000000000000000000000000815260040161201090612eff565b60405180910390fd5b505b505050505050565b6120428473ffffffffffffffffffffffffffffffffffffffff16610efd565b15612202578373ffffffffffffffffffffffffffffffffffffffff1663bc197c8187878686866040518663ffffffff1660e01b8152600401612088959493929190612d87565b602060405180830381600087803b1580156120a257600080fd5b505af19250505080156120d357506040513d601f19601f820116820180604052508101906120d091906128cc565b60015b612179576120df613573565b806308c379a0141561213c57506120f4613a83565b806120ff575061213e565b806040517f08c379a00000000000000000000000000000000000000000000000000000000081526004016121339190612ebd565b60405180910390fd5b505b6040517f08c379a000000000000000000000000000000000000000000000000000000000815260040161217090612edf565b60405180910390fd5b63bc197c8160e01b7bffffffffffffffffffffffffffffffffffffffffffffffffffffffff1916817bffffffffffffffffffffffffffffffffffffffffffffffffffffffff191614612200576040517f08c379a00000000000000000000000000000000000000000000000000000000081526004016121f790612eff565b60405180910390fd5b505b505050505050565b828054612216906133da565b90600052602060002090601f016020900481019282612238576000855561227f565b82601f1061225157805160ff191683800117855561227f565b8280016001018555821561227f579182015b8281111561227e578251825591602001919060010190612263565b5b50905061228c9190612290565b5090565b5b808211156122a9576000816000905550600101612291565b5090565b60006122c06122bb84613128565b613103565b905080838252602082019050828560208602820111156122df57600080fd5b60005b8581101561230f57816122f58882612401565b8452602084019350602083019250506001810190506122e2565b5050509392505050565b600061232c61232784613154565b613103565b9050808382526020820190508285602086028201111561234b57600080fd5b60005b8581101561237b578161236188826124fd565b84526020840193506020830192505060018101905061234e565b5050509392505050565b600061239861239384613180565b613103565b9050828152602081018484840111156123b057600080fd5b6123bb848285613398565b509392505050565b60006123d66123d1846131b1565b613103565b9050828152602081018484840111156123ee57600080fd5b6123f9848285613398565b509392505050565b60008135905061241081613b19565b92915050565b600082601f83011261242757600080fd5b81356124378482602086016122ad565b91505092915050565b600082601f83011261245157600080fd5b8135612461848260208601612319565b91505092915050565b60008135905061247981613b30565b92915050565b60008135905061248e81613b47565b92915050565b6000815190506124a381613b47565b92915050565b600082601f8301126124ba57600080fd5b81356124ca848260208601612385565b91505092915050565b600082601f8301126124e457600080fd5b81356124f48482602086016123c3565b91505092915050565b60008135905061250c81613b5e565b92915050565b60006020828403121561252457600080fd5b600061253284828501612401565b91505092915050565b6000806040838503121561254e57600080fd5b600061255c85828601612401565b925050602061256d85828601612401565b9150509250929050565b600080600080600060a0868803121561258f57600080fd5b600061259d88828901612401565b95505060206125ae88828901612401565b945050604086013567ffffffffffffffff8111156125cb57600080fd5b6125d788828901612440565b935050606086013567ffffffffffffffff8111156125f457600080fd5b61260088828901612440565b925050608086013567ffffffffffffffff81111561261d57600080fd5b612629888289016124a9565b9150509295509295909350565b600080600080600060a0868803121561264e57600080fd5b600061265c88828901612401565b955050602061266d88828901612401565b945050604061267e888289016124fd565b935050606061268f888289016124fd565b925050608086013567ffffffffffffffff8111156126ac57600080fd5b6126b8888289016124a9565b9150509295509295909350565b600080600080608085870312156126db57600080fd5b60006126e987828801612401565b945050602085013567ffffffffffffffff81111561270657600080fd5b61271287828801612440565b935050604085013567ffffffffffffffff81111561272f57600080fd5b61273b87828801612440565b925050606085013567ffffffffffffffff81111561275857600080fd5b612764878288016124a9565b91505092959194509250565b6000806040838503121561278357600080fd5b600061279185828601612401565b92505060206127a28582860161246a565b9150509250929050565b600080604083850312156127bf57600080fd5b60006127cd85828601612401565b92505060206127de858286016124fd565b9150509250929050565b6000806000606084860312156127fd57600080fd5b600061280b86828701612401565b935050602061281c868287016124fd565b925050604061282d868287016124fd565b9150509250925092565b6000806040838503121561284a57600080fd5b600083013567ffffffffffffffff81111561286457600080fd5b61287085828601612416565b925050602083013567ffffffffffffffff81111561288d57600080fd5b61289985828601612440565b9150509250929050565b6000602082840312156128b557600080fd5b60006128c38482850161247f565b91505092915050565b6000602082840312156128de57600080fd5b60006128ec84828501612494565b91505092915050565b60006020828403121561290757600080fd5b600082013567ffffffffffffffff81111561292157600080fd5b61292d848285016124d3565b91505092915050565b60006020828403121561294857600080fd5b6000612956848285016124fd565b91505092915050565b600061296b8383612d0c565b60208301905092915050565b61298081613324565b82525050565b6000612991826131f2565b61299b8185613220565b93506129a6836131e2565b8060005b838110156129d75781516129be888261295f565b97506129c983613213565b9250506001810190506129aa565b5085935050505092915050565b6129ed81613336565b82525050565b60006129fe826131fd565b612a088185613231565b9350612a188185602086016133a7565b612a2181613595565b840191505092915050565b6000612a3782613208565b612a41818561324d565b9350612a518185602086016133a7565b612a5a81613595565b840191505092915050565b6000612a7082613208565b612a7a818561325e565b9350612a8a8185602086016133a7565b80840191505092915050565b6000612aa360348361324d565b9150612aae826135b3565b604082019050919050565b6000612ac660288361324d565b9150612ad182613602565b604082019050919050565b6000612ae9602b8361324d565b9150612af482613651565b604082019050919050565b6000612b0c60268361324d565b9150612b17826136a0565b604082019050919050565b6000612b2f60298361324d565b9150612b3a826136ef565b604082019050919050565b6000612b5260518361325e565b9150612b5d8261373e565b605182019050919050565b6000612b7560148361324d565b9150612b80826137b3565b602082019050919050565b6000612b9860258361324d565b9150612ba3826137dc565b604082019050919050565b6000612bbb60328361324d565b9150612bc68261382b565b604082019050919050565b6000612bde602a8361324d565b9150612be98261387a565b604082019050919050565b6000612c01600c8361324d565b9150612c0c826138c9565b602082019050919050565b6000612c2460058361325e565b9150612c2f826138f2565b600582019050919050565b6000612c4760208361324d565b9150612c528261391b565b602082019050919050565b6000612c6a600083613242565b9150612c7582613944565b600082019050919050565b6000612c8d60298361324d565b9150612c9882613947565b604082019050919050565b6000612cb060298361324d565b9150612cbb82613996565b604082019050919050565b6000612cd360288361324d565b9150612cde826139e5565b604082019050919050565b6000612cf660218361324d565b9150612d0182613a34565b604082019050919050565b612d158161338e565b82525050565b612d248161338e565b82525050565b6000612d3582612b45565b9150612d418284612a65565b9150612d4c82612c17565b915081905092915050565b6000612d6282612c5d565b9150819050919050565b6000602082019050612d816000830184612977565b92915050565b600060a082019050612d9c6000830188612977565b612da96020830187612977565b8181036040830152612dbb8186612986565b90508181036060830152612dcf8185612986565b90508181036080830152612de381846129f3565b90509695505050505050565b600060a082019050612e046000830188612977565b612e116020830187612977565b612e1e6040830186612d1b565b612e2b6060830185612d1b565b8181036080830152612e3d81846129f3565b90509695505050505050565b60006020820190508181036000830152612e638184612986565b905092915050565b60006040820190508181036000830152612e858185612986565b90508181036020830152612e998184612986565b90509392505050565b6000602082019050612eb760008301846129e4565b92915050565b60006020820190508181036000830152612ed78184612a2c565b905092915050565b60006020820190508181036000830152612ef881612a96565b9050919050565b60006020820190508181036000830152612f1881612ab9565b9050919050565b60006020820190508181036000830152612f3881612adc565b9050919050565b60006020820190508181036000830152612f5881612aff565b9050919050565b60006020820190508181036000830152612f7881612b22565b9050919050565b60006020820190508181036000830152612f9881612b68565b9050919050565b60006020820190508181036000830152612fb881612b8b565b9050919050565b60006020820190508181036000830152612fd881612bae565b9050919050565b60006020820190508181036000830152612ff881612bd1565b9050919050565b6000602082019050818103600083015261301881612bf4565b9050919050565b6000602082019050818103600083015261303881612c3a565b9050919050565b6000602082019050818103600083015261305881612c80565b9050919050565b6000602082019050818103600083015261307881612ca3565b9050919050565b6000602082019050818103600083015261309881612cc6565b9050919050565b600060208201905081810360008301526130b881612ce9565b9050919050565b60006020820190506130d46000830184612d1b565b92915050565b60006040820190506130ef6000830185612d1b565b6130fc6020830184612d1b565b9392505050565b600061310d61311e565b9050613119828261340c565b919050565b6000604051905090565b600067ffffffffffffffff82111561314357613142613544565b5b602082029050602081019050919050565b600067ffffffffffffffff82111561316f5761316e613544565b5b602082029050602081019050919050565b600067ffffffffffffffff82111561319b5761319a613544565b5b6131a482613595565b9050602081019050919050565b600067ffffffffffffffff8211156131cc576131cb613544565b5b6131d582613595565b9050602081019050919050565b6000819050602082019050919050565b600081519050919050565b600081519050919050565b600081519050919050565b6000602082019050919050565b600082825260208201905092915050565b600082825260208201905092915050565b600081905092915050565b600082825260208201905092915050565b600081905092915050565b60006132748261338e565b915061327f8361338e565b9250827fffffffffffffffffffffffffffffffffffffffffffffffffffffffffffffffff038211156132b4576132b36134b7565b5b828201905092915050565b60006132ca8261338e565b91506132d58361338e565b9250826132e5576132e46134e6565b5b828204905092915050565b60006132fb8261338e565b91506133068361338e565b925082821015613319576133186134b7565b5b828203905092915050565b600061332f8261336e565b9050919050565b60008115159050919050565b60007fffffffff0000000000000000000000000000000000000000000000000000000082169050919050565b600073ffffffffffffffffffffffffffffffffffffffff82169050919050565b6000819050919050565b82818337600083830152505050565b60005b838110156133c55780820151818401526020810190506133aa565b838111156133d4576000848401525b50505050565b600060028204905060018216806133f257607f821691505b6020821081141561340657613405613515565b5b50919050565b61341582613595565b810181811067ffffffffffffffff8211171561343457613433613544565b5b80604052505050565b60006134488261338e565b91507fffffffffffffffffffffffffffffffffffffffffffffffffffffffffffffffff82141561347b5761347a6134b7565b5b600182019050919050565b60006134918261338e565b915061349c8361338e565b9250826134ac576134ab6134e6565b5b828206905092915050565b7f4e487b7100000000000000000000000000000000000000000000000000000000600052601160045260246000fd5b7f4e487b7100000000000000000000000000000000000000000000000000000000600052601260045260246000fd5b7f4e487b7100000000000000000000000000000000000000000000000000000000600052602260045260246000fd5b7f4e487b7100000000000000000000000000000000000000000000000000000000600052604160045260246000fd5b600060033d11156135925760046000803e61358f6000516135a6565b90505b90565b6000601f19601f8301169050919050565b60008160e01c9050919050565b7f455243313135353a207472616e7366657220746f206e6f6e204552433131353560008201527f526563656976657220696d706c656d656e746572000000000000000000000000602082015250565b7f455243313135353a204552433131353552656365697665722072656a6563746560008201527f6420746f6b656e73000000000000000000000000000000000000000000000000602082015250565b7f455243313135353a2062616c616e636520717565727920666f7220746865207a60008201527f65726f2061646472657373000000000000000000000000000000000000000000602082015250565b7f4f776e61626c653a206e6577206f776e657220697320746865207a65726f206160008201527f6464726573730000000000000000000000000000000000000000000000000000602082015250565b7f455243313135353a2063616c6c6572206973206e6f74206f776e6572206e6f7260008201527f20617070726f7665640000000000000000000000000000000000000000000000602082015250565b7f68747470733a2f2f676174657761792e70696e6174612e636c6f75642f69706660008201527f732f516d62364d444e434b415257436658646f425248416968615a63364a387460208201527f79655750435a6f783861774b5a394a312f000000000000000000000000000000604082015250565b7f4661696c656420746f2073656e64204574686572000000000000000000000000600082015250565b7f455243313135353a207472616e7366657220746f20746865207a65726f20616460008201527f6472657373000000000000000000000000000000000000000000000000000000602082015250565b7f455243313135353a207472616e736665722063616c6c6572206973206e6f742060008201527f6f776e6572206e6f7220617070726f7665640000000000000000000000000000602082015250565b7f455243313135353a20696e73756666696369656e742062616c616e636520666f60008201527f72207472616e7366657200000000000000000000000000000000000000000000602082015250565b7f42616c616e636520697320300000000000000000000000000000000000000000600082015250565b7f2e6a736f6e000000000000000000000000000000000000000000000000000000600082015250565b7f4f776e61626c653a2063616c6c6572206973206e6f7420746865206f776e6572600082015250565b50565b7f455243313135353a2073657474696e6720617070726f76616c2073746174757360008201527f20666f722073656c660000000000000000000000000000000000000000000000602082015250565b7f455243313135353a206163636f756e747320616e6420696473206c656e67746860008201527f206d69736d617463680000000000000000000000000000000000000000000000602082015250565b7f455243313135353a2069647320616e6420616d6f756e7473206c656e6774682060008201527f6d69736d61746368000000000000000000000000000000000000000000000000602082015250565b7f455243313135353a206d696e7420746f20746865207a65726f2061646472657360008201527f7300000000000000000000000000000000000000000000000000000000000000602082015250565b600060443d1015613a9357613b16565b613a9b61311e565b60043d036004823e80513d602482011167ffffffffffffffff82111715613ac3575050613b16565b808201805167ffffffffffffffff811115613ae15750505050613b16565b80602083010160043d038501811115613afe575050505050613b16565b613b0d8260200185018661340c565b82955050505050505b90565b613b2281613324565b8114613b2d57600080fd5b50565b613b3981613336565b8114613b4457600080fd5b50565b613b5081613342565b8114613b5b57600080fd5b50565b613b678161338e565b8114613b7257600080fd5b5056fea2646970667358221220a70819ad57b46707a80a098a0e9108c204c861ffc14aa8a58425979e3d364b2f64736f6c6343000801003368747470733a2f2f676174657761792e70696e6174612e636c6f75642f697066732f516d62364d444e434b415257436658646f425248416968615a63364a387479655750435a6f783861774b5a394a312f7b69647d2e6a736f6e608060405234801561001057600080fd5b50611389806100206000396000f3fe608060405234801561001057600080fd5b50600436106100885760003560e01c8063a230c5241161005b578063a230c52414610125578063b1cb54ad14610155578063d8f72b3414610173578063eb6e50171461018f57610088565b80635f6b45691461008d57806380cee8a5146100bd5780638110a800146100d957806395867cdd14610109575b600080fd5b6100a760048036038101906100a29190610fa1565b6101ab565b6040516100b491906110f7565b60405180910390f35b6100d760048036038101906100d29190610f3c565b6101f9565b005b6100f360048036038101906100ee9190610f65565b61039b565b604051610100919061114f565b60405180910390f35b610123600480360381019061011e9190610fdd565b6103ca565b005b61013f600480360381019061013a9190610f3c565b610446565b60405161014c9190611134565b60405180910390f35b61015d610466565b60405161016a9190611112565b60405180910390f35b61018d60048036038101906101889190610fdd565b610531565b005b6101a960048036038101906101a49190610f3c565b6105ad565b005b600260205281600052604060002081815481106101c757600080fd5b906000526020600020016000915091509054906101000a900473ffffffffffffffffffffffffffffffffffffffff1681565b6000600160003373ffffffffffffffffffffffffffffffffffffffff1673ffffffffffffffffffffffffffffffffffffffff16815260200190815260200160002060008373ffffffffffffffffffffffffffffffffffffffff1673ffffffffffffffffffffffffffffffffffffffff16815260200190815260200160002060006101000a81548160ff021916908360028111156102bf577f4e487b7100000000000000000000000000000000000000000000000000000000600052602160045260246000fd5b02179055506000600160008373ffffffffffffffffffffffffffffffffffffffff1673ffffffffffffffffffffffffffffffffffffffff16815260200190815260200160002060003373ffffffffffffffffffffffffffffffffffffffff1673ffffffffffffffffffffffffffffffffffffffff16815260200190815260200160002060006101000a81548160ff0219169083600281111561038a577f4e487b7100000000000000000000000000000000000000000000000000000000600052602160045260246000fd5b021790555061039881610992565b50565b60016020528160005260406000206020528060005260406000206000915091509054906101000a900460ff1681565b60005b828290508110156104415761042e838383818110610414577f4e487b7100000000000000000000000000000000000000000000000000000000600052603260045260246000fd5b90506020020160208101906104299190610f3c565b6105ad565b808061043990611241565b9150506103cd565b505050565b60006020528060005260406000206000915054906101000a900460ff1681565b6060600260003373ffffffffffffffffffffffffffffffffffffffff1673ffffffffffffffffffffffffffffffffffffffff16815260200190815260200160002080548060200260200160405190810160405280929190818152602001828054801561052757602002820191906000526020600020905b8160009054906101000a900473ffffffffffffffffffffffffffffffffffffffff1673ffffffffffffffffffffffffffffffffffffffff16815260200190600101908083116104dd575b5050505050905090565b60005b828290508110156105a85761059583838381811061057b577f4e487b7100000000000000000000000000000000000000000000000000000000600052603260045260246000fd5b90506020020160208101906105909190610f3c565b6101f9565b80806105a090611241565b915050610534565b505050565b803373ffffffffffffffffffffffffffffffffffffffff168173ffffffffffffffffffffffffffffffffffffffff16141561061d576040517f08c379a00000000000000000000000000000000000000000000000000000000081526004016106149061116a565b60405180910390fd5b60006002811115610657577f4e487b7100000000000000000000000000000000000000000000000000000000600052602160045260246000fd5b600160008473ffffffffffffffffffffffffffffffffffffffff1673ffffffffffffffffffffffffffffffffffffffff16815260200190815260200160002060003373ffffffffffffffffffffffffffffffffffffffff1673ffffffffffffffffffffffffffffffffffffffff16815260200190815260200160002060009054906101000a900460ff166002811115610719577f4e487b7100000000000000000000000000000000000000000000000000000000600052602160045260246000fd5b14156107ee5760018060003373ffffffffffffffffffffffffffffffffffffffff1673ffffffffffffffffffffffffffffffffffffffff16815260200190815260200160002060008473ffffffffffffffffffffffffffffffffffffffff1673ffffffffffffffffffffffffffffffffffffffff16815260200190815260200160002060006101000a81548160ff021916908360028111156107e4577f4e487b7100000000000000000000000000000000000000000000000000000000600052602160045260246000fd5b021790555061098e565b6002600160003373ffffffffffffffffffffffffffffffffffffffff1673ffffffffffffffffffffffffffffffffffffffff16815260200190815260200160002060008473ffffffffffffffffffffffffffffffffffffffff1673ffffffffffffffffffffffffffffffffffffffff16815260200190815260200160002060006101000a81548160ff021916908360028111156108b4577f4e487b7100000000000000000000000000000000000000000000000000000000600052602160045260246000fd5b02179055506002600160008473ffffffffffffffffffffffffffffffffffffffff1673ffffffffffffffffffffffffffffffffffffffff16815260200190815260200160002060003373ffffffffffffffffffffffffffffffffffffffff1673ffffffffffffffffffffffffffffffffffffffff16815260200190815260200160002060006101000a81548160ff0219169083600281111561097f577f4e487b7100000000000000000000000000000000000000000000000000000000600052602160045260246000fd5b021790555061098d82610d85565b5b5050565b60005b600260003373ffffffffffffffffffffffffffffffffffffffff1673ffffffffffffffffffffffffffffffffffffffff16815260200190815260200160002080549050811015610d81578173ffffffffffffffffffffffffffffffffffffffff16600260003373ffffffffffffffffffffffffffffffffffffffff1673ffffffffffffffffffffffffffffffffffffffff1681526020019081526020016000208281548110610a6d577f4e487b7100000000000000000000000000000000000000000000000000000000600052603260045260246000fd5b9060005260206000200160009054906101000a900473ffffffffffffffffffffffffffffffffffffffff1673ffffffffffffffffffffffffffffffffffffffff161415610d6e576000600260003373ffffffffffffffffffffffffffffffffffffffff1673ffffffffffffffffffffffffffffffffffffffff1681526020019081526020016000208281548110610b2d577f4e487b7100000000000000000000000000000000000000000000000000000000600052603260045260246000fd5b9060005260206000200160006101000a81548173ffffffffffffffffffffffffffffffffffffffff021916908373ffffffffffffffffffffffffffffffffffffffff16021790555060005b600260008473ffffffffffffffffffffffffffffffffffffffff1673ffffffffffffffffffffffffffffffffffffffff16815260200190815260200160002080549050811015610d6c573373ffffffffffffffffffffffffffffffffffffffff16600260008573ffffffffffffffffffffffffffffffffffffffff1673ffffffffffffffffffffffffffffffffffffffff1681526020019081526020016000208381548110610c50577f4e487b7100000000000000000000000000000000000000000000000000000000600052603260045260246000fd5b9060005260206000200160009054906101000a900473ffffffffffffffffffffffffffffffffffffffff1673ffffffffffffffffffffffffffffffffffffffff161415610d59576000600260008573ffffffffffffffffffffffffffffffffffffffff1673ffffffffffffffffffffffffffffffffffffffff1681526020019081526020016000208381548110610d10577f4e487b7100000000000000000000000000000000000000000000000000000000600052603260045260246000fd5b9060005260206000200160006101000a81548173ffffffffffffffffffffffffffffffffffffffff021916908373ffffffffffffffffffffffffffffffffffffffff1602179055505b8080610d6490611241565b915050610b78565b505b8080610d7990611241565b915050610995565b5050565b600260003373ffffffffffffffffffffffffffffffffffffffff1673ffffffffffffffffffffffffffffffffffffffff168152602001908152602001600020819080600181540180825580915050600190039060005260206000200160009091909190916101000a81548173ffffffffffffffffffffffffffffffffffffffff021916908373ffffffffffffffffffffffffffffffffffffffff160217905550600260008273ffffffffffffffffffffffffffffffffffffffff1673ffffffffffffffffffffffffffffffffffffffff168152602001908152602001600020339080600181540180825580915050600190039060005260206000200160009091909190916101000a81548173ffffffffffffffffffffffffffffffffffffffff021916908373ffffffffffffffffffffffffffffffffffffffff16021790555050565b600081359050610ed781611325565b92915050565b60008083601f840112610eef57600080fd5b8235905067ffffffffffffffff811115610f0857600080fd5b602083019150836020820283011115610f2057600080fd5b9250929050565b600081359050610f368161133c565b92915050565b600060208284031215610f4e57600080fd5b6000610f5c84828501610ec8565b91505092915050565b60008060408385031215610f7857600080fd5b6000610f8685828601610ec8565b9250506020610f9785828601610ec8565b9150509250929050565b60008060408385031215610fb457600080fd5b6000610fc285828601610ec8565b9250506020610fd385828601610f27565b9150509250929050565b60008060208385031215610ff057600080fd5b600083013567ffffffffffffffff81111561100a57600080fd5b61101685828601610edd565b92509250509250929050565b600061102e838361103a565b60208301905092915050565b611043816111d4565b82525050565b611052816111d4565b82525050565b60006110638261119a565b61106d81856111b2565b93506110788361118a565b8060005b838110156110a95781516110908882611022565b975061109b836111a5565b92505060018101905061107c565b5085935050505092915050565b6110bf816111e6565b82525050565b6110ce8161122f565b82525050565b60006110e16015836111c3565b91506110ec826112e8565b602082019050919050565b600060208201905061110c6000830184611049565b92915050565b6000602082019050818103600083015261112c8184611058565b905092915050565b600060208201905061114960008301846110b6565b92915050565b600060208201905061116460008301846110c5565b92915050565b60006020820190508181036000830152611183816110d4565b9050919050565b6000819050602082019050919050565b600081519050919050565b6000602082019050919050565b600082825260208201905092915050565b600082825260208201905092915050565b60006111df82611205565b9050919050565b60008115159050919050565b600081905061120082611311565b919050565b600073ffffffffffffffffffffffffffffffffffffffff82169050919050565b6000819050919050565b600061123a826111f2565b9050919050565b600061124c82611225565b91507fffffffffffffffffffffffffffffffffffffffffffffffffffffffffffffffff82141561127f5761127e61128a565b5b600182019050919050565b7f4e487b7100000000000000000000000000000000000000000000000000000000600052601160045260246000fd5b7f4e487b7100000000000000000000000000000000000000000000000000000000600052602160045260246000fd5b7f43616e277420667269656e6420796f757273656c660000000000000000000000600082015250565b60038110611322576113216112b9565b5b50565b61132e816111d4565b811461133957600080fd5b50565b61134581611225565b811461135057600080fd5b5056fea2646970667358221220cacf5d5b493e9d6b69a4eb05acbd9c25019cb72159eed9024c18a801948cd6dc64736f6c63430008010033",
  "linkReferences": {},
  "deployedLinkReferences": {}
}