{
  "_format": "hh-sol-artifact-1",
  "contractName": "Social",
  "sourceName": "contracts/Social.sol",
  "abi": [
    {
      "inputs": [
        {
          "internalType": "address",
          "name": "",
          "type": "address"
        },
        {
          "internalType": "address",
          "name": "",
          "type": "address"
        }
      ],
      "name": "areFriends",
      "outputs": [
        {
          "internalType": "enum Social.Friend",
          "name": "",
          "type": "uint8"
        }
      ],
      "stateMutability": "view",
      "type": "function"
    },
    {
      "inputs": [
        {
          "internalType": "address",
          "name": "",
          "type": "address"
        },
        {
          "internalType": "uint256",
          "name": "",
          "type": "uint256"
        }
      ],
      "name": "friendsList",
      "outputs": [
        {
          "internalType": "address",
          "name": "",
          "type": "address"
        }
      ],
      "stateMutability": "view",
      "type": "function"
    },
    {
      "inputs": [
        {
          "internalType": "address",
          "name": "",
          "type": "address"
        }
      ],
      "name": "isMember",
      "outputs": [
        {
          "internalType": "bool",
          "name": "",
          "type": "bool"
        }
      ],
      "stateMutability": "view",
      "type": "function"
    },
    {
      "inputs": [
        {
          "internalType": "address",
          "name": "addr",
          "type": "address"
        }
      ],
      "name": "registerFriend",
      "outputs": [],
      "stateMutability": "nonpayable",
      "type": "function"
    },
    {
      "inputs": [
        {
          "internalType": "address[]",
          "name": "addrs",
          "type": "address[]"
        }
      ],
      "name": "registerFriends",
      "outputs": [],
      "stateMutability": "nonpayable",
      "type": "function"
    },
    {
      "inputs": [
        {
          "internalType": "address",
          "name": "addr",
          "type": "address"
        }
      ],
      "name": "removeFriend",
      "outputs": [],
      "stateMutability": "nonpayable",
      "type": "function"
    },
    {
      "inputs": [
        {
          "internalType": "address[]",
          "name": "addrs",
          "type": "address[]"
        }
      ],
      "name": "removeFriends",
      "outputs": [],
      "stateMutability": "nonpayable",
      "type": "function"
    },
    {
      "inputs": [],
      "name": "returnFriends",
      "outputs": [
        {
          "internalType": "address[]",
          "name": "",
          "type": "address[]"
        }
      ],
      "stateMutability": "view",
      "type": "function"
    }
  ],
  "bytecode": "0x608060405234801561001057600080fd5b50611389806100206000396000f3fe608060405234801561001057600080fd5b50600436106100885760003560e01c8063a230c5241161005b578063a230c52414610125578063b1cb54ad14610155578063d8f72b3414610173578063eb6e50171461018f57610088565b80635f6b45691461008d57806380cee8a5146100bd5780638110a800146100d957806395867cdd14610109575b600080fd5b6100a760048036038101906100a29190610fa1565b6101ab565b6040516100b491906110f7565b60405180910390f35b6100d760048036038101906100d29190610f3c565b6101f9565b005b6100f360048036038101906100ee9190610f65565b61039b565b604051610100919061114f565b60405180910390f35b610123600480360381019061011e9190610fdd565b6103ca565b005b61013f600480360381019061013a9190610f3c565b610446565b60405161014c9190611134565b60405180910390f35b61015d610466565b60405161016a9190611112565b60405180910390f35b61018d60048036038101906101889190610fdd565b610531565b005b6101a960048036038101906101a49190610f3c565b6105ad565b005b600260205281600052604060002081815481106101c757600080fd5b906000526020600020016000915091509054906101000a900473ffffffffffffffffffffffffffffffffffffffff1681565b6000600160003373ffffffffffffffffffffffffffffffffffffffff1673ffffffffffffffffffffffffffffffffffffffff16815260200190815260200160002060008373ffffffffffffffffffffffffffffffffffffffff1673ffffffffffffffffffffffffffffffffffffffff16815260200190815260200160002060006101000a81548160ff021916908360028111156102bf577f4e487b7100000000000000000000000000000000000000000000000000000000600052602160045260246000fd5b02179055506000600160008373ffffffffffffffffffffffffffffffffffffffff1673ffffffffffffffffffffffffffffffffffffffff16815260200190815260200160002060003373ffffffffffffffffffffffffffffffffffffffff1673ffffffffffffffffffffffffffffffffffffffff16815260200190815260200160002060006101000a81548160ff0219169083600281111561038a577f4e487b7100000000000000000000000000000000000000000000000000000000600052602160045260246000fd5b021790555061039881610992565b50565b60016020528160005260406000206020528060005260406000206000915091509054906101000a900460ff1681565b60005b828290508110156104415761042e838383818110610414577f4e487b7100000000000000000000000000000000000000000000000000000000600052603260045260246000fd5b90506020020160208101906104299190610f3c565b6105ad565b808061043990611241565b9150506103cd565b505050565b60006020528060005260406000206000915054906101000a900460ff1681565b6060600260003373ffffffffffffffffffffffffffffffffffffffff1673ffffffffffffffffffffffffffffffffffffffff16815260200190815260200160002080548060200260200160405190810160405280929190818152602001828054801561052757602002820191906000526020600020905b8160009054906101000a900473ffffffffffffffffffffffffffffffffffffffff1673ffffffffffffffffffffffffffffffffffffffff16815260200190600101908083116104dd575b5050505050905090565b60005b828290508110156105a85761059583838381811061057b577f4e487b7100000000000000000000000000000000000000000000000000000000600052603260045260246000fd5b90506020020160208101906105909190610f3c565b6101f9565b80806105a090611241565b915050610534565b505050565b803373ffffffffffffffffffffffffffffffffffffffff168173ffffffffffffffffffffffffffffffffffffffff16141561061d576040517f08c379a00000000000000000000000000000000000000000000000000000000081526004016106149061116a565b60405180910390fd5b60006002811115610657577f4e487b7100000000000000000000000000000000000000000000000000000000600052602160045260246000fd5b600160008473ffffffffffffffffffffffffffffffffffffffff1673ffffffffffffffffffffffffffffffffffffffff16815260200190815260200160002060003373ffffffffffffffffffffffffffffffffffffffff1673ffffffffffffffffffffffffffffffffffffffff16815260200190815260200160002060009054906101000a900460ff166002811115610719577f4e487b7100000000000000000000000000000000000000000000000000000000600052602160045260246000fd5b14156107ee5760018060003373ffffffffffffffffffffffffffffffffffffffff1673ffffffffffffffffffffffffffffffffffffffff16815260200190815260200160002060008473ffffffffffffffffffffffffffffffffffffffff1673ffffffffffffffffffffffffffffffffffffffff16815260200190815260200160002060006101000a81548160ff021916908360028111156107e4577f4e487b7100000000000000000000000000000000000000000000000000000000600052602160045260246000fd5b021790555061098e565b6002600160003373ffffffffffffffffffffffffffffffffffffffff1673ffffffffffffffffffffffffffffffffffffffff16815260200190815260200160002060008473ffffffffffffffffffffffffffffffffffffffff1673ffffffffffffffffffffffffffffffffffffffff16815260200190815260200160002060006101000a81548160ff021916908360028111156108b4577f4e487b7100000000000000000000000000000000000000000000000000000000600052602160045260246000fd5b02179055506002600160008473ffffffffffffffffffffffffffffffffffffffff1673ffffffffffffffffffffffffffffffffffffffff16815260200190815260200160002060003373ffffffffffffffffffffffffffffffffffffffff1673ffffffffffffffffffffffffffffffffffffffff16815260200190815260200160002060006101000a81548160ff0219169083600281111561097f577f4e487b7100000000000000000000000000000000000000000000000000000000600052602160045260246000fd5b021790555061098d82610d85565b5b5050565b60005b600260003373ffffffffffffffffffffffffffffffffffffffff1673ffffffffffffffffffffffffffffffffffffffff16815260200190815260200160002080549050811015610d81578173ffffffffffffffffffffffffffffffffffffffff16600260003373ffffffffffffffffffffffffffffffffffffffff1673ffffffffffffffffffffffffffffffffffffffff1681526020019081526020016000208281548110610a6d577f4e487b7100000000000000000000000000000000000000000000000000000000600052603260045260246000fd5b9060005260206000200160009054906101000a900473ffffffffffffffffffffffffffffffffffffffff1673ffffffffffffffffffffffffffffffffffffffff161415610d6e576000600260003373ffffffffffffffffffffffffffffffffffffffff1673ffffffffffffffffffffffffffffffffffffffff1681526020019081526020016000208281548110610b2d577f4e487b7100000000000000000000000000000000000000000000000000000000600052603260045260246000fd5b9060005260206000200160006101000a81548173ffffffffffffffffffffffffffffffffffffffff021916908373ffffffffffffffffffffffffffffffffffffffff16021790555060005b600260008473ffffffffffffffffffffffffffffffffffffffff1673ffffffffffffffffffffffffffffffffffffffff16815260200190815260200160002080549050811015610d6c573373ffffffffffffffffffffffffffffffffffffffff16600260008573ffffffffffffffffffffffffffffffffffffffff1673ffffffffffffffffffffffffffffffffffffffff1681526020019081526020016000208381548110610c50577f4e487b7100000000000000000000000000000000000000000000000000000000600052603260045260246000fd5b9060005260206000200160009054906101000a900473ffffffffffffffffffffffffffffffffffffffff1673ffffffffffffffffffffffffffffffffffffffff161415610d59576000600260008573ffffffffffffffffffffffffffffffffffffffff1673ffffffffffffffffffffffffffffffffffffffff1681526020019081526020016000208381548110610d10577f4e487b7100000000000000000000000000000000000000000000000000000000600052603260045260246000fd5b9060005260206000200160006101000a81548173ffffffffffffffffffffffffffffffffffffffff021916908373ffffffffffffffffffffffffffffffffffffffff1602179055505b8080610d6490611241565b915050610b78565b505b8080610d7990611241565b915050610995565b5050565b600260003373ffffffffffffffffffffffffffffffffffffffff1673ffffffffffffffffffffffffffffffffffffffff168152602001908152602001600020819080600181540180825580915050600190039060005260206000200160009091909190916101000a81548173ffffffffffffffffffffffffffffffffffffffff021916908373ffffffffffffffffffffffffffffffffffffffff160217905550600260008273ffffffffffffffffffffffffffffffffffffffff1673ffffffffffffffffffffffffffffffffffffffff168152602001908152602001600020339080600181540180825580915050600190039060005260206000200160009091909190916101000a81548173ffffffffffffffffffffffffffffffffffffffff021916908373ffffffffffffffffffffffffffffffffffffffff16021790555050565b600081359050610ed781611325565b92915050565b60008083601f840112610eef57600080fd5b8235905067ffffffffffffffff811115610f0857600080fd5b602083019150836020820283011115610f2057600080fd5b9250929050565b600081359050610f368161133c565b92915050565b600060208284031215610f4e57600080fd5b6000610f5c84828501610ec8565b91505092915050565b60008060408385031215610f7857600080fd5b6000610f8685828601610ec8565b9250506020610f9785828601610ec8565b9150509250929050565b60008060408385031215610fb457600080fd5b6000610fc285828601610ec8565b9250506020610fd385828601610f27565b9150509250929050565b60008060208385031215610ff057600080fd5b600083013567ffffffffffffffff81111561100a57600080fd5b61101685828601610edd565b92509250509250929050565b600061102e838361103a565b60208301905092915050565b611043816111d4565b82525050565b611052816111d4565b82525050565b60006110638261119a565b61106d81856111b2565b93506110788361118a565b8060005b838110156110a95781516110908882611022565b975061109b836111a5565b92505060018101905061107c565b5085935050505092915050565b6110bf816111e6565b82525050565b6110ce8161122f565b82525050565b60006110e16015836111c3565b91506110ec826112e8565b602082019050919050565b600060208201905061110c6000830184611049565b92915050565b6000602082019050818103600083015261112c8184611058565b905092915050565b600060208201905061114960008301846110b6565b92915050565b600060208201905061116460008301846110c5565b92915050565b60006020820190508181036000830152611183816110d4565b9050919050565b6000819050602082019050919050565b600081519050919050565b6000602082019050919050565b600082825260208201905092915050565b600082825260208201905092915050565b60006111df82611205565b9050919050565b60008115159050919050565b600081905061120082611311565b919050565b600073ffffffffffffffffffffffffffffffffffffffff82169050919050565b6000819050919050565b600061123a826111f2565b9050919050565b600061124c82611225565b91507fffffffffffffffffffffffffffffffffffffffffffffffffffffffffffffffff82141561127f5761127e61128a565b5b600182019050919050565b7f4e487b7100000000000000000000000000000000000000000000000000000000600052601160045260246000fd5b7f4e487b7100000000000000000000000000000000000000000000000000000000600052602160045260246000fd5b7f43616e277420667269656e6420796f757273656c660000000000000000000000600082015250565b60038110611322576113216112b9565b5b50565b61132e816111d4565b811461133957600080fd5b50565b61134581611225565b811461135057600080fd5b5056fea2646970667358221220cacf5d5b493e9d6b69a4eb05acbd9c25019cb72159eed9024c18a801948cd6dc64736f6c63430008010033",
  "linkReferences": {},
  "deployedLinkReferences": {}
}