{
  "_format": "hh-sol-artifact-1",
  "contractName": "Social",
  "sourceName": "contracts/Social.sol",
  "abi": [
    {
      "inputs": [
        {
          "internalType": "address",
          "name": "",
          "type": "address"
        },
        {
          "internalType": "address",
          "name": "",
          "type": "address"
        }
      ],
      "name": "areFriends",
      "outputs": [
        {
          "internalType": "enum Social.Friend",
          "name": "",
          "type": "uint8"
        }
      ],
      "stateMutability": "view",
      "type": "function"
    },
    {
      "inputs": [
        {
          "internalType": "address",
          "name": "",
          "type": "address"
        }
      ],
      "name": "isMember",
      "outputs": [
        {
          "internalType": "bool",
          "name": "",
          "type": "bool"
        }
      ],
      "stateMutability": "view",
      "type": "function"
    },
    {
      "inputs": [],
      "name": "register",
      "outputs": [],
      "stateMutability": "nonpayable",
      "type": "function"
    },
    {
      "inputs": [
        {
          "internalType": "address",
          "name": "addr",
          "type": "address"
        }
      ],
      "name": "registerFriend",
      "outputs": [],
      "stateMutability": "nonpayable",
      "type": "function"
    },
    {
      "inputs": [
        {
          "internalType": "address[]",
          "name": "addrs",
          "type": "address[]"
        }
      ],
      "name": "registerFriends",
      "outputs": [],
      "stateMutability": "nonpayable",
      "type": "function"
    },
    {
      "inputs": [
        {
          "internalType": "address",
          "name": "addr",
          "type": "address"
        }
      ],
      "name": "removeFriend",
      "outputs": [],
      "stateMutability": "nonpayable",
      "type": "function"
    },
    {
      "inputs": [
        {
          "internalType": "address[]",
          "name": "addrs",
          "type": "address[]"
        }
      ],
      "name": "removeFriends",
      "outputs": [],
      "stateMutability": "nonpayable",
      "type": "function"
    }
  ],
  "bytecode": "0x608060405234801561001057600080fd5b50610e42806100206000396000f3fe608060405234801561001057600080fd5b506004361061007d5760003560e01c806395867cdd1161005b57806395867cdd146100d8578063a230c524146100f4578063d8f72b3414610124578063eb6e5017146101405761007d565b80631aa3a0081461008257806380cee8a51461008c5780638110a800146100a8575b600080fd5b61008a61015c565b005b6100a660048036038101906100a19190610a7a565b610241565b005b6100c260048036038101906100bd9190610aa3565b610465565b6040516100cf9190610bc6565b60405180910390f35b6100f260048036038101906100ed9190610adf565b610494565b005b61010e60048036038101906101099190610a7a565b610518565b60405161011b9190610bab565b60405180910390f35b61013e60048036038101906101399190610adf565b610538565b005b61015a60048036038101906101559190610a7a565b6105b4565b005b6000803373ffffffffffffffffffffffffffffffffffffffff1673ffffffffffffffffffffffffffffffffffffffff16815260200190815260200160002060009054906101000a900460ff16156101e8576040517f08c379a00000000000000000000000000000000000000000000000000000000081526004016101df90610be1565b60405180910390fd5b60016000803373ffffffffffffffffffffffffffffffffffffffff1673ffffffffffffffffffffffffffffffffffffffff16815260200190815260200160002060006101000a81548160ff021916908315150217905550565b6000803373ffffffffffffffffffffffffffffffffffffffff1673ffffffffffffffffffffffffffffffffffffffff16815260200190815260200160002060009054906101000a900460ff166102cc576040517f08c379a00000000000000000000000000000000000000000000000000000000081526004016102c390610c21565b60405180910390fd5b6000600160003373ffffffffffffffffffffffffffffffffffffffff1673ffffffffffffffffffffffffffffffffffffffff16815260200190815260200160002060008373ffffffffffffffffffffffffffffffffffffffff1673ffffffffffffffffffffffffffffffffffffffff16815260200190815260200160002060006101000a81548160ff02191690836002811115610392577f4e487b7100000000000000000000000000000000000000000000000000000000600052602160045260246000fd5b02179055506000600160008373ffffffffffffffffffffffffffffffffffffffff1673ffffffffffffffffffffffffffffffffffffffff16815260200190815260200160002060003373ffffffffffffffffffffffffffffffffffffffff1673ffffffffffffffffffffffffffffffffffffffff16815260200190815260200160002060006101000a81548160ff0219169083600281111561045d577f4e487b7100000000000000000000000000000000000000000000000000000000600052602160045260246000fd5b021790555050565b60016020528160005260406000206020528060005260406000206000915091509054906101000a900460ff1681565b61049c61015c565b60005b82829050811015610513576105008383838181106104e6577f4e487b7100000000000000000000000000000000000000000000000000000000600052603260045260246000fd5b90506020020160208101906104fb9190610a7a565b6105b4565b808061050b90610cbf565b91505061049f565b505050565b60006020528060005260406000206000915054906101000a900460ff1681565b60005b828290508110156105af5761059c838383818110610582577f4e487b7100000000000000000000000000000000000000000000000000000000600052603260045260246000fd5b90506020020160208101906105979190610a7a565b610241565b80806105a790610cbf565b91505061053b565b505050565b6000803373ffffffffffffffffffffffffffffffffffffffff1673ffffffffffffffffffffffffffffffffffffffff16815260200190815260200160002060009054906101000a900460ff1661063f576040517f08c379a000000000000000000000000000000000000000000000000000000000815260040161063690610c21565b60405180910390fd5b803373ffffffffffffffffffffffffffffffffffffffff168173ffffffffffffffffffffffffffffffffffffffff1614156106af576040517f08c379a00000000000000000000000000000000000000000000000000000000081526004016106a690610c01565b60405180910390fd5b600060028111156106e9577f4e487b7100000000000000000000000000000000000000000000000000000000600052602160045260246000fd5b600160008473ffffffffffffffffffffffffffffffffffffffff1673ffffffffffffffffffffffffffffffffffffffff16815260200190815260200160002060003373ffffffffffffffffffffffffffffffffffffffff1673ffffffffffffffffffffffffffffffffffffffff16815260200190815260200160002060009054906101000a900460ff1660028111156107ab577f4e487b7100000000000000000000000000000000000000000000000000000000600052602160045260246000fd5b14156108805760018060003373ffffffffffffffffffffffffffffffffffffffff1673ffffffffffffffffffffffffffffffffffffffff16815260200190815260200160002060008473ffffffffffffffffffffffffffffffffffffffff1673ffffffffffffffffffffffffffffffffffffffff16815260200190815260200160002060006101000a81548160ff02191690836002811115610876577f4e487b7100000000000000000000000000000000000000000000000000000000600052602160045260246000fd5b0217905550610a17565b6002600160003373ffffffffffffffffffffffffffffffffffffffff1673ffffffffffffffffffffffffffffffffffffffff16815260200190815260200160002060008473ffffffffffffffffffffffffffffffffffffffff1673ffffffffffffffffffffffffffffffffffffffff16815260200190815260200160002060006101000a81548160ff02191690836002811115610946577f4e487b7100000000000000000000000000000000000000000000000000000000600052602160045260246000fd5b02179055506002600160008473ffffffffffffffffffffffffffffffffffffffff1673ffffffffffffffffffffffffffffffffffffffff16815260200190815260200160002060003373ffffffffffffffffffffffffffffffffffffffff1673ffffffffffffffffffffffffffffffffffffffff16815260200190815260200160002060006101000a81548160ff02191690836002811115610a11577f4e487b7100000000000000000000000000000000000000000000000000000000600052602160045260246000fd5b02179055505b5050565b600081359050610a2a81610df5565b92915050565b60008083601f840112610a4257600080fd5b8235905067ffffffffffffffff811115610a5b57600080fd5b602083019150836020820283011115610a7357600080fd5b9250929050565b600060208284031215610a8c57600080fd5b6000610a9a84828501610a1b565b91505092915050565b60008060408385031215610ab657600080fd5b6000610ac485828601610a1b565b9250506020610ad585828601610a1b565b9150509250929050565b60008060208385031215610af257600080fd5b600083013567ffffffffffffffff811115610b0c57600080fd5b610b1885828601610a30565b92509250509250929050565b610b2d81610c64565b82525050565b610b3c81610cad565b82525050565b6000610b4f601783610c41565b9150610b5a82610d66565b602082019050919050565b6000610b72601583610c41565b9150610b7d82610d8f565b602082019050919050565b6000610b95600c83610c41565b9150610ba082610db8565b602082019050919050565b6000602082019050610bc06000830184610b24565b92915050565b6000602082019050610bdb6000830184610b33565b92915050565b60006020820190508181036000830152610bfa81610b42565b9050919050565b60006020820190508181036000830152610c1a81610b65565b9050919050565b60006020820190508181036000830152610c3a81610b88565b9050919050565b600082825260208201905092915050565b6000610c5d82610c83565b9050919050565b60008115159050919050565b6000819050610c7e82610de1565b919050565b600073ffffffffffffffffffffffffffffffffffffffff82169050919050565b6000819050919050565b6000610cb882610c70565b9050919050565b6000610cca82610ca3565b91507fffffffffffffffffffffffffffffffffffffffffffffffffffffffffffffffff821415610cfd57610cfc610d08565b5b600182019050919050565b7f4e487b7100000000000000000000000000000000000000000000000000000000600052601160045260246000fd5b7f4e487b7100000000000000000000000000000000000000000000000000000000600052602160045260246000fd5b7f596f7527726520616c72656164792061206d656d626572000000000000000000600082015250565b7f43616e277420667269656e6420796f757273656c660000000000000000000000600082015250565b7f4e6f742061206d656d6265720000000000000000000000000000000000000000600082015250565b60038110610df257610df1610d37565b5b50565b610dfe81610c52565b8114610e0957600080fd5b5056fea26469706673582212205924f2e0e7e59ab11c6bde8b8c0a785f077b4353f8544c82b77a7e83c29e625164736f6c63430008010033",
  "linkReferences": {},
  "deployedLinkReferences": {}
}